{
  "_format": "hh-sol-artifact-1",
  "contractName": "ICOComments",
  "sourceName": "contracts/ICOComments.sol",
  "abi": [
    {
      "inputs": [
        {
          "internalType": "address",
          "name": "user",
          "type": "address"
        },
        {
          "internalType": "string",
          "name": "message",
          "type": "string"
        },
        {
          "internalType": "address",
          "name": "ico",
          "type": "address"
        }
      ],
      "name": "comment",
      "outputs": [],
      "stateMutability": "nonpayable",
      "type": "function"
    },
    {
      "inputs": [
        {
          "internalType": "uint256",
          "name": "id",
          "type": "uint256"
        }
      ],
      "name": "getComment",
      "outputs": [
        {
          "components": [
            {
              "internalType": "uint256",
              "name": "commentId",
              "type": "uint256"
            },
            {
              "internalType": "address",
              "name": "commentator",
              "type": "address"
            },
            {
              "internalType": "string",
              "name": "message",
              "type": "string"
            },
            {
              "internalType": "address",
              "name": "ico",
              "type": "address"
            },
            {
              "internalType": "uint256",
              "name": "parentCommentId",
              "type": "uint256"
            }
          ],
          "internalType": "struct ICOComments.ICOComment",
          "name": "",
          "type": "tuple"
        }
      ],
      "stateMutability": "view",
      "type": "function"
    },
    {
      "inputs": [
        {
          "internalType": "address",
          "name": "ico",
          "type": "address"
        }
      ],
      "name": "getComments",
      "outputs": [
        {
          "components": [
            {
              "internalType": "uint256",
              "name": "commentId",
              "type": "uint256"
            },
            {
              "internalType": "address",
              "name": "commentator",
              "type": "address"
            },
            {
              "internalType": "string",
              "name": "message",
              "type": "string"
            },
            {
              "internalType": "address",
              "name": "ico",
              "type": "address"
            },
            {
              "internalType": "uint256",
              "name": "parentCommentId",
              "type": "uint256"
            }
          ],
          "internalType": "struct ICOComments.ICOComment[]",
          "name": "",
          "type": "tuple[]"
        }
      ],
      "stateMutability": "view",
      "type": "function"
    },
    {
      "inputs": [
        {
          "internalType": "uint256",
          "name": "commentId",
          "type": "uint256"
        }
      ],
      "name": "getNumberOfReplies",
      "outputs": [
        {
          "internalType": "uint256",
          "name": "",
          "type": "uint256"
        }
      ],
      "stateMutability": "view",
      "type": "function"
    },
    {
      "inputs": [
        {
          "internalType": "uint256",
          "name": "commentId",
          "type": "uint256"
        }
      ],
      "name": "getReplies",
      "outputs": [
        {
          "components": [
            {
              "internalType": "uint256",
              "name": "commentId",
              "type": "uint256"
            },
            {
              "internalType": "address",
              "name": "commentator",
              "type": "address"
            },
            {
              "internalType": "string",
              "name": "message",
              "type": "string"
            },
            {
              "internalType": "address",
              "name": "ico",
              "type": "address"
            },
            {
              "internalType": "uint256",
              "name": "parentCommentId",
              "type": "uint256"
            }
          ],
          "internalType": "struct ICOComments.ICOComment[]",
          "name": "",
          "type": "tuple[]"
        }
      ],
      "stateMutability": "view",
      "type": "function"
    },
    {
      "inputs": [
        {
          "internalType": "address",
          "name": "user",
          "type": "address"
        },
        {
          "internalType": "string",
          "name": "message",
          "type": "string"
        },
        {
          "internalType": "uint256",
          "name": "parentCommentId",
          "type": "uint256"
        },
        {
          "internalType": "address",
          "name": "ico",
          "type": "address"
        }
      ],
      "name": "reply",
      "outputs": [],
      "stateMutability": "nonpayable",
      "type": "function"
    }
  ],
  "bytecode": "0x608060405234801561001057600080fd5b50600160008190555061178e806100286000396000f3fe608060405234801561001057600080fd5b50600436106100625760003560e01c80630800e3001461006757806317fe375f1461009757806368b67eed146100c757806372373741146100f7578063ae58449d14610113578063d820e65514610143575b600080fd5b610081600480360381019061007c9190611148565b61015f565b60405161008e9190611437565b60405180910390f35b6100b160048036038101906100ac9190611033565b6102de565b6040516100be91906113b5565b60405180910390f35b6100e160048036038101906100dc9190611148565b6106b1565b6040516100ee9190611459565b60405180910390f35b610111600480360381019061010c919061105c565b61075a565b005b61012d60048036038101906101289190611148565b61093c565b60405161013a91906113b5565b60405180910390f35b61015d600480360381019061015891906110c8565b610c77565b005b610167610ec1565b600260008381526020019081526020016000206040518060a0016040529081600082015481526020016001820160009054906101000a900473ffffffffffffffffffffffffffffffffffffffff1673ffffffffffffffffffffffffffffffffffffffff1673ffffffffffffffffffffffffffffffffffffffff1681526020016002820180546101f59061159f565b80601f01602080910402602001604051908101604052809291908181526020018280546102219061159f565b801561026e5780601f106102435761010080835404028352916020019161026e565b820191906000526020600020905b81548152906001019060200180831161025157829003601f168201915b505050505081526020016003820160009054906101000a900473ffffffffffffffffffffffffffffffffffffffff1673ffffffffffffffffffffffffffffffffffffffff1673ffffffffffffffffffffffffffffffffffffffff1681526020016004820154815250509050919050565b606060006102ec6001610e9d565b9050600080600190505b8281116103a7578473ffffffffffffffffffffffffffffffffffffffff166002600083815260200190815260200160002060030160009054906101000a900473ffffffffffffffffffffffffffffffffffffffff1673ffffffffffffffffffffffffffffffffffffffff16148015610384575060006002600083815260200190815260200160002060040154145b156103965781610393906115d1565b91505b806103a0906115d1565b90506102f6565b5060008167ffffffffffffffff8111156103ea577f4e487b7100000000000000000000000000000000000000000000000000000000600052604160045260246000fd5b60405190808252806020026020018201604052801561042357816020015b610410610ec1565b8152602001906001900390816104085790505b509050600080600190505b8481116106a4578673ffffffffffffffffffffffffffffffffffffffff166002600083815260200190815260200160002060030160009054906101000a900473ffffffffffffffffffffffffffffffffffffffff1673ffffffffffffffffffffffffffffffffffffffff161480156104bc575060006002600083815260200190815260200160002060040154145b156106915760008190506000600260008381526020019081526020016000206040518060a0016040529081600082015481526020016001820160009054906101000a900473ffffffffffffffffffffffffffffffffffffffff1673ffffffffffffffffffffffffffffffffffffffff1673ffffffffffffffffffffffffffffffffffffffff1681526020016002820180546105569061159f565b80601f01602080910402602001604051908101604052809291908181526020018280546105829061159f565b80156105cf5780601f106105a4576101008083540402835291602001916105cf565b820191906000526020600020905b8154815290600101906020018083116105b257829003601f168201915b505050505081526020016003820160009054906101000a900473ffffffffffffffffffffffffffffffffffffffff1673ffffffffffffffffffffffffffffffffffffffff1673ffffffffffffffffffffffffffffffffffffffff168152602001600482015481525050905080858581518110610674577f4e487b7100000000000000000000000000000000000000000000000000000000600052603260045260246000fd5b602002602001018190525060018461068c91906114da565b935050505b808061069c906115d1565b91505061042e565b5081945050505050919050565b6000808214156106f6576040517f08c379a00000000000000000000000000000000000000000000000000000000081526004016106ed906113d7565b60405180910390fd5b60006107026001610e9d565b9050600080600190505b82811161074f57846002600083815260200190815260200160002060040154141561073e578161073b906115d1565b91505b80610748906115d1565b905061070c565b508092505050919050565b600260005414156107a0576040517f08c379a000000000000000000000000000000000000000000000000000000000815260040161079790611417565b60405180910390fd5b60026000819055506107b26001610eab565b60006107be6001610e9d565b90506040518060a001604052808281526020018673ffffffffffffffffffffffffffffffffffffffff16815260200185858080601f016020809104026020016040519081016040528093929190818152602001838380828437600081840152601f19601f8201169050808301925050505050505081526020018373ffffffffffffffffffffffffffffffffffffffff1681526020016000815250600260008381526020019081526020016000206000820151816000015560208201518160010160006101000a81548173ffffffffffffffffffffffffffffffffffffffff021916908373ffffffffffffffffffffffffffffffffffffffff16021790555060408201518160020190805190602001906108d8929190610f1c565b5060608201518160030160006101000a81548173ffffffffffffffffffffffffffffffffffffffff021916908373ffffffffffffffffffffffffffffffffffffffff1602179055506080820151816004015590505050600160008190555050505050565b60606000821415610982576040517f08c379a0000000000000000000000000000000000000000000000000000000008152600401610979906113d7565b60405180910390fd5b600061098e6001610e9d565b9050600080600190505b8281116109db5784600260008381526020019081526020016000206004015414156109ca57816109c7906115d1565b91505b806109d4906115d1565b9050610998565b5060008167ffffffffffffffff811115610a1e577f4e487b7100000000000000000000000000000000000000000000000000000000600052604160045260246000fd5b604051908082528060200260200182016040528015610a5757816020015b610a44610ec1565b815260200190600190039081610a3c5790505b509050600080600190505b848111610c6a578660026000838152602001908152602001600020600401541415610c575760008190506000600260008381526020019081526020016000206040518060a0016040529081600082015481526020016001820160009054906101000a900473ffffffffffffffffffffffffffffffffffffffff1673ffffffffffffffffffffffffffffffffffffffff1673ffffffffffffffffffffffffffffffffffffffff168152602001600282018054610b1c9061159f565b80601f0160208091040260200160405190810160405280929190818152602001828054610b489061159f565b8015610b955780601f10610b6a57610100808354040283529160200191610b95565b820191906000526020600020905b815481529060010190602001808311610b7857829003601f168201915b505050505081526020016003820160009054906101000a900473ffffffffffffffffffffffffffffffffffffffff1673ffffffffffffffffffffffffffffffffffffffff1673ffffffffffffffffffffffffffffffffffffffff168152602001600482015481525050905080858581518110610c3a577f4e487b7100000000000000000000000000000000000000000000000000000000600052603260045260246000fd5b6020026020010181905250600184610c5291906114da565b935050505b8080610c62906115d1565b915050610a62565b5081945050505050919050565b60026000541415610cbd576040517f08c379a0000000000000000000000000000000000000000000000000000000008152600401610cb490611417565b60405180910390fd5b60026000819055506000821415610d09576040517f08c379a0000000000000000000000000000000000000000000000000000000008152600401610d00906113f7565b60405180910390fd5b610d136001610eab565b6000610d1f6001610e9d565b90506040518060a001604052808281526020018773ffffffffffffffffffffffffffffffffffffffff16815260200186868080601f016020809104026020016040519081016040528093929190818152602001838380828437600081840152601f19601f8201169050808301925050505050505081526020018373ffffffffffffffffffffffffffffffffffffffff16815260200184815250600260008381526020019081526020016000206000820151816000015560208201518160010160006101000a81548173ffffffffffffffffffffffffffffffffffffffff021916908373ffffffffffffffffffffffffffffffffffffffff1602179055506040820151816002019080519060200190610e38929190610f1c565b5060608201518160030160006101000a81548173ffffffffffffffffffffffffffffffffffffffff021916908373ffffffffffffffffffffffffffffffffffffffff160217905550608082015181600401559050505060016000819055505050505050565b600081600001549050919050565b6001816000016000828254019250508190555050565b6040518060a0016040528060008152602001600073ffffffffffffffffffffffffffffffffffffffff16815260200160608152602001600073ffffffffffffffffffffffffffffffffffffffff168152602001600081525090565b828054610f289061159f565b90600052602060002090601f016020900481019282610f4a5760008555610f91565b82601f10610f6357805160ff1916838001178555610f91565b82800160010185558215610f91579182015b82811115610f90578251825591602001919060010190610f75565b5b509050610f9e9190610fa2565b5090565b5b80821115610fbb576000816000905550600101610fa3565b5090565b600081359050610fce8161172a565b92915050565b60008083601f840112610fe657600080fd5b8235905067ffffffffffffffff811115610fff57600080fd5b60208301915083600182028301111561101757600080fd5b9250929050565b60008135905061102d81611741565b92915050565b60006020828403121561104557600080fd5b600061105384828501610fbf565b91505092915050565b6000806000806060858703121561107257600080fd5b600061108087828801610fbf565b945050602085013567ffffffffffffffff81111561109d57600080fd5b6110a987828801610fd4565b935093505060406110bc87828801610fbf565b91505092959194509250565b6000806000806000608086880312156110e057600080fd5b60006110ee88828901610fbf565b955050602086013567ffffffffffffffff81111561110b57600080fd5b61111788828901610fd4565b9450945050604061112a8882890161101e565b925050606061113b88828901610fbf565b9150509295509295909350565b60006020828403121561115a57600080fd5b60006111688482850161101e565b91505092915050565b600061117d83836112ab565b905092915050565b61118e81611530565b82525050565b600061119f82611484565b6111a981856114a7565b9350836020820285016111bb85611474565b8060005b858110156111f757848403895281516111d88582611171565b94506111e38361149a565b925060208a019950506001810190506111bf565b50829750879550505050505092915050565b60006112148261148f565b61121e81856114b8565b935061122e81856020860161156c565b61123781611678565b840191505092915050565b600061124f6021836114c9565b915061125a82611689565b604082019050919050565b60006112726017836114c9565b915061127d826116d8565b602082019050919050565b6000611295601f836114c9565b91506112a082611701565b602082019050919050565b600060a0830160008301516112c36000860182611397565b5060208301516112d66020860182611185565b50604083015184820360408601526112ee8282611209565b91505060608301516113036060860182611185565b5060808301516113166080860182611397565b508091505092915050565b600060a0830160008301516113396000860182611397565b50602083015161134c6020860182611185565b50604083015184820360408601526113648282611209565b91505060608301516113796060860182611185565b50608083015161138c6080860182611397565b508091505092915050565b6113a081611562565b82525050565b6113af81611562565b82525050565b600060208201905081810360008301526113cf8184611194565b905092915050565b600060208201905081810360008301526113f081611242565b9050919050565b6000602082019050818103600083015261141081611265565b9050919050565b6000602082019050818103600083015261143081611288565b9050919050565b600060208201905081810360008301526114518184611321565b905092915050565b600060208201905061146e60008301846113a6565b92915050565b6000819050602082019050919050565b600081519050919050565b600081519050919050565b6000602082019050919050565b600082825260208201905092915050565b600082825260208201905092915050565b600082825260208201905092915050565b60006114e582611562565b91506114f083611562565b9250827fffffffffffffffffffffffffffffffffffffffffffffffffffffffffffffffff038211156115255761152461161a565b5b828201905092915050565b600061153b82611542565b9050919050565b600073ffffffffffffffffffffffffffffffffffffffff82169050919050565b6000819050919050565b60005b8381101561158a57808201518184015260208101905061156f565b83811115611599576000848401525b50505050565b600060028204905060018216806115b757607f821691505b602082108114156115cb576115ca611649565b5b50919050565b60006115dc82611562565b91507fffffffffffffffffffffffffffffffffffffffffffffffffffffffffffffffff82141561160f5761160e61161a565b5b600182019050919050565b7f4e487b7100000000000000000000000000000000000000000000000000000000600052601160045260246000fd5b7f4e487b7100000000000000000000000000000000000000000000000000000000600052602260045260246000fd5b6000601f19601f8301169050919050565b7f436f6d6d656e74206964656e7469666965722063616e6e6f74206265207a657260008201527f6f00000000000000000000000000000000000000000000000000000000000000602082015250565b7f57726f6e6720706172656e74206964656e746966696572000000000000000000600082015250565b7f5265656e7472616e637947756172643a207265656e7472616e742063616c6c00600082015250565b61173381611530565b811461173e57600080fd5b50565b61174a81611562565b811461175557600080fd5b5056fea264697066735822122048312c98ce6d6d49c6ca3b21fd88a7fb1ee15a1cf1ea715cbb18a741de2142eb64736f6c63430008040033",
  "linkReferences": {},
  "deployedLinkReferences": {}
}