{
  "_format": "hh-sol-artifact-1",
  "contractName": "Users",
  "sourceName": "contracts/Users.sol",
  "abi": [
    {
      "inputs": [
        {
          "internalType": "string",
          "name": "username",
          "type": "string"
        },
        {
          "internalType": "string",
          "name": "color",
          "type": "string"
        }
      ],
      "name": "createUser",
      "outputs": [],
      "stateMutability": "payable",
      "type": "function"
    },
    {
      "inputs": [],
      "name": "getCurrentUser",
      "outputs": [
        {
          "components": [
            {
              "internalType": "string",
              "name": "username",
              "type": "string"
            },
            {
              "internalType": "address payable",
              "name": "userAddress",
              "type": "address"
            },
            {
              "internalType": "string",
              "name": "color",
              "type": "string"
            }
          ],
          "internalType": "struct Users.User",
          "name": "",
          "type": "tuple"
        }
      ],
      "stateMutability": "view",
      "type": "function"
    },
    {
      "inputs": [],
      "name": "getNumberOfUsers",
      "outputs": [
        {
          "internalType": "uint256",
          "name": "",
          "type": "uint256"
        }
      ],
      "stateMutability": "view",
      "type": "function"
    },
    {
      "inputs": [
        {
          "internalType": "address",
          "name": "user",
          "type": "address"
        }
      ],
      "name": "getUser",
      "outputs": [
        {
          "components": [
            {
              "internalType": "string",
              "name": "username",
              "type": "string"
            },
            {
              "internalType": "address payable",
              "name": "userAddress",
              "type": "address"
            },
            {
              "internalType": "string",
              "name": "color",
              "type": "string"
            }
          ],
          "internalType": "struct Users.User",
          "name": "",
          "type": "tuple"
        }
      ],
      "stateMutability": "view",
      "type": "function"
    }
  ],
  "bytecode": "0x608060405234801561001057600080fd5b506001600081905550610b55806100286000396000f3fe60806040526004361061003f5760003560e01c806343ae37c3146100445780634d0092881461006f5780636f77926b1461009a57806387b162b5146100d7575b600080fd5b34801561005057600080fd5b506100596100f3565b6040516100669190610982565b60405180910390f35b34801561007b57600080fd5b506100846102ca565b60405161009191906109a4565b60405180910390f35b3480156100a657600080fd5b506100c160048036038101906100bc91906107f3565b6102db565b6040516100ce9190610982565b60405180910390f35b6100f160048036038101906100ec919061081c565b6104b4565b005b6100fb6106ba565b6000600260003373ffffffffffffffffffffffffffffffffffffffff1673ffffffffffffffffffffffffffffffffffffffff16815260200190815260200160002060405180606001604052908160008201805461015790610a6d565b80601f016020809104026020016040519081016040528092919081815260200182805461018390610a6d565b80156101d05780601f106101a5576101008083540402835291602001916101d0565b820191906000526020600020905b8154815290600101906020018083116101b357829003601f168201915b505050505081526020016001820160009054906101000a900473ffffffffffffffffffffffffffffffffffffffff1673ffffffffffffffffffffffffffffffffffffffff1673ffffffffffffffffffffffffffffffffffffffff16815260200160028201805461023f90610a6d565b80601f016020809104026020016040519081016040528092919081815260200182805461026b90610a6d565b80156102b85780601f1061028d576101008083540402835291602001916102b8565b820191906000526020600020905b81548152906001019060200180831161029b57829003601f168201915b50505050508152505090508091505090565b60006102d66001610696565b905090565b6102e36106ba565b6000600260008473ffffffffffffffffffffffffffffffffffffffff1673ffffffffffffffffffffffffffffffffffffffff16815260200190815260200160002060405180606001604052908160008201805461033f90610a6d565b80601f016020809104026020016040519081016040528092919081815260200182805461036b90610a6d565b80156103b85780601f1061038d576101008083540402835291602001916103b8565b820191906000526020600020905b81548152906001019060200180831161039b57829003601f168201915b505050505081526020016001820160009054906101000a900473ffffffffffffffffffffffffffffffffffffffff1673ffffffffffffffffffffffffffffffffffffffff1673ffffffffffffffffffffffffffffffffffffffff16815260200160028201805461042790610a6d565b80601f016020809104026020016040519081016040528092919081815260200182805461045390610a6d565b80156104a05780601f10610475576101008083540402835291602001916104a0565b820191906000526020600020905b81548152906001019060200180831161048357829003601f168201915b505050505081525050905080915050919050565b600260005414156104fa576040517f08c379a00000000000000000000000000000000000000000000000000000000081526004016104f190610962565b60405180910390fd5b6002600081905550604051806060016040528085858080601f016020809104026020016040519081016040528093929190818152602001838380828437600081840152601f19601f8201169050808301925050505050505081526020013373ffffffffffffffffffffffffffffffffffffffff16815260200183838080601f016020809104026020016040519081016040528093929190818152602001838380828437600081840152601f19601f82011690508083019250505050505050815250600260003373ffffffffffffffffffffffffffffffffffffffff1673ffffffffffffffffffffffffffffffffffffffff16815260200190815260200160002060008201518160000190805190602001906106169291906106f1565b5060208201518160010160006101000a81548173ffffffffffffffffffffffffffffffffffffffff021916908373ffffffffffffffffffffffffffffffffffffffff160217905550604082015181600201908051906020019061067a9291906106f1565b5090505061068860016106a4565b600160008190555050505050565b600081600001549050919050565b6001816000016000828254019250508190555050565b604051806060016040528060608152602001600073ffffffffffffffffffffffffffffffffffffffff168152602001606081525090565b8280546106fd90610a6d565b90600052602060002090601f01602090048101928261071f5760008555610766565b82601f1061073857805160ff1916838001178555610766565b82800160010185558215610766579182015b8281111561076557825182559160200191906001019061074a565b5b5090506107739190610777565b5090565b5b80821115610790576000816000905550600101610778565b5090565b6000813590506107a381610b08565b92915050565b60008083601f8401126107bb57600080fd5b8235905067ffffffffffffffff8111156107d457600080fd5b6020830191508360018202830111156107ec57600080fd5b9250929050565b60006020828403121561080557600080fd5b600061081384828501610794565b91505092915050565b6000806000806040858703121561083257600080fd5b600085013567ffffffffffffffff81111561084c57600080fd5b610858878288016107a9565b9450945050602085013567ffffffffffffffff81111561087757600080fd5b610883878288016107a9565b925092505092959194509250565b61089a816109fe565b82525050565b60006108ab826109bf565b6108b581856109ca565b93506108c5818560208601610a3a565b6108ce81610ace565b840191505092915050565b60006108e6601f836109db565b91506108f182610adf565b602082019050919050565b6000606083016000830151848203600086015261091982826108a0565b915050602083015161092e6020860182610891565b506040830151848203604086015261094682826108a0565b9150508091505092915050565b61095c81610a30565b82525050565b6000602082019050818103600083015261097b816108d9565b9050919050565b6000602082019050818103600083015261099c81846108fc565b905092915050565b60006020820190506109b96000830184610953565b92915050565b600081519050919050565b600082825260208201905092915050565b600082825260208201905092915050565b60006109f782610a10565b9050919050565b6000610a0982610a10565b9050919050565b600073ffffffffffffffffffffffffffffffffffffffff82169050919050565b6000819050919050565b60005b83811015610a58578082015181840152602081019050610a3d565b83811115610a67576000848401525b50505050565b60006002820490506001821680610a8557607f821691505b60208210811415610a9957610a98610a9f565b5b50919050565b7f4e487b7100000000000000000000000000000000000000000000000000000000600052602260045260246000fd5b6000601f19601f8301169050919050565b7f5265656e7472616e637947756172643a207265656e7472616e742063616c6c00600082015250565b610b11816109ec565b8114610b1c57600080fd5b5056fea26469706673582212208d315391ea23d0ed959f66832e76356896fe88926bcc8000a558be1964c2804364736f6c63430008040033",
  "linkReferences": {},
  "deployedLinkReferences": {}
}