{
  "_format": "hh-sol-artifact-1",
  "contractName": "Users",
  "sourceName": "contracts/Users.sol",
  "abi": [
    {
      "inputs": [
        {
          "internalType": "address",
          "name": "user",
          "type": "address"
        },
        {
          "internalType": "uint256",
          "name": "campaignId",
          "type": "uint256"
        }
      ],
      "name": "addFavCampaign",
      "outputs": [],
      "stateMutability": "nonpayable",
      "type": "function"
    },
    {
      "inputs": [
        {
          "internalType": "string",
          "name": "username",
          "type": "string"
        },
        {
          "internalType": "string",
          "name": "color",
          "type": "string"
        }
      ],
      "name": "createUser",
      "outputs": [],
      "stateMutability": "payable",
      "type": "function"
    },
    {
      "inputs": [
        {
          "internalType": "address",
          "name": "user",
          "type": "address"
        }
      ],
      "name": "fetchFavCampaigns",
      "outputs": [
        {
          "internalType": "uint256[]",
          "name": "",
          "type": "uint256[]"
        }
      ],
      "stateMutability": "view",
      "type": "function"
    },
    {
      "inputs": [],
      "name": "getCurrentUser",
      "outputs": [
        {
          "components": [
            {
              "internalType": "string",
              "name": "username",
              "type": "string"
            },
            {
              "internalType": "address payable",
              "name": "userAddress",
              "type": "address"
            },
            {
              "internalType": "string",
              "name": "color",
              "type": "string"
            },
            {
              "internalType": "uint256[]",
              "name": "favCampaigns",
              "type": "uint256[]"
            }
          ],
          "internalType": "struct Users.User",
          "name": "",
          "type": "tuple"
        }
      ],
      "stateMutability": "view",
      "type": "function"
    },
    {
      "inputs": [],
      "name": "getNumberOfUsers",
      "outputs": [
        {
          "internalType": "uint256",
          "name": "",
          "type": "uint256"
        }
      ],
      "stateMutability": "view",
      "type": "function"
    },
    {
      "inputs": [
        {
          "internalType": "address",
          "name": "user",
          "type": "address"
        }
      ],
      "name": "getUser",
      "outputs": [
        {
          "components": [
            {
              "internalType": "string",
              "name": "username",
              "type": "string"
            },
            {
              "internalType": "address payable",
              "name": "userAddress",
              "type": "address"
            },
            {
              "internalType": "string",
              "name": "color",
              "type": "string"
            },
            {
              "internalType": "uint256[]",
              "name": "favCampaigns",
              "type": "uint256[]"
            }
          ],
          "internalType": "struct Users.User",
          "name": "",
          "type": "tuple"
        }
      ],
      "stateMutability": "view",
      "type": "function"
    }
  ],
  "bytecode": "0x608060405234801561001057600080fd5b506001600081905550611230806100286000396000f3fe6080604052600436106100555760003560e01c806343ae37c31461005a5780634d009288146100855780635721c3af146100b05780636f77926b146100ed57806387b162b51461012a578063cf78c6c214610146575b600080fd5b34801561006657600080fd5b5061006f61016f565b60405161007c9190610ffc565b60405180910390f35b34801561009157600080fd5b5061009a61039e565b6040516100a7919061101e565b60405180910390f35b3480156100bc57600080fd5b506100d760048036038101906100d29190610d12565b6103af565b6040516100e49190610fba565b60405180910390f35b3480156100f957600080fd5b50610114600480360381019061010f9190610d12565b6105de565b6040516101219190610ffc565b60405180910390f35b610144600480360381019061013f9190610d77565b61080f565b005b34801561015257600080fd5b5061016d60048036038101906101689190610d3b565b610a83565b005b610177610b70565b6000600260003373ffffffffffffffffffffffffffffffffffffffff1673ffffffffffffffffffffffffffffffffffffffff1681526020019081526020016000206040518060800160405290816000820180546101d390611131565b80601f01602080910402602001604051908101604052809291908181526020018280546101ff90611131565b801561024c5780601f106102215761010080835404028352916020019161024c565b820191906000526020600020905b81548152906001019060200180831161022f57829003601f168201915b505050505081526020016001820160009054906101000a900473ffffffffffffffffffffffffffffffffffffffff1673ffffffffffffffffffffffffffffffffffffffff1673ffffffffffffffffffffffffffffffffffffffff1681526020016002820180546102bb90611131565b80601f01602080910402602001604051908101604052809291908181526020018280546102e790611131565b80156103345780601f1061030957610100808354040283529160200191610334565b820191906000526020600020905b81548152906001019060200180831161031757829003601f168201915b505050505081526020016003820180548060200260200160405190810160405280929190818152602001828054801561038c57602002820191906000526020600020905b815481526020019060010190808311610378575b50505050508152505090508091505090565b60006103aa6001610b4c565b905090565b60606000600260008473ffffffffffffffffffffffffffffffffffffffff1673ffffffffffffffffffffffffffffffffffffffff16815260200190815260200160002060405180608001604052908160008201805461040d90611131565b80601f016020809104026020016040519081016040528092919081815260200182805461043990611131565b80156104865780601f1061045b57610100808354040283529160200191610486565b820191906000526020600020905b81548152906001019060200180831161046957829003601f168201915b505050505081526020016001820160009054906101000a900473ffffffffffffffffffffffffffffffffffffffff1673ffffffffffffffffffffffffffffffffffffffff1673ffffffffffffffffffffffffffffffffffffffff1681526020016002820180546104f590611131565b80601f016020809104026020016040519081016040528092919081815260200182805461052190611131565b801561056e5780601f106105435761010080835404028352916020019161056e565b820191906000526020600020905b81548152906001019060200180831161055157829003601f168201915b50505050508152602001600382018054806020026020016040519081016040528092919081815260200182805480156105c657602002820191906000526020600020905b8154815260200190600101908083116105b2575b50505050508152505090508060600151915050919050565b6105e6610b70565b6000600260008473ffffffffffffffffffffffffffffffffffffffff1673ffffffffffffffffffffffffffffffffffffffff16815260200190815260200160002060405180608001604052908160008201805461064290611131565b80601f016020809104026020016040519081016040528092919081815260200182805461066e90611131565b80156106bb5780601f10610690576101008083540402835291602001916106bb565b820191906000526020600020905b81548152906001019060200180831161069e57829003601f168201915b505050505081526020016001820160009054906101000a900473ffffffffffffffffffffffffffffffffffffffff1673ffffffffffffffffffffffffffffffffffffffff1673ffffffffffffffffffffffffffffffffffffffff16815260200160028201805461072a90611131565b80601f016020809104026020016040519081016040528092919081815260200182805461075690611131565b80156107a35780601f10610778576101008083540402835291602001916107a3565b820191906000526020600020905b81548152906001019060200180831161078657829003601f168201915b50505050508152602001600382018054806020026020016040519081016040528092919081815260200182805480156107fb57602002820191906000526020600020905b8154815260200190600101908083116107e7575b505050505081525050905080915050919050565b60026000541415610855576040517f08c379a000000000000000000000000000000000000000000000000000000000815260040161084c90610fdc565b60405180910390fd5b6002600081905550604051806080016040528085858080601f016020809104026020016040519081016040528093929190818152602001838380828437600081840152601f19601f8201169050808301925050505050505081526020013373ffffffffffffffffffffffffffffffffffffffff16815260200183838080601f016020809104026020016040519081016040528093929190818152602001838380828437600081840152601f19601f820116905080830192505050505050508152602001600067ffffffffffffffff811115610959577f4e487b7100000000000000000000000000000000000000000000000000000000600052604160045260246000fd5b6040519080825280602002602001820160405280156109875781602001602082028036833780820191505090505b50815250600260003373ffffffffffffffffffffffffffffffffffffffff1673ffffffffffffffffffffffffffffffffffffffff16815260200190815260200160002060008201518160000190805190602001906109e6929190610bae565b5060208201518160010160006101000a81548173ffffffffffffffffffffffffffffffffffffffff021916908373ffffffffffffffffffffffffffffffffffffffff1602179055506040820151816002019080519060200190610a4a929190610bae565b506060820151816003019080519060200190610a67929190610c34565b50905050610a756001610b5a565b600160008190555050505050565b60026000541415610ac9576040517f08c379a0000000000000000000000000000000000000000000000000000000008152600401610ac090610fdc565b60405180910390fd5b60026000819055506000600260008473ffffffffffffffffffffffffffffffffffffffff1673ffffffffffffffffffffffffffffffffffffffff1681526020019081526020016000209050806003018290806001815401808255809150506001900390600052602060002001600090919091909150555060016000819055505050565b600081600001549050919050565b6001816000016000828254019250508190555050565b604051806080016040528060608152602001600073ffffffffffffffffffffffffffffffffffffffff16815260200160608152602001606081525090565b828054610bba90611131565b90600052602060002090601f016020900481019282610bdc5760008555610c23565b82601f10610bf557805160ff1916838001178555610c23565b82800160010185558215610c23579182015b82811115610c22578251825591602001919060010190610c07565b5b509050610c309190610c81565b5090565b828054828255906000526020600020908101928215610c70579160200282015b82811115610c6f578251825591602001919060010190610c54565b5b509050610c7d9190610c81565b5090565b5b80821115610c9a576000816000905550600101610c82565b5090565b600081359050610cad816111cc565b92915050565b60008083601f840112610cc557600080fd5b8235905067ffffffffffffffff811115610cde57600080fd5b602083019150836001820283011115610cf657600080fd5b9250929050565b600081359050610d0c816111e3565b92915050565b600060208284031215610d2457600080fd5b6000610d3284828501610c9e565b91505092915050565b60008060408385031215610d4e57600080fd5b6000610d5c85828601610c9e565b9250506020610d6d85828601610cfd565b9150509250929050565b60008060008060408587031215610d8d57600080fd5b600085013567ffffffffffffffff811115610da757600080fd5b610db387828801610cb3565b9450945050602085013567ffffffffffffffff811115610dd257600080fd5b610dde87828801610cb3565b925092505092959194509250565b6000610df88383610f9c565b60208301905092915050565b610e0d816110c2565b82525050565b6000610e1e82611049565b610e28818561106c565b9350610e3383611039565b8060005b83811015610e64578151610e4b8882610dec565b9750610e568361105f565b925050600181019050610e37565b5085935050505092915050565b6000610e7c82611049565b610e86818561107d565b9350610e9183611039565b8060005b83811015610ec2578151610ea98882610dec565b9750610eb48361105f565b925050600181019050610e95565b5085935050505092915050565b6000610eda82611054565b610ee4818561108e565b9350610ef48185602086016110fe565b610efd81611192565b840191505092915050565b6000610f15601f8361109f565b9150610f20826111a3565b602082019050919050565b60006080830160008301518482036000860152610f488282610ecf565b9150506020830151610f5d6020860182610e04565b5060408301518482036040860152610f758282610ecf565b91505060608301518482036060860152610f8f8282610e13565b9150508091505092915050565b610fa5816110f4565b82525050565b610fb4816110f4565b82525050565b60006020820190508181036000830152610fd48184610e71565b905092915050565b60006020820190508181036000830152610ff581610f08565b9050919050565b600060208201905081810360008301526110168184610f2b565b905092915050565b60006020820190506110336000830184610fab565b92915050565b6000819050602082019050919050565b600081519050919050565b600081519050919050565b6000602082019050919050565b600082825260208201905092915050565b600082825260208201905092915050565b600082825260208201905092915050565b600082825260208201905092915050565b60006110bb826110d4565b9050919050565b60006110cd826110d4565b9050919050565b600073ffffffffffffffffffffffffffffffffffffffff82169050919050565b6000819050919050565b60005b8381101561111c578082015181840152602081019050611101565b8381111561112b576000848401525b50505050565b6000600282049050600182168061114957607f821691505b6020821081141561115d5761115c611163565b5b50919050565b7f4e487b7100000000000000000000000000000000000000000000000000000000600052602260045260246000fd5b6000601f19601f8301169050919050565b7f5265656e7472616e637947756172643a207265656e7472616e742063616c6c00600082015250565b6111d5816110b0565b81146111e057600080fd5b50565b6111ec816110f4565b81146111f757600080fd5b5056fea2646970667358221220e24c33885a4a46267db850b649fc3072c74d69e51ac9ade510c7f72a324da3be64736f6c63430008040033",
  "linkReferences": {},
  "deployedLinkReferences": {}
}