{
  "_format": "hh-sol-artifact-1",
  "contractName": "Users",
  "sourceName": "contracts/Users.sol",
  "abi": [
    {
      "inputs": [
        {
          "internalType": "address",
          "name": "user",
          "type": "address"
        },
        {
          "internalType": "uint256",
          "name": "campaignId",
          "type": "uint256"
        }
      ],
      "name": "addFavCampaign",
      "outputs": [],
      "stateMutability": "nonpayable",
      "type": "function"
    },
    {
      "inputs": [
        {
          "internalType": "string",
          "name": "username",
          "type": "string"
        },
        {
          "internalType": "string",
          "name": "color",
          "type": "string"
        }
      ],
      "name": "configUser",
      "outputs": [],
      "stateMutability": "payable",
      "type": "function"
    },
    {
      "inputs": [
        {
          "internalType": "address",
          "name": "user",
          "type": "address"
        }
      ],
      "name": "fetchFavCampaigns",
      "outputs": [
        {
          "internalType": "uint256[]",
          "name": "",
          "type": "uint256[]"
        }
      ],
      "stateMutability": "view",
      "type": "function"
    },
    {
      "inputs": [],
      "name": "getCurrentUser",
      "outputs": [
        {
          "components": [
            {
              "internalType": "string",
              "name": "username",
              "type": "string"
            },
            {
              "internalType": "address payable",
              "name": "userAddress",
              "type": "address"
            },
            {
              "internalType": "string",
              "name": "color",
              "type": "string"
            },
            {
              "internalType": "uint256[]",
              "name": "favCampaigns",
              "type": "uint256[]"
            },
            {
              "internalType": "bool",
              "name": "created",
              "type": "bool"
            }
          ],
          "internalType": "struct Users.User",
          "name": "",
          "type": "tuple"
        }
      ],
      "stateMutability": "view",
      "type": "function"
    },
    {
      "inputs": [],
      "name": "getNumberOfUsers",
      "outputs": [
        {
          "internalType": "uint256",
          "name": "",
          "type": "uint256"
        }
      ],
      "stateMutability": "view",
      "type": "function"
    },
    {
      "inputs": [
        {
          "internalType": "address",
          "name": "user",
          "type": "address"
        }
      ],
      "name": "getUser",
      "outputs": [
        {
          "components": [
            {
              "internalType": "string",
              "name": "username",
              "type": "string"
            },
            {
              "internalType": "address payable",
              "name": "userAddress",
              "type": "address"
            },
            {
              "internalType": "string",
              "name": "color",
              "type": "string"
            },
            {
              "internalType": "uint256[]",
              "name": "favCampaigns",
              "type": "uint256[]"
            },
            {
              "internalType": "bool",
              "name": "created",
              "type": "bool"
            }
          ],
          "internalType": "struct Users.User",
          "name": "",
          "type": "tuple"
        }
      ],
      "stateMutability": "view",
      "type": "function"
    },
    {
      "inputs": [
        {
          "internalType": "address",
          "name": "user",
          "type": "address"
        },
        {
          "internalType": "uint256",
          "name": "campaignId",
          "type": "uint256"
        }
      ],
      "name": "isFavCampaign",
      "outputs": [
        {
          "internalType": "bool",
          "name": "",
          "type": "bool"
        }
      ],
      "stateMutability": "view",
      "type": "function"
    },
    {
      "inputs": [
        {
          "internalType": "address",
          "name": "user",
          "type": "address"
        },
        {
          "internalType": "uint256",
          "name": "campaignId",
          "type": "uint256"
        }
      ],
      "name": "removeFavCampaign",
      "outputs": [],
      "stateMutability": "nonpayable",
      "type": "function"
    }
  ],
  "bytecode": "0x608060405234801561001057600080fd5b506001600081905550611f72806100286000396000f3fe60806040526004361061007b5760003560e01c80635721c3af1161004e5780635721c3af1461013c5780636f77926b14610179578063953c8c6e146101b6578063cf78c6c2146101d25761007b565b8063256af5741461008057806342269988146100a957806343ae37c3146100e65780634d00928814610111575b600080fd5b34801561008c57600080fd5b506100a760048036038101906100a291906118b7565b6101fb565b005b3480156100b557600080fd5b506100d060048036038101906100cb91906118b7565b610479565b6040516100dd9190611bac565b60405180910390f35b3480156100f257600080fd5b506100fb61073d565b6040516101089190611c07565b60405180910390f35b34801561011d57600080fd5b50610126610987565b6040516101339190611c29565b60405180910390f35b34801561014857600080fd5b50610163600480360381019061015e919061188e565b610998565b6040516101709190611b8a565b60405180910390f35b34801561018557600080fd5b506101a0600480360381019061019b919061188e565b610be2565b6040516101ad9190611c07565b60405180910390f35b6101d060048036038101906101cb91906118f3565b610e2e565b005b3480156101de57600080fd5b506101f960048036038101906101f491906118b7565b611153565b005b60026000541415610241576040517f08c379a000000000000000000000000000000000000000000000000000000000815260040161023890611be7565b60405180910390fd5b60026000819055506000600260008473ffffffffffffffffffffffffffffffffffffffff1673ffffffffffffffffffffffffffffffffffffffff1681526020019081526020016000209050600081600301905060008180549050905060005b828054905081101561030c57848382815481106102e6577f4e487b7100000000000000000000000000000000000000000000000000000000600052603260045260246000fd5b906000526020600020015414156102fb578091505b8061030590611e04565b90506102a0565b508180549050811415610354576040517f08c379a000000000000000000000000000000000000000000000000000000000815260040161034b90611bc7565b60405180910390fd5b60008190505b6001838054905061036b9190611d11565b81101561041c57826001826103809190611cbb565b815481106103b7577f4e487b7100000000000000000000000000000000000000000000000000000000600052603260045260246000fd5b90600052602060002001548382815481106103fb577f4e487b7100000000000000000000000000000000000000000000000000000000600052603260045260246000fd5b9060005260206000200181905550808061041490611e04565b91505061035a565b5081805480610454577f4e487b7100000000000000000000000000000000000000000000000000000000600052603160045260246000fd5b6001900381819060005260206000200160009055905550505060016000819055505050565b600080600260008573ffffffffffffffffffffffffffffffffffffffff1673ffffffffffffffffffffffffffffffffffffffff1681526020019081526020016000206040518060a00160405290816000820180546104d690611dd2565b80601f016020809104026020016040519081016040528092919081815260200182805461050290611dd2565b801561054f5780601f106105245761010080835404028352916020019161054f565b820191906000526020600020905b81548152906001019060200180831161053257829003601f168201915b505050505081526020016001820160009054906101000a900473ffffffffffffffffffffffffffffffffffffffff1673ffffffffffffffffffffffffffffffffffffffff1673ffffffffffffffffffffffffffffffffffffffff1681526020016002820180546105be90611dd2565b80601f01602080910402602001604051908101604052809291908181526020018280546105ea90611dd2565b80156106375780601f1061060c57610100808354040283529160200191610637565b820191906000526020600020905b81548152906001019060200180831161061a57829003601f168201915b505050505081526020016003820180548060200260200160405190810160405280929190818152602001828054801561068f57602002820191906000526020600020905b81548152602001906001019080831161067b575b505050505081526020016004820160009054906101000a900460ff161515151581525050905060008160600151905060005b815181101561072f5784828281518110610704577f4e487b7100000000000000000000000000000000000000000000000000000000600052603260045260246000fd5b6020026020010151141561071e5760019350505050610737565b8061072890611e04565b90506106c1565b506000925050505b92915050565b61074561165d565b6000600260003373ffffffffffffffffffffffffffffffffffffffff1673ffffffffffffffffffffffffffffffffffffffff1681526020019081526020016000206040518060a00160405290816000820180546107a190611dd2565b80601f01602080910402602001604051908101604052809291908181526020018280546107cd90611dd2565b801561081a5780601f106107ef5761010080835404028352916020019161081a565b820191906000526020600020905b8154815290600101906020018083116107fd57829003601f168201915b505050505081526020016001820160009054906101000a900473ffffffffffffffffffffffffffffffffffffffff1673ffffffffffffffffffffffffffffffffffffffff1673ffffffffffffffffffffffffffffffffffffffff16815260200160028201805461088990611dd2565b80601f01602080910402602001604051908101604052809291908181526020018280546108b590611dd2565b80156109025780601f106108d757610100808354040283529160200191610902565b820191906000526020600020905b8154815290600101906020018083116108e557829003601f168201915b505050505081526020016003820180548060200260200160405190810160405280929190818152602001828054801561095a57602002820191906000526020600020905b815481526020019060010190808311610946575b505050505081526020016004820160009054906101000a900460ff16151515158152505090508091505090565b60006109936001611639565b905090565b60606000600260008473ffffffffffffffffffffffffffffffffffffffff1673ffffffffffffffffffffffffffffffffffffffff1681526020019081526020016000206040518060a00160405290816000820180546109f690611dd2565b80601f0160208091040260200160405190810160405280929190818152602001828054610a2290611dd2565b8015610a6f5780601f10610a4457610100808354040283529160200191610a6f565b820191906000526020600020905b815481529060010190602001808311610a5257829003601f168201915b505050505081526020016001820160009054906101000a900473ffffffffffffffffffffffffffffffffffffffff1673ffffffffffffffffffffffffffffffffffffffff1673ffffffffffffffffffffffffffffffffffffffff168152602001600282018054610ade90611dd2565b80601f0160208091040260200160405190810160405280929190818152602001828054610b0a90611dd2565b8015610b575780601f10610b2c57610100808354040283529160200191610b57565b820191906000526020600020905b815481529060010190602001808311610b3a57829003601f168201915b5050505050815260200160038201805480602002602001604051908101604052809291908181526020018280548015610baf57602002820191906000526020600020905b815481526020019060010190808311610b9b575b505050505081526020016004820160009054906101000a900460ff16151515158152505090508060600151915050919050565b610bea61165d565b6000600260008473ffffffffffffffffffffffffffffffffffffffff1673ffffffffffffffffffffffffffffffffffffffff1681526020019081526020016000206040518060a0016040529081600082018054610c4690611dd2565b80601f0160208091040260200160405190810160405280929190818152602001828054610c7290611dd2565b8015610cbf5780601f10610c9457610100808354040283529160200191610cbf565b820191906000526020600020905b815481529060010190602001808311610ca257829003601f168201915b505050505081526020016001820160009054906101000a900473ffffffffffffffffffffffffffffffffffffffff1673ffffffffffffffffffffffffffffffffffffffff1673ffffffffffffffffffffffffffffffffffffffff168152602001600282018054610d2e90611dd2565b80601f0160208091040260200160405190810160405280929190818152602001828054610d5a90611dd2565b8015610da75780601f10610d7c57610100808354040283529160200191610da7565b820191906000526020600020905b815481529060010190602001808311610d8a57829003601f168201915b5050505050815260200160038201805480602002602001604051908101604052809291908181526020018280548015610dff57602002820191906000526020600020905b815481526020019060010190808311610deb575b505050505081526020016004820160009054906101000a900460ff161515151581525050905080915050919050565b60026000541415610e74576040517f08c379a0000000000000000000000000000000000000000000000000000000008152600401610e6b90611be7565b60405180910390fd5b60026000819055506000600260003373ffffffffffffffffffffffffffffffffffffffff1673ffffffffffffffffffffffffffffffffffffffff16815260200190815260200160002090508060040160009054906101000a900460ff1661111b576040518060a0016040528086868080601f016020809104026020016040519081016040528093929190818152602001838380828437600081840152601f19601f8201169050808301925050505050505081526020013373ffffffffffffffffffffffffffffffffffffffff16815260200184848080601f016020809104026020016040519081016040528093929190818152602001838380828437600081840152601f19601f820116905080830192505050505050508152602001600067ffffffffffffffff811115610fd1577f4e487b7100000000000000000000000000000000000000000000000000000000600052604160045260246000fd5b604051908082528060200260200182016040528015610fff5781602001602082028036833780820191505090505b50815260200160011515815250600260003373ffffffffffffffffffffffffffffffffffffffff1673ffffffffffffffffffffffffffffffffffffffff16815260200190815260200160002060008201518160000190805190602001906110679291906116a4565b5060208201518160010160006101000a81548173ffffffffffffffffffffffffffffffffffffffff021916908373ffffffffffffffffffffffffffffffffffffffff16021790555060408201518160020190805190602001906110cb9291906116a4565b5060608201518160030190805190602001906110e892919061172a565b5060808201518160040160006101000a81548160ff0219169083151502179055509050506111166001611647565b611144565b848482600001919061112e929190611777565b508282826002019190611142929190611777565b505b50600160008190555050505050565b60026000541415611199576040517f08c379a000000000000000000000000000000000000000000000000000000000815260040161119090611be7565b60405180910390fd5b60026000819055506000600260008473ffffffffffffffffffffffffffffffffffffffff1673ffffffffffffffffffffffffffffffffffffffff1681526020019081526020016000206040518060a00160405290816000820180546111fd90611dd2565b80601f016020809104026020016040519081016040528092919081815260200182805461122990611dd2565b80156112765780601f1061124b57610100808354040283529160200191611276565b820191906000526020600020905b81548152906001019060200180831161125957829003601f168201915b505050505081526020016001820160009054906101000a900473ffffffffffffffffffffffffffffffffffffffff1673ffffffffffffffffffffffffffffffffffffffff1673ffffffffffffffffffffffffffffffffffffffff1681526020016002820180546112e590611dd2565b80601f016020809104026020016040519081016040528092919081815260200182805461131190611dd2565b801561135e5780601f106113335761010080835404028352916020019161135e565b820191906000526020600020905b81548152906001019060200180831161134157829003601f168201915b50505050508152602001600382018054806020026020016040519081016040528092919081815260200182805480156113b657602002820191906000526020600020905b8154815260200190600101908083116113a2575b505050505081526020016004820160009054906101000a900460ff161515151581525050905080608001516115bd576040518060a001604052806040518060200160405280600081525081526020013373ffffffffffffffffffffffffffffffffffffffff168152602001604051806020016040528060008152508152602001600067ffffffffffffffff811115611477577f4e487b7100000000000000000000000000000000000000000000000000000000600052604160045260246000fd5b6040519080825280602002602001820160405280156114a55781602001602082028036833780820191505090505b50815260200160011515815250600260003373ffffffffffffffffffffffffffffffffffffffff1673ffffffffffffffffffffffffffffffffffffffff168152602001908152602001600020600082015181600001908051906020019061150d9291906116a4565b5060208201518160010160006101000a81548173ffffffffffffffffffffffffffffffffffffffff021916908373ffffffffffffffffffffffffffffffffffffffff16021790555060408201518160020190805190602001906115719291906116a4565b50606082015181600301908051906020019061158e92919061172a565b5060808201518160040160006101000a81548160ff0219169083151502179055509050506115bc6001611647565b5b6000600260008573ffffffffffffffffffffffffffffffffffffffff1673ffffffffffffffffffffffffffffffffffffffff168152602001908152602001600020905080600301839080600181540180825580915050600190039060005260206000200160009091909190915055505060016000819055505050565b600081600001549050919050565b6001816000016000828254019250508190555050565b6040518060a0016040528060608152602001600073ffffffffffffffffffffffffffffffffffffffff16815260200160608152602001606081526020016000151581525090565b8280546116b090611dd2565b90600052602060002090601f0160209004810192826116d25760008555611719565b82601f106116eb57805160ff1916838001178555611719565b82800160010185558215611719579182015b828111156117185782518255916020019190600101906116fd565b5b50905061172691906117fd565b5090565b828054828255906000526020600020908101928215611766579160200282015b8281111561176557825182559160200191906001019061174a565b5b50905061177391906117fd565b5090565b82805461178390611dd2565b90600052602060002090601f0160209004810192826117a557600085556117ec565b82601f106117be57803560ff19168380011785556117ec565b828001600101855582156117ec579182015b828111156117eb5782358255916020019190600101906117d0565b5b5090506117f991906117fd565b5090565b5b808211156118165760008160009055506001016117fe565b5090565b60008135905061182981611f0e565b92915050565b60008083601f84011261184157600080fd5b8235905067ffffffffffffffff81111561185a57600080fd5b60208301915083600182028301111561187257600080fd5b9250929050565b60008135905061188881611f25565b92915050565b6000602082840312156118a057600080fd5b60006118ae8482850161181a565b91505092915050565b600080604083850312156118ca57600080fd5b60006118d88582860161181a565b92505060206118e985828601611879565b9150509250929050565b6000806000806040858703121561190957600080fd5b600085013567ffffffffffffffff81111561192357600080fd5b61192f8782880161182f565b9450945050602085013567ffffffffffffffff81111561194e57600080fd5b61195a8782880161182f565b925092505092959194509250565b60006119748383611b6c565b60208301905092915050565b61198981611d57565b82525050565b600061199a82611c54565b6119a48185611c77565b93506119af83611c44565b8060005b838110156119e05781516119c78882611968565b97506119d283611c6a565b9250506001810190506119b3565b5085935050505092915050565b60006119f882611c54565b611a028185611c88565b9350611a0d83611c44565b8060005b83811015611a3e578151611a258882611968565b9750611a3083611c6a565b925050600181019050611a11565b5085935050505092915050565b611a5481611d69565b82525050565b611a6381611d69565b82525050565b6000611a7482611c5f565b611a7e8185611c99565b9350611a8e818560208601611d9f565b611a9781611eab565b840191505092915050565b6000611aaf600c83611caa565b9150611aba82611ebc565b602082019050919050565b6000611ad2601f83611caa565b9150611add82611ee5565b602082019050919050565b600060a0830160008301518482036000860152611b058282611a69565b9150506020830151611b1a6020860182611980565b5060408301518482036040860152611b328282611a69565b91505060608301518482036060860152611b4c828261198f565b9150506080830151611b616080860182611a4b565b508091505092915050565b611b7581611d95565b82525050565b611b8481611d95565b82525050565b60006020820190508181036000830152611ba481846119ed565b905092915050565b6000602082019050611bc16000830184611a5a565b92915050565b60006020820190508181036000830152611be081611aa2565b9050919050565b60006020820190508181036000830152611c0081611ac5565b9050919050565b60006020820190508181036000830152611c218184611ae8565b905092915050565b6000602082019050611c3e6000830184611b7b565b92915050565b6000819050602082019050919050565b600081519050919050565b600081519050919050565b6000602082019050919050565b600082825260208201905092915050565b600082825260208201905092915050565b600082825260208201905092915050565b600082825260208201905092915050565b6000611cc682611d95565b9150611cd183611d95565b9250827fffffffffffffffffffffffffffffffffffffffffffffffffffffffffffffffff03821115611d0657611d05611e4d565b5b828201905092915050565b6000611d1c82611d95565b9150611d2783611d95565b925082821015611d3a57611d39611e4d565b5b828203905092915050565b6000611d5082611d75565b9050919050565b6000611d6282611d75565b9050919050565b60008115159050919050565b600073ffffffffffffffffffffffffffffffffffffffff82169050919050565b6000819050919050565b60005b83811015611dbd578082015181840152602081019050611da2565b83811115611dcc576000848401525b50505050565b60006002820490506001821680611dea57607f821691505b60208210811415611dfe57611dfd611e7c565b5b50919050565b6000611e0f82611d95565b91507fffffffffffffffffffffffffffffffffffffffffffffffffffffffffffffffff821415611e4257611e41611e4d565b5b600182019050919050565b7f4e487b7100000000000000000000000000000000000000000000000000000000600052601160045260246000fd5b7f4e487b7100000000000000000000000000000000000000000000000000000000600052602260045260246000fd5b6000601f19601f8301169050919050565b7f4964206e6f7420666f756e640000000000000000000000000000000000000000600082015250565b7f5265656e7472616e637947756172643a207265656e7472616e742063616c6c00600082015250565b611f1781611d45565b8114611f2257600080fd5b50565b611f2e81611d95565b8114611f3957600080fd5b5056fea2646970667358221220b3d436a37aa66530787ebc6730e5c9c6967801b5289f8cedcbbfd49841ec388f64736f6c63430008040033",
  "linkReferences": {},
  "deployedLinkReferences": {}
}