{
  "_format": "hh-sol-artifact-1",
  "contractName": "Users",
  "sourceName": "contracts/Users.sol",
  "abi": [
    {
      "inputs": [
        {
          "internalType": "address",
          "name": "user",
          "type": "address"
        },
        {
          "internalType": "uint256",
          "name": "campaignId",
          "type": "uint256"
        }
      ],
      "name": "addFavCampaign",
      "outputs": [],
      "stateMutability": "nonpayable",
      "type": "function"
    },
    {
      "inputs": [
        {
          "internalType": "string",
          "name": "username",
          "type": "string"
        },
        {
          "internalType": "string",
          "name": "color",
          "type": "string"
        }
      ],
      "name": "createUser",
      "outputs": [],
      "stateMutability": "payable",
      "type": "function"
    },
    {
      "inputs": [
        {
          "internalType": "address",
          "name": "user",
          "type": "address"
        }
      ],
      "name": "fetchFavCampaigns",
      "outputs": [
        {
          "internalType": "uint256[]",
          "name": "",
          "type": "uint256[]"
        }
      ],
      "stateMutability": "view",
      "type": "function"
    },
    {
      "inputs": [],
      "name": "getCurrentUser",
      "outputs": [
        {
          "components": [
            {
              "internalType": "string",
              "name": "username",
              "type": "string"
            },
            {
              "internalType": "address payable",
              "name": "userAddress",
              "type": "address"
            },
            {
              "internalType": "string",
              "name": "color",
              "type": "string"
            },
            {
              "internalType": "uint256[]",
              "name": "favCampaigns",
              "type": "uint256[]"
            }
          ],
          "internalType": "struct Users.User",
          "name": "",
          "type": "tuple"
        }
      ],
      "stateMutability": "view",
      "type": "function"
    },
    {
      "inputs": [],
      "name": "getNumberOfUsers",
      "outputs": [
        {
          "internalType": "uint256",
          "name": "",
          "type": "uint256"
        }
      ],
      "stateMutability": "view",
      "type": "function"
    },
    {
      "inputs": [
        {
          "internalType": "address",
          "name": "user",
          "type": "address"
        }
      ],
      "name": "getUser",
      "outputs": [
        {
          "components": [
            {
              "internalType": "string",
              "name": "username",
              "type": "string"
            },
            {
              "internalType": "address payable",
              "name": "userAddress",
              "type": "address"
            },
            {
              "internalType": "string",
              "name": "color",
              "type": "string"
            },
            {
              "internalType": "uint256[]",
              "name": "favCampaigns",
              "type": "uint256[]"
            }
          ],
          "internalType": "struct Users.User",
          "name": "",
          "type": "tuple"
        }
      ],
      "stateMutability": "view",
      "type": "function"
    },
    {
      "inputs": [
        {
          "internalType": "address",
          "name": "user",
          "type": "address"
        },
        {
          "internalType": "uint256",
          "name": "campaignId",
          "type": "uint256"
        }
      ],
      "name": "isFavCampaign",
      "outputs": [
        {
          "internalType": "bool",
          "name": "",
          "type": "bool"
        }
      ],
      "stateMutability": "view",
      "type": "function"
    }
  ],
  "bytecode": "0x608060405234801561001057600080fd5b5060016000819055506115df806100286000396000f3fe6080604052600436106100705760003560e01c80635721c3af1161004e5780635721c3af146101085780636f77926b1461014557806387b162b514610182578063cf78c6c21461019e57610070565b8063422699881461007557806343ae37c3146100b25780634d009288146100dd575b600080fd5b34801561008157600080fd5b5061009c6004803603810190610097919061103c565b6101c7565b6040516100a991906112ec565b60405180910390f35b3480156100be57600080fd5b506100c7610470565b6040516100d49190611327565b60405180910390f35b3480156100e957600080fd5b506100f261069f565b6040516100ff9190611349565b60405180910390f35b34801561011457600080fd5b5061012f600480360381019061012a9190611013565b6106b0565b60405161013c91906112ca565b60405180910390f35b34801561015157600080fd5b5061016c60048036038101906101679190611013565b6108df565b6040516101799190611327565b60405180910390f35b61019c60048036038101906101979190611078565b610b10565b005b3480156101aa57600080fd5b506101c560048036038101906101c0919061103c565b610d84565b005b600080600260008573ffffffffffffffffffffffffffffffffffffffff1673ffffffffffffffffffffffffffffffffffffffff16815260200190815260200160002060405180608001604052908160008201805461022490611468565b80601f016020809104026020016040519081016040528092919081815260200182805461025090611468565b801561029d5780601f106102725761010080835404028352916020019161029d565b820191906000526020600020905b81548152906001019060200180831161028057829003601f168201915b505050505081526020016001820160009054906101000a900473ffffffffffffffffffffffffffffffffffffffff1673ffffffffffffffffffffffffffffffffffffffff1673ffffffffffffffffffffffffffffffffffffffff16815260200160028201805461030c90611468565b80601f016020809104026020016040519081016040528092919081815260200182805461033890611468565b80156103855780601f1061035a57610100808354040283529160200191610385565b820191906000526020600020905b81548152906001019060200180831161036857829003601f168201915b50505050508152602001600382018054806020026020016040519081016040528092919081815260200182805480156103dd57602002820191906000526020600020905b8154815260200190600101908083116103c9575b505050505081525050905060008160600151905060005b81518110156104625784828281518110610437577f4e487b7100000000000000000000000000000000000000000000000000000000600052603260045260246000fd5b60200260200101511415610451576001935050505061046a565b8061045b9061149a565b90506103f4565b506000925050505b92915050565b610478610e71565b6000600260003373ffffffffffffffffffffffffffffffffffffffff1673ffffffffffffffffffffffffffffffffffffffff1681526020019081526020016000206040518060800160405290816000820180546104d490611468565b80601f016020809104026020016040519081016040528092919081815260200182805461050090611468565b801561054d5780601f106105225761010080835404028352916020019161054d565b820191906000526020600020905b81548152906001019060200180831161053057829003601f168201915b505050505081526020016001820160009054906101000a900473ffffffffffffffffffffffffffffffffffffffff1673ffffffffffffffffffffffffffffffffffffffff1673ffffffffffffffffffffffffffffffffffffffff1681526020016002820180546105bc90611468565b80601f01602080910402602001604051908101604052809291908181526020018280546105e890611468565b80156106355780601f1061060a57610100808354040283529160200191610635565b820191906000526020600020905b81548152906001019060200180831161061857829003601f168201915b505050505081526020016003820180548060200260200160405190810160405280929190818152602001828054801561068d57602002820191906000526020600020905b815481526020019060010190808311610679575b50505050508152505090508091505090565b60006106ab6001610e4d565b905090565b60606000600260008473ffffffffffffffffffffffffffffffffffffffff1673ffffffffffffffffffffffffffffffffffffffff16815260200190815260200160002060405180608001604052908160008201805461070e90611468565b80601f016020809104026020016040519081016040528092919081815260200182805461073a90611468565b80156107875780601f1061075c57610100808354040283529160200191610787565b820191906000526020600020905b81548152906001019060200180831161076a57829003601f168201915b505050505081526020016001820160009054906101000a900473ffffffffffffffffffffffffffffffffffffffff1673ffffffffffffffffffffffffffffffffffffffff1673ffffffffffffffffffffffffffffffffffffffff1681526020016002820180546107f690611468565b80601f016020809104026020016040519081016040528092919081815260200182805461082290611468565b801561086f5780601f106108445761010080835404028352916020019161086f565b820191906000526020600020905b81548152906001019060200180831161085257829003601f168201915b50505050508152602001600382018054806020026020016040519081016040528092919081815260200182805480156108c757602002820191906000526020600020905b8154815260200190600101908083116108b3575b50505050508152505090508060600151915050919050565b6108e7610e71565b6000600260008473ffffffffffffffffffffffffffffffffffffffff1673ffffffffffffffffffffffffffffffffffffffff16815260200190815260200160002060405180608001604052908160008201805461094390611468565b80601f016020809104026020016040519081016040528092919081815260200182805461096f90611468565b80156109bc5780601f10610991576101008083540402835291602001916109bc565b820191906000526020600020905b81548152906001019060200180831161099f57829003601f168201915b505050505081526020016001820160009054906101000a900473ffffffffffffffffffffffffffffffffffffffff1673ffffffffffffffffffffffffffffffffffffffff1673ffffffffffffffffffffffffffffffffffffffff168152602001600282018054610a2b90611468565b80601f0160208091040260200160405190810160405280929190818152602001828054610a5790611468565b8015610aa45780601f10610a7957610100808354040283529160200191610aa4565b820191906000526020600020905b815481529060010190602001808311610a8757829003601f168201915b5050505050815260200160038201805480602002602001604051908101604052809291908181526020018280548015610afc57602002820191906000526020600020905b815481526020019060010190808311610ae8575b505050505081525050905080915050919050565b60026000541415610b56576040517f08c379a0000000000000000000000000000000000000000000000000000000008152600401610b4d90611307565b60405180910390fd5b6002600081905550604051806080016040528085858080601f016020809104026020016040519081016040528093929190818152602001838380828437600081840152601f19601f8201169050808301925050505050505081526020013373ffffffffffffffffffffffffffffffffffffffff16815260200183838080601f016020809104026020016040519081016040528093929190818152602001838380828437600081840152601f19601f820116905080830192505050505050508152602001600067ffffffffffffffff811115610c5a577f4e487b7100000000000000000000000000000000000000000000000000000000600052604160045260246000fd5b604051908082528060200260200182016040528015610c885781602001602082028036833780820191505090505b50815250600260003373ffffffffffffffffffffffffffffffffffffffff1673ffffffffffffffffffffffffffffffffffffffff1681526020019081526020016000206000820151816000019080519060200190610ce7929190610eaf565b5060208201518160010160006101000a81548173ffffffffffffffffffffffffffffffffffffffff021916908373ffffffffffffffffffffffffffffffffffffffff1602179055506040820151816002019080519060200190610d4b929190610eaf565b506060820151816003019080519060200190610d68929190610f35565b50905050610d766001610e5b565b600160008190555050505050565b60026000541415610dca576040517f08c379a0000000000000000000000000000000000000000000000000000000008152600401610dc190611307565b60405180910390fd5b60026000819055506000600260008473ffffffffffffffffffffffffffffffffffffffff1673ffffffffffffffffffffffffffffffffffffffff1681526020019081526020016000209050806003018290806001815401808255809150506001900390600052602060002001600090919091909150555060016000819055505050565b600081600001549050919050565b6001816000016000828254019250508190555050565b604051806080016040528060608152602001600073ffffffffffffffffffffffffffffffffffffffff16815260200160608152602001606081525090565b828054610ebb90611468565b90600052602060002090601f016020900481019282610edd5760008555610f24565b82601f10610ef657805160ff1916838001178555610f24565b82800160010185558215610f24579182015b82811115610f23578251825591602001919060010190610f08565b5b509050610f319190610f82565b5090565b828054828255906000526020600020908101928215610f71579160200282015b82811115610f70578251825591602001919060010190610f55565b5b509050610f7e9190610f82565b5090565b5b80821115610f9b576000816000905550600101610f83565b5090565b600081359050610fae8161157b565b92915050565b60008083601f840112610fc657600080fd5b8235905067ffffffffffffffff811115610fdf57600080fd5b602083019150836001820283011115610ff757600080fd5b9250929050565b60008135905061100d81611592565b92915050565b60006020828403121561102557600080fd5b600061103384828501610f9f565b91505092915050565b6000806040838503121561104f57600080fd5b600061105d85828601610f9f565b925050602061106e85828601610ffe565b9150509250929050565b6000806000806040858703121561108e57600080fd5b600085013567ffffffffffffffff8111156110a857600080fd5b6110b487828801610fb4565b9450945050602085013567ffffffffffffffff8111156110d357600080fd5b6110df87828801610fb4565b925092505092959194509250565b60006110f983836112ac565b60208301905092915050565b61110e816113ed565b82525050565b600061111f82611374565b6111298185611397565b935061113483611364565b8060005b8381101561116557815161114c88826110ed565b97506111578361138a565b925050600181019050611138565b5085935050505092915050565b600061117d82611374565b61118781856113a8565b935061119283611364565b8060005b838110156111c35781516111aa88826110ed565b97506111b58361138a565b925050600181019050611196565b5085935050505092915050565b6111d9816113ff565b82525050565b60006111ea8261137f565b6111f481856113b9565b9350611204818560208601611435565b61120d81611541565b840191505092915050565b6000611225601f836113ca565b915061123082611552565b602082019050919050565b6000608083016000830151848203600086015261125882826111df565b915050602083015161126d6020860182611105565b506040830151848203604086015261128582826111df565b9150506060830151848203606086015261129f8282611114565b9150508091505092915050565b6112b58161142b565b82525050565b6112c48161142b565b82525050565b600060208201905081810360008301526112e48184611172565b905092915050565b600060208201905061130160008301846111d0565b92915050565b6000602082019050818103600083015261132081611218565b9050919050565b60006020820190508181036000830152611341818461123b565b905092915050565b600060208201905061135e60008301846112bb565b92915050565b6000819050602082019050919050565b600081519050919050565b600081519050919050565b6000602082019050919050565b600082825260208201905092915050565b600082825260208201905092915050565b600082825260208201905092915050565b600082825260208201905092915050565b60006113e68261140b565b9050919050565b60006113f88261140b565b9050919050565b60008115159050919050565b600073ffffffffffffffffffffffffffffffffffffffff82169050919050565b6000819050919050565b60005b83811015611453578082015181840152602081019050611438565b83811115611462576000848401525b50505050565b6000600282049050600182168061148057607f821691505b6020821081141561149457611493611512565b5b50919050565b60006114a58261142b565b91507fffffffffffffffffffffffffffffffffffffffffffffffffffffffffffffffff8214156114d8576114d76114e3565b5b600182019050919050565b7f4e487b7100000000000000000000000000000000000000000000000000000000600052601160045260246000fd5b7f4e487b7100000000000000000000000000000000000000000000000000000000600052602260045260246000fd5b6000601f19601f8301169050919050565b7f5265656e7472616e637947756172643a207265656e7472616e742063616c6c00600082015250565b611584816113db565b811461158f57600080fd5b50565b61159b8161142b565b81146115a657600080fd5b5056fea2646970667358221220e3911f627b91d2bfe50e7b5cc35b1243361286110f31aac5109efb2e2c4735c064736f6c63430008040033",
  "linkReferences": {},
  "deployedLinkReferences": {}
}