{
  "_format": "hh-sol-artifact-1",
  "contractName": "Users",
  "sourceName": "contracts/Users.sol",
  "abi": [
    {
      "inputs": [
        {
          "internalType": "address",
          "name": "user",
          "type": "address"
        },
        {
          "internalType": "uint256",
          "name": "campaignId",
          "type": "uint256"
        }
      ],
      "name": "addFavCampaign",
      "outputs": [],
      "stateMutability": "nonpayable",
      "type": "function"
    },
    {
      "inputs": [
        {
          "internalType": "string",
          "name": "username",
          "type": "string"
        },
        {
          "internalType": "string",
          "name": "color",
          "type": "string"
        }
      ],
      "name": "configUser",
      "outputs": [],
      "stateMutability": "payable",
      "type": "function"
    },
    {
      "inputs": [
        {
          "internalType": "address",
          "name": "user",
          "type": "address"
        }
      ],
      "name": "fetchFavCampaigns",
      "outputs": [
        {
          "internalType": "uint256[]",
          "name": "",
          "type": "uint256[]"
        }
      ],
      "stateMutability": "view",
      "type": "function"
    },
    {
      "inputs": [
        {
          "internalType": "address",
          "name": "user",
          "type": "address"
        }
      ],
      "name": "fetchUserNotifications",
      "outputs": [
        {
          "components": [
            {
              "internalType": "uint256",
              "name": "id",
              "type": "uint256"
            },
            {
              "internalType": "enum Users.notiType",
              "name": "notification_type",
              "type": "uint8"
            },
            {
              "internalType": "uint256",
              "name": "campaignId",
              "type": "uint256"
            },
            {
              "internalType": "uint256",
              "name": "commentId",
              "type": "uint256"
            },
            {
              "internalType": "address",
              "name": "user",
              "type": "address"
            }
          ],
          "internalType": "struct Users.Notification[]",
          "name": "",
          "type": "tuple[]"
        }
      ],
      "stateMutability": "view",
      "type": "function"
    },
    {
      "inputs": [],
      "name": "getCurrentUser",
      "outputs": [
        {
          "components": [
            {
              "internalType": "string",
              "name": "username",
              "type": "string"
            },
            {
              "internalType": "address payable",
              "name": "userAddress",
              "type": "address"
            },
            {
              "internalType": "string",
              "name": "color",
              "type": "string"
            },
            {
              "internalType": "uint256[]",
              "name": "favCampaigns",
              "type": "uint256[]"
            },
            {
              "internalType": "bool",
              "name": "created",
              "type": "bool"
            }
          ],
          "internalType": "struct Users.User",
          "name": "",
          "type": "tuple"
        }
      ],
      "stateMutability": "view",
      "type": "function"
    },
    {
      "inputs": [],
      "name": "getNumberOfUsers",
      "outputs": [
        {
          "internalType": "uint256",
          "name": "",
          "type": "uint256"
        }
      ],
      "stateMutability": "view",
      "type": "function"
    },
    {
      "inputs": [
        {
          "internalType": "address",
          "name": "user",
          "type": "address"
        }
      ],
      "name": "getUser",
      "outputs": [
        {
          "components": [
            {
              "internalType": "string",
              "name": "username",
              "type": "string"
            },
            {
              "internalType": "address payable",
              "name": "userAddress",
              "type": "address"
            },
            {
              "internalType": "string",
              "name": "color",
              "type": "string"
            },
            {
              "internalType": "uint256[]",
              "name": "favCampaigns",
              "type": "uint256[]"
            },
            {
              "internalType": "bool",
              "name": "created",
              "type": "bool"
            }
          ],
          "internalType": "struct Users.User",
          "name": "",
          "type": "tuple"
        }
      ],
      "stateMutability": "view",
      "type": "function"
    },
    {
      "inputs": [
        {
          "internalType": "address",
          "name": "user",
          "type": "address"
        },
        {
          "internalType": "uint256",
          "name": "campaignId",
          "type": "uint256"
        }
      ],
      "name": "isFavCampaign",
      "outputs": [
        {
          "internalType": "bool",
          "name": "",
          "type": "bool"
        }
      ],
      "stateMutability": "view",
      "type": "function"
    },
    {
      "inputs": [
        {
          "internalType": "address",
          "name": "user",
          "type": "address"
        },
        {
          "internalType": "uint256",
          "name": "campaignId",
          "type": "uint256"
        }
      ],
      "name": "notifyCommentInYourCampaign",
      "outputs": [],
      "stateMutability": "nonpayable",
      "type": "function"
    },
    {
      "inputs": [
        {
          "internalType": "address",
          "name": "user",
          "type": "address"
        },
        {
          "internalType": "uint256",
          "name": "campaignId",
          "type": "uint256"
        },
        {
          "internalType": "uint256",
          "name": "commentId",
          "type": "uint256"
        }
      ],
      "name": "notifyCommentReplies",
      "outputs": [],
      "stateMutability": "nonpayable",
      "type": "function"
    },
    {
      "inputs": [
        {
          "internalType": "address",
          "name": "user",
          "type": "address"
        },
        {
          "internalType": "uint256",
          "name": "campaignId",
          "type": "uint256"
        }
      ],
      "name": "notifyFundsReached",
      "outputs": [],
      "stateMutability": "nonpayable",
      "type": "function"
    },
    {
      "inputs": [
        {
          "internalType": "address",
          "name": "user",
          "type": "address"
        },
        {
          "internalType": "uint256",
          "name": "campaignId",
          "type": "uint256"
        }
      ],
      "name": "removeFavCampaign",
      "outputs": [],
      "stateMutability": "nonpayable",
      "type": "function"
    }
  ],
  "bytecode": "0x608060405234801561001057600080fd5b5060016000819055506137e8806100286000396000f3fe6080604052600436106100a75760003560e01c80636f77926b116100645780636f77926b146101ce578063953c8c6e1461020b5780639e5a5adf14610227578063a685a58214610250578063cf78c6c214610279578063fb8e4e0e146102a2576100a7565b806314de0952146100ac578063256af574146100d557806342269988146100fe57806343ae37c31461013b5780634d009288146101665780635721c3af14610191575b600080fd5b3480156100b857600080fd5b506100d360048036038101906100ce9190612ef5565b6102df565b005b3480156100e157600080fd5b506100fc60048036038101906100f79190612ef5565b6108b6565b005b34801561010a57600080fd5b5061012560048036038101906101209190612ef5565b610b34565b6040516101329190613357565b60405180910390f35b34801561014757600080fd5b50610150610df8565b60405161015d91906133b2565b60405180910390f35b34801561017257600080fd5b5061017b611042565b60405161018891906133d4565b60405180910390f35b34801561019d57600080fd5b506101b860048036038101906101b39190612ecc565b611053565b6040516101c59190613335565b60405180910390f35b3480156101da57600080fd5b506101f560048036038101906101f09190612ecc565b61129d565b60405161020291906133b2565b60405180910390f35b61022560048036038101906102209190612f80565b6114e9565b005b34801561023357600080fd5b5061024e60048036038101906102499190612ef5565b61180e565b005b34801561025c57600080fd5b5061027760048036038101906102729190612f31565b611de6565b005b34801561028557600080fd5b506102a0600480360381019061029b9190612ef5565b6123be565b005b3480156102ae57600080fd5b506102c960048036038101906102c49190612ecc565b6128a4565b6040516102d69190613313565b60405180910390f35b60026000541415610325576040517f08c379a000000000000000000000000000000000000000000000000000000000815260040161031c90613392565b60405180910390fd5b60026000819055506000600360008473ffffffffffffffffffffffffffffffffffffffff1673ffffffffffffffffffffffffffffffffffffffff1681526020019081526020016000206040518060a001604052908160008201805461038990613605565b80601f01602080910402602001604051908101604052809291908181526020018280546103b590613605565b80156104025780601f106103d757610100808354040283529160200191610402565b820191906000526020600020905b8154815290600101906020018083116103e557829003601f168201915b505050505081526020016001820160009054906101000a900473ffffffffffffffffffffffffffffffffffffffff1673ffffffffffffffffffffffffffffffffffffffff1673ffffffffffffffffffffffffffffffffffffffff16815260200160028201805461047190613605565b80601f016020809104026020016040519081016040528092919081815260200182805461049d90613605565b80156104ea5780601f106104bf576101008083540402835291602001916104ea565b820191906000526020600020905b8154815290600101906020018083116104cd57829003601f168201915b505050505081526020016003820180548060200260200160405190810160405280929190818152602001828054801561054257602002820191906000526020600020905b81548152602001906001019080831161052e575b505050505081526020016004820160009054906101000a900460ff16151515158152505090508060800151610749576040518060a001604052806040518060200160405280600081525081526020018473ffffffffffffffffffffffffffffffffffffffff168152602001604051806020016040528060008152508152602001600067ffffffffffffffff811115610603577f4e487b7100000000000000000000000000000000000000000000000000000000600052604160045260246000fd5b6040519080825280602002602001820160405280156106315781602001602082028036833780820191505090505b50815260200160011515815250600360003373ffffffffffffffffffffffffffffffffffffffff1673ffffffffffffffffffffffffffffffffffffffff1681526020019081526020016000206000820151816000019080519060200190610699929190612c1e565b5060208201518160010160006101000a81548173ffffffffffffffffffffffffffffffffffffffff021916908373ffffffffffffffffffffffffffffffffffffffff16021790555060408201518160020190805190602001906106fd929190612c1e565b50606082015181600301908051906020019061071a929190612ca4565b5060808201518160040160006101000a81548160ff0219169083151502179055509050506107486001612bfa565b5b60006107556002612c10565b90506040518060a001604052808281526020016002808111156107a1577f4e487b7100000000000000000000000000000000000000000000000000000000600052602160045260246000fd5b8152602001848152602001600081526020018573ffffffffffffffffffffffffffffffffffffffff16815250600460008381526020019081526020016000206000820151816000015560208201518160010160006101000a81548160ff0219169083600281111561083b577f4e487b7100000000000000000000000000000000000000000000000000000000600052602160045260246000fd5b0217905550604082015181600201556060820151816003015560808201518160040160006101000a81548173ffffffffffffffffffffffffffffffffffffffff021916908373ffffffffffffffffffffffffffffffffffffffff1602179055509050506108a86002612bfa565b505060016000819055505050565b600260005414156108fc576040517f08c379a00000000000000000000000000000000000000000000000000000000081526004016108f390613392565b60405180910390fd5b60026000819055506000600360008473ffffffffffffffffffffffffffffffffffffffff1673ffffffffffffffffffffffffffffffffffffffff1681526020019081526020016000209050600081600301905060008180549050905060005b82805490508110156109c757848382815481106109a1577f4e487b7100000000000000000000000000000000000000000000000000000000600052603260045260246000fd5b906000526020600020015414156109b6578091505b806109c090613637565b905061095b565b508180549050811415610a0f576040517f08c379a0000000000000000000000000000000000000000000000000000000008152600401610a0690613372565b60405180910390fd5b60008190505b60018380549050610a2691906134f5565b811015610ad75782600182610a3b919061349f565b81548110610a72577f4e487b7100000000000000000000000000000000000000000000000000000000600052603260045260246000fd5b9060005260206000200154838281548110610ab6577f4e487b7100000000000000000000000000000000000000000000000000000000600052603260045260246000fd5b90600052602060002001819055508080610acf90613637565b915050610a15565b5081805480610b0f577f4e487b7100000000000000000000000000000000000000000000000000000000600052603160045260246000fd5b6001900381819060005260206000200160009055905550505060016000819055505050565b600080600360008573ffffffffffffffffffffffffffffffffffffffff1673ffffffffffffffffffffffffffffffffffffffff1681526020019081526020016000206040518060a0016040529081600082018054610b9190613605565b80601f0160208091040260200160405190810160405280929190818152602001828054610bbd90613605565b8015610c0a5780601f10610bdf57610100808354040283529160200191610c0a565b820191906000526020600020905b815481529060010190602001808311610bed57829003601f168201915b505050505081526020016001820160009054906101000a900473ffffffffffffffffffffffffffffffffffffffff1673ffffffffffffffffffffffffffffffffffffffff1673ffffffffffffffffffffffffffffffffffffffff168152602001600282018054610c7990613605565b80601f0160208091040260200160405190810160405280929190818152602001828054610ca590613605565b8015610cf25780601f10610cc757610100808354040283529160200191610cf2565b820191906000526020600020905b815481529060010190602001808311610cd557829003601f168201915b5050505050815260200160038201805480602002602001604051908101604052809291908181526020018280548015610d4a57602002820191906000526020600020905b815481526020019060010190808311610d36575b505050505081526020016004820160009054906101000a900460ff161515151581525050905060008160600151905060005b8151811015610dea5784828281518110610dbf577f4e487b7100000000000000000000000000000000000000000000000000000000600052603260045260246000fd5b60200260200101511415610dd95760019350505050610df2565b80610de390613637565b9050610d7c565b506000925050505b92915050565b610e00612cf1565b6000600360003373ffffffffffffffffffffffffffffffffffffffff1673ffffffffffffffffffffffffffffffffffffffff1681526020019081526020016000206040518060a0016040529081600082018054610e5c90613605565b80601f0160208091040260200160405190810160405280929190818152602001828054610e8890613605565b8015610ed55780601f10610eaa57610100808354040283529160200191610ed5565b820191906000526020600020905b815481529060010190602001808311610eb857829003601f168201915b505050505081526020016001820160009054906101000a900473ffffffffffffffffffffffffffffffffffffffff1673ffffffffffffffffffffffffffffffffffffffff1673ffffffffffffffffffffffffffffffffffffffff168152602001600282018054610f4490613605565b80601f0160208091040260200160405190810160405280929190818152602001828054610f7090613605565b8015610fbd5780601f10610f9257610100808354040283529160200191610fbd565b820191906000526020600020905b815481529060010190602001808311610fa057829003601f168201915b505050505081526020016003820180548060200260200160405190810160405280929190818152602001828054801561101557602002820191906000526020600020905b815481526020019060010190808311611001575b505050505081526020016004820160009054906101000a900460ff16151515158152505090508091505090565b600061104e6001612c10565b905090565b60606000600360008473ffffffffffffffffffffffffffffffffffffffff1673ffffffffffffffffffffffffffffffffffffffff1681526020019081526020016000206040518060a00160405290816000820180546110b190613605565b80601f01602080910402602001604051908101604052809291908181526020018280546110dd90613605565b801561112a5780601f106110ff5761010080835404028352916020019161112a565b820191906000526020600020905b81548152906001019060200180831161110d57829003601f168201915b505050505081526020016001820160009054906101000a900473ffffffffffffffffffffffffffffffffffffffff1673ffffffffffffffffffffffffffffffffffffffff1673ffffffffffffffffffffffffffffffffffffffff16815260200160028201805461119990613605565b80601f01602080910402602001604051908101604052809291908181526020018280546111c590613605565b80156112125780601f106111e757610100808354040283529160200191611212565b820191906000526020600020905b8154815290600101906020018083116111f557829003601f168201915b505050505081526020016003820180548060200260200160405190810160405280929190818152602001828054801561126a57602002820191906000526020600020905b815481526020019060010190808311611256575b505050505081526020016004820160009054906101000a900460ff16151515158152505090508060600151915050919050565b6112a5612cf1565b6000600360008473ffffffffffffffffffffffffffffffffffffffff1673ffffffffffffffffffffffffffffffffffffffff1681526020019081526020016000206040518060a001604052908160008201805461130190613605565b80601f016020809104026020016040519081016040528092919081815260200182805461132d90613605565b801561137a5780601f1061134f5761010080835404028352916020019161137a565b820191906000526020600020905b81548152906001019060200180831161135d57829003601f168201915b505050505081526020016001820160009054906101000a900473ffffffffffffffffffffffffffffffffffffffff1673ffffffffffffffffffffffffffffffffffffffff1673ffffffffffffffffffffffffffffffffffffffff1681526020016002820180546113e990613605565b80601f016020809104026020016040519081016040528092919081815260200182805461141590613605565b80156114625780601f1061143757610100808354040283529160200191611462565b820191906000526020600020905b81548152906001019060200180831161144557829003601f168201915b50505050508152602001600382018054806020026020016040519081016040528092919081815260200182805480156114ba57602002820191906000526020600020905b8154815260200190600101908083116114a6575b505050505081526020016004820160009054906101000a900460ff161515151581525050905080915050919050565b6002600054141561152f576040517f08c379a000000000000000000000000000000000000000000000000000000000815260040161152690613392565b60405180910390fd5b60026000819055506000600360003373ffffffffffffffffffffffffffffffffffffffff1673ffffffffffffffffffffffffffffffffffffffff16815260200190815260200160002090508060040160009054906101000a900460ff166117d6576040518060a0016040528086868080601f016020809104026020016040519081016040528093929190818152602001838380828437600081840152601f19601f8201169050808301925050505050505081526020013373ffffffffffffffffffffffffffffffffffffffff16815260200184848080601f016020809104026020016040519081016040528093929190818152602001838380828437600081840152601f19601f820116905080830192505050505050508152602001600067ffffffffffffffff81111561168c577f4e487b7100000000000000000000000000000000000000000000000000000000600052604160045260246000fd5b6040519080825280602002602001820160405280156116ba5781602001602082028036833780820191505090505b50815260200160011515815250600360003373ffffffffffffffffffffffffffffffffffffffff1673ffffffffffffffffffffffffffffffffffffffff1681526020019081526020016000206000820151816000019080519060200190611722929190612c1e565b5060208201518160010160006101000a81548173ffffffffffffffffffffffffffffffffffffffff021916908373ffffffffffffffffffffffffffffffffffffffff1602179055506040820151816002019080519060200190611786929190612c1e565b5060608201518160030190805190602001906117a3929190612ca4565b5060808201518160040160006101000a81548160ff0219169083151502179055509050506117d16001612bfa565b6117ff565b84848260000191906117e9929190612d38565b5082828260020191906117fd929190612d38565b505b50600160008190555050505050565b60026000541415611854576040517f08c379a000000000000000000000000000000000000000000000000000000000815260040161184b90613392565b60405180910390fd5b60026000819055506000600360008473ffffffffffffffffffffffffffffffffffffffff1673ffffffffffffffffffffffffffffffffffffffff1681526020019081526020016000206040518060a00160405290816000820180546118b890613605565b80601f01602080910402602001604051908101604052809291908181526020018280546118e490613605565b80156119315780601f1061190657610100808354040283529160200191611931565b820191906000526020600020905b81548152906001019060200180831161191457829003601f168201915b505050505081526020016001820160009054906101000a900473ffffffffffffffffffffffffffffffffffffffff1673ffffffffffffffffffffffffffffffffffffffff1673ffffffffffffffffffffffffffffffffffffffff1681526020016002820180546119a090613605565b80601f01602080910402602001604051908101604052809291908181526020018280546119cc90613605565b8015611a195780601f106119ee57610100808354040283529160200191611a19565b820191906000526020600020905b8154815290600101906020018083116119fc57829003601f168201915b5050505050815260200160038201805480602002602001604051908101604052809291908181526020018280548015611a7157602002820191906000526020600020905b815481526020019060010190808311611a5d575b505050505081526020016004820160009054906101000a900460ff16151515158152505090508060800151611c78576040518060a001604052806040518060200160405280600081525081526020018473ffffffffffffffffffffffffffffffffffffffff168152602001604051806020016040528060008152508152602001600067ffffffffffffffff811115611b32577f4e487b7100000000000000000000000000000000000000000000000000000000600052604160045260246000fd5b604051908082528060200260200182016040528015611b605781602001602082028036833780820191505090505b50815260200160011515815250600360003373ffffffffffffffffffffffffffffffffffffffff1673ffffffffffffffffffffffffffffffffffffffff1681526020019081526020016000206000820151816000019080519060200190611bc8929190612c1e565b5060208201518160010160006101000a81548173ffffffffffffffffffffffffffffffffffffffff021916908373ffffffffffffffffffffffffffffffffffffffff1602179055506040820151816002019080519060200190611c2c929190612c1e565b506060820151816003019080519060200190611c49929190612ca4565b5060808201518160040160006101000a81548160ff021916908315150217905550905050611c776001612bfa565b5b6000611c846002612c10565b90506040518060a0016040528082815260200160016002811115611cd1577f4e487b7100000000000000000000000000000000000000000000000000000000600052602160045260246000fd5b8152602001848152602001600081526020018573ffffffffffffffffffffffffffffffffffffffff16815250600460008381526020019081526020016000206000820151816000015560208201518160010160006101000a81548160ff02191690836002811115611d6b577f4e487b7100000000000000000000000000000000000000000000000000000000600052602160045260246000fd5b0217905550604082015181600201556060820151816003015560808201518160040160006101000a81548173ffffffffffffffffffffffffffffffffffffffff021916908373ffffffffffffffffffffffffffffffffffffffff160217905550905050611dd86002612bfa565b505060016000819055505050565b60026000541415611e2c576040517f08c379a0000000000000000000000000000000000000000000000000000000008152600401611e2390613392565b60405180910390fd5b60026000819055506000600360008573ffffffffffffffffffffffffffffffffffffffff1673ffffffffffffffffffffffffffffffffffffffff1681526020019081526020016000206040518060a0016040529081600082018054611e9090613605565b80601f0160208091040260200160405190810160405280929190818152602001828054611ebc90613605565b8015611f095780601f10611ede57610100808354040283529160200191611f09565b820191906000526020600020905b815481529060010190602001808311611eec57829003601f168201915b505050505081526020016001820160009054906101000a900473ffffffffffffffffffffffffffffffffffffffff1673ffffffffffffffffffffffffffffffffffffffff1673ffffffffffffffffffffffffffffffffffffffff168152602001600282018054611f7890613605565b80601f0160208091040260200160405190810160405280929190818152602001828054611fa490613605565b8015611ff15780601f10611fc657610100808354040283529160200191611ff1565b820191906000526020600020905b815481529060010190602001808311611fd457829003601f168201915b505050505081526020016003820180548060200260200160405190810160405280929190818152602001828054801561204957602002820191906000526020600020905b815481526020019060010190808311612035575b505050505081526020016004820160009054906101000a900460ff16151515158152505090508060800151612250576040518060a001604052806040518060200160405280600081525081526020018573ffffffffffffffffffffffffffffffffffffffff168152602001604051806020016040528060008152508152602001600067ffffffffffffffff81111561210a577f4e487b7100000000000000000000000000000000000000000000000000000000600052604160045260246000fd5b6040519080825280602002602001820160405280156121385781602001602082028036833780820191505090505b50815260200160011515815250600360003373ffffffffffffffffffffffffffffffffffffffff1673ffffffffffffffffffffffffffffffffffffffff16815260200190815260200160002060008201518160000190805190602001906121a0929190612c1e565b5060208201518160010160006101000a81548173ffffffffffffffffffffffffffffffffffffffff021916908373ffffffffffffffffffffffffffffffffffffffff1602179055506040820151816002019080519060200190612204929190612c1e565b506060820151816003019080519060200190612221929190612ca4565b5060808201518160040160006101000a81548160ff02191690831515021790555090505061224f6001612bfa565b5b600061225c6002612c10565b90506040518060a00160405280828152602001600060028111156122a9577f4e487b7100000000000000000000000000000000000000000000000000000000600052602160045260246000fd5b81526020018581526020018481526020018673ffffffffffffffffffffffffffffffffffffffff16815250600460008381526020019081526020016000206000820151816000015560208201518160010160006101000a81548160ff02191690836002811115612342577f4e487b7100000000000000000000000000000000000000000000000000000000600052602160045260246000fd5b0217905550604082015181600201556060820151816003015560808201518160040160006101000a81548173ffffffffffffffffffffffffffffffffffffffff021916908373ffffffffffffffffffffffffffffffffffffffff1602179055509050506123af6002612bfa565b50506001600081905550505050565b60026000541415612404576040517f08c379a00000000000000000000000000000000000000000000000000000000081526004016123fb90613392565b60405180910390fd5b60026000819055506000600360008473ffffffffffffffffffffffffffffffffffffffff1673ffffffffffffffffffffffffffffffffffffffff1681526020019081526020016000206040518060a001604052908160008201805461246890613605565b80601f016020809104026020016040519081016040528092919081815260200182805461249490613605565b80156124e15780601f106124b6576101008083540402835291602001916124e1565b820191906000526020600020905b8154815290600101906020018083116124c457829003601f168201915b505050505081526020016001820160009054906101000a900473ffffffffffffffffffffffffffffffffffffffff1673ffffffffffffffffffffffffffffffffffffffff1673ffffffffffffffffffffffffffffffffffffffff16815260200160028201805461255090613605565b80601f016020809104026020016040519081016040528092919081815260200182805461257c90613605565b80156125c95780601f1061259e576101008083540402835291602001916125c9565b820191906000526020600020905b8154815290600101906020018083116125ac57829003601f168201915b505050505081526020016003820180548060200260200160405190810160405280929190818152602001828054801561262157602002820191906000526020600020905b81548152602001906001019080831161260d575b505050505081526020016004820160009054906101000a900460ff16151515158152505090508060800151612828576040518060a001604052806040518060200160405280600081525081526020013373ffffffffffffffffffffffffffffffffffffffff168152602001604051806020016040528060008152508152602001600067ffffffffffffffff8111156126e2577f4e487b7100000000000000000000000000000000000000000000000000000000600052604160045260246000fd5b6040519080825280602002602001820160405280156127105781602001602082028036833780820191505090505b50815260200160011515815250600360003373ffffffffffffffffffffffffffffffffffffffff1673ffffffffffffffffffffffffffffffffffffffff1681526020019081526020016000206000820151816000019080519060200190612778929190612c1e565b5060208201518160010160006101000a81548173ffffffffffffffffffffffffffffffffffffffff021916908373ffffffffffffffffffffffffffffffffffffffff16021790555060408201518160020190805190602001906127dc929190612c1e565b5060608201518160030190805190602001906127f9929190612ca4565b5060808201518160040160006101000a81548160ff0219169083151502179055509050506128276001612bfa565b5b6000600360008573ffffffffffffffffffffffffffffffffffffffff1673ffffffffffffffffffffffffffffffffffffffff168152602001908152602001600020905080600301839080600181540180825580915050600190039060005260206000200160009091909190915055505060016000819055505050565b606060006128b26002612c10565b90506000805b82811015612948578473ffffffffffffffffffffffffffffffffffffffff166004600083815260200190815260200160002060040160009054906101000a900473ffffffffffffffffffffffffffffffffffffffff1673ffffffffffffffffffffffffffffffffffffffff161415612937578161293490613637565b91505b8061294190613637565b90506128b8565b50600681111561295757600690505b60008167ffffffffffffffff811115612999577f4e487b7100000000000000000000000000000000000000000000000000000000600052604160045260246000fd5b6040519080825280602002602001820160405280156129d257816020015b6129bf612dbe565b8152602001906001900390816129b75790505b5090506000808490505b6000811180156129eb57508382105b15612bed578673ffffffffffffffffffffffffffffffffffffffff1660046000600184612a1891906134f5565b815260200190815260200160002060040160009054906101000a900473ffffffffffffffffffffffffffffffffffffffff1673ffffffffffffffffffffffffffffffffffffffff161415612bdc5760046000600183612a7791906134f5565b81526020019081526020016000206040518060a0016040529081600082015481526020016001820160009054906101000a900460ff166002811115612ae5577f4e487b7100000000000000000000000000000000000000000000000000000000600052602160045260246000fd5b6002811115612b1d577f4e487b7100000000000000000000000000000000000000000000000000000000600052602160045260246000fd5b815260200160028201548152602001600382015481526020016004820160009054906101000a900473ffffffffffffffffffffffffffffffffffffffff1673ffffffffffffffffffffffffffffffffffffffff1673ffffffffffffffffffffffffffffffffffffffff1681525050838381518110612bc4577f4e487b7100000000000000000000000000000000000000000000000000000000600052603260045260246000fd5b602002602001018190525081612bd990613637565b91505b80612be6906135db565b90506129dc565b5081945050505050919050565b6001816000016000828254019250508190555050565b600081600001549050919050565b828054612c2a90613605565b90600052602060002090601f016020900481019282612c4c5760008555612c93565b82601f10612c6557805160ff1916838001178555612c93565b82800160010185558215612c93579182015b82811115612c92578251825591602001919060010190612c77565b5b509050612ca09190612e3b565b5090565b828054828255906000526020600020908101928215612ce0579160200282015b82811115612cdf578251825591602001919060010190612cc4565b5b509050612ced9190612e3b565b5090565b6040518060a0016040528060608152602001600073ffffffffffffffffffffffffffffffffffffffff16815260200160608152602001606081526020016000151581525090565b828054612d4490613605565b90600052602060002090601f016020900481019282612d665760008555612dad565b82601f10612d7f57803560ff1916838001178555612dad565b82800160010185558215612dad579182015b82811115612dac578235825591602001919060010190612d91565b5b509050612dba9190612e3b565b5090565b6040518060a001604052806000815260200160006002811115612e0a577f4e487b7100000000000000000000000000000000000000000000000000000000600052602160045260246000fd5b81526020016000815260200160008152602001600073ffffffffffffffffffffffffffffffffffffffff1681525090565b5b80821115612e54576000816000905550600101612e3c565b5090565b600081359050612e6781613784565b92915050565b60008083601f840112612e7f57600080fd5b8235905067ffffffffffffffff811115612e9857600080fd5b602083019150836001820283011115612eb057600080fd5b9250929050565b600081359050612ec68161379b565b92915050565b600060208284031215612ede57600080fd5b6000612eec84828501612e58565b91505092915050565b60008060408385031215612f0857600080fd5b6000612f1685828601612e58565b9250506020612f2785828601612eb7565b9150509250929050565b600080600060608486031215612f4657600080fd5b6000612f5486828701612e58565b9350506020612f6586828701612eb7565b9250506040612f7686828701612eb7565b9150509250925092565b60008060008060408587031215612f9657600080fd5b600085013567ffffffffffffffff811115612fb057600080fd5b612fbc87828801612e6d565b9450945050602085013567ffffffffffffffff811115612fdb57600080fd5b612fe787828801612e6d565b925092505092959194509250565b60006130018383613209565b60a08301905092915050565b600061301983836132f5565b60208301905092915050565b61302e8161353b565b82525050565b61303d81613529565b82525050565b600061304e8261340f565b613058818561344a565b9350613063836133ef565b8060005b8381101561309457815161307b8882612ff5565b975061308683613430565b925050600181019050613067565b5085935050505092915050565b60006130ac8261341a565b6130b6818561345b565b93506130c1836133ff565b8060005b838110156130f25781516130d9888261300d565b97506130e48361343d565b9250506001810190506130c5565b5085935050505092915050565b600061310a8261341a565b613114818561346c565b935061311f836133ff565b8060005b83811015613150578151613137888261300d565b97506131428361343d565b925050600181019050613123565b5085935050505092915050565b6131668161354d565b82525050565b6131758161354d565b82525050565b61318481613596565b82525050565b600061319582613425565b61319f818561347d565b93506131af8185602086016135a8565b6131b88161370d565b840191505092915050565b60006131d0600c8361348e565b91506131db8261371e565b602082019050919050565b60006131f3601f8361348e565b91506131fe82613747565b602082019050919050565b60a08201600082015161321f60008501826132f5565b506020820151613232602085018261317b565b50604082015161324560408501826132f5565b50606082015161325860608501826132f5565b50608082015161326b6080850182613034565b50505050565b600060a083016000830151848203600086015261328e828261318a565b91505060208301516132a36020860182613025565b50604083015184820360408601526132bb828261318a565b915050606083015184820360608601526132d582826130a1565b91505060808301516132ea608086018261315d565b508091505092915050565b6132fe8161358c565b82525050565b61330d8161358c565b82525050565b6000602082019050818103600083015261332d8184613043565b905092915050565b6000602082019050818103600083015261334f81846130ff565b905092915050565b600060208201905061336c600083018461316c565b92915050565b6000602082019050818103600083015261338b816131c3565b9050919050565b600060208201905081810360008301526133ab816131e6565b9050919050565b600060208201905081810360008301526133cc8184613271565b905092915050565b60006020820190506133e96000830184613304565b92915050565b6000819050602082019050919050565b6000819050602082019050919050565b600081519050919050565b600081519050919050565b600081519050919050565b6000602082019050919050565b6000602082019050919050565b600082825260208201905092915050565b600082825260208201905092915050565b600082825260208201905092915050565b600082825260208201905092915050565b600082825260208201905092915050565b60006134aa8261358c565b91506134b58361358c565b9250827fffffffffffffffffffffffffffffffffffffffffffffffffffffffffffffffff038211156134ea576134e9613680565b5b828201905092915050565b60006135008261358c565b915061350b8361358c565b92508282101561351e5761351d613680565b5b828203905092915050565b60006135348261356c565b9050919050565b60006135468261356c565b9050919050565b60008115159050919050565b600081905061356782613770565b919050565b600073ffffffffffffffffffffffffffffffffffffffff82169050919050565b6000819050919050565b60006135a182613559565b9050919050565b60005b838110156135c65780820151818401526020810190506135ab565b838111156135d5576000848401525b50505050565b60006135e68261358c565b915060008214156135fa576135f9613680565b5b600182039050919050565b6000600282049050600182168061361d57607f821691505b60208210811415613631576136306136de565b5b50919050565b60006136428261358c565b91507fffffffffffffffffffffffffffffffffffffffffffffffffffffffffffffffff82141561367557613674613680565b5b600182019050919050565b7f4e487b7100000000000000000000000000000000000000000000000000000000600052601160045260246000fd5b7f4e487b7100000000000000000000000000000000000000000000000000000000600052602160045260246000fd5b7f4e487b7100000000000000000000000000000000000000000000000000000000600052602260045260246000fd5b6000601f19601f8301169050919050565b7f4964206e6f7420666f756e640000000000000000000000000000000000000000600082015250565b7f5265656e7472616e637947756172643a207265656e7472616e742063616c6c00600082015250565b60038110613781576137806136af565b5b50565b61378d81613529565b811461379857600080fd5b50565b6137a48161358c565b81146137af57600080fd5b5056fea26469706673582212208144ad67caaf7243135c2b1a54d3cec954ffeb14fe919c7e11a9520be217df0664736f6c63430008040033",
  "linkReferences": {},
  "deployedLinkReferences": {}
}