{
  "_format": "hh-sol-artifact-1",
  "contractName": "Users",
  "sourceName": "contracts/Users.sol",
  "abi": [
    {
      "inputs": [
        {
          "internalType": "string",
          "name": "username",
          "type": "string"
        },
        {
          "internalType": "string",
          "name": "color",
          "type": "string"
        }
      ],
      "name": "createUser",
      "outputs": [],
      "stateMutability": "payable",
      "type": "function"
    },
    {
      "inputs": [],
      "name": "getCurrentUser",
      "outputs": [
        {
          "components": [
            {
              "internalType": "string",
              "name": "username",
              "type": "string"
            },
            {
              "internalType": "address payable",
              "name": "userAddress",
              "type": "address"
            },
            {
              "internalType": "string",
              "name": "color",
              "type": "string"
            }
          ],
          "internalType": "struct Users.User",
          "name": "",
          "type": "tuple"
        }
      ],
      "stateMutability": "view",
      "type": "function"
    },
    {
      "inputs": [],
      "name": "getNumberOfUsers",
      "outputs": [
        {
          "internalType": "uint256",
          "name": "",
          "type": "uint256"
        }
      ],
      "stateMutability": "view",
      "type": "function"
    },
    {
      "inputs": [
        {
          "internalType": "address",
          "name": "user",
          "type": "address"
        }
      ],
      "name": "getUser",
      "outputs": [
        {
          "components": [
            {
              "internalType": "string",
              "name": "username",
              "type": "string"
            },
            {
              "internalType": "address payable",
              "name": "userAddress",
              "type": "address"
            },
            {
              "internalType": "string",
              "name": "color",
              "type": "string"
            }
          ],
          "internalType": "struct Users.User",
          "name": "",
          "type": "tuple"
        }
      ],
      "stateMutability": "view",
      "type": "function"
    }
  ],
  "bytecode": "0x608060405234801561001057600080fd5b506001600081905550610b49806100286000396000f3fe60806040526004361061003f5760003560e01c806343ae37c3146100445780634d0092881461006f5780636f77926b1461009a57806387b162b5146100d7575b600080fd5b34801561005057600080fd5b506100596100f3565b6040516100669190610976565b60405180910390f35b34801561007b57600080fd5b506100846102c4565b6040516100919190610998565b60405180910390f35b3480156100a657600080fd5b506100c160048036038101906100bc91906107e7565b6102d5565b6040516100ce9190610976565b60405180910390f35b6100f160048036038101906100ec9190610810565b6104a8565b005b6100fb6106ae565b600260003373ffffffffffffffffffffffffffffffffffffffff1673ffffffffffffffffffffffffffffffffffffffff16815260200190815260200160002060405180606001604052908160008201805461015590610a61565b80601f016020809104026020016040519081016040528092919081815260200182805461018190610a61565b80156101ce5780601f106101a3576101008083540402835291602001916101ce565b820191906000526020600020905b8154815290600101906020018083116101b157829003601f168201915b505050505081526020016001820160009054906101000a900473ffffffffffffffffffffffffffffffffffffffff1673ffffffffffffffffffffffffffffffffffffffff1673ffffffffffffffffffffffffffffffffffffffff16815260200160028201805461023d90610a61565b80601f016020809104026020016040519081016040528092919081815260200182805461026990610a61565b80156102b65780601f1061028b576101008083540402835291602001916102b6565b820191906000526020600020905b81548152906001019060200180831161029957829003601f168201915b505050505081525050905090565b60006102d0600161068a565b905090565b6102dd6106ae565b600260008373ffffffffffffffffffffffffffffffffffffffff1673ffffffffffffffffffffffffffffffffffffffff16815260200190815260200160002060405180606001604052908160008201805461033790610a61565b80601f016020809104026020016040519081016040528092919081815260200182805461036390610a61565b80156103b05780601f10610385576101008083540402835291602001916103b0565b820191906000526020600020905b81548152906001019060200180831161039357829003601f168201915b505050505081526020016001820160009054906101000a900473ffffffffffffffffffffffffffffffffffffffff1673ffffffffffffffffffffffffffffffffffffffff1673ffffffffffffffffffffffffffffffffffffffff16815260200160028201805461041f90610a61565b80601f016020809104026020016040519081016040528092919081815260200182805461044b90610a61565b80156104985780601f1061046d57610100808354040283529160200191610498565b820191906000526020600020905b81548152906001019060200180831161047b57829003601f168201915b5050505050815250509050919050565b600260005414156104ee576040517f08c379a00000000000000000000000000000000000000000000000000000000081526004016104e590610956565b60405180910390fd5b6002600081905550604051806060016040528085858080601f016020809104026020016040519081016040528093929190818152602001838380828437600081840152601f19601f8201169050808301925050505050505081526020013373ffffffffffffffffffffffffffffffffffffffff16815260200183838080601f016020809104026020016040519081016040528093929190818152602001838380828437600081840152601f19601f82011690508083019250505050505050815250600260003373ffffffffffffffffffffffffffffffffffffffff1673ffffffffffffffffffffffffffffffffffffffff168152602001908152602001600020600082015181600001908051906020019061060a9291906106e5565b5060208201518160010160006101000a81548173ffffffffffffffffffffffffffffffffffffffff021916908373ffffffffffffffffffffffffffffffffffffffff160217905550604082015181600201908051906020019061066e9291906106e5565b5090505061067c6001610698565b600160008190555050505050565b600081600001549050919050565b6001816000016000828254019250508190555050565b604051806060016040528060608152602001600073ffffffffffffffffffffffffffffffffffffffff168152602001606081525090565b8280546106f190610a61565b90600052602060002090601f016020900481019282610713576000855561075a565b82601f1061072c57805160ff191683800117855561075a565b8280016001018555821561075a579182015b8281111561075957825182559160200191906001019061073e565b5b509050610767919061076b565b5090565b5b8082111561078457600081600090555060010161076c565b5090565b60008135905061079781610afc565b92915050565b60008083601f8401126107af57600080fd5b8235905067ffffffffffffffff8111156107c857600080fd5b6020830191508360018202830111156107e057600080fd5b9250929050565b6000602082840312156107f957600080fd5b600061080784828501610788565b91505092915050565b6000806000806040858703121561082657600080fd5b600085013567ffffffffffffffff81111561084057600080fd5b61084c8782880161079d565b9450945050602085013567ffffffffffffffff81111561086b57600080fd5b6108778782880161079d565b925092505092959194509250565b61088e816109f2565b82525050565b600061089f826109b3565b6108a981856109be565b93506108b9818560208601610a2e565b6108c281610ac2565b840191505092915050565b60006108da601f836109cf565b91506108e582610ad3565b602082019050919050565b6000606083016000830151848203600086015261090d8282610894565b91505060208301516109226020860182610885565b506040830151848203604086015261093a8282610894565b9150508091505092915050565b61095081610a24565b82525050565b6000602082019050818103600083015261096f816108cd565b9050919050565b6000602082019050818103600083015261099081846108f0565b905092915050565b60006020820190506109ad6000830184610947565b92915050565b600081519050919050565b600082825260208201905092915050565b600082825260208201905092915050565b60006109eb82610a04565b9050919050565b60006109fd82610a04565b9050919050565b600073ffffffffffffffffffffffffffffffffffffffff82169050919050565b6000819050919050565b60005b83811015610a4c578082015181840152602081019050610a31565b83811115610a5b576000848401525b50505050565b60006002820490506001821680610a7957607f821691505b60208210811415610a8d57610a8c610a93565b5b50919050565b7f4e487b7100000000000000000000000000000000000000000000000000000000600052602260045260246000fd5b6000601f19601f8301169050919050565b7f5265656e7472616e637947756172643a207265656e7472616e742063616c6c00600082015250565b610b05816109e0565b8114610b1057600080fd5b5056fea2646970667358221220f5d18c1b44e7ae30e67d47178c014a8dac57f5eba75656a75a976272031e6d3064736f6c63430008040033",
  "linkReferences": {},
  "deployedLinkReferences": {}
}