{
  "_format": "hh-sol-artifact-1",
  "contractName": "ICO",
  "sourceName": "contracts/ivoryICO.sol",
  "abi": [
    {
      "inputs": [
        {
          "internalType": "address",
          "name": "owner",
          "type": "address"
        },
        {
          "internalType": "uint256",
          "name": "initialSupply",
          "type": "uint256"
        },
        {
          "internalType": "uint256",
          "name": "tokenRate",
          "type": "uint256"
        }
      ],
      "stateMutability": "nonpayable",
      "type": "constructor"
    },
    {
      "anonymous": false,
      "inputs": [
        {
          "indexed": true,
          "internalType": "address",
          "name": "owner",
          "type": "address"
        },
        {
          "indexed": true,
          "internalType": "address",
          "name": "spender",
          "type": "address"
        },
        {
          "indexed": false,
          "internalType": "uint256",
          "name": "value",
          "type": "uint256"
        }
      ],
      "name": "Approval",
      "type": "event"
    },
    {
      "anonymous": false,
      "inputs": [
        {
          "indexed": true,
          "internalType": "address",
          "name": "previousOwner",
          "type": "address"
        },
        {
          "indexed": true,
          "internalType": "address",
          "name": "newOwner",
          "type": "address"
        }
      ],
      "name": "OwnershipTransferred",
      "type": "event"
    },
    {
      "anonymous": false,
      "inputs": [
        {
          "indexed": true,
          "internalType": "address",
          "name": "from",
          "type": "address"
        },
        {
          "indexed": true,
          "internalType": "address",
          "name": "to",
          "type": "address"
        },
        {
          "indexed": false,
          "internalType": "uint256",
          "name": "value",
          "type": "uint256"
        }
      ],
      "name": "Transfer",
      "type": "event"
    },
    {
      "inputs": [],
      "name": "accountBalance",
      "outputs": [
        {
          "internalType": "uint256",
          "name": "",
          "type": "uint256"
        }
      ],
      "stateMutability": "view",
      "type": "function"
    },
    {
      "inputs": [
        {
          "internalType": "address",
          "name": "owner",
          "type": "address"
        },
        {
          "internalType": "address",
          "name": "spender",
          "type": "address"
        }
      ],
      "name": "allowance",
      "outputs": [
        {
          "internalType": "uint256",
          "name": "",
          "type": "uint256"
        }
      ],
      "stateMutability": "view",
      "type": "function"
    },
    {
      "inputs": [
        {
          "internalType": "address",
          "name": "spender",
          "type": "address"
        },
        {
          "internalType": "uint256",
          "name": "amount",
          "type": "uint256"
        }
      ],
      "name": "approve",
      "outputs": [
        {
          "internalType": "bool",
          "name": "",
          "type": "bool"
        }
      ],
      "stateMutability": "nonpayable",
      "type": "function"
    },
    {
      "inputs": [
        {
          "internalType": "address",
          "name": "account",
          "type": "address"
        }
      ],
      "name": "balanceOf",
      "outputs": [
        {
          "internalType": "uint256",
          "name": "",
          "type": "uint256"
        }
      ],
      "stateMutability": "view",
      "type": "function"
    },
    {
      "inputs": [
        {
          "internalType": "address",
          "name": "account",
          "type": "address"
        },
        {
          "internalType": "uint256",
          "name": "amount",
          "type": "uint256"
        }
      ],
      "name": "burn",
      "outputs": [],
      "stateMutability": "nonpayable",
      "type": "function"
    },
    {
      "inputs": [],
      "name": "buy",
      "outputs": [],
      "stateMutability": "payable",
      "type": "function"
    },
    {
      "inputs": [],
      "name": "decimals",
      "outputs": [
        {
          "internalType": "uint8",
          "name": "",
          "type": "uint8"
        }
      ],
      "stateMutability": "view",
      "type": "function"
    },
    {
      "inputs": [
        {
          "internalType": "address",
          "name": "spender",
          "type": "address"
        },
        {
          "internalType": "uint256",
          "name": "subtractedValue",
          "type": "uint256"
        }
      ],
      "name": "decreaseAllowance",
      "outputs": [
        {
          "internalType": "bool",
          "name": "",
          "type": "bool"
        }
      ],
      "stateMutability": "nonpayable",
      "type": "function"
    },
    {
      "inputs": [],
      "name": "description",
      "outputs": [
        {
          "internalType": "string",
          "name": "",
          "type": "string"
        }
      ],
      "stateMutability": "view",
      "type": "function"
    },
    {
      "inputs": [
        {
          "internalType": "address",
          "name": "spender",
          "type": "address"
        },
        {
          "internalType": "uint256",
          "name": "addedValue",
          "type": "uint256"
        }
      ],
      "name": "increaseAllowance",
      "outputs": [
        {
          "internalType": "bool",
          "name": "",
          "type": "bool"
        }
      ],
      "stateMutability": "nonpayable",
      "type": "function"
    },
    {
      "inputs": [],
      "name": "info",
      "outputs": [
        {
          "internalType": "string",
          "name": "",
          "type": "string"
        }
      ],
      "stateMutability": "view",
      "type": "function"
    },
    {
      "inputs": [],
      "name": "leftSupply",
      "outputs": [
        {
          "internalType": "uint256",
          "name": "",
          "type": "uint256"
        }
      ],
      "stateMutability": "view",
      "type": "function"
    },
    {
      "inputs": [
        {
          "internalType": "address",
          "name": "account",
          "type": "address"
        },
        {
          "internalType": "uint256",
          "name": "amount",
          "type": "uint256"
        }
      ],
      "name": "mint",
      "outputs": [],
      "stateMutability": "nonpayable",
      "type": "function"
    },
    {
      "inputs": [],
      "name": "name",
      "outputs": [
        {
          "internalType": "string",
          "name": "",
          "type": "string"
        }
      ],
      "stateMutability": "view",
      "type": "function"
    },
    {
      "inputs": [],
      "name": "owner",
      "outputs": [
        {
          "internalType": "address",
          "name": "",
          "type": "address"
        }
      ],
      "stateMutability": "view",
      "type": "function"
    },
    {
      "inputs": [],
      "name": "rate",
      "outputs": [
        {
          "internalType": "uint256",
          "name": "",
          "type": "uint256"
        }
      ],
      "stateMutability": "view",
      "type": "function"
    },
    {
      "inputs": [],
      "name": "renounceOwnership",
      "outputs": [],
      "stateMutability": "nonpayable",
      "type": "function"
    },
    {
      "inputs": [],
      "name": "symbol",
      "outputs": [
        {
          "internalType": "string",
          "name": "",
          "type": "string"
        }
      ],
      "stateMutability": "view",
      "type": "function"
    },
    {
      "inputs": [],
      "name": "title",
      "outputs": [
        {
          "internalType": "string",
          "name": "",
          "type": "string"
        }
      ],
      "stateMutability": "view",
      "type": "function"
    },
    {
      "inputs": [],
      "name": "totalSupply",
      "outputs": [
        {
          "internalType": "uint256",
          "name": "",
          "type": "uint256"
        }
      ],
      "stateMutability": "view",
      "type": "function"
    },
    {
      "inputs": [
        {
          "internalType": "address",
          "name": "to",
          "type": "address"
        },
        {
          "internalType": "uint256",
          "name": "amount",
          "type": "uint256"
        }
      ],
      "name": "transfer",
      "outputs": [
        {
          "internalType": "bool",
          "name": "",
          "type": "bool"
        }
      ],
      "stateMutability": "nonpayable",
      "type": "function"
    },
    {
      "inputs": [
        {
          "internalType": "address",
          "name": "from",
          "type": "address"
        },
        {
          "internalType": "address",
          "name": "to",
          "type": "address"
        },
        {
          "internalType": "uint256",
          "name": "amount",
          "type": "uint256"
        }
      ],
      "name": "transferFrom",
      "outputs": [
        {
          "internalType": "bool",
          "name": "",
          "type": "bool"
        }
      ],
      "stateMutability": "nonpayable",
      "type": "function"
    },
    {
      "inputs": [
        {
          "internalType": "address",
          "name": "newOwner",
          "type": "address"
        }
      ],
      "name": "transferOwnership",
      "outputs": [],
      "stateMutability": "nonpayable",
      "type": "function"
    },
    {
      "inputs": [],
      "name": "url",
      "outputs": [
        {
          "internalType": "string",
          "name": "",
          "type": "string"
        }
      ],
      "stateMutability": "view",
      "type": "function"
    },
    {
      "inputs": [
        {
          "internalType": "uint256",
          "name": "amount",
          "type": "uint256"
        }
      ],
      "name": "withdraw",
      "outputs": [],
      "stateMutability": "nonpayable",
      "type": "function"
    }
  ],
  "bytecode": "0x60806040523480156200001157600080fd5b5060405162003f7638038062003f768339818101604052810190620000379190620006d9565b6040518060400160405280600981526020017f69766f7279436f696e00000000000000000000000000000000000000000000008152506040518060400160405280600381526020017f49564f00000000000000000000000000000000000000000000000000000000008152508160039080519060200190620000bb929190620005fb565b508060049080519060200190620000d4929190620005fb565b505050620000f7620000eb6200026060201b60201c565b6200026860201b60201c565b60016006819055506200012683670de0b6b3a7640000846200011a9190620008a6565b6200032e60201b60201c565b6200013783620004a760201b60201c565b806007819055506040518060400160405280600881526020017f49766f727949434f000000000000000000000000000000000000000000000000815250600990805190602001906200018b929190620005fb565b5060405180606001604052806027815260200162003f4f60279139600a9080519060200190620001bd929190620005fb565b5060405180610a400160405280610a0c815260200162003543610a0c9139600b9080519060200190620001f2929190620005fb565b506040518060400160405280601e81526020017f68747470733a2f2f69766f727966756e642e6e65746c6966792e6170702f0000815250600c908051906020019062000240929190620005fb565b5062000251620005bd60201b60201c565b60088190555050505062000aae565b600033905090565b6000600560009054906101000a900473ffffffffffffffffffffffffffffffffffffffff16905081600560006101000a81548173ffffffffffffffffffffffffffffffffffffffff021916908373ffffffffffffffffffffffffffffffffffffffff1602179055508173ffffffffffffffffffffffffffffffffffffffff168173ffffffffffffffffffffffffffffffffffffffff167f8be0079c531659141344cd1fd0a4f28419497f9722a3daafe3b4186f6b6457e060405160405180910390a35050565b600073ffffffffffffffffffffffffffffffffffffffff168273ffffffffffffffffffffffffffffffffffffffff161415620003a1576040517f08c379a00000000000000000000000000000000000000000000000000000000081526004016200039890620007f9565b60405180910390fd5b620003b560008383620005c760201b60201c565b8060026000828254620003c9919062000849565b92505081905550806000808473ffffffffffffffffffffffffffffffffffffffff1673ffffffffffffffffffffffffffffffffffffffff168152602001908152602001600020600082825462000420919062000849565b925050819055508173ffffffffffffffffffffffffffffffffffffffff16600073ffffffffffffffffffffffffffffffffffffffff167fddf252ad1be2c89b69c2b068fc378daa952ba7f163c4a11628f55a4df523b3ef836040516200048791906200081b565b60405180910390a3620004a360008383620005cc60201b60201c565b5050565b620004b76200026060201b60201c565b73ffffffffffffffffffffffffffffffffffffffff16620004dd620005d160201b60201c565b73ffffffffffffffffffffffffffffffffffffffff161462000536576040517f08c379a00000000000000000000000000000000000000000000000000000000081526004016200052d90620007d7565b60405180910390fd5b600073ffffffffffffffffffffffffffffffffffffffff168173ffffffffffffffffffffffffffffffffffffffff161415620005a9576040517f08c379a0000000000000000000000000000000000000000000000000000000008152600401620005a090620007b5565b60405180910390fd5b620005ba816200026860201b60201c565b50565b6000600254905090565b505050565b505050565b6000600560009054906101000a900473ffffffffffffffffffffffffffffffffffffffff16905090565b828054620006099062000945565b90600052602060002090601f0160209004810192826200062d576000855562000679565b82601f106200064857805160ff191683800117855562000679565b8280016001018555821562000679579182015b82811115620006785782518255916020019190600101906200065b565b5b5090506200068891906200068c565b5090565b5b80821115620006a75760008160009055506001016200068d565b5090565b600081519050620006bc8162000a7a565b92915050565b600081519050620006d38162000a94565b92915050565b600080600060608486031215620006ef57600080fd5b6000620006ff86828701620006ab565b93505060206200071286828701620006c2565b92505060406200072586828701620006c2565b9150509250925092565b60006200073e60268362000838565b91506200074b82620009d9565b604082019050919050565b60006200076560208362000838565b9150620007728262000a28565b602082019050919050565b60006200078c601f8362000838565b9150620007998262000a51565b602082019050919050565b620007af816200093b565b82525050565b60006020820190508181036000830152620007d0816200072f565b9050919050565b60006020820190508181036000830152620007f28162000756565b9050919050565b6000602082019050818103600083015262000814816200077d565b9050919050565b6000602082019050620008326000830184620007a4565b92915050565b600082825260208201905092915050565b600062000856826200093b565b915062000863836200093b565b9250827fffffffffffffffffffffffffffffffffffffffffffffffffffffffffffffffff038211156200089b576200089a6200097b565b5b828201905092915050565b6000620008b3826200093b565b9150620008c0836200093b565b9250817fffffffffffffffffffffffffffffffffffffffffffffffffffffffffffffffff0483118215151615620008fc57620008fb6200097b565b5b828202905092915050565b600062000914826200091b565b9050919050565b600073ffffffffffffffffffffffffffffffffffffffff82169050919050565b6000819050919050565b600060028204905060018216806200095e57607f821691505b60208210811415620009755762000974620009aa565b5b50919050565b7f4e487b7100000000000000000000000000000000000000000000000000000000600052601160045260246000fd5b7f4e487b7100000000000000000000000000000000000000000000000000000000600052602260045260246000fd5b7f4f776e61626c653a206e6577206f776e657220697320746865207a65726f206160008201527f6464726573730000000000000000000000000000000000000000000000000000602082015250565b7f4f776e61626c653a2063616c6c6572206973206e6f7420746865206f776e6572600082015250565b7f45524332303a206d696e7420746f20746865207a65726f206164647265737300600082015250565b62000a858162000907565b811462000a9157600080fd5b50565b62000a9f816200093b565b811462000aab57600080fd5b50565b612a858062000abe6000396000f3fe6080604052600436106101665760003560e01c806370a08231116100d1578063a457c2d71161008a578063b0a1c1c411610064578063b0a1c1c414610523578063cacb3a211461054e578063dd62ed3e14610579578063f2fde38b146105b657610166565b8063a457c2d71461049f578063a6f2ae3a146104dc578063a9059cbb146104e657610166565b806370a08231146103a1578063715018a6146103de5780637284e416146103f55780638da5cb5b1461042057806395d89b411461044b5780639dc29fac1461047657610166565b8063313ce56711610123578063313ce5671461028f578063370158ea146102ba57806339509351146102e557806340c10f19146103225780634a79d50c1461034b5780635600f04f1461037657610166565b806306fdde031461016b578063095ea7b31461019657806318160ddd146101d357806323b872dd146101fe5780632c4e722e1461023b5780632e1a7d4d14610266575b600080fd5b34801561017757600080fd5b506101806105df565b60405161018d9190612047565b60405180910390f35b3480156101a257600080fd5b506101bd60048036038101906101b89190611c9e565b610671565b6040516101ca919061202c565b60405180910390f35b3480156101df57600080fd5b506101e8610694565b6040516101f591906122c9565b60405180910390f35b34801561020a57600080fd5b5061022560048036038101906102209190611c4f565b61069e565b604051610232919061202c565b60405180910390f35b34801561024757600080fd5b506102506106cd565b60405161025d91906122c9565b60405180910390f35b34801561027257600080fd5b5061028d60048036038101906102889190611cda565b6106d7565b005b34801561029b57600080fd5b506102a46107e7565b6040516102b191906122e4565b60405180910390f35b3480156102c657600080fd5b506102cf6107f0565b6040516102dc9190612047565b60405180910390f35b3480156102f157600080fd5b5061030c60048036038101906103079190611c9e565b610882565b604051610319919061202c565b60405180910390f35b34801561032e57600080fd5b5061034960048036038101906103449190611c9e565b61092c565b005b34801561035757600080fd5b50610360610a33565b60405161036d9190612047565b60405180910390f35b34801561038257600080fd5b5061038b610ac5565b6040516103989190612047565b60405180910390f35b3480156103ad57600080fd5b506103c860048036038101906103c39190611bea565b610b57565b6040516103d591906122c9565b60405180910390f35b3480156103ea57600080fd5b506103f3610b9f565b005b34801561040157600080fd5b5061040a610c27565b6040516104179190612047565b60405180910390f35b34801561042c57600080fd5b50610435610cb9565b6040516104429190612011565b60405180910390f35b34801561045757600080fd5b50610460610ce3565b60405161046d9190612047565b60405180910390f35b34801561048257600080fd5b5061049d60048036038101906104989190611c9e565b610d75565b005b3480156104ab57600080fd5b506104c660048036038101906104c19190611c9e565b610e7c565b6040516104d3919061202c565b60405180910390f35b6104e4610f66565b005b3480156104f257600080fd5b5061050d60048036038101906105089190611c9e565b611125565b60405161051a919061202c565b60405180910390f35b34801561052f57600080fd5b50610538611148565b60405161054591906122c9565b60405180910390f35b34801561055a57600080fd5b50610563611150565b60405161057091906122c9565b60405180910390f35b34801561058557600080fd5b506105a0600480360381019061059b9190611c13565b61115a565b6040516105ad91906122c9565b60405180910390f35b3480156105c257600080fd5b506105dd60048036038101906105d89190611bea565b6111e1565b005b6060600380546105ee90612487565b80601f016020809104026020016040519081016040528092919081815260200182805461061a90612487565b80156106675780601f1061063c57610100808354040283529160200191610667565b820191906000526020600020905b81548152906001019060200180831161064a57829003601f168201915b5050505050905090565b60008061067c6112d9565b90506106898185856112e1565b600191505092915050565b6000600254905090565b6000806106a96112d9565b90506106b68582856114ac565b6106c1858585611538565b60019150509392505050565b6000600754905090565b6106df6112d9565b73ffffffffffffffffffffffffffffffffffffffff166106fd610cb9565b73ffffffffffffffffffffffffffffffffffffffff1614610753576040517f08c379a000000000000000000000000000000000000000000000000000000000815260040161074a90612189565b60405180910390fd5b47811115610796576040517f08c379a000000000000000000000000000000000000000000000000000000000815260040161078d906120a9565b60405180910390fd5b61079e6112d9565b73ffffffffffffffffffffffffffffffffffffffff166108fc829081150290604051600060405180830381858888f193505050501580156107e3573d6000803e3d6000fd5b5050565b60006012905090565b6060600b80546107ff90612487565b80601f016020809104026020016040519081016040528092919081815260200182805461082b90612487565b80156108785780601f1061084d57610100808354040283529160200191610878565b820191906000526020600020905b81548152906001019060200180831161085b57829003601f168201915b5050505050905090565b60008061088d6112d9565b9050610921818585600160008673ffffffffffffffffffffffffffffffffffffffff1673ffffffffffffffffffffffffffffffffffffffff16815260200190815260200160002060008973ffffffffffffffffffffffffffffffffffffffff1673ffffffffffffffffffffffffffffffffffffffff1681526020019081526020016000205461091c919061231b565b6112e1565b600191505092915050565b6109346112d9565b73ffffffffffffffffffffffffffffffffffffffff16610952610cb9565b73ffffffffffffffffffffffffffffffffffffffff16146109a8576040517f08c379a000000000000000000000000000000000000000000000000000000000815260040161099f90612189565b60405180910390fd5b600073ffffffffffffffffffffffffffffffffffffffff168273ffffffffffffffffffffffffffffffffffffffff16141580156109e6575060008114155b610a25576040517f08c379a0000000000000000000000000000000000000000000000000000000008152600401610a1c906121c9565b60405180910390fd5b610a2f82826117b9565b5050565b606060098054610a4290612487565b80601f0160208091040260200160405190810160405280929190818152602001828054610a6e90612487565b8015610abb5780601f10610a9057610100808354040283529160200191610abb565b820191906000526020600020905b815481529060010190602001808311610a9e57829003601f168201915b5050505050905090565b6060600c8054610ad490612487565b80601f0160208091040260200160405190810160405280929190818152602001828054610b0090612487565b8015610b4d5780601f10610b2257610100808354040283529160200191610b4d565b820191906000526020600020905b815481529060010190602001808311610b3057829003601f168201915b5050505050905090565b60008060008373ffffffffffffffffffffffffffffffffffffffff1673ffffffffffffffffffffffffffffffffffffffff168152602001908152602001600020549050919050565b610ba76112d9565b73ffffffffffffffffffffffffffffffffffffffff16610bc5610cb9565b73ffffffffffffffffffffffffffffffffffffffff1614610c1b576040517f08c379a0000000000000000000000000000000000000000000000000000000008152600401610c1290612189565b60405180910390fd5b610c256000611919565b565b6060600a8054610c3690612487565b80601f0160208091040260200160405190810160405280929190818152602001828054610c6290612487565b8015610caf5780601f10610c8457610100808354040283529160200191610caf565b820191906000526020600020905b815481529060010190602001808311610c9257829003601f168201915b5050505050905090565b6000600560009054906101000a900473ffffffffffffffffffffffffffffffffffffffff16905090565b606060048054610cf290612487565b80601f0160208091040260200160405190810160405280929190818152602001828054610d1e90612487565b8015610d6b5780601f10610d4057610100808354040283529160200191610d6b565b820191906000526020600020905b815481529060010190602001808311610d4e57829003601f168201915b5050505050905090565b610d7d6112d9565b73ffffffffffffffffffffffffffffffffffffffff16610d9b610cb9565b73ffffffffffffffffffffffffffffffffffffffff1614610df1576040517f08c379a0000000000000000000000000000000000000000000000000000000008152600401610de890612189565b60405180910390fd5b600073ffffffffffffffffffffffffffffffffffffffff168273ffffffffffffffffffffffffffffffffffffffff1614158015610e2f575060008114155b610e6e576040517f08c379a0000000000000000000000000000000000000000000000000000000008152600401610e6590612229565b60405180910390fd5b610e7882826119df565b5050565b600080610e876112d9565b90506000600160008373ffffffffffffffffffffffffffffffffffffffff1673ffffffffffffffffffffffffffffffffffffffff16815260200190815260200160002060008673ffffffffffffffffffffffffffffffffffffffff1673ffffffffffffffffffffffffffffffffffffffff16815260200190815260200160002054905083811015610f4d576040517f08c379a0000000000000000000000000000000000000000000000000000000008152600401610f4490612289565b60405180910390fd5b610f5a82868684036112e1565b60019250505092915050565b60026006541415610fac576040517f08c379a0000000000000000000000000000000000000000000000000000000008152600401610fa390612269565b60405180910390fd5b6002600681905550610fbc610cb9565b73ffffffffffffffffffffffffffffffffffffffff163373ffffffffffffffffffffffffffffffffffffffff16141561102a576040517f08c379a000000000000000000000000000000000000000000000000000000000815260040161102190612169565b60405180910390fd5b343373ffffffffffffffffffffffffffffffffffffffff163110158015611052575060003414155b611091576040517f08c379a0000000000000000000000000000000000000000000000000000000008152600401611088906121a9565b60405180910390fd5b6000600754346110a19190612371565b90506008548111156110e8576040517f08c379a00000000000000000000000000000000000000000000000000000000081526004016110df90612129565b60405180910390fd5b80600860008282546110fa91906123cb565b9250508190555061111a61110c610cb9565b6111146112d9565b83611538565b506001600681905550565b6000806111306112d9565b905061113d818585611538565b600191505092915050565b600047905090565b6000600854905090565b6000600160008473ffffffffffffffffffffffffffffffffffffffff1673ffffffffffffffffffffffffffffffffffffffff16815260200190815260200160002060008373ffffffffffffffffffffffffffffffffffffffff1673ffffffffffffffffffffffffffffffffffffffff16815260200190815260200160002054905092915050565b6111e96112d9565b73ffffffffffffffffffffffffffffffffffffffff16611207610cb9565b73ffffffffffffffffffffffffffffffffffffffff161461125d576040517f08c379a000000000000000000000000000000000000000000000000000000000815260040161125490612189565b60405180910390fd5b600073ffffffffffffffffffffffffffffffffffffffff168173ffffffffffffffffffffffffffffffffffffffff1614156112cd576040517f08c379a00000000000000000000000000000000000000000000000000000000081526004016112c4906120c9565b60405180910390fd5b6112d681611919565b50565b600033905090565b600073ffffffffffffffffffffffffffffffffffffffff168373ffffffffffffffffffffffffffffffffffffffff161415611351576040517f08c379a000000000000000000000000000000000000000000000000000000000815260040161134890612249565b60405180910390fd5b600073ffffffffffffffffffffffffffffffffffffffff168273ffffffffffffffffffffffffffffffffffffffff1614156113c1576040517f08c379a00000000000000000000000000000000000000000000000000000000081526004016113b8906120e9565b60405180910390fd5b80600160008573ffffffffffffffffffffffffffffffffffffffff1673ffffffffffffffffffffffffffffffffffffffff16815260200190815260200160002060008473ffffffffffffffffffffffffffffffffffffffff1673ffffffffffffffffffffffffffffffffffffffff168152602001908152602001600020819055508173ffffffffffffffffffffffffffffffffffffffff168373ffffffffffffffffffffffffffffffffffffffff167f8c5be1e5ebec7d5bd14f71427d1e84f3dd0314c0f7b2291e5b200ac8c7c3b9258360405161149f91906122c9565b60405180910390a3505050565b60006114b8848461115a565b90507fffffffffffffffffffffffffffffffffffffffffffffffffffffffffffffffff81146115325781811015611524576040517f08c379a000000000000000000000000000000000000000000000000000000000815260040161151b90612109565b60405180910390fd5b61153184848484036112e1565b5b50505050565b600073ffffffffffffffffffffffffffffffffffffffff168373ffffffffffffffffffffffffffffffffffffffff1614156115a8576040517f08c379a000000000000000000000000000000000000000000000000000000000815260040161159f90612209565b60405180910390fd5b600073ffffffffffffffffffffffffffffffffffffffff168273ffffffffffffffffffffffffffffffffffffffff161415611618576040517f08c379a000000000000000000000000000000000000000000000000000000000815260040161160f90612069565b60405180910390fd5b611623838383611bb6565b60008060008573ffffffffffffffffffffffffffffffffffffffff1673ffffffffffffffffffffffffffffffffffffffff168152602001908152602001600020549050818110156116a9576040517f08c379a00000000000000000000000000000000000000000000000000000000081526004016116a090612149565b60405180910390fd5b8181036000808673ffffffffffffffffffffffffffffffffffffffff1673ffffffffffffffffffffffffffffffffffffffff16815260200190815260200160002081905550816000808573ffffffffffffffffffffffffffffffffffffffff1673ffffffffffffffffffffffffffffffffffffffff168152602001908152602001600020600082825461173c919061231b565b925050819055508273ffffffffffffffffffffffffffffffffffffffff168473ffffffffffffffffffffffffffffffffffffffff167fddf252ad1be2c89b69c2b068fc378daa952ba7f163c4a11628f55a4df523b3ef846040516117a091906122c9565b60405180910390a36117b3848484611bbb565b50505050565b600073ffffffffffffffffffffffffffffffffffffffff168273ffffffffffffffffffffffffffffffffffffffff161415611829576040517f08c379a0000000000000000000000000000000000000000000000000000000008152600401611820906122a9565b60405180910390fd5b61183560008383611bb6565b8060026000828254611847919061231b565b92505081905550806000808473ffffffffffffffffffffffffffffffffffffffff1673ffffffffffffffffffffffffffffffffffffffff168152602001908152602001600020600082825461189c919061231b565b925050819055508173ffffffffffffffffffffffffffffffffffffffff16600073ffffffffffffffffffffffffffffffffffffffff167fddf252ad1be2c89b69c2b068fc378daa952ba7f163c4a11628f55a4df523b3ef8360405161190191906122c9565b60405180910390a361191560008383611bbb565b5050565b6000600560009054906101000a900473ffffffffffffffffffffffffffffffffffffffff16905081600560006101000a81548173ffffffffffffffffffffffffffffffffffffffff021916908373ffffffffffffffffffffffffffffffffffffffff1602179055508173ffffffffffffffffffffffffffffffffffffffff168173ffffffffffffffffffffffffffffffffffffffff167f8be0079c531659141344cd1fd0a4f28419497f9722a3daafe3b4186f6b6457e060405160405180910390a35050565b600073ffffffffffffffffffffffffffffffffffffffff168273ffffffffffffffffffffffffffffffffffffffff161415611a4f576040517f08c379a0000000000000000000000000000000000000000000000000000000008152600401611a46906121e9565b60405180910390fd5b611a5b82600083611bb6565b60008060008473ffffffffffffffffffffffffffffffffffffffff1673ffffffffffffffffffffffffffffffffffffffff16815260200190815260200160002054905081811015611ae1576040517f08c379a0000000000000000000000000000000000000000000000000000000008152600401611ad890612089565b60405180910390fd5b8181036000808573ffffffffffffffffffffffffffffffffffffffff1673ffffffffffffffffffffffffffffffffffffffff168152602001908152602001600020819055508160026000828254611b3891906123cb565b92505081905550600073ffffffffffffffffffffffffffffffffffffffff168373ffffffffffffffffffffffffffffffffffffffff167fddf252ad1be2c89b69c2b068fc378daa952ba7f163c4a11628f55a4df523b3ef84604051611b9d91906122c9565b60405180910390a3611bb183600084611bbb565b505050565b505050565b505050565b600081359050611bcf81612a21565b92915050565b600081359050611be481612a38565b92915050565b600060208284031215611bfc57600080fd5b6000611c0a84828501611bc0565b91505092915050565b60008060408385031215611c2657600080fd5b6000611c3485828601611bc0565b9250506020611c4585828601611bc0565b9150509250929050565b600080600060608486031215611c6457600080fd5b6000611c7286828701611bc0565b9350506020611c8386828701611bc0565b9250506040611c9486828701611bd5565b9150509250925092565b60008060408385031215611cb157600080fd5b6000611cbf85828601611bc0565b9250506020611cd085828601611bd5565b9150509250929050565b600060208284031215611cec57600080fd5b6000611cfa84828501611bd5565b91505092915050565b611d0c816123ff565b82525050565b611d1b81612411565b82525050565b6000611d2c826122ff565b611d36818561230a565b9350611d46818560208601612454565b611d4f81612517565b840191505092915050565b6000611d6760238361230a565b9150611d7282612528565b604082019050919050565b6000611d8a60228361230a565b9150611d9582612577565b604082019050919050565b6000611dad60248361230a565b9150611db8826125c6565b604082019050919050565b6000611dd060268361230a565b9150611ddb82612615565b604082019050919050565b6000611df360228361230a565b9150611dfe82612664565b604082019050919050565b6000611e16601d8361230a565b9150611e21826126b3565b602082019050919050565b6000611e3960308361230a565b9150611e44826126dc565b604082019050919050565b6000611e5c60268361230a565b9150611e678261272b565b604082019050919050565b6000611e7f601f8361230a565b9150611e8a8261277a565b602082019050919050565b6000611ea260208361230a565b9150611ead826127a3565b602082019050919050565b6000611ec5601f8361230a565b9150611ed0826127cc565b602082019050919050565b6000611ee860228361230a565b9150611ef3826127f5565b604082019050919050565b6000611f0b60218361230a565b9150611f1682612844565b604082019050919050565b6000611f2e60258361230a565b9150611f3982612893565b604082019050919050565b6000611f5160228361230a565b9150611f5c826128e2565b604082019050919050565b6000611f7460248361230a565b9150611f7f82612931565b604082019050919050565b6000611f97601f8361230a565b9150611fa282612980565b602082019050919050565b6000611fba60258361230a565b9150611fc5826129a9565b604082019050919050565b6000611fdd601f8361230a565b9150611fe8826129f8565b602082019050919050565b611ffc8161243d565b82525050565b61200b81612447565b82525050565b60006020820190506120266000830184611d03565b92915050565b60006020820190506120416000830184611d12565b92915050565b600060208201905081810360008301526120618184611d21565b905092915050565b6000602082019050818103600083015261208281611d5a565b9050919050565b600060208201905081810360008301526120a281611d7d565b9050919050565b600060208201905081810360008301526120c281611da0565b9050919050565b600060208201905081810360008301526120e281611dc3565b9050919050565b6000602082019050818103600083015261210281611de6565b9050919050565b6000602082019050818103600083015261212281611e09565b9050919050565b6000602082019050818103600083015261214281611e2c565b9050919050565b6000602082019050818103600083015261216281611e4f565b9050919050565b6000602082019050818103600083015261218281611e72565b9050919050565b600060208201905081810360008301526121a281611e95565b9050919050565b600060208201905081810360008301526121c281611eb8565b9050919050565b600060208201905081810360008301526121e281611edb565b9050919050565b6000602082019050818103600083015261220281611efe565b9050919050565b6000602082019050818103600083015261222281611f21565b9050919050565b6000602082019050818103600083015261224281611f44565b9050919050565b6000602082019050818103600083015261226281611f67565b9050919050565b6000602082019050818103600083015261228281611f8a565b9050919050565b600060208201905081810360008301526122a281611fad565b9050919050565b600060208201905081810360008301526122c281611fd0565b9050919050565b60006020820190506122de6000830184611ff3565b92915050565b60006020820190506122f96000830184612002565b92915050565b600081519050919050565b600082825260208201905092915050565b60006123268261243d565b91506123318361243d565b9250827fffffffffffffffffffffffffffffffffffffffffffffffffffffffffffffffff03821115612366576123656124b9565b5b828201905092915050565b600061237c8261243d565b91506123878361243d565b9250817fffffffffffffffffffffffffffffffffffffffffffffffffffffffffffffffff04831182151516156123c0576123bf6124b9565b5b828202905092915050565b60006123d68261243d565b91506123e18361243d565b9250828210156123f4576123f36124b9565b5b828203905092915050565b600061240a8261241d565b9050919050565b60008115159050919050565b600073ffffffffffffffffffffffffffffffffffffffff82169050919050565b6000819050919050565b600060ff82169050919050565b60005b83811015612472578082015181840152602081019050612457565b83811115612481576000848401525b50505050565b6000600282049050600182168061249f57607f821691505b602082108114156124b3576124b26124e8565b5b50919050565b7f4e487b7100000000000000000000000000000000000000000000000000000000600052601160045260246000fd5b7f4e487b7100000000000000000000000000000000000000000000000000000000600052602260045260246000fd5b6000601f19601f8301169050919050565b7f45524332303a207472616e7366657220746f20746865207a65726f206164647260008201527f6573730000000000000000000000000000000000000000000000000000000000602082015250565b7f45524332303a206275726e20616d6f756e7420657863656564732062616c616e60008201527f6365000000000000000000000000000000000000000000000000000000000000602082015250565b7f49434f3a2066756e6374696f6e20776974686472617720696e76616c6964206960008201527f6e70757400000000000000000000000000000000000000000000000000000000602082015250565b7f4f776e61626c653a206e6577206f776e657220697320746865207a65726f206160008201527f6464726573730000000000000000000000000000000000000000000000000000602082015250565b7f45524332303a20617070726f766520746f20746865207a65726f20616464726560008201527f7373000000000000000000000000000000000000000000000000000000000000602082015250565b7f45524332303a20696e73756666696369656e7420616c6c6f77616e6365000000600082015250565b7f49434f3a20696e2066756e6374696f6e206275792c20616d6f756e7420746f2060008201527f627579203e20737570706c794c65667400000000000000000000000000000000602082015250565b7f45524332303a207472616e7366657220616d6f756e742065786365656473206260008201527f616c616e63650000000000000000000000000000000000000000000000000000602082015250565b7f4f776e65722063616e6e6f742062757920686973206f776e20746f6b656e7300600082015250565b7f4f776e61626c653a2063616c6c6572206973206e6f7420746865206f776e6572600082015250565b7f49434f3a2066756e6374696f6e2062757920696e76616c696420696e70757400600082015250565b7f45524332303a2066756e6374696f6e206d696e7420696e76616c696420696e7060008201527f7574000000000000000000000000000000000000000000000000000000000000602082015250565b7f45524332303a206275726e2066726f6d20746865207a65726f2061646472657360008201527f7300000000000000000000000000000000000000000000000000000000000000602082015250565b7f45524332303a207472616e736665722066726f6d20746865207a65726f20616460008201527f6472657373000000000000000000000000000000000000000000000000000000602082015250565b7f45524332303a2066756e6374696f6e206275726e20696e76616c696420696e7060008201527f7574000000000000000000000000000000000000000000000000000000000000602082015250565b7f45524332303a20617070726f76652066726f6d20746865207a65726f2061646460008201527f7265737300000000000000000000000000000000000000000000000000000000602082015250565b7f5265656e7472616e637947756172643a207265656e7472616e742063616c6c00600082015250565b7f45524332303a2064656372656173656420616c6c6f77616e63652062656c6f7760008201527f207a65726f000000000000000000000000000000000000000000000000000000602082015250565b7f45524332303a206d696e7420746f20746865207a65726f206164647265737300600082015250565b612a2a816123ff565b8114612a3557600080fd5b50565b612a418161243d565b8114612a4c57600080fd5b5056fea2646970667358221220544a2aba2a470bc989654331e34a200313c1b0be964f12ae756d2ac1efbe1f5164736f6c634300080400334c6f72656d20697073756d20646f6c6f722073697420616d65742c20636f6e73656374657475722061646970697363696e6720656c69742e20416c697175616d20757420616c6971756574206a7573746f2e2053757370656e6469737365206461706962757320636f6e76616c6c697320697073756d2c20757420696d70657264696574206175677565207661726975732076656e656e617469732e205365642070686172657472612074656c6c75732071756973206d617474697320636f6e6775652e204675736365206574206e6962682074656c6c75732e20496e7465676572206d6f6c65737469652076756c7075746174652073617069656e2c2076697461652074656d7075732074757270697320737573636970697420756c6c616d636f727065722e204e756c6c616d20657569736d6f642c2075726e612061207665686963756c6120706c6163657261742c206573742066656c69732068656e647265726974207175616d2c206575206d616c657375616461207269737573206e756e63207574206c696265726f2e20446f6e656320636f6e6775652076656c69742065752066656c697320657569736d6f642c206575206d6f6c6c6973206469616d20756c747269636965732e204f72636920766172697573206e61746f7175652070656e617469627573206574206d61676e6973206469732070617274757269656e74206d6f6e7465732c206e61736365747572207269646963756c7573206d75732e205365642076756c707574617465206665726d656e74756d206c656f2c20616320626962656e64756d20617567756520616c69717565742069642e20467573636520736167697474697320656e696d2073697420616d6574206469616d2076756c7075746174652076756c7075746174652e20446f6e656320756c747269636965732073617069656e206e69736c2e2050726f696e20756c7472696365732073757363697069742073617069656e2c2073697420616d657420636f6e64696d656e74756d206e756e63207072657469756d2069642e2055742076656e656e617469732073656d206575206e696268206469676e697373696d206375727375732e20446f6e65632076656c2074656c6c75732073697420616d6574206d617572697320617563746f722068656e6472657269742e566573746962756c756d206d61747469732065726f732073697420616d65742065726174206d6178696d7573207363656c657269737175652e204e756e63206c61637573206e756e632c20736167697474697320616320756c6c616d636f727065722061632c2072757472756d206e6f6e206c6967756c612e2050656c6c656e7465737175652073697420616d6574206d65747573206d692e20496e20756c6c616d636f72706572206c6967756c6120736564206e65717565206469676e697373696d2c2076697461652064617069627573206f7263692073757363697069742e2041656e65616e2068656e64726572697420657261742073697420616d65742076656c6974206c756374757320636f6e64696d656e74756d20717569732074696e636964756e74206f64696f2e20446f6e65632065676574206f726e617265206469616d2e2053757370656e64697373652067726176696461206e756c6c612076697665727261206e65717565206566666963697475722076756c7075746174652e446f6e65632073617069656e206d657475732c20736f64616c657320757420747269737469717565206e65632c2074696e636964756e74207669746165206c616375732e2051756973717565206574206e696268206475692e20446f6e65632074696e636964756e74206f726369206c696265726f2c206174206461706962757320646f6c6f7220656666696369747572206e6f6e2e2050686173656c6c75732070656c6c656e7465737175652064617069627573206e69736c2c2076656c207375736369706974206e756c6c6120636f6d6d6f646f20717569732e205574207175697320636f6e76616c6c6973206e6973692e205365642065676574207175616d206c75637475732c2066696e6962757320746f72746f722069642c2066696e6962757320656e696d2e205365642071756973206c696265726f207669746165206f726369206d6f6c6c69732076756c7075746174652061742075742072697375732e20566573746962756c756d207665686963756c6120766974616520656e696d206567657420756c747269636965732e20416c697175616d2075726e61206c616375732c2074696e636964756e74206574207072657469756d2061742c206c75637475732076656c2065726f732e50726f696e207669766572726120616e7465206163206e69736920706f73756572652c2076656c206f726e61726520746f72746f722074656d7075732e204375726162697475722064756920617263752c2076756c70757461746520736564206665726d656e74756d2076697461652c207363656c65726973717565206e6f6e206469616d2e2041656e65616e2067726176696461206d69207669746165206469616d20706f72747469746f722c206e6f6e207375736369706974206c6967756c6120666163696c697369732e205175697371756520696e2072686f6e6375732065782e204372617320617567756520746f72746f722c206c6f626f7274697320696420766f6c75747061742076697461652c20706f7274612065676574206c616375732e205072616573656e74206d617373612075726e612c206672696e67696c6c612065676574206d692065742c206c616f7265657420616c6971756574206e657175652e2050686173656c6c75732061206c6f72656d206964206f64696f206d6178696d75732066696e696275732e566976616d757320757420656c6974207365642073656d2073656d70657220636f6d6d6f646f2e2053757370656e646973736520616320636f6e67756520657261742e2050726f696e20617420656c6974206e6f6e206175677565207072657469756d2076656e656e617469732e20496e74656765722070656c6c656e7465737175652076756c70757461746520656765737461732e2041656e65616e2063757273757320656e696d206174206f64696f2070756c76696e61722c20656765742072686f6e63757320617567756520766573746962756c756d2e20446f6e656320636f6e64696d656e74756d2066696e69627573206c656f206e6f6e2068656e6472657269742e204e616d20657569736d6f64206e756c6c61206f7263692c2073656420696e74657264756d20647569206665726d656e74756d206e6f6e2e20446f6e65632069642070686172657472612066656c69732e204d61757269732066696e69627573206e6f6e2075726e6120656765742070656c6c656e7465737175652e20566573746962756c756d20697073756d206d61757269732c20636f6e7365637465747572206575206f64696f20656765742c20636f6d6d6f646f2070756c76696e6172207475727069732e43726f776466756e64696e6720706c6174666f726d206261736564206f6e20657468657265756d",
  "linkReferences": {},
  "deployedLinkReferences": {}
}