{
  "_format": "hh-sol-artifact-1",
  "contractName": "ICO",
  "sourceName": "contracts/ivoryICO.sol",
  "abi": [
    {
      "inputs": [
        {
          "internalType": "address",
          "name": "owner",
          "type": "address"
        },
        {
          "internalType": "uint256",
          "name": "initialSupply",
          "type": "uint256"
        },
        {
          "internalType": "uint256",
          "name": "tokenRate",
          "type": "uint256"
        }
      ],
      "stateMutability": "nonpayable",
      "type": "constructor"
    },
    {
      "anonymous": false,
      "inputs": [
        {
          "indexed": true,
          "internalType": "address",
          "name": "owner",
          "type": "address"
        },
        {
          "indexed": true,
          "internalType": "address",
          "name": "spender",
          "type": "address"
        },
        {
          "indexed": false,
          "internalType": "uint256",
          "name": "value",
          "type": "uint256"
        }
      ],
      "name": "Approval",
      "type": "event"
    },
    {
      "anonymous": false,
      "inputs": [
        {
          "indexed": true,
          "internalType": "address",
          "name": "previousOwner",
          "type": "address"
        },
        {
          "indexed": true,
          "internalType": "address",
          "name": "newOwner",
          "type": "address"
        }
      ],
      "name": "OwnershipTransferred",
      "type": "event"
    },
    {
      "anonymous": false,
      "inputs": [
        {
          "indexed": true,
          "internalType": "address",
          "name": "from",
          "type": "address"
        },
        {
          "indexed": true,
          "internalType": "address",
          "name": "to",
          "type": "address"
        },
        {
          "indexed": false,
          "internalType": "uint256",
          "name": "value",
          "type": "uint256"
        }
      ],
      "name": "Transfer",
      "type": "event"
    },
    {
      "inputs": [
        {
          "internalType": "address",
          "name": "owner",
          "type": "address"
        },
        {
          "internalType": "address",
          "name": "spender",
          "type": "address"
        }
      ],
      "name": "allowance",
      "outputs": [
        {
          "internalType": "uint256",
          "name": "",
          "type": "uint256"
        }
      ],
      "stateMutability": "view",
      "type": "function"
    },
    {
      "inputs": [
        {
          "internalType": "address",
          "name": "spender",
          "type": "address"
        },
        {
          "internalType": "uint256",
          "name": "amount",
          "type": "uint256"
        }
      ],
      "name": "approve",
      "outputs": [
        {
          "internalType": "bool",
          "name": "",
          "type": "bool"
        }
      ],
      "stateMutability": "nonpayable",
      "type": "function"
    },
    {
      "inputs": [
        {
          "internalType": "address",
          "name": "account",
          "type": "address"
        }
      ],
      "name": "balanceOf",
      "outputs": [
        {
          "internalType": "uint256",
          "name": "",
          "type": "uint256"
        }
      ],
      "stateMutability": "view",
      "type": "function"
    },
    {
      "inputs": [
        {
          "internalType": "address",
          "name": "account",
          "type": "address"
        },
        {
          "internalType": "uint256",
          "name": "amount",
          "type": "uint256"
        }
      ],
      "name": "burn",
      "outputs": [],
      "stateMutability": "nonpayable",
      "type": "function"
    },
    {
      "inputs": [],
      "name": "buy",
      "outputs": [],
      "stateMutability": "payable",
      "type": "function"
    },
    {
      "inputs": [],
      "name": "decimals",
      "outputs": [
        {
          "internalType": "uint8",
          "name": "",
          "type": "uint8"
        }
      ],
      "stateMutability": "view",
      "type": "function"
    },
    {
      "inputs": [
        {
          "internalType": "address",
          "name": "spender",
          "type": "address"
        },
        {
          "internalType": "uint256",
          "name": "subtractedValue",
          "type": "uint256"
        }
      ],
      "name": "decreaseAllowance",
      "outputs": [
        {
          "internalType": "bool",
          "name": "",
          "type": "bool"
        }
      ],
      "stateMutability": "nonpayable",
      "type": "function"
    },
    {
      "inputs": [
        {
          "internalType": "address",
          "name": "spender",
          "type": "address"
        },
        {
          "internalType": "uint256",
          "name": "addedValue",
          "type": "uint256"
        }
      ],
      "name": "increaseAllowance",
      "outputs": [
        {
          "internalType": "bool",
          "name": "",
          "type": "bool"
        }
      ],
      "stateMutability": "nonpayable",
      "type": "function"
    },
    {
      "inputs": [],
      "name": "leftSupply",
      "outputs": [
        {
          "internalType": "uint256",
          "name": "supplyLeft",
          "type": "uint256"
        }
      ],
      "stateMutability": "view",
      "type": "function"
    },
    {
      "inputs": [
        {
          "internalType": "address",
          "name": "account",
          "type": "address"
        },
        {
          "internalType": "uint256",
          "name": "amount",
          "type": "uint256"
        }
      ],
      "name": "mint",
      "outputs": [],
      "stateMutability": "nonpayable",
      "type": "function"
    },
    {
      "inputs": [],
      "name": "name",
      "outputs": [
        {
          "internalType": "string",
          "name": "",
          "type": "string"
        }
      ],
      "stateMutability": "view",
      "type": "function"
    },
    {
      "inputs": [],
      "name": "owner",
      "outputs": [
        {
          "internalType": "address",
          "name": "",
          "type": "address"
        }
      ],
      "stateMutability": "view",
      "type": "function"
    },
    {
      "inputs": [],
      "name": "renounceOwnership",
      "outputs": [],
      "stateMutability": "nonpayable",
      "type": "function"
    },
    {
      "inputs": [],
      "name": "symbol",
      "outputs": [
        {
          "internalType": "string",
          "name": "",
          "type": "string"
        }
      ],
      "stateMutability": "view",
      "type": "function"
    },
    {
      "inputs": [],
      "name": "totalSupply",
      "outputs": [
        {
          "internalType": "uint256",
          "name": "",
          "type": "uint256"
        }
      ],
      "stateMutability": "view",
      "type": "function"
    },
    {
      "inputs": [
        {
          "internalType": "address",
          "name": "to",
          "type": "address"
        },
        {
          "internalType": "uint256",
          "name": "amount",
          "type": "uint256"
        }
      ],
      "name": "transfer",
      "outputs": [
        {
          "internalType": "bool",
          "name": "",
          "type": "bool"
        }
      ],
      "stateMutability": "nonpayable",
      "type": "function"
    },
    {
      "inputs": [
        {
          "internalType": "address",
          "name": "from",
          "type": "address"
        },
        {
          "internalType": "address",
          "name": "to",
          "type": "address"
        },
        {
          "internalType": "uint256",
          "name": "amount",
          "type": "uint256"
        }
      ],
      "name": "transferFrom",
      "outputs": [
        {
          "internalType": "bool",
          "name": "",
          "type": "bool"
        }
      ],
      "stateMutability": "nonpayable",
      "type": "function"
    },
    {
      "inputs": [
        {
          "internalType": "address",
          "name": "newOwner",
          "type": "address"
        }
      ],
      "name": "transferOwnership",
      "outputs": [],
      "stateMutability": "nonpayable",
      "type": "function"
    },
    {
      "inputs": [
        {
          "internalType": "uint256",
          "name": "amount",
          "type": "uint256"
        }
      ],
      "name": "withdraw",
      "outputs": [],
      "stateMutability": "nonpayable",
      "type": "function"
    }
  ],
  "bytecode": "0x60806040523480156200001157600080fd5b5060405162002f2138038062002f218339818101604052810190620000379190620005a8565b6040518060400160405280600981526020017f69766f7279436f696e00000000000000000000000000000000000000000000008152506040518060400160405280600381526020017f49564f00000000000000000000000000000000000000000000000000000000008152508160039080519060200190620000bb929190620004ca565b508060049080519060200190620000d4929190620004ca565b505050620000f7620000eb6200013960201b60201c565b6200014160201b60201c565b60016006819055506200011133836200020760201b60201c565b62000122836200038060201b60201c565b80600781905550816008819055505050506200091c565b600033905090565b6000600560009054906101000a900473ffffffffffffffffffffffffffffffffffffffff16905081600560006101000a81548173ffffffffffffffffffffffffffffffffffffffff021916908373ffffffffffffffffffffffffffffffffffffffff1602179055508173ffffffffffffffffffffffffffffffffffffffff168173ffffffffffffffffffffffffffffffffffffffff167f8be0079c531659141344cd1fd0a4f28419497f9722a3daafe3b4186f6b6457e060405160405180910390a35050565b600073ffffffffffffffffffffffffffffffffffffffff168273ffffffffffffffffffffffffffffffffffffffff1614156200027a576040517f08c379a00000000000000000000000000000000000000000000000000000000081526004016200027190620006c8565b60405180910390fd5b6200028e600083836200049660201b60201c565b8060026000828254620002a2919062000718565b92505081905550806000808473ffffffffffffffffffffffffffffffffffffffff1673ffffffffffffffffffffffffffffffffffffffff1681526020019081526020016000206000828254620002f9919062000718565b925050819055508173ffffffffffffffffffffffffffffffffffffffff16600073ffffffffffffffffffffffffffffffffffffffff167fddf252ad1be2c89b69c2b068fc378daa952ba7f163c4a11628f55a4df523b3ef83604051620003609190620006ea565b60405180910390a36200037c600083836200049b60201b60201c565b5050565b620003906200013960201b60201c565b73ffffffffffffffffffffffffffffffffffffffff16620003b6620004a060201b60201c565b73ffffffffffffffffffffffffffffffffffffffff16146200040f576040517f08c379a00000000000000000000000000000000000000000000000000000000081526004016200040690620006a6565b60405180910390fd5b600073ffffffffffffffffffffffffffffffffffffffff168173ffffffffffffffffffffffffffffffffffffffff16141562000482576040517f08c379a0000000000000000000000000000000000000000000000000000000008152600401620004799062000684565b60405180910390fd5b62000493816200014160201b60201c565b50565b505050565b505050565b6000600560009054906101000a900473ffffffffffffffffffffffffffffffffffffffff16905090565b828054620004d890620007b3565b90600052602060002090601f016020900481019282620004fc576000855562000548565b82601f106200051757805160ff191683800117855562000548565b8280016001018555821562000548579182015b82811115620005475782518255916020019190600101906200052a565b5b5090506200055791906200055b565b5090565b5b80821115620005765760008160009055506001016200055c565b5090565b6000815190506200058b81620008e8565b92915050565b600081519050620005a28162000902565b92915050565b600080600060608486031215620005be57600080fd5b6000620005ce868287016200057a565b9350506020620005e18682870162000591565b9250506040620005f48682870162000591565b9150509250925092565b60006200060d60268362000707565b91506200061a8262000847565b604082019050919050565b60006200063460208362000707565b9150620006418262000896565b602082019050919050565b60006200065b601f8362000707565b91506200066882620008bf565b602082019050919050565b6200067e81620007a9565b82525050565b600060208201905081810360008301526200069f81620005fe565b9050919050565b60006020820190508181036000830152620006c18162000625565b9050919050565b60006020820190508181036000830152620006e3816200064c565b9050919050565b600060208201905062000701600083018462000673565b92915050565b600082825260208201905092915050565b60006200072582620007a9565b91506200073283620007a9565b9250827fffffffffffffffffffffffffffffffffffffffffffffffffffffffffffffffff038211156200076a5762000769620007e9565b5b828201905092915050565b6000620007828262000789565b9050919050565b600073ffffffffffffffffffffffffffffffffffffffff82169050919050565b6000819050919050565b60006002820490506001821680620007cc57607f821691505b60208210811415620007e357620007e262000818565b5b50919050565b7f4e487b7100000000000000000000000000000000000000000000000000000000600052601160045260246000fd5b7f4e487b7100000000000000000000000000000000000000000000000000000000600052602260045260246000fd5b7f4f776e61626c653a206e6577206f776e657220697320746865207a65726f206160008201527f6464726573730000000000000000000000000000000000000000000000000000602082015250565b7f4f776e61626c653a2063616c6c6572206973206e6f7420746865206f776e6572600082015250565b7f45524332303a206d696e7420746f20746865207a65726f206164647265737300600082015250565b620008f38162000775565b8114620008ff57600080fd5b50565b6200090d81620007a9565b81146200091957600080fd5b50565b6125f5806200092c6000396000f3fe6080604052600436106101145760003560e01c8063715018a6116100a0578063a6f2ae3a11610064578063a6f2ae3a146103b3578063a9059cbb146103bd578063cacb3a21146103fa578063dd62ed3e14610425578063f2fde38b1461046257610114565b8063715018a6146102e05780638da5cb5b146102f757806395d89b41146103225780639dc29fac1461034d578063a457c2d71461037657610114565b80632e1a7d4d116100e75780632e1a7d4d146101e9578063313ce56714610212578063395093511461023d57806340c10f191461027a57806370a08231146102a357610114565b806306fdde0314610119578063095ea7b31461014457806318160ddd1461018157806323b872dd146101ac575b600080fd5b34801561012557600080fd5b5061012e61048b565b60405161013b9190611c00565b60405180910390f35b34801561015057600080fd5b5061016b6004803603810190610166919061187a565b61051d565b6040516101789190611be5565b60405180910390f35b34801561018d57600080fd5b50610196610540565b6040516101a39190611e62565b60405180910390f35b3480156101b857600080fd5b506101d360048036038101906101ce919061182b565b61054a565b6040516101e09190611be5565b60405180910390f35b3480156101f557600080fd5b50610210600480360381019061020b91906118b6565b610579565b005b34801561021e57600080fd5b50610227610689565b6040516102349190611e7d565b60405180910390f35b34801561024957600080fd5b50610264600480360381019061025f919061187a565b610692565b6040516102719190611be5565b60405180910390f35b34801561028657600080fd5b506102a1600480360381019061029c919061187a565b61073c565b005b3480156102af57600080fd5b506102ca60048036038101906102c591906117c6565b610843565b6040516102d79190611e62565b60405180910390f35b3480156102ec57600080fd5b506102f561088b565b005b34801561030357600080fd5b5061030c610913565b6040516103199190611bca565b60405180910390f35b34801561032e57600080fd5b5061033761093d565b6040516103449190611c00565b60405180910390f35b34801561035957600080fd5b50610374600480360381019061036f919061187a565b6109cf565b005b34801561038257600080fd5b5061039d6004803603810190610398919061187a565b610ad6565b6040516103aa9190611be5565b60405180910390f35b6103bb610bc0565b005b3480156103c957600080fd5b506103e460048036038101906103df919061187a565b610d09565b6040516103f19190611be5565b60405180910390f35b34801561040657600080fd5b5061040f610d2c565b60405161041c9190611e62565b60405180910390f35b34801561043157600080fd5b5061044c600480360381019061044791906117ef565b610d36565b6040516104599190611e62565b60405180910390f35b34801561046e57600080fd5b50610489600480360381019061048491906117c6565b610dbd565b005b60606003805461049a90612020565b80601f01602080910402602001604051908101604052809291908181526020018280546104c690612020565b80156105135780601f106104e857610100808354040283529160200191610513565b820191906000526020600020905b8154815290600101906020018083116104f657829003601f168201915b5050505050905090565b600080610528610eb5565b9050610535818585610ebd565b600191505092915050565b6000600254905090565b600080610555610eb5565b9050610562858285611088565b61056d858585611114565b60019150509392505050565b610581610eb5565b73ffffffffffffffffffffffffffffffffffffffff1661059f610913565b73ffffffffffffffffffffffffffffffffffffffff16146105f5576040517f08c379a00000000000000000000000000000000000000000000000000000000081526004016105ec90611d22565b60405180910390fd5b47811115610638576040517f08c379a000000000000000000000000000000000000000000000000000000000815260040161062f90611c62565b60405180910390fd5b610640610eb5565b73ffffffffffffffffffffffffffffffffffffffff166108fc829081150290604051600060405180830381858888f19350505050158015610685573d6000803e3d6000fd5b5050565b60006012905090565b60008061069d610eb5565b9050610731818585600160008673ffffffffffffffffffffffffffffffffffffffff1673ffffffffffffffffffffffffffffffffffffffff16815260200190815260200160002060008973ffffffffffffffffffffffffffffffffffffffff1673ffffffffffffffffffffffffffffffffffffffff1681526020019081526020016000205461072c9190611eb4565b610ebd565b600191505092915050565b610744610eb5565b73ffffffffffffffffffffffffffffffffffffffff16610762610913565b73ffffffffffffffffffffffffffffffffffffffff16146107b8576040517f08c379a00000000000000000000000000000000000000000000000000000000081526004016107af90611d22565b60405180910390fd5b600073ffffffffffffffffffffffffffffffffffffffff168273ffffffffffffffffffffffffffffffffffffffff16141580156107f6575060008114155b610835576040517f08c379a000000000000000000000000000000000000000000000000000000000815260040161082c90611d62565b60405180910390fd5b61083f8282611395565b5050565b60008060008373ffffffffffffffffffffffffffffffffffffffff1673ffffffffffffffffffffffffffffffffffffffff168152602001908152602001600020549050919050565b610893610eb5565b73ffffffffffffffffffffffffffffffffffffffff166108b1610913565b73ffffffffffffffffffffffffffffffffffffffff1614610907576040517f08c379a00000000000000000000000000000000000000000000000000000000081526004016108fe90611d22565b60405180910390fd5b61091160006114f5565b565b6000600560009054906101000a900473ffffffffffffffffffffffffffffffffffffffff16905090565b60606004805461094c90612020565b80601f016020809104026020016040519081016040528092919081815260200182805461097890612020565b80156109c55780601f1061099a576101008083540402835291602001916109c5565b820191906000526020600020905b8154815290600101906020018083116109a857829003601f168201915b5050505050905090565b6109d7610eb5565b73ffffffffffffffffffffffffffffffffffffffff166109f5610913565b73ffffffffffffffffffffffffffffffffffffffff1614610a4b576040517f08c379a0000000000000000000000000000000000000000000000000000000008152600401610a4290611d22565b60405180910390fd5b600073ffffffffffffffffffffffffffffffffffffffff168273ffffffffffffffffffffffffffffffffffffffff1614158015610a89575060008114155b610ac8576040517f08c379a0000000000000000000000000000000000000000000000000000000008152600401610abf90611dc2565b60405180910390fd5b610ad282826115bb565b5050565b600080610ae1610eb5565b90506000600160008373ffffffffffffffffffffffffffffffffffffffff1673ffffffffffffffffffffffffffffffffffffffff16815260200190815260200160002060008673ffffffffffffffffffffffffffffffffffffffff1673ffffffffffffffffffffffffffffffffffffffff16815260200190815260200160002054905083811015610ba7576040517f08c379a0000000000000000000000000000000000000000000000000000000008152600401610b9e90611e22565b60405180910390fd5b610bb48286868403610ebd565b60019250505092915050565b60026006541415610c06576040517f08c379a0000000000000000000000000000000000000000000000000000000008152600401610bfd90611e02565b60405180910390fd5b6002600681905550343373ffffffffffffffffffffffffffffffffffffffff163110158015610c36575060003414155b610c75576040517f08c379a0000000000000000000000000000000000000000000000000000000008152600401610c6c90611d42565b60405180910390fd5b600060075434610c859190611f0a565b9050600854811115610ccc576040517f08c379a0000000000000000000000000000000000000000000000000000000008152600401610cc390611ce2565b60405180910390fd5b8060086000828254610cde9190611f64565b92505081905550610cfe610cf0610913565b610cf8610eb5565b83611114565b506001600681905550565b600080610d14610eb5565b9050610d21818585611114565b600191505092915050565b6000600854905090565b6000600160008473ffffffffffffffffffffffffffffffffffffffff1673ffffffffffffffffffffffffffffffffffffffff16815260200190815260200160002060008373ffffffffffffffffffffffffffffffffffffffff1673ffffffffffffffffffffffffffffffffffffffff16815260200190815260200160002054905092915050565b610dc5610eb5565b73ffffffffffffffffffffffffffffffffffffffff16610de3610913565b73ffffffffffffffffffffffffffffffffffffffff1614610e39576040517f08c379a0000000000000000000000000000000000000000000000000000000008152600401610e3090611d22565b60405180910390fd5b600073ffffffffffffffffffffffffffffffffffffffff168173ffffffffffffffffffffffffffffffffffffffff161415610ea9576040517f08c379a0000000000000000000000000000000000000000000000000000000008152600401610ea090611c82565b60405180910390fd5b610eb2816114f5565b50565b600033905090565b600073ffffffffffffffffffffffffffffffffffffffff168373ffffffffffffffffffffffffffffffffffffffff161415610f2d576040517f08c379a0000000000000000000000000000000000000000000000000000000008152600401610f2490611de2565b60405180910390fd5b600073ffffffffffffffffffffffffffffffffffffffff168273ffffffffffffffffffffffffffffffffffffffff161415610f9d576040517f08c379a0000000000000000000000000000000000000000000000000000000008152600401610f9490611ca2565b60405180910390fd5b80600160008573ffffffffffffffffffffffffffffffffffffffff1673ffffffffffffffffffffffffffffffffffffffff16815260200190815260200160002060008473ffffffffffffffffffffffffffffffffffffffff1673ffffffffffffffffffffffffffffffffffffffff168152602001908152602001600020819055508173ffffffffffffffffffffffffffffffffffffffff168373ffffffffffffffffffffffffffffffffffffffff167f8c5be1e5ebec7d5bd14f71427d1e84f3dd0314c0f7b2291e5b200ac8c7c3b9258360405161107b9190611e62565b60405180910390a3505050565b60006110948484610d36565b90507fffffffffffffffffffffffffffffffffffffffffffffffffffffffffffffffff811461110e5781811015611100576040517f08c379a00000000000000000000000000000000000000000000000000000000081526004016110f790611cc2565b60405180910390fd5b61110d8484848403610ebd565b5b50505050565b600073ffffffffffffffffffffffffffffffffffffffff168373ffffffffffffffffffffffffffffffffffffffff161415611184576040517f08c379a000000000000000000000000000000000000000000000000000000000815260040161117b90611da2565b60405180910390fd5b600073ffffffffffffffffffffffffffffffffffffffff168273ffffffffffffffffffffffffffffffffffffffff1614156111f4576040517f08c379a00000000000000000000000000000000000000000000000000000000081526004016111eb90611c22565b60405180910390fd5b6111ff838383611792565b60008060008573ffffffffffffffffffffffffffffffffffffffff1673ffffffffffffffffffffffffffffffffffffffff16815260200190815260200160002054905081811015611285576040517f08c379a000000000000000000000000000000000000000000000000000000000815260040161127c90611d02565b60405180910390fd5b8181036000808673ffffffffffffffffffffffffffffffffffffffff1673ffffffffffffffffffffffffffffffffffffffff16815260200190815260200160002081905550816000808573ffffffffffffffffffffffffffffffffffffffff1673ffffffffffffffffffffffffffffffffffffffff16815260200190815260200160002060008282546113189190611eb4565b925050819055508273ffffffffffffffffffffffffffffffffffffffff168473ffffffffffffffffffffffffffffffffffffffff167fddf252ad1be2c89b69c2b068fc378daa952ba7f163c4a11628f55a4df523b3ef8460405161137c9190611e62565b60405180910390a361138f848484611797565b50505050565b600073ffffffffffffffffffffffffffffffffffffffff168273ffffffffffffffffffffffffffffffffffffffff161415611405576040517f08c379a00000000000000000000000000000000000000000000000000000000081526004016113fc90611e42565b60405180910390fd5b61141160008383611792565b80600260008282546114239190611eb4565b92505081905550806000808473ffffffffffffffffffffffffffffffffffffffff1673ffffffffffffffffffffffffffffffffffffffff16815260200190815260200160002060008282546114789190611eb4565b925050819055508173ffffffffffffffffffffffffffffffffffffffff16600073ffffffffffffffffffffffffffffffffffffffff167fddf252ad1be2c89b69c2b068fc378daa952ba7f163c4a11628f55a4df523b3ef836040516114dd9190611e62565b60405180910390a36114f160008383611797565b5050565b6000600560009054906101000a900473ffffffffffffffffffffffffffffffffffffffff16905081600560006101000a81548173ffffffffffffffffffffffffffffffffffffffff021916908373ffffffffffffffffffffffffffffffffffffffff1602179055508173ffffffffffffffffffffffffffffffffffffffff168173ffffffffffffffffffffffffffffffffffffffff167f8be0079c531659141344cd1fd0a4f28419497f9722a3daafe3b4186f6b6457e060405160405180910390a35050565b600073ffffffffffffffffffffffffffffffffffffffff168273ffffffffffffffffffffffffffffffffffffffff16141561162b576040517f08c379a000000000000000000000000000000000000000000000000000000000815260040161162290611d82565b60405180910390fd5b61163782600083611792565b60008060008473ffffffffffffffffffffffffffffffffffffffff1673ffffffffffffffffffffffffffffffffffffffff168152602001908152602001600020549050818110156116bd576040517f08c379a00000000000000000000000000000000000000000000000000000000081526004016116b490611c42565b60405180910390fd5b8181036000808573ffffffffffffffffffffffffffffffffffffffff1673ffffffffffffffffffffffffffffffffffffffff1681526020019081526020016000208190555081600260008282546117149190611f64565b92505081905550600073ffffffffffffffffffffffffffffffffffffffff168373ffffffffffffffffffffffffffffffffffffffff167fddf252ad1be2c89b69c2b068fc378daa952ba7f163c4a11628f55a4df523b3ef846040516117799190611e62565b60405180910390a361178d83600084611797565b505050565b505050565b505050565b6000813590506117ab81612591565b92915050565b6000813590506117c0816125a8565b92915050565b6000602082840312156117d857600080fd5b60006117e68482850161179c565b91505092915050565b6000806040838503121561180257600080fd5b60006118108582860161179c565b92505060206118218582860161179c565b9150509250929050565b60008060006060848603121561184057600080fd5b600061184e8682870161179c565b935050602061185f8682870161179c565b9250506040611870868287016117b1565b9150509250925092565b6000806040838503121561188d57600080fd5b600061189b8582860161179c565b92505060206118ac858286016117b1565b9150509250929050565b6000602082840312156118c857600080fd5b60006118d6848285016117b1565b91505092915050565b6118e881611f98565b82525050565b6118f781611faa565b82525050565b600061190882611e98565b6119128185611ea3565b9350611922818560208601611fed565b61192b816120b0565b840191505092915050565b6000611943602383611ea3565b915061194e826120c1565b604082019050919050565b6000611966602283611ea3565b915061197182612110565b604082019050919050565b6000611989602483611ea3565b91506119948261215f565b604082019050919050565b60006119ac602683611ea3565b91506119b7826121ae565b604082019050919050565b60006119cf602283611ea3565b91506119da826121fd565b604082019050919050565b60006119f2601d83611ea3565b91506119fd8261224c565b602082019050919050565b6000611a15603083611ea3565b9150611a2082612275565b604082019050919050565b6000611a38602683611ea3565b9150611a43826122c4565b604082019050919050565b6000611a5b602083611ea3565b9150611a6682612313565b602082019050919050565b6000611a7e601f83611ea3565b9150611a898261233c565b602082019050919050565b6000611aa1602283611ea3565b9150611aac82612365565b604082019050919050565b6000611ac4602183611ea3565b9150611acf826123b4565b604082019050919050565b6000611ae7602583611ea3565b9150611af282612403565b604082019050919050565b6000611b0a602283611ea3565b9150611b1582612452565b604082019050919050565b6000611b2d602483611ea3565b9150611b38826124a1565b604082019050919050565b6000611b50601f83611ea3565b9150611b5b826124f0565b602082019050919050565b6000611b73602583611ea3565b9150611b7e82612519565b604082019050919050565b6000611b96601f83611ea3565b9150611ba182612568565b602082019050919050565b611bb581611fd6565b82525050565b611bc481611fe0565b82525050565b6000602082019050611bdf60008301846118df565b92915050565b6000602082019050611bfa60008301846118ee565b92915050565b60006020820190508181036000830152611c1a81846118fd565b905092915050565b60006020820190508181036000830152611c3b81611936565b9050919050565b60006020820190508181036000830152611c5b81611959565b9050919050565b60006020820190508181036000830152611c7b8161197c565b9050919050565b60006020820190508181036000830152611c9b8161199f565b9050919050565b60006020820190508181036000830152611cbb816119c2565b9050919050565b60006020820190508181036000830152611cdb816119e5565b9050919050565b60006020820190508181036000830152611cfb81611a08565b9050919050565b60006020820190508181036000830152611d1b81611a2b565b9050919050565b60006020820190508181036000830152611d3b81611a4e565b9050919050565b60006020820190508181036000830152611d5b81611a71565b9050919050565b60006020820190508181036000830152611d7b81611a94565b9050919050565b60006020820190508181036000830152611d9b81611ab7565b9050919050565b60006020820190508181036000830152611dbb81611ada565b9050919050565b60006020820190508181036000830152611ddb81611afd565b9050919050565b60006020820190508181036000830152611dfb81611b20565b9050919050565b60006020820190508181036000830152611e1b81611b43565b9050919050565b60006020820190508181036000830152611e3b81611b66565b9050919050565b60006020820190508181036000830152611e5b81611b89565b9050919050565b6000602082019050611e776000830184611bac565b92915050565b6000602082019050611e926000830184611bbb565b92915050565b600081519050919050565b600082825260208201905092915050565b6000611ebf82611fd6565b9150611eca83611fd6565b9250827fffffffffffffffffffffffffffffffffffffffffffffffffffffffffffffffff03821115611eff57611efe612052565b5b828201905092915050565b6000611f1582611fd6565b9150611f2083611fd6565b9250817fffffffffffffffffffffffffffffffffffffffffffffffffffffffffffffffff0483118215151615611f5957611f58612052565b5b828202905092915050565b6000611f6f82611fd6565b9150611f7a83611fd6565b925082821015611f8d57611f8c612052565b5b828203905092915050565b6000611fa382611fb6565b9050919050565b60008115159050919050565b600073ffffffffffffffffffffffffffffffffffffffff82169050919050565b6000819050919050565b600060ff82169050919050565b60005b8381101561200b578082015181840152602081019050611ff0565b8381111561201a576000848401525b50505050565b6000600282049050600182168061203857607f821691505b6020821081141561204c5761204b612081565b5b50919050565b7f4e487b7100000000000000000000000000000000000000000000000000000000600052601160045260246000fd5b7f4e487b7100000000000000000000000000000000000000000000000000000000600052602260045260246000fd5b6000601f19601f8301169050919050565b7f45524332303a207472616e7366657220746f20746865207a65726f206164647260008201527f6573730000000000000000000000000000000000000000000000000000000000602082015250565b7f45524332303a206275726e20616d6f756e7420657863656564732062616c616e60008201527f6365000000000000000000000000000000000000000000000000000000000000602082015250565b7f49434f3a2066756e6374696f6e20776974686472617720696e76616c6964206960008201527f6e70757400000000000000000000000000000000000000000000000000000000602082015250565b7f4f776e61626c653a206e6577206f776e657220697320746865207a65726f206160008201527f6464726573730000000000000000000000000000000000000000000000000000602082015250565b7f45524332303a20617070726f766520746f20746865207a65726f20616464726560008201527f7373000000000000000000000000000000000000000000000000000000000000602082015250565b7f45524332303a20696e73756666696369656e7420616c6c6f77616e6365000000600082015250565b7f49434f3a20696e2066756e6374696f6e206275792c20616d6f756e7420746f2060008201527f627579203e20737570706c794c65667400000000000000000000000000000000602082015250565b7f45524332303a207472616e7366657220616d6f756e742065786365656473206260008201527f616c616e63650000000000000000000000000000000000000000000000000000602082015250565b7f4f776e61626c653a2063616c6c6572206973206e6f7420746865206f776e6572600082015250565b7f49434f3a2066756e6374696f6e2062757920696e76616c696420696e70757400600082015250565b7f45524332303a2066756e6374696f6e206d696e7420696e76616c696420696e7060008201527f7574000000000000000000000000000000000000000000000000000000000000602082015250565b7f45524332303a206275726e2066726f6d20746865207a65726f2061646472657360008201527f7300000000000000000000000000000000000000000000000000000000000000602082015250565b7f45524332303a207472616e736665722066726f6d20746865207a65726f20616460008201527f6472657373000000000000000000000000000000000000000000000000000000602082015250565b7f45524332303a2066756e6374696f6e206275726e20696e76616c696420696e7060008201527f7574000000000000000000000000000000000000000000000000000000000000602082015250565b7f45524332303a20617070726f76652066726f6d20746865207a65726f2061646460008201527f7265737300000000000000000000000000000000000000000000000000000000602082015250565b7f5265656e7472616e637947756172643a207265656e7472616e742063616c6c00600082015250565b7f45524332303a2064656372656173656420616c6c6f77616e63652062656c6f7760008201527f207a65726f000000000000000000000000000000000000000000000000000000602082015250565b7f45524332303a206d696e7420746f20746865207a65726f206164647265737300600082015250565b61259a81611f98565b81146125a557600080fd5b50565b6125b181611fd6565b81146125bc57600080fd5b5056fea2646970667358221220acd42d98455aa0a3816f2ede4d5c7e9f2e339eeff1ffb27028c3f4dda2f9a37764736f6c63430008040033",
  "linkReferences": {},
  "deployedLinkReferences": {}
}