{
  "_format": "hh-sol-artifact-1",
  "contractName": "ICO",
  "sourceName": "contracts/ivoryICO.sol",
  "abi": [
    {
      "inputs": [
        {
          "internalType": "address",
          "name": "owner",
          "type": "address"
        },
        {
          "internalType": "uint256",
          "name": "initialSupply",
          "type": "uint256"
        },
        {
          "internalType": "uint256",
          "name": "tokenRate",
          "type": "uint256"
        }
      ],
      "stateMutability": "nonpayable",
      "type": "constructor"
    },
    {
      "anonymous": false,
      "inputs": [
        {
          "indexed": true,
          "internalType": "address",
          "name": "owner",
          "type": "address"
        },
        {
          "indexed": true,
          "internalType": "address",
          "name": "spender",
          "type": "address"
        },
        {
          "indexed": false,
          "internalType": "uint256",
          "name": "value",
          "type": "uint256"
        }
      ],
      "name": "Approval",
      "type": "event"
    },
    {
      "anonymous": false,
      "inputs": [
        {
          "indexed": true,
          "internalType": "address",
          "name": "previousOwner",
          "type": "address"
        },
        {
          "indexed": true,
          "internalType": "address",
          "name": "newOwner",
          "type": "address"
        }
      ],
      "name": "OwnershipTransferred",
      "type": "event"
    },
    {
      "anonymous": false,
      "inputs": [
        {
          "indexed": true,
          "internalType": "address",
          "name": "from",
          "type": "address"
        },
        {
          "indexed": true,
          "internalType": "address",
          "name": "to",
          "type": "address"
        },
        {
          "indexed": false,
          "internalType": "uint256",
          "name": "value",
          "type": "uint256"
        }
      ],
      "name": "Transfer",
      "type": "event"
    },
    {
      "inputs": [
        {
          "internalType": "address",
          "name": "owner",
          "type": "address"
        },
        {
          "internalType": "address",
          "name": "spender",
          "type": "address"
        }
      ],
      "name": "allowance",
      "outputs": [
        {
          "internalType": "uint256",
          "name": "",
          "type": "uint256"
        }
      ],
      "stateMutability": "view",
      "type": "function"
    },
    {
      "inputs": [
        {
          "internalType": "address",
          "name": "spender",
          "type": "address"
        },
        {
          "internalType": "uint256",
          "name": "amount",
          "type": "uint256"
        }
      ],
      "name": "approve",
      "outputs": [
        {
          "internalType": "bool",
          "name": "",
          "type": "bool"
        }
      ],
      "stateMutability": "nonpayable",
      "type": "function"
    },
    {
      "inputs": [
        {
          "internalType": "address",
          "name": "account",
          "type": "address"
        }
      ],
      "name": "balanceOf",
      "outputs": [
        {
          "internalType": "uint256",
          "name": "",
          "type": "uint256"
        }
      ],
      "stateMutability": "view",
      "type": "function"
    },
    {
      "inputs": [
        {
          "internalType": "address",
          "name": "account",
          "type": "address"
        },
        {
          "internalType": "uint256",
          "name": "amount",
          "type": "uint256"
        }
      ],
      "name": "burn",
      "outputs": [],
      "stateMutability": "nonpayable",
      "type": "function"
    },
    {
      "inputs": [],
      "name": "buy",
      "outputs": [],
      "stateMutability": "payable",
      "type": "function"
    },
    {
      "inputs": [],
      "name": "decimals",
      "outputs": [
        {
          "internalType": "uint8",
          "name": "",
          "type": "uint8"
        }
      ],
      "stateMutability": "view",
      "type": "function"
    },
    {
      "inputs": [
        {
          "internalType": "address",
          "name": "spender",
          "type": "address"
        },
        {
          "internalType": "uint256",
          "name": "subtractedValue",
          "type": "uint256"
        }
      ],
      "name": "decreaseAllowance",
      "outputs": [
        {
          "internalType": "bool",
          "name": "",
          "type": "bool"
        }
      ],
      "stateMutability": "nonpayable",
      "type": "function"
    },
    {
      "inputs": [
        {
          "internalType": "address",
          "name": "spender",
          "type": "address"
        },
        {
          "internalType": "uint256",
          "name": "addedValue",
          "type": "uint256"
        }
      ],
      "name": "increaseAllowance",
      "outputs": [
        {
          "internalType": "bool",
          "name": "",
          "type": "bool"
        }
      ],
      "stateMutability": "nonpayable",
      "type": "function"
    },
    {
      "inputs": [
        {
          "internalType": "address",
          "name": "account",
          "type": "address"
        },
        {
          "internalType": "uint256",
          "name": "amount",
          "type": "uint256"
        }
      ],
      "name": "mint",
      "outputs": [],
      "stateMutability": "nonpayable",
      "type": "function"
    },
    {
      "inputs": [],
      "name": "name",
      "outputs": [
        {
          "internalType": "string",
          "name": "",
          "type": "string"
        }
      ],
      "stateMutability": "view",
      "type": "function"
    },
    {
      "inputs": [],
      "name": "owner",
      "outputs": [
        {
          "internalType": "address",
          "name": "",
          "type": "address"
        }
      ],
      "stateMutability": "view",
      "type": "function"
    },
    {
      "inputs": [],
      "name": "renounceOwnership",
      "outputs": [],
      "stateMutability": "nonpayable",
      "type": "function"
    },
    {
      "inputs": [],
      "name": "symbol",
      "outputs": [
        {
          "internalType": "string",
          "name": "",
          "type": "string"
        }
      ],
      "stateMutability": "view",
      "type": "function"
    },
    {
      "inputs": [],
      "name": "totalSupply",
      "outputs": [
        {
          "internalType": "uint256",
          "name": "",
          "type": "uint256"
        }
      ],
      "stateMutability": "view",
      "type": "function"
    },
    {
      "inputs": [
        {
          "internalType": "address",
          "name": "to",
          "type": "address"
        },
        {
          "internalType": "uint256",
          "name": "amount",
          "type": "uint256"
        }
      ],
      "name": "transfer",
      "outputs": [
        {
          "internalType": "bool",
          "name": "",
          "type": "bool"
        }
      ],
      "stateMutability": "nonpayable",
      "type": "function"
    },
    {
      "inputs": [
        {
          "internalType": "address",
          "name": "from",
          "type": "address"
        },
        {
          "internalType": "address",
          "name": "to",
          "type": "address"
        },
        {
          "internalType": "uint256",
          "name": "amount",
          "type": "uint256"
        }
      ],
      "name": "transferFrom",
      "outputs": [
        {
          "internalType": "bool",
          "name": "",
          "type": "bool"
        }
      ],
      "stateMutability": "nonpayable",
      "type": "function"
    },
    {
      "inputs": [
        {
          "internalType": "address",
          "name": "newOwner",
          "type": "address"
        }
      ],
      "name": "transferOwnership",
      "outputs": [],
      "stateMutability": "nonpayable",
      "type": "function"
    },
    {
      "inputs": [
        {
          "internalType": "uint256",
          "name": "amount",
          "type": "uint256"
        }
      ],
      "name": "withdraw",
      "outputs": [],
      "stateMutability": "nonpayable",
      "type": "function"
    }
  ],
  "bytecode": "0x60806040523480156200001157600080fd5b5060405162002dea38038062002dea8339818101604052810190620000379190620005a1565b6040518060400160405280600981526020017f69766f7279436f696e00000000000000000000000000000000000000000000008152506040518060400160405280600381526020017f49564f00000000000000000000000000000000000000000000000000000000008152508160039080519060200190620000bb929190620004c3565b508060049080519060200190620000d4929190620004c3565b505050620000f7620000eb6200013260201b60201c565b6200013a60201b60201c565b60016006819055506200011133836200020060201b60201c565b62000122836200037960201b60201c565b8060078190555050505062000915565b600033905090565b6000600560009054906101000a900473ffffffffffffffffffffffffffffffffffffffff16905081600560006101000a81548173ffffffffffffffffffffffffffffffffffffffff021916908373ffffffffffffffffffffffffffffffffffffffff1602179055508173ffffffffffffffffffffffffffffffffffffffff168173ffffffffffffffffffffffffffffffffffffffff167f8be0079c531659141344cd1fd0a4f28419497f9722a3daafe3b4186f6b6457e060405160405180910390a35050565b600073ffffffffffffffffffffffffffffffffffffffff168273ffffffffffffffffffffffffffffffffffffffff16141562000273576040517f08c379a00000000000000000000000000000000000000000000000000000000081526004016200026a90620006c1565b60405180910390fd5b62000287600083836200048f60201b60201c565b80600260008282546200029b919062000711565b92505081905550806000808473ffffffffffffffffffffffffffffffffffffffff1673ffffffffffffffffffffffffffffffffffffffff1681526020019081526020016000206000828254620002f2919062000711565b925050819055508173ffffffffffffffffffffffffffffffffffffffff16600073ffffffffffffffffffffffffffffffffffffffff167fddf252ad1be2c89b69c2b068fc378daa952ba7f163c4a11628f55a4df523b3ef83604051620003599190620006e3565b60405180910390a362000375600083836200049460201b60201c565b5050565b620003896200013260201b60201c565b73ffffffffffffffffffffffffffffffffffffffff16620003af6200049960201b60201c565b73ffffffffffffffffffffffffffffffffffffffff161462000408576040517f08c379a0000000000000000000000000000000000000000000000000000000008152600401620003ff906200069f565b60405180910390fd5b600073ffffffffffffffffffffffffffffffffffffffff168173ffffffffffffffffffffffffffffffffffffffff1614156200047b576040517f08c379a000000000000000000000000000000000000000000000000000000000815260040162000472906200067d565b60405180910390fd5b6200048c816200013a60201b60201c565b50565b505050565b505050565b6000600560009054906101000a900473ffffffffffffffffffffffffffffffffffffffff16905090565b828054620004d190620007ac565b90600052602060002090601f016020900481019282620004f5576000855562000541565b82601f106200051057805160ff191683800117855562000541565b8280016001018555821562000541579182015b828111156200054057825182559160200191906001019062000523565b5b50905062000550919062000554565b5090565b5b808211156200056f57600081600090555060010162000555565b5090565b6000815190506200058481620008e1565b92915050565b6000815190506200059b81620008fb565b92915050565b600080600060608486031215620005b757600080fd5b6000620005c78682870162000573565b9350506020620005da868287016200058a565b9250506040620005ed868287016200058a565b9150509250925092565b60006200060660268362000700565b9150620006138262000840565b604082019050919050565b60006200062d60208362000700565b91506200063a826200088f565b602082019050919050565b600062000654601f8362000700565b91506200066182620008b8565b602082019050919050565b6200067781620007a2565b82525050565b600060208201905081810360008301526200069881620005f7565b9050919050565b60006020820190508181036000830152620006ba816200061e565b9050919050565b60006020820190508181036000830152620006dc8162000645565b9050919050565b6000602082019050620006fa60008301846200066c565b92915050565b600082825260208201905092915050565b60006200071e82620007a2565b91506200072b83620007a2565b9250827fffffffffffffffffffffffffffffffffffffffffffffffffffffffffffffffff03821115620007635762000762620007e2565b5b828201905092915050565b60006200077b8262000782565b9050919050565b600073ffffffffffffffffffffffffffffffffffffffff82169050919050565b6000819050919050565b60006002820490506001821680620007c557607f821691505b60208210811415620007dc57620007db62000811565b5b50919050565b7f4e487b7100000000000000000000000000000000000000000000000000000000600052601160045260246000fd5b7f4e487b7100000000000000000000000000000000000000000000000000000000600052602260045260246000fd5b7f4f776e61626c653a206e6577206f776e657220697320746865207a65726f206160008201527f6464726573730000000000000000000000000000000000000000000000000000602082015250565b7f4f776e61626c653a2063616c6c6572206973206e6f7420746865206f776e6572600082015250565b7f45524332303a206d696e7420746f20746865207a65726f206164647265737300600082015250565b620008ec816200076e565b8114620008f857600080fd5b50565b6200090681620007a2565b81146200091257600080fd5b50565b6124c580620009256000396000f3fe6080604052600436106101095760003560e01c8063715018a611610095578063a457c2d711610064578063a457c2d71461036b578063a6f2ae3a146103a8578063a9059cbb146103b2578063dd62ed3e146103ef578063f2fde38b1461042c57610109565b8063715018a6146102d55780638da5cb5b146102ec57806395d89b41146103175780639dc29fac1461034257610109565b80632e1a7d4d116100dc5780632e1a7d4d146101de578063313ce56714610207578063395093511461023257806340c10f191461026f57806370a082311461029857610109565b806306fdde031461010e578063095ea7b31461013957806318160ddd1461017657806323b872dd146101a1575b600080fd5b34801561011a57600080fd5b50610123610455565b6040516101309190611b3f565b60405180910390f35b34801561014557600080fd5b50610160600480360381019061015b91906117dc565b6104e7565b60405161016d9190611b24565b60405180910390f35b34801561018257600080fd5b5061018b61050a565b6040516101989190611d81565b60405180910390f35b3480156101ad57600080fd5b506101c860048036038101906101c3919061178d565b610514565b6040516101d59190611b24565b60405180910390f35b3480156101ea57600080fd5b5061020560048036038101906102009190611818565b610543565b005b34801561021357600080fd5b5061021c610653565b6040516102299190611d9c565b60405180910390f35b34801561023e57600080fd5b50610259600480360381019061025491906117dc565b61065c565b6040516102669190611b24565b60405180910390f35b34801561027b57600080fd5b50610296600480360381019061029191906117dc565b610706565b005b3480156102a457600080fd5b506102bf60048036038101906102ba9190611728565b61080d565b6040516102cc9190611d81565b60405180910390f35b3480156102e157600080fd5b506102ea610855565b005b3480156102f857600080fd5b506103016108dd565b60405161030e9190611b09565b60405180910390f35b34801561032357600080fd5b5061032c610907565b6040516103399190611b3f565b60405180910390f35b34801561034e57600080fd5b50610369600480360381019061036491906117dc565b610999565b005b34801561037757600080fd5b50610392600480360381019061038d91906117dc565b610aa0565b60405161039f9190611b24565b60405180910390f35b6103b0610b8a565b005b3480156103be57600080fd5b506103d960048036038101906103d491906117dc565b610c75565b6040516103e69190611b24565b60405180910390f35b3480156103fb57600080fd5b5061041660048036038101906104119190611751565b610c98565b6040516104239190611d81565b60405180910390f35b34801561043857600080fd5b50610453600480360381019061044e9190611728565b610d1f565b005b60606003805461046490611f3f565b80601f016020809104026020016040519081016040528092919081815260200182805461049090611f3f565b80156104dd5780601f106104b2576101008083540402835291602001916104dd565b820191906000526020600020905b8154815290600101906020018083116104c057829003601f168201915b5050505050905090565b6000806104f2610e17565b90506104ff818585610e1f565b600191505092915050565b6000600254905090565b60008061051f610e17565b905061052c858285610fea565b610537858585611076565b60019150509392505050565b61054b610e17565b73ffffffffffffffffffffffffffffffffffffffff166105696108dd565b73ffffffffffffffffffffffffffffffffffffffff16146105bf576040517f08c379a00000000000000000000000000000000000000000000000000000000081526004016105b690611c41565b60405180910390fd5b47811115610602576040517f08c379a00000000000000000000000000000000000000000000000000000000081526004016105f990611ba1565b60405180910390fd5b61060a610e17565b73ffffffffffffffffffffffffffffffffffffffff166108fc829081150290604051600060405180830381858888f1935050505015801561064f573d6000803e3d6000fd5b5050565b60006012905090565b600080610667610e17565b90506106fb818585600160008673ffffffffffffffffffffffffffffffffffffffff1673ffffffffffffffffffffffffffffffffffffffff16815260200190815260200160002060008973ffffffffffffffffffffffffffffffffffffffff1673ffffffffffffffffffffffffffffffffffffffff168152602001908152602001600020546106f69190611dd3565b610e1f565b600191505092915050565b61070e610e17565b73ffffffffffffffffffffffffffffffffffffffff1661072c6108dd565b73ffffffffffffffffffffffffffffffffffffffff1614610782576040517f08c379a000000000000000000000000000000000000000000000000000000000815260040161077990611c41565b60405180910390fd5b600073ffffffffffffffffffffffffffffffffffffffff168273ffffffffffffffffffffffffffffffffffffffff16141580156107c0575060008114155b6107ff576040517f08c379a00000000000000000000000000000000000000000000000000000000081526004016107f690611c81565b60405180910390fd5b61080982826112f7565b5050565b60008060008373ffffffffffffffffffffffffffffffffffffffff1673ffffffffffffffffffffffffffffffffffffffff168152602001908152602001600020549050919050565b61085d610e17565b73ffffffffffffffffffffffffffffffffffffffff1661087b6108dd565b73ffffffffffffffffffffffffffffffffffffffff16146108d1576040517f08c379a00000000000000000000000000000000000000000000000000000000081526004016108c890611c41565b60405180910390fd5b6108db6000611457565b565b6000600560009054906101000a900473ffffffffffffffffffffffffffffffffffffffff16905090565b60606004805461091690611f3f565b80601f016020809104026020016040519081016040528092919081815260200182805461094290611f3f565b801561098f5780601f106109645761010080835404028352916020019161098f565b820191906000526020600020905b81548152906001019060200180831161097257829003601f168201915b5050505050905090565b6109a1610e17565b73ffffffffffffffffffffffffffffffffffffffff166109bf6108dd565b73ffffffffffffffffffffffffffffffffffffffff1614610a15576040517f08c379a0000000000000000000000000000000000000000000000000000000008152600401610a0c90611c41565b60405180910390fd5b600073ffffffffffffffffffffffffffffffffffffffff168273ffffffffffffffffffffffffffffffffffffffff1614158015610a53575060008114155b610a92576040517f08c379a0000000000000000000000000000000000000000000000000000000008152600401610a8990611ce1565b60405180910390fd5b610a9c828261151d565b5050565b600080610aab610e17565b90506000600160008373ffffffffffffffffffffffffffffffffffffffff1673ffffffffffffffffffffffffffffffffffffffff16815260200190815260200160002060008673ffffffffffffffffffffffffffffffffffffffff1673ffffffffffffffffffffffffffffffffffffffff16815260200190815260200160002054905083811015610b71576040517f08c379a0000000000000000000000000000000000000000000000000000000008152600401610b6890611d41565b60405180910390fd5b610b7e8286868403610e1f565b60019250505092915050565b60026006541415610bd0576040517f08c379a0000000000000000000000000000000000000000000000000000000008152600401610bc790611d21565b60405180910390fd5b6002600681905550343373ffffffffffffffffffffffffffffffffffffffff163110158015610c00575060003414155b610c3f576040517f08c379a0000000000000000000000000000000000000000000000000000000008152600401610c3690611c61565b60405180910390fd5b600060075434610c4f9190611e29565b9050610c6a610c5c6108dd565b610c64610e17565b83611076565b506001600681905550565b600080610c80610e17565b9050610c8d818585611076565b600191505092915050565b6000600160008473ffffffffffffffffffffffffffffffffffffffff1673ffffffffffffffffffffffffffffffffffffffff16815260200190815260200160002060008373ffffffffffffffffffffffffffffffffffffffff1673ffffffffffffffffffffffffffffffffffffffff16815260200190815260200160002054905092915050565b610d27610e17565b73ffffffffffffffffffffffffffffffffffffffff16610d456108dd565b73ffffffffffffffffffffffffffffffffffffffff1614610d9b576040517f08c379a0000000000000000000000000000000000000000000000000000000008152600401610d9290611c41565b60405180910390fd5b600073ffffffffffffffffffffffffffffffffffffffff168173ffffffffffffffffffffffffffffffffffffffff161415610e0b576040517f08c379a0000000000000000000000000000000000000000000000000000000008152600401610e0290611bc1565b60405180910390fd5b610e1481611457565b50565b600033905090565b600073ffffffffffffffffffffffffffffffffffffffff168373ffffffffffffffffffffffffffffffffffffffff161415610e8f576040517f08c379a0000000000000000000000000000000000000000000000000000000008152600401610e8690611d01565b60405180910390fd5b600073ffffffffffffffffffffffffffffffffffffffff168273ffffffffffffffffffffffffffffffffffffffff161415610eff576040517f08c379a0000000000000000000000000000000000000000000000000000000008152600401610ef690611be1565b60405180910390fd5b80600160008573ffffffffffffffffffffffffffffffffffffffff1673ffffffffffffffffffffffffffffffffffffffff16815260200190815260200160002060008473ffffffffffffffffffffffffffffffffffffffff1673ffffffffffffffffffffffffffffffffffffffff168152602001908152602001600020819055508173ffffffffffffffffffffffffffffffffffffffff168373ffffffffffffffffffffffffffffffffffffffff167f8c5be1e5ebec7d5bd14f71427d1e84f3dd0314c0f7b2291e5b200ac8c7c3b92583604051610fdd9190611d81565b60405180910390a3505050565b6000610ff68484610c98565b90507fffffffffffffffffffffffffffffffffffffffffffffffffffffffffffffffff81146110705781811015611062576040517f08c379a000000000000000000000000000000000000000000000000000000000815260040161105990611c01565b60405180910390fd5b61106f8484848403610e1f565b5b50505050565b600073ffffffffffffffffffffffffffffffffffffffff168373ffffffffffffffffffffffffffffffffffffffff1614156110e6576040517f08c379a00000000000000000000000000000000000000000000000000000000081526004016110dd90611cc1565b60405180910390fd5b600073ffffffffffffffffffffffffffffffffffffffff168273ffffffffffffffffffffffffffffffffffffffff161415611156576040517f08c379a000000000000000000000000000000000000000000000000000000000815260040161114d90611b61565b60405180910390fd5b6111618383836116f4565b60008060008573ffffffffffffffffffffffffffffffffffffffff1673ffffffffffffffffffffffffffffffffffffffff168152602001908152602001600020549050818110156111e7576040517f08c379a00000000000000000000000000000000000000000000000000000000081526004016111de90611c21565b60405180910390fd5b8181036000808673ffffffffffffffffffffffffffffffffffffffff1673ffffffffffffffffffffffffffffffffffffffff16815260200190815260200160002081905550816000808573ffffffffffffffffffffffffffffffffffffffff1673ffffffffffffffffffffffffffffffffffffffff168152602001908152602001600020600082825461127a9190611dd3565b925050819055508273ffffffffffffffffffffffffffffffffffffffff168473ffffffffffffffffffffffffffffffffffffffff167fddf252ad1be2c89b69c2b068fc378daa952ba7f163c4a11628f55a4df523b3ef846040516112de9190611d81565b60405180910390a36112f18484846116f9565b50505050565b600073ffffffffffffffffffffffffffffffffffffffff168273ffffffffffffffffffffffffffffffffffffffff161415611367576040517f08c379a000000000000000000000000000000000000000000000000000000000815260040161135e90611d61565b60405180910390fd5b611373600083836116f4565b80600260008282546113859190611dd3565b92505081905550806000808473ffffffffffffffffffffffffffffffffffffffff1673ffffffffffffffffffffffffffffffffffffffff16815260200190815260200160002060008282546113da9190611dd3565b925050819055508173ffffffffffffffffffffffffffffffffffffffff16600073ffffffffffffffffffffffffffffffffffffffff167fddf252ad1be2c89b69c2b068fc378daa952ba7f163c4a11628f55a4df523b3ef8360405161143f9190611d81565b60405180910390a3611453600083836116f9565b5050565b6000600560009054906101000a900473ffffffffffffffffffffffffffffffffffffffff16905081600560006101000a81548173ffffffffffffffffffffffffffffffffffffffff021916908373ffffffffffffffffffffffffffffffffffffffff1602179055508173ffffffffffffffffffffffffffffffffffffffff168173ffffffffffffffffffffffffffffffffffffffff167f8be0079c531659141344cd1fd0a4f28419497f9722a3daafe3b4186f6b6457e060405160405180910390a35050565b600073ffffffffffffffffffffffffffffffffffffffff168273ffffffffffffffffffffffffffffffffffffffff16141561158d576040517f08c379a000000000000000000000000000000000000000000000000000000000815260040161158490611ca1565b60405180910390fd5b611599826000836116f4565b60008060008473ffffffffffffffffffffffffffffffffffffffff1673ffffffffffffffffffffffffffffffffffffffff1681526020019081526020016000205490508181101561161f576040517f08c379a000000000000000000000000000000000000000000000000000000000815260040161161690611b81565b60405180910390fd5b8181036000808573ffffffffffffffffffffffffffffffffffffffff1673ffffffffffffffffffffffffffffffffffffffff1681526020019081526020016000208190555081600260008282546116769190611e83565b92505081905550600073ffffffffffffffffffffffffffffffffffffffff168373ffffffffffffffffffffffffffffffffffffffff167fddf252ad1be2c89b69c2b068fc378daa952ba7f163c4a11628f55a4df523b3ef846040516116db9190611d81565b60405180910390a36116ef836000846116f9565b505050565b505050565b505050565b60008135905061170d81612461565b92915050565b60008135905061172281612478565b92915050565b60006020828403121561173a57600080fd5b6000611748848285016116fe565b91505092915050565b6000806040838503121561176457600080fd5b6000611772858286016116fe565b9250506020611783858286016116fe565b9150509250929050565b6000806000606084860312156117a257600080fd5b60006117b0868287016116fe565b93505060206117c1868287016116fe565b92505060406117d286828701611713565b9150509250925092565b600080604083850312156117ef57600080fd5b60006117fd858286016116fe565b925050602061180e85828601611713565b9150509250929050565b60006020828403121561182a57600080fd5b600061183884828501611713565b91505092915050565b61184a81611eb7565b82525050565b61185981611ec9565b82525050565b600061186a82611db7565b6118748185611dc2565b9350611884818560208601611f0c565b61188d81611fcf565b840191505092915050565b60006118a5602383611dc2565b91506118b082611fe0565b604082019050919050565b60006118c8602283611dc2565b91506118d38261202f565b604082019050919050565b60006118eb602483611dc2565b91506118f68261207e565b604082019050919050565b600061190e602683611dc2565b9150611919826120cd565b604082019050919050565b6000611931602283611dc2565b915061193c8261211c565b604082019050919050565b6000611954601d83611dc2565b915061195f8261216b565b602082019050919050565b6000611977602683611dc2565b915061198282612194565b604082019050919050565b600061199a602083611dc2565b91506119a5826121e3565b602082019050919050565b60006119bd601f83611dc2565b91506119c88261220c565b602082019050919050565b60006119e0602283611dc2565b91506119eb82612235565b604082019050919050565b6000611a03602183611dc2565b9150611a0e82612284565b604082019050919050565b6000611a26602583611dc2565b9150611a31826122d3565b604082019050919050565b6000611a49602283611dc2565b9150611a5482612322565b604082019050919050565b6000611a6c602483611dc2565b9150611a7782612371565b604082019050919050565b6000611a8f601f83611dc2565b9150611a9a826123c0565b602082019050919050565b6000611ab2602583611dc2565b9150611abd826123e9565b604082019050919050565b6000611ad5601f83611dc2565b9150611ae082612438565b602082019050919050565b611af481611ef5565b82525050565b611b0381611eff565b82525050565b6000602082019050611b1e6000830184611841565b92915050565b6000602082019050611b396000830184611850565b92915050565b60006020820190508181036000830152611b59818461185f565b905092915050565b60006020820190508181036000830152611b7a81611898565b9050919050565b60006020820190508181036000830152611b9a816118bb565b9050919050565b60006020820190508181036000830152611bba816118de565b9050919050565b60006020820190508181036000830152611bda81611901565b9050919050565b60006020820190508181036000830152611bfa81611924565b9050919050565b60006020820190508181036000830152611c1a81611947565b9050919050565b60006020820190508181036000830152611c3a8161196a565b9050919050565b60006020820190508181036000830152611c5a8161198d565b9050919050565b60006020820190508181036000830152611c7a816119b0565b9050919050565b60006020820190508181036000830152611c9a816119d3565b9050919050565b60006020820190508181036000830152611cba816119f6565b9050919050565b60006020820190508181036000830152611cda81611a19565b9050919050565b60006020820190508181036000830152611cfa81611a3c565b9050919050565b60006020820190508181036000830152611d1a81611a5f565b9050919050565b60006020820190508181036000830152611d3a81611a82565b9050919050565b60006020820190508181036000830152611d5a81611aa5565b9050919050565b60006020820190508181036000830152611d7a81611ac8565b9050919050565b6000602082019050611d966000830184611aeb565b92915050565b6000602082019050611db16000830184611afa565b92915050565b600081519050919050565b600082825260208201905092915050565b6000611dde82611ef5565b9150611de983611ef5565b9250827fffffffffffffffffffffffffffffffffffffffffffffffffffffffffffffffff03821115611e1e57611e1d611f71565b5b828201905092915050565b6000611e3482611ef5565b9150611e3f83611ef5565b9250817fffffffffffffffffffffffffffffffffffffffffffffffffffffffffffffffff0483118215151615611e7857611e77611f71565b5b828202905092915050565b6000611e8e82611ef5565b9150611e9983611ef5565b925082821015611eac57611eab611f71565b5b828203905092915050565b6000611ec282611ed5565b9050919050565b60008115159050919050565b600073ffffffffffffffffffffffffffffffffffffffff82169050919050565b6000819050919050565b600060ff82169050919050565b60005b83811015611f2a578082015181840152602081019050611f0f565b83811115611f39576000848401525b50505050565b60006002820490506001821680611f5757607f821691505b60208210811415611f6b57611f6a611fa0565b5b50919050565b7f4e487b7100000000000000000000000000000000000000000000000000000000600052601160045260246000fd5b7f4e487b7100000000000000000000000000000000000000000000000000000000600052602260045260246000fd5b6000601f19601f8301169050919050565b7f45524332303a207472616e7366657220746f20746865207a65726f206164647260008201527f6573730000000000000000000000000000000000000000000000000000000000602082015250565b7f45524332303a206275726e20616d6f756e7420657863656564732062616c616e60008201527f6365000000000000000000000000000000000000000000000000000000000000602082015250565b7f49434f3a2066756e6374696f6e20776974686472617720696e76616c6964206960008201527f6e70757400000000000000000000000000000000000000000000000000000000602082015250565b7f4f776e61626c653a206e6577206f776e657220697320746865207a65726f206160008201527f6464726573730000000000000000000000000000000000000000000000000000602082015250565b7f45524332303a20617070726f766520746f20746865207a65726f20616464726560008201527f7373000000000000000000000000000000000000000000000000000000000000602082015250565b7f45524332303a20696e73756666696369656e7420616c6c6f77616e6365000000600082015250565b7f45524332303a207472616e7366657220616d6f756e742065786365656473206260008201527f616c616e63650000000000000000000000000000000000000000000000000000602082015250565b7f4f776e61626c653a2063616c6c6572206973206e6f7420746865206f776e6572600082015250565b7f49434f3a2066756e6374696f6e2062757920696e76616c696420696e70757400600082015250565b7f45524332303a2066756e6374696f6e206d696e7420696e76616c696420696e7060008201527f7574000000000000000000000000000000000000000000000000000000000000602082015250565b7f45524332303a206275726e2066726f6d20746865207a65726f2061646472657360008201527f7300000000000000000000000000000000000000000000000000000000000000602082015250565b7f45524332303a207472616e736665722066726f6d20746865207a65726f20616460008201527f6472657373000000000000000000000000000000000000000000000000000000602082015250565b7f45524332303a2066756e6374696f6e206275726e20696e76616c696420696e7060008201527f7574000000000000000000000000000000000000000000000000000000000000602082015250565b7f45524332303a20617070726f76652066726f6d20746865207a65726f2061646460008201527f7265737300000000000000000000000000000000000000000000000000000000602082015250565b7f5265656e7472616e637947756172643a207265656e7472616e742063616c6c00600082015250565b7f45524332303a2064656372656173656420616c6c6f77616e63652062656c6f7760008201527f207a65726f000000000000000000000000000000000000000000000000000000602082015250565b7f45524332303a206d696e7420746f20746865207a65726f206164647265737300600082015250565b61246a81611eb7565b811461247557600080fd5b50565b61248181611ef5565b811461248c57600080fd5b5056fea26469706673582212202f680a4bda3f6e9b8bb9f5dfcf6f215211212df971591d591df6a7ec36e73d6464736f6c63430008040033",
  "linkReferences": {},
  "deployedLinkReferences": {}
}