{
  "_format": "hh-sol-artifact-1",
  "contractName": "ICO",
  "sourceName": "contracts/ivoryICO.sol",
  "abi": [
    {
      "inputs": [
        {
          "internalType": "address",
          "name": "owner",
          "type": "address"
        },
        {
          "internalType": "uint256",
          "name": "initialSupply",
          "type": "uint256"
        },
        {
          "internalType": "uint256",
          "name": "tokenRate",
          "type": "uint256"
        }
      ],
      "stateMutability": "nonpayable",
      "type": "constructor"
    },
    {
      "anonymous": false,
      "inputs": [
        {
          "indexed": true,
          "internalType": "address",
          "name": "owner",
          "type": "address"
        },
        {
          "indexed": true,
          "internalType": "address",
          "name": "spender",
          "type": "address"
        },
        {
          "indexed": false,
          "internalType": "uint256",
          "name": "value",
          "type": "uint256"
        }
      ],
      "name": "Approval",
      "type": "event"
    },
    {
      "anonymous": false,
      "inputs": [
        {
          "indexed": true,
          "internalType": "address",
          "name": "previousOwner",
          "type": "address"
        },
        {
          "indexed": true,
          "internalType": "address",
          "name": "newOwner",
          "type": "address"
        }
      ],
      "name": "OwnershipTransferred",
      "type": "event"
    },
    {
      "anonymous": false,
      "inputs": [
        {
          "indexed": true,
          "internalType": "address",
          "name": "from",
          "type": "address"
        },
        {
          "indexed": true,
          "internalType": "address",
          "name": "to",
          "type": "address"
        },
        {
          "indexed": false,
          "internalType": "uint256",
          "name": "value",
          "type": "uint256"
        }
      ],
      "name": "Transfer",
      "type": "event"
    },
    {
      "inputs": [
        {
          "internalType": "address",
          "name": "owner",
          "type": "address"
        },
        {
          "internalType": "address",
          "name": "spender",
          "type": "address"
        }
      ],
      "name": "allowance",
      "outputs": [
        {
          "internalType": "uint256",
          "name": "",
          "type": "uint256"
        }
      ],
      "stateMutability": "view",
      "type": "function"
    },
    {
      "inputs": [
        {
          "internalType": "address",
          "name": "spender",
          "type": "address"
        },
        {
          "internalType": "uint256",
          "name": "amount",
          "type": "uint256"
        }
      ],
      "name": "approve",
      "outputs": [
        {
          "internalType": "bool",
          "name": "",
          "type": "bool"
        }
      ],
      "stateMutability": "nonpayable",
      "type": "function"
    },
    {
      "inputs": [
        {
          "internalType": "address",
          "name": "account",
          "type": "address"
        }
      ],
      "name": "balanceOf",
      "outputs": [
        {
          "internalType": "uint256",
          "name": "",
          "type": "uint256"
        }
      ],
      "stateMutability": "view",
      "type": "function"
    },
    {
      "inputs": [
        {
          "internalType": "address",
          "name": "account",
          "type": "address"
        },
        {
          "internalType": "uint256",
          "name": "amount",
          "type": "uint256"
        }
      ],
      "name": "burn",
      "outputs": [],
      "stateMutability": "nonpayable",
      "type": "function"
    },
    {
      "inputs": [],
      "name": "buy",
      "outputs": [],
      "stateMutability": "payable",
      "type": "function"
    },
    {
      "inputs": [],
      "name": "decimals",
      "outputs": [
        {
          "internalType": "uint8",
          "name": "",
          "type": "uint8"
        }
      ],
      "stateMutability": "view",
      "type": "function"
    },
    {
      "inputs": [
        {
          "internalType": "address",
          "name": "spender",
          "type": "address"
        },
        {
          "internalType": "uint256",
          "name": "subtractedValue",
          "type": "uint256"
        }
      ],
      "name": "decreaseAllowance",
      "outputs": [
        {
          "internalType": "bool",
          "name": "",
          "type": "bool"
        }
      ],
      "stateMutability": "nonpayable",
      "type": "function"
    },
    {
      "inputs": [],
      "name": "description",
      "outputs": [
        {
          "internalType": "string",
          "name": "",
          "type": "string"
        }
      ],
      "stateMutability": "view",
      "type": "function"
    },
    {
      "inputs": [
        {
          "internalType": "address",
          "name": "spender",
          "type": "address"
        },
        {
          "internalType": "uint256",
          "name": "addedValue",
          "type": "uint256"
        }
      ],
      "name": "increaseAllowance",
      "outputs": [
        {
          "internalType": "bool",
          "name": "",
          "type": "bool"
        }
      ],
      "stateMutability": "nonpayable",
      "type": "function"
    },
    {
      "inputs": [],
      "name": "info",
      "outputs": [
        {
          "internalType": "string",
          "name": "",
          "type": "string"
        }
      ],
      "stateMutability": "view",
      "type": "function"
    },
    {
      "inputs": [],
      "name": "leftSupply",
      "outputs": [
        {
          "internalType": "uint256",
          "name": "supplyLeft",
          "type": "uint256"
        }
      ],
      "stateMutability": "view",
      "type": "function"
    },
    {
      "inputs": [
        {
          "internalType": "address",
          "name": "account",
          "type": "address"
        },
        {
          "internalType": "uint256",
          "name": "amount",
          "type": "uint256"
        }
      ],
      "name": "mint",
      "outputs": [],
      "stateMutability": "nonpayable",
      "type": "function"
    },
    {
      "inputs": [],
      "name": "name",
      "outputs": [
        {
          "internalType": "string",
          "name": "",
          "type": "string"
        }
      ],
      "stateMutability": "view",
      "type": "function"
    },
    {
      "inputs": [],
      "name": "owner",
      "outputs": [
        {
          "internalType": "address",
          "name": "",
          "type": "address"
        }
      ],
      "stateMutability": "view",
      "type": "function"
    },
    {
      "inputs": [],
      "name": "rate",
      "outputs": [
        {
          "internalType": "uint256",
          "name": "",
          "type": "uint256"
        }
      ],
      "stateMutability": "view",
      "type": "function"
    },
    {
      "inputs": [],
      "name": "renounceOwnership",
      "outputs": [],
      "stateMutability": "nonpayable",
      "type": "function"
    },
    {
      "inputs": [],
      "name": "symbol",
      "outputs": [
        {
          "internalType": "string",
          "name": "",
          "type": "string"
        }
      ],
      "stateMutability": "view",
      "type": "function"
    },
    {
      "inputs": [],
      "name": "title",
      "outputs": [
        {
          "internalType": "string",
          "name": "",
          "type": "string"
        }
      ],
      "stateMutability": "view",
      "type": "function"
    },
    {
      "inputs": [],
      "name": "totalSupply",
      "outputs": [
        {
          "internalType": "uint256",
          "name": "",
          "type": "uint256"
        }
      ],
      "stateMutability": "view",
      "type": "function"
    },
    {
      "inputs": [
        {
          "internalType": "address",
          "name": "to",
          "type": "address"
        },
        {
          "internalType": "uint256",
          "name": "amount",
          "type": "uint256"
        }
      ],
      "name": "transfer",
      "outputs": [
        {
          "internalType": "bool",
          "name": "",
          "type": "bool"
        }
      ],
      "stateMutability": "nonpayable",
      "type": "function"
    },
    {
      "inputs": [
        {
          "internalType": "address",
          "name": "from",
          "type": "address"
        },
        {
          "internalType": "address",
          "name": "to",
          "type": "address"
        },
        {
          "internalType": "uint256",
          "name": "amount",
          "type": "uint256"
        }
      ],
      "name": "transferFrom",
      "outputs": [
        {
          "internalType": "bool",
          "name": "",
          "type": "bool"
        }
      ],
      "stateMutability": "nonpayable",
      "type": "function"
    },
    {
      "inputs": [
        {
          "internalType": "address",
          "name": "newOwner",
          "type": "address"
        }
      ],
      "name": "transferOwnership",
      "outputs": [],
      "stateMutability": "nonpayable",
      "type": "function"
    },
    {
      "inputs": [],
      "name": "url",
      "outputs": [
        {
          "internalType": "string",
          "name": "",
          "type": "string"
        }
      ],
      "stateMutability": "view",
      "type": "function"
    },
    {
      "inputs": [
        {
          "internalType": "uint256",
          "name": "amount",
          "type": "uint256"
        }
      ],
      "name": "withdraw",
      "outputs": [],
      "stateMutability": "nonpayable",
      "type": "function"
    }
  ],
  "bytecode": "0x60806040523480156200001157600080fd5b5060405162003f0c38038062003f0c8339818101604052810190620000379190620006ab565b6040518060400160405280600981526020017f69766f7279436f696e00000000000000000000000000000000000000000000008152506040518060400160405280600381526020017f49564f00000000000000000000000000000000000000000000000000000000008152508160039080519060200190620000bb929190620005cd565b508060049080519060200190620000d4929190620005cd565b505050620000f7620000eb6200023c60201b60201c565b6200024460201b60201c565b60016006819055506200011183836200030a60201b60201c565b62000122836200048360201b60201c565b806007819055506040518060400160405280600881526020017f49766f727949434f0000000000000000000000000000000000000000000000008152506009908051906020019062000176929190620005cd565b5060405180606001604052806027815260200162003ee560279139600a9080519060200190620001a8929190620005cd565b5060405180610a400160405280610a0c8152602001620034d9610a0c9139600b9080519060200190620001dd929190620005cd565b506040518060400160405280601e81526020017f68747470733a2f2f69766f727966756e642e6e65746c6966792e6170702f0000815250600c90805190602001906200022b929190620005cd565b508160088190555050505062000a1f565b600033905090565b6000600560009054906101000a900473ffffffffffffffffffffffffffffffffffffffff16905081600560006101000a81548173ffffffffffffffffffffffffffffffffffffffff021916908373ffffffffffffffffffffffffffffffffffffffff1602179055508173ffffffffffffffffffffffffffffffffffffffff168173ffffffffffffffffffffffffffffffffffffffff167f8be0079c531659141344cd1fd0a4f28419497f9722a3daafe3b4186f6b6457e060405160405180910390a35050565b600073ffffffffffffffffffffffffffffffffffffffff168273ffffffffffffffffffffffffffffffffffffffff1614156200037d576040517f08c379a00000000000000000000000000000000000000000000000000000000081526004016200037490620007cb565b60405180910390fd5b62000391600083836200059960201b60201c565b8060026000828254620003a591906200081b565b92505081905550806000808473ffffffffffffffffffffffffffffffffffffffff1673ffffffffffffffffffffffffffffffffffffffff1681526020019081526020016000206000828254620003fc91906200081b565b925050819055508173ffffffffffffffffffffffffffffffffffffffff16600073ffffffffffffffffffffffffffffffffffffffff167fddf252ad1be2c89b69c2b068fc378daa952ba7f163c4a11628f55a4df523b3ef83604051620004639190620007ed565b60405180910390a36200047f600083836200059e60201b60201c565b5050565b620004936200023c60201b60201c565b73ffffffffffffffffffffffffffffffffffffffff16620004b9620005a360201b60201c565b73ffffffffffffffffffffffffffffffffffffffff161462000512576040517f08c379a00000000000000000000000000000000000000000000000000000000081526004016200050990620007a9565b60405180910390fd5b600073ffffffffffffffffffffffffffffffffffffffff168173ffffffffffffffffffffffffffffffffffffffff16141562000585576040517f08c379a00000000000000000000000000000000000000000000000000000000081526004016200057c9062000787565b60405180910390fd5b62000596816200024460201b60201c565b50565b505050565b505050565b6000600560009054906101000a900473ffffffffffffffffffffffffffffffffffffffff16905090565b828054620005db90620008b6565b90600052602060002090601f016020900481019282620005ff57600085556200064b565b82601f106200061a57805160ff19168380011785556200064b565b828001600101855582156200064b579182015b828111156200064a5782518255916020019190600101906200062d565b5b5090506200065a91906200065e565b5090565b5b80821115620006795760008160009055506001016200065f565b5090565b6000815190506200068e81620009eb565b92915050565b600081519050620006a58162000a05565b92915050565b600080600060608486031215620006c157600080fd5b6000620006d1868287016200067d565b9350506020620006e48682870162000694565b9250506040620006f78682870162000694565b9150509250925092565b6000620007106026836200080a565b91506200071d826200094a565b604082019050919050565b6000620007376020836200080a565b9150620007448262000999565b602082019050919050565b60006200075e601f836200080a565b91506200076b82620009c2565b602082019050919050565b6200078181620008ac565b82525050565b60006020820190508181036000830152620007a28162000701565b9050919050565b60006020820190508181036000830152620007c48162000728565b9050919050565b60006020820190508181036000830152620007e6816200074f565b9050919050565b600060208201905062000804600083018462000776565b92915050565b600082825260208201905092915050565b60006200082882620008ac565b91506200083583620008ac565b9250827fffffffffffffffffffffffffffffffffffffffffffffffffffffffffffffffff038211156200086d576200086c620008ec565b5b828201905092915050565b600062000885826200088c565b9050919050565b600073ffffffffffffffffffffffffffffffffffffffff82169050919050565b6000819050919050565b60006002820490506001821680620008cf57607f821691505b60208210811415620008e657620008e56200091b565b5b50919050565b7f4e487b7100000000000000000000000000000000000000000000000000000000600052601160045260246000fd5b7f4e487b7100000000000000000000000000000000000000000000000000000000600052602260045260246000fd5b7f4f776e61626c653a206e6577206f776e657220697320746865207a65726f206160008201527f6464726573730000000000000000000000000000000000000000000000000000602082015250565b7f4f776e61626c653a2063616c6c6572206973206e6f7420746865206f776e6572600082015250565b7f45524332303a206d696e7420746f20746865207a65726f206164647265737300600082015250565b620009f68162000878565b811462000a0257600080fd5b50565b62000a1081620008ac565b811462000a1c57600080fd5b50565b612aaa8062000a2f6000396000f3fe60806040526004361061014b5760003560e01c806370a08231116100b6578063a457c2d71161006f578063a457c2d714610484578063a6f2ae3a146104c1578063a9059cbb146104cb578063cacb3a2114610508578063dd62ed3e14610533578063f2fde38b146105705761014b565b806370a0823114610386578063715018a6146103c35780637284e416146103da5780638da5cb5b1461040557806395d89b41146104305780639dc29fac1461045b5761014b565b8063313ce56711610108578063313ce56714610274578063370158ea1461029f57806339509351146102ca57806340c10f19146103075780634a79d50c146103305780635600f04f1461035b5761014b565b806306fdde0314610150578063095ea7b31461017b57806318160ddd146101b857806323b872dd146101e35780632c4e722e146102205780632e1a7d4d1461024b575b600080fd5b34801561015c57600080fd5b50610165610599565b604051610172919061200c565b60405180910390f35b34801561018757600080fd5b506101a2600480360381019061019d9190611c63565b61062b565b6040516101af9190611ff1565b60405180910390f35b3480156101c457600080fd5b506101cd61064e565b6040516101da919061228e565b60405180910390f35b3480156101ef57600080fd5b5061020a60048036038101906102059190611c14565b610658565b6040516102179190611ff1565b60405180910390f35b34801561022c57600080fd5b50610235610687565b604051610242919061228e565b60405180910390f35b34801561025757600080fd5b50610272600480360381019061026d9190611c9f565b610691565b005b34801561028057600080fd5b506102896107a1565b60405161029691906122a9565b60405180910390f35b3480156102ab57600080fd5b506102b46107aa565b6040516102c1919061200c565b60405180910390f35b3480156102d657600080fd5b506102f160048036038101906102ec9190611c63565b61083c565b6040516102fe9190611ff1565b60405180910390f35b34801561031357600080fd5b5061032e60048036038101906103299190611c63565b6108e6565b005b34801561033c57600080fd5b506103456109ed565b604051610352919061200c565b60405180910390f35b34801561036757600080fd5b50610370610a7f565b60405161037d919061200c565b60405180910390f35b34801561039257600080fd5b506103ad60048036038101906103a89190611baf565b610b11565b6040516103ba919061228e565b60405180910390f35b3480156103cf57600080fd5b506103d8610b59565b005b3480156103e657600080fd5b506103ef610be1565b6040516103fc919061200c565b60405180910390f35b34801561041157600080fd5b5061041a610c73565b6040516104279190611fd6565b60405180910390f35b34801561043c57600080fd5b50610445610c9d565b604051610452919061200c565b60405180910390f35b34801561046757600080fd5b50610482600480360381019061047d9190611c63565b610d2f565b005b34801561049057600080fd5b506104ab60048036038101906104a69190611c63565b610e36565b6040516104b89190611ff1565b60405180910390f35b6104c9610f20565b005b3480156104d757600080fd5b506104f260048036038101906104ed9190611c63565b6110f2565b6040516104ff9190611ff1565b60405180910390f35b34801561051457600080fd5b5061051d611115565b60405161052a919061228e565b60405180910390f35b34801561053f57600080fd5b5061055a60048036038101906105559190611bd8565b61111f565b604051610567919061228e565b60405180910390f35b34801561057c57600080fd5b5061059760048036038101906105929190611baf565b6111a6565b005b6060600380546105a89061247d565b80601f01602080910402602001604051908101604052809291908181526020018280546105d49061247d565b80156106215780601f106105f657610100808354040283529160200191610621565b820191906000526020600020905b81548152906001019060200180831161060457829003601f168201915b5050505050905090565b60008061063661129e565b90506106438185856112a6565b600191505092915050565b6000600254905090565b60008061066361129e565b9050610670858285611471565b61067b8585856114fd565b60019150509392505050565b6000600754905090565b61069961129e565b73ffffffffffffffffffffffffffffffffffffffff166106b7610c73565b73ffffffffffffffffffffffffffffffffffffffff161461070d576040517f08c379a00000000000000000000000000000000000000000000000000000000081526004016107049061214e565b60405180910390fd5b47811115610750576040517f08c379a00000000000000000000000000000000000000000000000000000000081526004016107479061206e565b60405180910390fd5b61075861129e565b73ffffffffffffffffffffffffffffffffffffffff166108fc829081150290604051600060405180830381858888f1935050505015801561079d573d6000803e3d6000fd5b5050565b60006012905090565b6060600b80546107b99061247d565b80601f01602080910402602001604051908101604052809291908181526020018280546107e59061247d565b80156108325780601f1061080757610100808354040283529160200191610832565b820191906000526020600020905b81548152906001019060200180831161081557829003601f168201915b5050505050905090565b60008061084761129e565b90506108db818585600160008673ffffffffffffffffffffffffffffffffffffffff1673ffffffffffffffffffffffffffffffffffffffff16815260200190815260200160002060008973ffffffffffffffffffffffffffffffffffffffff1673ffffffffffffffffffffffffffffffffffffffff168152602001908152602001600020546108d691906122e0565b6112a6565b600191505092915050565b6108ee61129e565b73ffffffffffffffffffffffffffffffffffffffff1661090c610c73565b73ffffffffffffffffffffffffffffffffffffffff1614610962576040517f08c379a00000000000000000000000000000000000000000000000000000000081526004016109599061214e565b60405180910390fd5b600073ffffffffffffffffffffffffffffffffffffffff168273ffffffffffffffffffffffffffffffffffffffff16141580156109a0575060008114155b6109df576040517f08c379a00000000000000000000000000000000000000000000000000000000081526004016109d69061218e565b60405180910390fd5b6109e9828261177e565b5050565b6060600980546109fc9061247d565b80601f0160208091040260200160405190810160405280929190818152602001828054610a289061247d565b8015610a755780601f10610a4a57610100808354040283529160200191610a75565b820191906000526020600020905b815481529060010190602001808311610a5857829003601f168201915b5050505050905090565b6060600c8054610a8e9061247d565b80601f0160208091040260200160405190810160405280929190818152602001828054610aba9061247d565b8015610b075780601f10610adc57610100808354040283529160200191610b07565b820191906000526020600020905b815481529060010190602001808311610aea57829003601f168201915b5050505050905090565b60008060008373ffffffffffffffffffffffffffffffffffffffff1673ffffffffffffffffffffffffffffffffffffffff168152602001908152602001600020549050919050565b610b6161129e565b73ffffffffffffffffffffffffffffffffffffffff16610b7f610c73565b73ffffffffffffffffffffffffffffffffffffffff1614610bd5576040517f08c379a0000000000000000000000000000000000000000000000000000000008152600401610bcc9061214e565b60405180910390fd5b610bdf60006118de565b565b6060600a8054610bf09061247d565b80601f0160208091040260200160405190810160405280929190818152602001828054610c1c9061247d565b8015610c695780601f10610c3e57610100808354040283529160200191610c69565b820191906000526020600020905b815481529060010190602001808311610c4c57829003601f168201915b5050505050905090565b6000600560009054906101000a900473ffffffffffffffffffffffffffffffffffffffff16905090565b606060048054610cac9061247d565b80601f0160208091040260200160405190810160405280929190818152602001828054610cd89061247d565b8015610d255780601f10610cfa57610100808354040283529160200191610d25565b820191906000526020600020905b815481529060010190602001808311610d0857829003601f168201915b5050505050905090565b610d3761129e565b73ffffffffffffffffffffffffffffffffffffffff16610d55610c73565b73ffffffffffffffffffffffffffffffffffffffff1614610dab576040517f08c379a0000000000000000000000000000000000000000000000000000000008152600401610da29061214e565b60405180910390fd5b600073ffffffffffffffffffffffffffffffffffffffff168273ffffffffffffffffffffffffffffffffffffffff1614158015610de9575060008114155b610e28576040517f08c379a0000000000000000000000000000000000000000000000000000000008152600401610e1f906121ee565b60405180910390fd5b610e3282826119a4565b5050565b600080610e4161129e565b90506000600160008373ffffffffffffffffffffffffffffffffffffffff1673ffffffffffffffffffffffffffffffffffffffff16815260200190815260200160002060008673ffffffffffffffffffffffffffffffffffffffff1673ffffffffffffffffffffffffffffffffffffffff16815260200190815260200160002054905083811015610f07576040517f08c379a0000000000000000000000000000000000000000000000000000000008152600401610efe9061224e565b60405180910390fd5b610f1482868684036112a6565b60019250505092915050565b60026006541415610f66576040517f08c379a0000000000000000000000000000000000000000000000000000000008152600401610f5d9061222e565b60405180910390fd5b6002600681905550610f76610c73565b73ffffffffffffffffffffffffffffffffffffffff163373ffffffffffffffffffffffffffffffffffffffff161415610fe4576040517f08c379a0000000000000000000000000000000000000000000000000000000008152600401610fdb9061212e565b60405180910390fd5b343373ffffffffffffffffffffffffffffffffffffffff16311015801561100c575060003414155b61104b576040517f08c379a00000000000000000000000000000000000000000000000000000000081526004016110429061216e565b60405180910390fd5b6000600754670de0b6b3a7640000346110649190612336565b61106e9190612367565b90506008548111156110b5576040517f08c379a00000000000000000000000000000000000000000000000000000000081526004016110ac906120ee565b60405180910390fd5b80600860008282546110c791906123c1565b925050819055506110e76110d9610c73565b6110e161129e565b836114fd565b506001600681905550565b6000806110fd61129e565b905061110a8185856114fd565b600191505092915050565b6000600854905090565b6000600160008473ffffffffffffffffffffffffffffffffffffffff1673ffffffffffffffffffffffffffffffffffffffff16815260200190815260200160002060008373ffffffffffffffffffffffffffffffffffffffff1673ffffffffffffffffffffffffffffffffffffffff16815260200190815260200160002054905092915050565b6111ae61129e565b73ffffffffffffffffffffffffffffffffffffffff166111cc610c73565b73ffffffffffffffffffffffffffffffffffffffff1614611222576040517f08c379a00000000000000000000000000000000000000000000000000000000081526004016112199061214e565b60405180910390fd5b600073ffffffffffffffffffffffffffffffffffffffff168173ffffffffffffffffffffffffffffffffffffffff161415611292576040517f08c379a00000000000000000000000000000000000000000000000000000000081526004016112899061208e565b60405180910390fd5b61129b816118de565b50565b600033905090565b600073ffffffffffffffffffffffffffffffffffffffff168373ffffffffffffffffffffffffffffffffffffffff161415611316576040517f08c379a000000000000000000000000000000000000000000000000000000000815260040161130d9061220e565b60405180910390fd5b600073ffffffffffffffffffffffffffffffffffffffff168273ffffffffffffffffffffffffffffffffffffffff161415611386576040517f08c379a000000000000000000000000000000000000000000000000000000000815260040161137d906120ae565b60405180910390fd5b80600160008573ffffffffffffffffffffffffffffffffffffffff1673ffffffffffffffffffffffffffffffffffffffff16815260200190815260200160002060008473ffffffffffffffffffffffffffffffffffffffff1673ffffffffffffffffffffffffffffffffffffffff168152602001908152602001600020819055508173ffffffffffffffffffffffffffffffffffffffff168373ffffffffffffffffffffffffffffffffffffffff167f8c5be1e5ebec7d5bd14f71427d1e84f3dd0314c0f7b2291e5b200ac8c7c3b92583604051611464919061228e565b60405180910390a3505050565b600061147d848461111f565b90507fffffffffffffffffffffffffffffffffffffffffffffffffffffffffffffffff81146114f757818110156114e9576040517f08c379a00000000000000000000000000000000000000000000000000000000081526004016114e0906120ce565b60405180910390fd5b6114f684848484036112a6565b5b50505050565b600073ffffffffffffffffffffffffffffffffffffffff168373ffffffffffffffffffffffffffffffffffffffff16141561156d576040517f08c379a0000000000000000000000000000000000000000000000000000000008152600401611564906121ce565b60405180910390fd5b600073ffffffffffffffffffffffffffffffffffffffff168273ffffffffffffffffffffffffffffffffffffffff1614156115dd576040517f08c379a00000000000000000000000000000000000000000000000000000000081526004016115d49061202e565b60405180910390fd5b6115e8838383611b7b565b60008060008573ffffffffffffffffffffffffffffffffffffffff1673ffffffffffffffffffffffffffffffffffffffff1681526020019081526020016000205490508181101561166e576040517f08c379a00000000000000000000000000000000000000000000000000000000081526004016116659061210e565b60405180910390fd5b8181036000808673ffffffffffffffffffffffffffffffffffffffff1673ffffffffffffffffffffffffffffffffffffffff16815260200190815260200160002081905550816000808573ffffffffffffffffffffffffffffffffffffffff1673ffffffffffffffffffffffffffffffffffffffff168152602001908152602001600020600082825461170191906122e0565b925050819055508273ffffffffffffffffffffffffffffffffffffffff168473ffffffffffffffffffffffffffffffffffffffff167fddf252ad1be2c89b69c2b068fc378daa952ba7f163c4a11628f55a4df523b3ef84604051611765919061228e565b60405180910390a3611778848484611b80565b50505050565b600073ffffffffffffffffffffffffffffffffffffffff168273ffffffffffffffffffffffffffffffffffffffff1614156117ee576040517f08c379a00000000000000000000000000000000000000000000000000000000081526004016117e59061226e565b60405180910390fd5b6117fa60008383611b7b565b806002600082825461180c91906122e0565b92505081905550806000808473ffffffffffffffffffffffffffffffffffffffff1673ffffffffffffffffffffffffffffffffffffffff168152602001908152602001600020600082825461186191906122e0565b925050819055508173ffffffffffffffffffffffffffffffffffffffff16600073ffffffffffffffffffffffffffffffffffffffff167fddf252ad1be2c89b69c2b068fc378daa952ba7f163c4a11628f55a4df523b3ef836040516118c6919061228e565b60405180910390a36118da60008383611b80565b5050565b6000600560009054906101000a900473ffffffffffffffffffffffffffffffffffffffff16905081600560006101000a81548173ffffffffffffffffffffffffffffffffffffffff021916908373ffffffffffffffffffffffffffffffffffffffff1602179055508173ffffffffffffffffffffffffffffffffffffffff168173ffffffffffffffffffffffffffffffffffffffff167f8be0079c531659141344cd1fd0a4f28419497f9722a3daafe3b4186f6b6457e060405160405180910390a35050565b600073ffffffffffffffffffffffffffffffffffffffff168273ffffffffffffffffffffffffffffffffffffffff161415611a14576040517f08c379a0000000000000000000000000000000000000000000000000000000008152600401611a0b906121ae565b60405180910390fd5b611a2082600083611b7b565b60008060008473ffffffffffffffffffffffffffffffffffffffff1673ffffffffffffffffffffffffffffffffffffffff16815260200190815260200160002054905081811015611aa6576040517f08c379a0000000000000000000000000000000000000000000000000000000008152600401611a9d9061204e565b60405180910390fd5b8181036000808573ffffffffffffffffffffffffffffffffffffffff1673ffffffffffffffffffffffffffffffffffffffff168152602001908152602001600020819055508160026000828254611afd91906123c1565b92505081905550600073ffffffffffffffffffffffffffffffffffffffff168373ffffffffffffffffffffffffffffffffffffffff167fddf252ad1be2c89b69c2b068fc378daa952ba7f163c4a11628f55a4df523b3ef84604051611b62919061228e565b60405180910390a3611b7683600084611b80565b505050565b505050565b505050565b600081359050611b9481612a46565b92915050565b600081359050611ba981612a5d565b92915050565b600060208284031215611bc157600080fd5b6000611bcf84828501611b85565b91505092915050565b60008060408385031215611beb57600080fd5b6000611bf985828601611b85565b9250506020611c0a85828601611b85565b9150509250929050565b600080600060608486031215611c2957600080fd5b6000611c3786828701611b85565b9350506020611c4886828701611b85565b9250506040611c5986828701611b9a565b9150509250925092565b60008060408385031215611c7657600080fd5b6000611c8485828601611b85565b9250506020611c9585828601611b9a565b9150509250929050565b600060208284031215611cb157600080fd5b6000611cbf84828501611b9a565b91505092915050565b611cd1816123f5565b82525050565b611ce081612407565b82525050565b6000611cf1826122c4565b611cfb81856122cf565b9350611d0b81856020860161244a565b611d148161253c565b840191505092915050565b6000611d2c6023836122cf565b9150611d378261254d565b604082019050919050565b6000611d4f6022836122cf565b9150611d5a8261259c565b604082019050919050565b6000611d726024836122cf565b9150611d7d826125eb565b604082019050919050565b6000611d956026836122cf565b9150611da08261263a565b604082019050919050565b6000611db86022836122cf565b9150611dc382612689565b604082019050919050565b6000611ddb601d836122cf565b9150611de6826126d8565b602082019050919050565b6000611dfe6030836122cf565b9150611e0982612701565b604082019050919050565b6000611e216026836122cf565b9150611e2c82612750565b604082019050919050565b6000611e44601f836122cf565b9150611e4f8261279f565b602082019050919050565b6000611e676020836122cf565b9150611e72826127c8565b602082019050919050565b6000611e8a601f836122cf565b9150611e95826127f1565b602082019050919050565b6000611ead6022836122cf565b9150611eb88261281a565b604082019050919050565b6000611ed06021836122cf565b9150611edb82612869565b604082019050919050565b6000611ef36025836122cf565b9150611efe826128b8565b604082019050919050565b6000611f166022836122cf565b9150611f2182612907565b604082019050919050565b6000611f396024836122cf565b9150611f4482612956565b604082019050919050565b6000611f5c601f836122cf565b9150611f67826129a5565b602082019050919050565b6000611f7f6025836122cf565b9150611f8a826129ce565b604082019050919050565b6000611fa2601f836122cf565b9150611fad82612a1d565b602082019050919050565b611fc181612433565b82525050565b611fd08161243d565b82525050565b6000602082019050611feb6000830184611cc8565b92915050565b60006020820190506120066000830184611cd7565b92915050565b600060208201905081810360008301526120268184611ce6565b905092915050565b6000602082019050818103600083015261204781611d1f565b9050919050565b6000602082019050818103600083015261206781611d42565b9050919050565b6000602082019050818103600083015261208781611d65565b9050919050565b600060208201905081810360008301526120a781611d88565b9050919050565b600060208201905081810360008301526120c781611dab565b9050919050565b600060208201905081810360008301526120e781611dce565b9050919050565b6000602082019050818103600083015261210781611df1565b9050919050565b6000602082019050818103600083015261212781611e14565b9050919050565b6000602082019050818103600083015261214781611e37565b9050919050565b6000602082019050818103600083015261216781611e5a565b9050919050565b6000602082019050818103600083015261218781611e7d565b9050919050565b600060208201905081810360008301526121a781611ea0565b9050919050565b600060208201905081810360008301526121c781611ec3565b9050919050565b600060208201905081810360008301526121e781611ee6565b9050919050565b6000602082019050818103600083015261220781611f09565b9050919050565b6000602082019050818103600083015261222781611f2c565b9050919050565b6000602082019050818103600083015261224781611f4f565b9050919050565b6000602082019050818103600083015261226781611f72565b9050919050565b6000602082019050818103600083015261228781611f95565b9050919050565b60006020820190506122a36000830184611fb8565b92915050565b60006020820190506122be6000830184611fc7565b92915050565b600081519050919050565b600082825260208201905092915050565b60006122eb82612433565b91506122f683612433565b9250827fffffffffffffffffffffffffffffffffffffffffffffffffffffffffffffffff0382111561232b5761232a6124af565b5b828201905092915050565b600061234182612433565b915061234c83612433565b92508261235c5761235b6124de565b5b828204905092915050565b600061237282612433565b915061237d83612433565b9250817fffffffffffffffffffffffffffffffffffffffffffffffffffffffffffffffff04831182151516156123b6576123b56124af565b5b828202905092915050565b60006123cc82612433565b91506123d783612433565b9250828210156123ea576123e96124af565b5b828203905092915050565b600061240082612413565b9050919050565b60008115159050919050565b600073ffffffffffffffffffffffffffffffffffffffff82169050919050565b6000819050919050565b600060ff82169050919050565b60005b8381101561246857808201518184015260208101905061244d565b83811115612477576000848401525b50505050565b6000600282049050600182168061249557607f821691505b602082108114156124a9576124a861250d565b5b50919050565b7f4e487b7100000000000000000000000000000000000000000000000000000000600052601160045260246000fd5b7f4e487b7100000000000000000000000000000000000000000000000000000000600052601260045260246000fd5b7f4e487b7100000000000000000000000000000000000000000000000000000000600052602260045260246000fd5b6000601f19601f8301169050919050565b7f45524332303a207472616e7366657220746f20746865207a65726f206164647260008201527f6573730000000000000000000000000000000000000000000000000000000000602082015250565b7f45524332303a206275726e20616d6f756e7420657863656564732062616c616e60008201527f6365000000000000000000000000000000000000000000000000000000000000602082015250565b7f49434f3a2066756e6374696f6e20776974686472617720696e76616c6964206960008201527f6e70757400000000000000000000000000000000000000000000000000000000602082015250565b7f4f776e61626c653a206e6577206f776e657220697320746865207a65726f206160008201527f6464726573730000000000000000000000000000000000000000000000000000602082015250565b7f45524332303a20617070726f766520746f20746865207a65726f20616464726560008201527f7373000000000000000000000000000000000000000000000000000000000000602082015250565b7f45524332303a20696e73756666696369656e7420616c6c6f77616e6365000000600082015250565b7f49434f3a20696e2066756e6374696f6e206275792c20616d6f756e7420746f2060008201527f627579203e20737570706c794c65667400000000000000000000000000000000602082015250565b7f45524332303a207472616e7366657220616d6f756e742065786365656473206260008201527f616c616e63650000000000000000000000000000000000000000000000000000602082015250565b7f4f776e65722063616e6e6f742062757920686973206f776e20746f6b656e7300600082015250565b7f4f776e61626c653a2063616c6c6572206973206e6f7420746865206f776e6572600082015250565b7f49434f3a2066756e6374696f6e2062757920696e76616c696420696e70757400600082015250565b7f45524332303a2066756e6374696f6e206d696e7420696e76616c696420696e7060008201527f7574000000000000000000000000000000000000000000000000000000000000602082015250565b7f45524332303a206275726e2066726f6d20746865207a65726f2061646472657360008201527f7300000000000000000000000000000000000000000000000000000000000000602082015250565b7f45524332303a207472616e736665722066726f6d20746865207a65726f20616460008201527f6472657373000000000000000000000000000000000000000000000000000000602082015250565b7f45524332303a2066756e6374696f6e206275726e20696e76616c696420696e7060008201527f7574000000000000000000000000000000000000000000000000000000000000602082015250565b7f45524332303a20617070726f76652066726f6d20746865207a65726f2061646460008201527f7265737300000000000000000000000000000000000000000000000000000000602082015250565b7f5265656e7472616e637947756172643a207265656e7472616e742063616c6c00600082015250565b7f45524332303a2064656372656173656420616c6c6f77616e63652062656c6f7760008201527f207a65726f000000000000000000000000000000000000000000000000000000602082015250565b7f45524332303a206d696e7420746f20746865207a65726f206164647265737300600082015250565b612a4f816123f5565b8114612a5a57600080fd5b50565b612a6681612433565b8114612a7157600080fd5b5056fea2646970667358221220a87f285fba7ea11090f8bce9c92f4f0001e15bec4242614525c9c9e464999ff964736f6c634300080400334c6f72656d20697073756d20646f6c6f722073697420616d65742c20636f6e73656374657475722061646970697363696e6720656c69742e20416c697175616d20757420616c6971756574206a7573746f2e2053757370656e6469737365206461706962757320636f6e76616c6c697320697073756d2c20757420696d70657264696574206175677565207661726975732076656e656e617469732e205365642070686172657472612074656c6c75732071756973206d617474697320636f6e6775652e204675736365206574206e6962682074656c6c75732e20496e7465676572206d6f6c65737469652076756c7075746174652073617069656e2c2076697461652074656d7075732074757270697320737573636970697420756c6c616d636f727065722e204e756c6c616d20657569736d6f642c2075726e612061207665686963756c6120706c6163657261742c206573742066656c69732068656e647265726974207175616d2c206575206d616c657375616461207269737573206e756e63207574206c696265726f2e20446f6e656320636f6e6775652076656c69742065752066656c697320657569736d6f642c206575206d6f6c6c6973206469616d20756c747269636965732e204f72636920766172697573206e61746f7175652070656e617469627573206574206d61676e6973206469732070617274757269656e74206d6f6e7465732c206e61736365747572207269646963756c7573206d75732e205365642076756c707574617465206665726d656e74756d206c656f2c20616320626962656e64756d20617567756520616c69717565742069642e20467573636520736167697474697320656e696d2073697420616d6574206469616d2076756c7075746174652076756c7075746174652e20446f6e656320756c747269636965732073617069656e206e69736c2e2050726f696e20756c7472696365732073757363697069742073617069656e2c2073697420616d657420636f6e64696d656e74756d206e756e63207072657469756d2069642e2055742076656e656e617469732073656d206575206e696268206469676e697373696d206375727375732e20446f6e65632076656c2074656c6c75732073697420616d6574206d617572697320617563746f722068656e6472657269742e566573746962756c756d206d61747469732065726f732073697420616d65742065726174206d6178696d7573207363656c657269737175652e204e756e63206c61637573206e756e632c20736167697474697320616320756c6c616d636f727065722061632c2072757472756d206e6f6e206c6967756c612e2050656c6c656e7465737175652073697420616d6574206d65747573206d692e20496e20756c6c616d636f72706572206c6967756c6120736564206e65717565206469676e697373696d2c2076697461652064617069627573206f7263692073757363697069742e2041656e65616e2068656e64726572697420657261742073697420616d65742076656c6974206c756374757320636f6e64696d656e74756d20717569732074696e636964756e74206f64696f2e20446f6e65632065676574206f726e617265206469616d2e2053757370656e64697373652067726176696461206e756c6c612076697665727261206e65717565206566666963697475722076756c7075746174652e446f6e65632073617069656e206d657475732c20736f64616c657320757420747269737469717565206e65632c2074696e636964756e74207669746165206c616375732e2051756973717565206574206e696268206475692e20446f6e65632074696e636964756e74206f726369206c696265726f2c206174206461706962757320646f6c6f7220656666696369747572206e6f6e2e2050686173656c6c75732070656c6c656e7465737175652064617069627573206e69736c2c2076656c207375736369706974206e756c6c6120636f6d6d6f646f20717569732e205574207175697320636f6e76616c6c6973206e6973692e205365642065676574207175616d206c75637475732c2066696e6962757320746f72746f722069642c2066696e6962757320656e696d2e205365642071756973206c696265726f207669746165206f726369206d6f6c6c69732076756c7075746174652061742075742072697375732e20566573746962756c756d207665686963756c6120766974616520656e696d206567657420756c747269636965732e20416c697175616d2075726e61206c616375732c2074696e636964756e74206574207072657469756d2061742c206c75637475732076656c2065726f732e50726f696e207669766572726120616e7465206163206e69736920706f73756572652c2076656c206f726e61726520746f72746f722074656d7075732e204375726162697475722064756920617263752c2076756c70757461746520736564206665726d656e74756d2076697461652c207363656c65726973717565206e6f6e206469616d2e2041656e65616e2067726176696461206d69207669746165206469616d20706f72747469746f722c206e6f6e207375736369706974206c6967756c6120666163696c697369732e205175697371756520696e2072686f6e6375732065782e204372617320617567756520746f72746f722c206c6f626f7274697320696420766f6c75747061742076697461652c20706f7274612065676574206c616375732e205072616573656e74206d617373612075726e612c206672696e67696c6c612065676574206d692065742c206c616f7265657420616c6971756574206e657175652e2050686173656c6c75732061206c6f72656d206964206f64696f206d6178696d75732066696e696275732e566976616d757320757420656c6974207365642073656d2073656d70657220636f6d6d6f646f2e2053757370656e646973736520616320636f6e67756520657261742e2050726f696e20617420656c6974206e6f6e206175677565207072657469756d2076656e656e617469732e20496e74656765722070656c6c656e7465737175652076756c70757461746520656765737461732e2041656e65616e2063757273757320656e696d206174206f64696f2070756c76696e61722c20656765742072686f6e63757320617567756520766573746962756c756d2e20446f6e656320636f6e64696d656e74756d2066696e69627573206c656f206e6f6e2068656e6472657269742e204e616d20657569736d6f64206e756c6c61206f7263692c2073656420696e74657264756d20647569206665726d656e74756d206e6f6e2e20446f6e65632069642070686172657472612066656c69732e204d61757269732066696e69627573206e6f6e2075726e6120656765742070656c6c656e7465737175652e20566573746962756c756d20697073756d206d61757269732c20636f6e7365637465747572206575206f64696f20656765742c20636f6d6d6f646f2070756c76696e6172207475727069732e43726f776466756e64696e6720706c6174666f726d206261736564206f6e20657468657265756d",
  "linkReferences": {},
  "deployedLinkReferences": {}
}