{
  "_format": "hh-sol-artifact-1",
  "contractName": "ICO",
  "sourceName": "contracts/ivoryICO.sol",
  "abi": [
    {
      "inputs": [
        {
          "internalType": "address",
          "name": "owner",
          "type": "address"
        },
        {
          "internalType": "uint256",
          "name": "initialSupply",
          "type": "uint256"
        },
        {
          "internalType": "uint256",
          "name": "tokenRate",
          "type": "uint256"
        }
      ],
      "stateMutability": "nonpayable",
      "type": "constructor"
    },
    {
      "anonymous": false,
      "inputs": [
        {
          "indexed": true,
          "internalType": "address",
          "name": "owner",
          "type": "address"
        },
        {
          "indexed": true,
          "internalType": "address",
          "name": "spender",
          "type": "address"
        },
        {
          "indexed": false,
          "internalType": "uint256",
          "name": "value",
          "type": "uint256"
        }
      ],
      "name": "Approval",
      "type": "event"
    },
    {
      "anonymous": false,
      "inputs": [
        {
          "indexed": true,
          "internalType": "address",
          "name": "previousOwner",
          "type": "address"
        },
        {
          "indexed": true,
          "internalType": "address",
          "name": "newOwner",
          "type": "address"
        }
      ],
      "name": "OwnershipTransferred",
      "type": "event"
    },
    {
      "anonymous": false,
      "inputs": [
        {
          "indexed": true,
          "internalType": "address",
          "name": "from",
          "type": "address"
        },
        {
          "indexed": true,
          "internalType": "address",
          "name": "to",
          "type": "address"
        },
        {
          "indexed": false,
          "internalType": "uint256",
          "name": "value",
          "type": "uint256"
        }
      ],
      "name": "Transfer",
      "type": "event"
    },
    {
      "inputs": [
        {
          "internalType": "address",
          "name": "owner",
          "type": "address"
        },
        {
          "internalType": "address",
          "name": "spender",
          "type": "address"
        }
      ],
      "name": "allowance",
      "outputs": [
        {
          "internalType": "uint256",
          "name": "",
          "type": "uint256"
        }
      ],
      "stateMutability": "view",
      "type": "function"
    },
    {
      "inputs": [
        {
          "internalType": "address",
          "name": "spender",
          "type": "address"
        },
        {
          "internalType": "uint256",
          "name": "amount",
          "type": "uint256"
        }
      ],
      "name": "approve",
      "outputs": [
        {
          "internalType": "bool",
          "name": "",
          "type": "bool"
        }
      ],
      "stateMutability": "nonpayable",
      "type": "function"
    },
    {
      "inputs": [
        {
          "internalType": "address",
          "name": "account",
          "type": "address"
        }
      ],
      "name": "balanceOf",
      "outputs": [
        {
          "internalType": "uint256",
          "name": "",
          "type": "uint256"
        }
      ],
      "stateMutability": "view",
      "type": "function"
    },
    {
      "inputs": [
        {
          "internalType": "address",
          "name": "account",
          "type": "address"
        },
        {
          "internalType": "uint256",
          "name": "amount",
          "type": "uint256"
        }
      ],
      "name": "burn",
      "outputs": [],
      "stateMutability": "nonpayable",
      "type": "function"
    },
    {
      "inputs": [],
      "name": "buy",
      "outputs": [],
      "stateMutability": "payable",
      "type": "function"
    },
    {
      "inputs": [],
      "name": "decimals",
      "outputs": [
        {
          "internalType": "uint8",
          "name": "",
          "type": "uint8"
        }
      ],
      "stateMutability": "view",
      "type": "function"
    },
    {
      "inputs": [
        {
          "internalType": "address",
          "name": "spender",
          "type": "address"
        },
        {
          "internalType": "uint256",
          "name": "subtractedValue",
          "type": "uint256"
        }
      ],
      "name": "decreaseAllowance",
      "outputs": [
        {
          "internalType": "bool",
          "name": "",
          "type": "bool"
        }
      ],
      "stateMutability": "nonpayable",
      "type": "function"
    },
    {
      "inputs": [
        {
          "internalType": "address",
          "name": "spender",
          "type": "address"
        },
        {
          "internalType": "uint256",
          "name": "addedValue",
          "type": "uint256"
        }
      ],
      "name": "increaseAllowance",
      "outputs": [
        {
          "internalType": "bool",
          "name": "",
          "type": "bool"
        }
      ],
      "stateMutability": "nonpayable",
      "type": "function"
    },
    {
      "inputs": [],
      "name": "leftSupply",
      "outputs": [
        {
          "internalType": "uint256",
          "name": "supplyLeft",
          "type": "uint256"
        }
      ],
      "stateMutability": "view",
      "type": "function"
    },
    {
      "inputs": [
        {
          "internalType": "address",
          "name": "account",
          "type": "address"
        },
        {
          "internalType": "uint256",
          "name": "amount",
          "type": "uint256"
        }
      ],
      "name": "mint",
      "outputs": [],
      "stateMutability": "nonpayable",
      "type": "function"
    },
    {
      "inputs": [],
      "name": "name",
      "outputs": [
        {
          "internalType": "string",
          "name": "",
          "type": "string"
        }
      ],
      "stateMutability": "view",
      "type": "function"
    },
    {
      "inputs": [],
      "name": "owner",
      "outputs": [
        {
          "internalType": "address",
          "name": "",
          "type": "address"
        }
      ],
      "stateMutability": "view",
      "type": "function"
    },
    {
      "inputs": [],
      "name": "renounceOwnership",
      "outputs": [],
      "stateMutability": "nonpayable",
      "type": "function"
    },
    {
      "inputs": [],
      "name": "symbol",
      "outputs": [
        {
          "internalType": "string",
          "name": "",
          "type": "string"
        }
      ],
      "stateMutability": "view",
      "type": "function"
    },
    {
      "inputs": [],
      "name": "totalSupply",
      "outputs": [
        {
          "internalType": "uint256",
          "name": "",
          "type": "uint256"
        }
      ],
      "stateMutability": "view",
      "type": "function"
    },
    {
      "inputs": [
        {
          "internalType": "address",
          "name": "to",
          "type": "address"
        },
        {
          "internalType": "uint256",
          "name": "amount",
          "type": "uint256"
        }
      ],
      "name": "transfer",
      "outputs": [
        {
          "internalType": "bool",
          "name": "",
          "type": "bool"
        }
      ],
      "stateMutability": "nonpayable",
      "type": "function"
    },
    {
      "inputs": [
        {
          "internalType": "address",
          "name": "from",
          "type": "address"
        },
        {
          "internalType": "address",
          "name": "to",
          "type": "address"
        },
        {
          "internalType": "uint256",
          "name": "amount",
          "type": "uint256"
        }
      ],
      "name": "transferFrom",
      "outputs": [
        {
          "internalType": "bool",
          "name": "",
          "type": "bool"
        }
      ],
      "stateMutability": "nonpayable",
      "type": "function"
    },
    {
      "inputs": [
        {
          "internalType": "address",
          "name": "newOwner",
          "type": "address"
        }
      ],
      "name": "transferOwnership",
      "outputs": [],
      "stateMutability": "nonpayable",
      "type": "function"
    },
    {
      "inputs": [
        {
          "internalType": "uint256",
          "name": "amount",
          "type": "uint256"
        }
      ],
      "name": "withdraw",
      "outputs": [],
      "stateMutability": "nonpayable",
      "type": "function"
    }
  ],
  "bytecode": "0x60806040523480156200001157600080fd5b5060405162003076380380620030768339818101604052810190620000379190620005a8565b6040518060400160405280600981526020017f69766f7279436f696e00000000000000000000000000000000000000000000008152506040518060400160405280600381526020017f49564f00000000000000000000000000000000000000000000000000000000008152508160039080519060200190620000bb929190620004ca565b508060049080519060200190620000d4929190620004ca565b505050620000f7620000eb6200013960201b60201c565b6200014160201b60201c565b60016006819055506200011183836200020760201b60201c565b62000122836200038060201b60201c565b80600781905550816008819055505050506200091c565b600033905090565b6000600560009054906101000a900473ffffffffffffffffffffffffffffffffffffffff16905081600560006101000a81548173ffffffffffffffffffffffffffffffffffffffff021916908373ffffffffffffffffffffffffffffffffffffffff1602179055508173ffffffffffffffffffffffffffffffffffffffff168173ffffffffffffffffffffffffffffffffffffffff167f8be0079c531659141344cd1fd0a4f28419497f9722a3daafe3b4186f6b6457e060405160405180910390a35050565b600073ffffffffffffffffffffffffffffffffffffffff168273ffffffffffffffffffffffffffffffffffffffff1614156200027a576040517f08c379a00000000000000000000000000000000000000000000000000000000081526004016200027190620006c8565b60405180910390fd5b6200028e600083836200049660201b60201c565b8060026000828254620002a2919062000718565b92505081905550806000808473ffffffffffffffffffffffffffffffffffffffff1673ffffffffffffffffffffffffffffffffffffffff1681526020019081526020016000206000828254620002f9919062000718565b925050819055508173ffffffffffffffffffffffffffffffffffffffff16600073ffffffffffffffffffffffffffffffffffffffff167fddf252ad1be2c89b69c2b068fc378daa952ba7f163c4a11628f55a4df523b3ef83604051620003609190620006ea565b60405180910390a36200037c600083836200049b60201b60201c565b5050565b620003906200013960201b60201c565b73ffffffffffffffffffffffffffffffffffffffff16620003b6620004a060201b60201c565b73ffffffffffffffffffffffffffffffffffffffff16146200040f576040517f08c379a00000000000000000000000000000000000000000000000000000000081526004016200040690620006a6565b60405180910390fd5b600073ffffffffffffffffffffffffffffffffffffffff168173ffffffffffffffffffffffffffffffffffffffff16141562000482576040517f08c379a0000000000000000000000000000000000000000000000000000000008152600401620004799062000684565b60405180910390fd5b62000493816200014160201b60201c565b50565b505050565b505050565b6000600560009054906101000a900473ffffffffffffffffffffffffffffffffffffffff16905090565b828054620004d890620007b3565b90600052602060002090601f016020900481019282620004fc576000855562000548565b82601f106200051757805160ff191683800117855562000548565b8280016001018555821562000548579182015b82811115620005475782518255916020019190600101906200052a565b5b5090506200055791906200055b565b5090565b5b80821115620005765760008160009055506001016200055c565b5090565b6000815190506200058b81620008e8565b92915050565b600081519050620005a28162000902565b92915050565b600080600060608486031215620005be57600080fd5b6000620005ce868287016200057a565b9350506020620005e18682870162000591565b9250506040620005f48682870162000591565b9150509250925092565b60006200060d60268362000707565b91506200061a8262000847565b604082019050919050565b60006200063460208362000707565b9150620006418262000896565b602082019050919050565b60006200065b601f8362000707565b91506200066882620008bf565b602082019050919050565b6200067e81620007a9565b82525050565b600060208201905081810360008301526200069f81620005fe565b9050919050565b60006020820190508181036000830152620006c18162000625565b9050919050565b60006020820190508181036000830152620006e3816200064c565b9050919050565b600060208201905062000701600083018462000673565b92915050565b600082825260208201905092915050565b60006200072582620007a9565b91506200073283620007a9565b9250827fffffffffffffffffffffffffffffffffffffffffffffffffffffffffffffffff038211156200076a5762000769620007e9565b5b828201905092915050565b6000620007828262000789565b9050919050565b600073ffffffffffffffffffffffffffffffffffffffff82169050919050565b6000819050919050565b60006002820490506001821680620007cc57607f821691505b60208210811415620007e357620007e262000818565b5b50919050565b7f4e487b7100000000000000000000000000000000000000000000000000000000600052601160045260246000fd5b7f4e487b7100000000000000000000000000000000000000000000000000000000600052602260045260246000fd5b7f4f776e61626c653a206e6577206f776e657220697320746865207a65726f206160008201527f6464726573730000000000000000000000000000000000000000000000000000602082015250565b7f4f776e61626c653a2063616c6c6572206973206e6f7420746865206f776e6572600082015250565b7f45524332303a206d696e7420746f20746865207a65726f206164647265737300600082015250565b620008f38162000775565b8114620008ff57600080fd5b50565b6200090d81620007a9565b81146200091957600080fd5b50565b61274a806200092c6000396000f3fe6080604052600436106101145760003560e01c8063715018a6116100a0578063a6f2ae3a11610064578063a6f2ae3a146103b3578063a9059cbb146103bd578063cacb3a21146103fa578063dd62ed3e14610425578063f2fde38b1461046257610114565b8063715018a6146102e05780638da5cb5b146102f757806395d89b41146103225780639dc29fac1461034d578063a457c2d71461037657610114565b80632e1a7d4d116100e75780632e1a7d4d146101e9578063313ce56714610212578063395093511461023d57806340c10f191461027a57806370a08231146102a357610114565b806306fdde0314610119578063095ea7b31461014457806318160ddd1461018157806323b872dd146101ac575b600080fd5b34801561012557600080fd5b5061012e61048b565b60405161013b9190611cac565b60405180910390f35b34801561015057600080fd5b5061016b60048036038101906101669190611903565b61051d565b6040516101789190611c91565b60405180910390f35b34801561018d57600080fd5b50610196610540565b6040516101a39190611f2e565b60405180910390f35b3480156101b857600080fd5b506101d360048036038101906101ce91906118b4565b61054a565b6040516101e09190611c91565b60405180910390f35b3480156101f557600080fd5b50610210600480360381019061020b919061193f565b610579565b005b34801561021e57600080fd5b50610227610689565b6040516102349190611f49565b60405180910390f35b34801561024957600080fd5b50610264600480360381019061025f9190611903565b610692565b6040516102719190611c91565b60405180910390f35b34801561028657600080fd5b506102a1600480360381019061029c9190611903565b61073c565b005b3480156102af57600080fd5b506102ca60048036038101906102c5919061184f565b610843565b6040516102d79190611f2e565b60405180910390f35b3480156102ec57600080fd5b506102f561088b565b005b34801561030357600080fd5b5061030c610913565b6040516103199190611c76565b60405180910390f35b34801561032e57600080fd5b5061033761093d565b6040516103449190611cac565b60405180910390f35b34801561035957600080fd5b50610374600480360381019061036f9190611903565b6109cf565b005b34801561038257600080fd5b5061039d60048036038101906103989190611903565b610ad6565b6040516103aa9190611c91565b60405180910390f35b6103bb610bc0565b005b3480156103c957600080fd5b506103e460048036038101906103df9190611903565b610d92565b6040516103f19190611c91565b60405180910390f35b34801561040657600080fd5b5061040f610db5565b60405161041c9190611f2e565b60405180910390f35b34801561043157600080fd5b5061044c60048036038101906104479190611878565b610dbf565b6040516104599190611f2e565b60405180910390f35b34801561046e57600080fd5b506104896004803603810190610484919061184f565b610e46565b005b60606003805461049a9061211d565b80601f01602080910402602001604051908101604052809291908181526020018280546104c69061211d565b80156105135780601f106104e857610100808354040283529160200191610513565b820191906000526020600020905b8154815290600101906020018083116104f657829003601f168201915b5050505050905090565b600080610528610f3e565b9050610535818585610f46565b600191505092915050565b6000600254905090565b600080610555610f3e565b9050610562858285611111565b61056d85858561119d565b60019150509392505050565b610581610f3e565b73ffffffffffffffffffffffffffffffffffffffff1661059f610913565b73ffffffffffffffffffffffffffffffffffffffff16146105f5576040517f08c379a00000000000000000000000000000000000000000000000000000000081526004016105ec90611dee565b60405180910390fd5b47811115610638576040517f08c379a000000000000000000000000000000000000000000000000000000000815260040161062f90611d0e565b60405180910390fd5b610640610f3e565b73ffffffffffffffffffffffffffffffffffffffff166108fc829081150290604051600060405180830381858888f19350505050158015610685573d6000803e3d6000fd5b5050565b60006012905090565b60008061069d610f3e565b9050610731818585600160008673ffffffffffffffffffffffffffffffffffffffff1673ffffffffffffffffffffffffffffffffffffffff16815260200190815260200160002060008973ffffffffffffffffffffffffffffffffffffffff1673ffffffffffffffffffffffffffffffffffffffff1681526020019081526020016000205461072c9190611f80565b610f46565b600191505092915050565b610744610f3e565b73ffffffffffffffffffffffffffffffffffffffff16610762610913565b73ffffffffffffffffffffffffffffffffffffffff16146107b8576040517f08c379a00000000000000000000000000000000000000000000000000000000081526004016107af90611dee565b60405180910390fd5b600073ffffffffffffffffffffffffffffffffffffffff168273ffffffffffffffffffffffffffffffffffffffff16141580156107f6575060008114155b610835576040517f08c379a000000000000000000000000000000000000000000000000000000000815260040161082c90611e2e565b60405180910390fd5b61083f828261141e565b5050565b60008060008373ffffffffffffffffffffffffffffffffffffffff1673ffffffffffffffffffffffffffffffffffffffff168152602001908152602001600020549050919050565b610893610f3e565b73ffffffffffffffffffffffffffffffffffffffff166108b1610913565b73ffffffffffffffffffffffffffffffffffffffff1614610907576040517f08c379a00000000000000000000000000000000000000000000000000000000081526004016108fe90611dee565b60405180910390fd5b610911600061157e565b565b6000600560009054906101000a900473ffffffffffffffffffffffffffffffffffffffff16905090565b60606004805461094c9061211d565b80601f01602080910402602001604051908101604052809291908181526020018280546109789061211d565b80156109c55780601f1061099a576101008083540402835291602001916109c5565b820191906000526020600020905b8154815290600101906020018083116109a857829003601f168201915b5050505050905090565b6109d7610f3e565b73ffffffffffffffffffffffffffffffffffffffff166109f5610913565b73ffffffffffffffffffffffffffffffffffffffff1614610a4b576040517f08c379a0000000000000000000000000000000000000000000000000000000008152600401610a4290611dee565b60405180910390fd5b600073ffffffffffffffffffffffffffffffffffffffff168273ffffffffffffffffffffffffffffffffffffffff1614158015610a89575060008114155b610ac8576040517f08c379a0000000000000000000000000000000000000000000000000000000008152600401610abf90611e8e565b60405180910390fd5b610ad28282611644565b5050565b600080610ae1610f3e565b90506000600160008373ffffffffffffffffffffffffffffffffffffffff1673ffffffffffffffffffffffffffffffffffffffff16815260200190815260200160002060008673ffffffffffffffffffffffffffffffffffffffff1673ffffffffffffffffffffffffffffffffffffffff16815260200190815260200160002054905083811015610ba7576040517f08c379a0000000000000000000000000000000000000000000000000000000008152600401610b9e90611eee565b60405180910390fd5b610bb48286868403610f46565b60019250505092915050565b60026006541415610c06576040517f08c379a0000000000000000000000000000000000000000000000000000000008152600401610bfd90611ece565b60405180910390fd5b6002600681905550610c16610913565b73ffffffffffffffffffffffffffffffffffffffff163373ffffffffffffffffffffffffffffffffffffffff161415610c84576040517f08c379a0000000000000000000000000000000000000000000000000000000008152600401610c7b90611dce565b60405180910390fd5b343373ffffffffffffffffffffffffffffffffffffffff163110158015610cac575060003414155b610ceb576040517f08c379a0000000000000000000000000000000000000000000000000000000008152600401610ce290611e0e565b60405180910390fd5b6000600754670de0b6b3a764000034610d049190611fd6565b610d0e9190612007565b9050600854811115610d55576040517f08c379a0000000000000000000000000000000000000000000000000000000008152600401610d4c90611d8e565b60405180910390fd5b8060086000828254610d679190612061565b92505081905550610d87610d79610913565b610d81610f3e565b8361119d565b506001600681905550565b600080610d9d610f3e565b9050610daa81858561119d565b600191505092915050565b6000600854905090565b6000600160008473ffffffffffffffffffffffffffffffffffffffff1673ffffffffffffffffffffffffffffffffffffffff16815260200190815260200160002060008373ffffffffffffffffffffffffffffffffffffffff1673ffffffffffffffffffffffffffffffffffffffff16815260200190815260200160002054905092915050565b610e4e610f3e565b73ffffffffffffffffffffffffffffffffffffffff16610e6c610913565b73ffffffffffffffffffffffffffffffffffffffff1614610ec2576040517f08c379a0000000000000000000000000000000000000000000000000000000008152600401610eb990611dee565b60405180910390fd5b600073ffffffffffffffffffffffffffffffffffffffff168173ffffffffffffffffffffffffffffffffffffffff161415610f32576040517f08c379a0000000000000000000000000000000000000000000000000000000008152600401610f2990611d2e565b60405180910390fd5b610f3b8161157e565b50565b600033905090565b600073ffffffffffffffffffffffffffffffffffffffff168373ffffffffffffffffffffffffffffffffffffffff161415610fb6576040517f08c379a0000000000000000000000000000000000000000000000000000000008152600401610fad90611eae565b60405180910390fd5b600073ffffffffffffffffffffffffffffffffffffffff168273ffffffffffffffffffffffffffffffffffffffff161415611026576040517f08c379a000000000000000000000000000000000000000000000000000000000815260040161101d90611d4e565b60405180910390fd5b80600160008573ffffffffffffffffffffffffffffffffffffffff1673ffffffffffffffffffffffffffffffffffffffff16815260200190815260200160002060008473ffffffffffffffffffffffffffffffffffffffff1673ffffffffffffffffffffffffffffffffffffffff168152602001908152602001600020819055508173ffffffffffffffffffffffffffffffffffffffff168373ffffffffffffffffffffffffffffffffffffffff167f8c5be1e5ebec7d5bd14f71427d1e84f3dd0314c0f7b2291e5b200ac8c7c3b925836040516111049190611f2e565b60405180910390a3505050565b600061111d8484610dbf565b90507fffffffffffffffffffffffffffffffffffffffffffffffffffffffffffffffff81146111975781811015611189576040517f08c379a000000000000000000000000000000000000000000000000000000000815260040161118090611d6e565b60405180910390fd5b6111968484848403610f46565b5b50505050565b600073ffffffffffffffffffffffffffffffffffffffff168373ffffffffffffffffffffffffffffffffffffffff16141561120d576040517f08c379a000000000000000000000000000000000000000000000000000000000815260040161120490611e6e565b60405180910390fd5b600073ffffffffffffffffffffffffffffffffffffffff168273ffffffffffffffffffffffffffffffffffffffff16141561127d576040517f08c379a000000000000000000000000000000000000000000000000000000000815260040161127490611cce565b60405180910390fd5b61128883838361181b565b60008060008573ffffffffffffffffffffffffffffffffffffffff1673ffffffffffffffffffffffffffffffffffffffff1681526020019081526020016000205490508181101561130e576040517f08c379a000000000000000000000000000000000000000000000000000000000815260040161130590611dae565b60405180910390fd5b8181036000808673ffffffffffffffffffffffffffffffffffffffff1673ffffffffffffffffffffffffffffffffffffffff16815260200190815260200160002081905550816000808573ffffffffffffffffffffffffffffffffffffffff1673ffffffffffffffffffffffffffffffffffffffff16815260200190815260200160002060008282546113a19190611f80565b925050819055508273ffffffffffffffffffffffffffffffffffffffff168473ffffffffffffffffffffffffffffffffffffffff167fddf252ad1be2c89b69c2b068fc378daa952ba7f163c4a11628f55a4df523b3ef846040516114059190611f2e565b60405180910390a3611418848484611820565b50505050565b600073ffffffffffffffffffffffffffffffffffffffff168273ffffffffffffffffffffffffffffffffffffffff16141561148e576040517f08c379a000000000000000000000000000000000000000000000000000000000815260040161148590611f0e565b60405180910390fd5b61149a6000838361181b565b80600260008282546114ac9190611f80565b92505081905550806000808473ffffffffffffffffffffffffffffffffffffffff1673ffffffffffffffffffffffffffffffffffffffff16815260200190815260200160002060008282546115019190611f80565b925050819055508173ffffffffffffffffffffffffffffffffffffffff16600073ffffffffffffffffffffffffffffffffffffffff167fddf252ad1be2c89b69c2b068fc378daa952ba7f163c4a11628f55a4df523b3ef836040516115669190611f2e565b60405180910390a361157a60008383611820565b5050565b6000600560009054906101000a900473ffffffffffffffffffffffffffffffffffffffff16905081600560006101000a81548173ffffffffffffffffffffffffffffffffffffffff021916908373ffffffffffffffffffffffffffffffffffffffff1602179055508173ffffffffffffffffffffffffffffffffffffffff168173ffffffffffffffffffffffffffffffffffffffff167f8be0079c531659141344cd1fd0a4f28419497f9722a3daafe3b4186f6b6457e060405160405180910390a35050565b600073ffffffffffffffffffffffffffffffffffffffff168273ffffffffffffffffffffffffffffffffffffffff1614156116b4576040517f08c379a00000000000000000000000000000000000000000000000000000000081526004016116ab90611e4e565b60405180910390fd5b6116c08260008361181b565b60008060008473ffffffffffffffffffffffffffffffffffffffff1673ffffffffffffffffffffffffffffffffffffffff16815260200190815260200160002054905081811015611746576040517f08c379a000000000000000000000000000000000000000000000000000000000815260040161173d90611cee565b60405180910390fd5b8181036000808573ffffffffffffffffffffffffffffffffffffffff1673ffffffffffffffffffffffffffffffffffffffff16815260200190815260200160002081905550816002600082825461179d9190612061565b92505081905550600073ffffffffffffffffffffffffffffffffffffffff168373ffffffffffffffffffffffffffffffffffffffff167fddf252ad1be2c89b69c2b068fc378daa952ba7f163c4a11628f55a4df523b3ef846040516118029190611f2e565b60405180910390a361181683600084611820565b505050565b505050565b505050565b600081359050611834816126e6565b92915050565b600081359050611849816126fd565b92915050565b60006020828403121561186157600080fd5b600061186f84828501611825565b91505092915050565b6000806040838503121561188b57600080fd5b600061189985828601611825565b92505060206118aa85828601611825565b9150509250929050565b6000806000606084860312156118c957600080fd5b60006118d786828701611825565b93505060206118e886828701611825565b92505060406118f98682870161183a565b9150509250925092565b6000806040838503121561191657600080fd5b600061192485828601611825565b92505060206119358582860161183a565b9150509250929050565b60006020828403121561195157600080fd5b600061195f8482850161183a565b91505092915050565b61197181612095565b82525050565b611980816120a7565b82525050565b600061199182611f64565b61199b8185611f6f565b93506119ab8185602086016120ea565b6119b4816121dc565b840191505092915050565b60006119cc602383611f6f565b91506119d7826121ed565b604082019050919050565b60006119ef602283611f6f565b91506119fa8261223c565b604082019050919050565b6000611a12602483611f6f565b9150611a1d8261228b565b604082019050919050565b6000611a35602683611f6f565b9150611a40826122da565b604082019050919050565b6000611a58602283611f6f565b9150611a6382612329565b604082019050919050565b6000611a7b601d83611f6f565b9150611a8682612378565b602082019050919050565b6000611a9e603083611f6f565b9150611aa9826123a1565b604082019050919050565b6000611ac1602683611f6f565b9150611acc826123f0565b604082019050919050565b6000611ae4601f83611f6f565b9150611aef8261243f565b602082019050919050565b6000611b07602083611f6f565b9150611b1282612468565b602082019050919050565b6000611b2a601f83611f6f565b9150611b3582612491565b602082019050919050565b6000611b4d602283611f6f565b9150611b58826124ba565b604082019050919050565b6000611b70602183611f6f565b9150611b7b82612509565b604082019050919050565b6000611b93602583611f6f565b9150611b9e82612558565b604082019050919050565b6000611bb6602283611f6f565b9150611bc1826125a7565b604082019050919050565b6000611bd9602483611f6f565b9150611be4826125f6565b604082019050919050565b6000611bfc601f83611f6f565b9150611c0782612645565b602082019050919050565b6000611c1f602583611f6f565b9150611c2a8261266e565b604082019050919050565b6000611c42601f83611f6f565b9150611c4d826126bd565b602082019050919050565b611c61816120d3565b82525050565b611c70816120dd565b82525050565b6000602082019050611c8b6000830184611968565b92915050565b6000602082019050611ca66000830184611977565b92915050565b60006020820190508181036000830152611cc68184611986565b905092915050565b60006020820190508181036000830152611ce7816119bf565b9050919050565b60006020820190508181036000830152611d07816119e2565b9050919050565b60006020820190508181036000830152611d2781611a05565b9050919050565b60006020820190508181036000830152611d4781611a28565b9050919050565b60006020820190508181036000830152611d6781611a4b565b9050919050565b60006020820190508181036000830152611d8781611a6e565b9050919050565b60006020820190508181036000830152611da781611a91565b9050919050565b60006020820190508181036000830152611dc781611ab4565b9050919050565b60006020820190508181036000830152611de781611ad7565b9050919050565b60006020820190508181036000830152611e0781611afa565b9050919050565b60006020820190508181036000830152611e2781611b1d565b9050919050565b60006020820190508181036000830152611e4781611b40565b9050919050565b60006020820190508181036000830152611e6781611b63565b9050919050565b60006020820190508181036000830152611e8781611b86565b9050919050565b60006020820190508181036000830152611ea781611ba9565b9050919050565b60006020820190508181036000830152611ec781611bcc565b9050919050565b60006020820190508181036000830152611ee781611bef565b9050919050565b60006020820190508181036000830152611f0781611c12565b9050919050565b60006020820190508181036000830152611f2781611c35565b9050919050565b6000602082019050611f436000830184611c58565b92915050565b6000602082019050611f5e6000830184611c67565b92915050565b600081519050919050565b600082825260208201905092915050565b6000611f8b826120d3565b9150611f96836120d3565b9250827fffffffffffffffffffffffffffffffffffffffffffffffffffffffffffffffff03821115611fcb57611fca61214f565b5b828201905092915050565b6000611fe1826120d3565b9150611fec836120d3565b925082611ffc57611ffb61217e565b5b828204905092915050565b6000612012826120d3565b915061201d836120d3565b9250817fffffffffffffffffffffffffffffffffffffffffffffffffffffffffffffffff04831182151516156120565761205561214f565b5b828202905092915050565b600061206c826120d3565b9150612077836120d3565b92508282101561208a5761208961214f565b5b828203905092915050565b60006120a0826120b3565b9050919050565b60008115159050919050565b600073ffffffffffffffffffffffffffffffffffffffff82169050919050565b6000819050919050565b600060ff82169050919050565b60005b838110156121085780820151818401526020810190506120ed565b83811115612117576000848401525b50505050565b6000600282049050600182168061213557607f821691505b60208210811415612149576121486121ad565b5b50919050565b7f4e487b7100000000000000000000000000000000000000000000000000000000600052601160045260246000fd5b7f4e487b7100000000000000000000000000000000000000000000000000000000600052601260045260246000fd5b7f4e487b7100000000000000000000000000000000000000000000000000000000600052602260045260246000fd5b6000601f19601f8301169050919050565b7f45524332303a207472616e7366657220746f20746865207a65726f206164647260008201527f6573730000000000000000000000000000000000000000000000000000000000602082015250565b7f45524332303a206275726e20616d6f756e7420657863656564732062616c616e60008201527f6365000000000000000000000000000000000000000000000000000000000000602082015250565b7f49434f3a2066756e6374696f6e20776974686472617720696e76616c6964206960008201527f6e70757400000000000000000000000000000000000000000000000000000000602082015250565b7f4f776e61626c653a206e6577206f776e657220697320746865207a65726f206160008201527f6464726573730000000000000000000000000000000000000000000000000000602082015250565b7f45524332303a20617070726f766520746f20746865207a65726f20616464726560008201527f7373000000000000000000000000000000000000000000000000000000000000602082015250565b7f45524332303a20696e73756666696369656e7420616c6c6f77616e6365000000600082015250565b7f49434f3a20696e2066756e6374696f6e206275792c20616d6f756e7420746f2060008201527f627579203e20737570706c794c65667400000000000000000000000000000000602082015250565b7f45524332303a207472616e7366657220616d6f756e742065786365656473206260008201527f616c616e63650000000000000000000000000000000000000000000000000000602082015250565b7f4f776e65722063616e6e6f742062757920686973206f776e20746f6b656e7300600082015250565b7f4f776e61626c653a2063616c6c6572206973206e6f7420746865206f776e6572600082015250565b7f49434f3a2066756e6374696f6e2062757920696e76616c696420696e70757400600082015250565b7f45524332303a2066756e6374696f6e206d696e7420696e76616c696420696e7060008201527f7574000000000000000000000000000000000000000000000000000000000000602082015250565b7f45524332303a206275726e2066726f6d20746865207a65726f2061646472657360008201527f7300000000000000000000000000000000000000000000000000000000000000602082015250565b7f45524332303a207472616e736665722066726f6d20746865207a65726f20616460008201527f6472657373000000000000000000000000000000000000000000000000000000602082015250565b7f45524332303a2066756e6374696f6e206275726e20696e76616c696420696e7060008201527f7574000000000000000000000000000000000000000000000000000000000000602082015250565b7f45524332303a20617070726f76652066726f6d20746865207a65726f2061646460008201527f7265737300000000000000000000000000000000000000000000000000000000602082015250565b7f5265656e7472616e637947756172643a207265656e7472616e742063616c6c00600082015250565b7f45524332303a2064656372656173656420616c6c6f77616e63652062656c6f7760008201527f207a65726f000000000000000000000000000000000000000000000000000000602082015250565b7f45524332303a206d696e7420746f20746865207a65726f206164647265737300600082015250565b6126ef81612095565b81146126fa57600080fd5b50565b612706816120d3565b811461271157600080fd5b5056fea26469706673582212207618b6b5a1676e85c2fde691a735241e814831360a8360ab1d736d431d4d95d764736f6c63430008040033",
  "linkReferences": {},
  "deployedLinkReferences": {}
}