{
  "_format": "hh-sol-artifact-1",
  "contractName": "FundMarket",
  "sourceName": "contracts/Crowdfunding.sol",
  "abi": [
    {
      "anonymous": false,
      "inputs": [
        {
          "indexed": true,
          "internalType": "uint256",
          "name": "itemId",
          "type": "uint256"
        },
        {
          "indexed": false,
          "internalType": "address",
          "name": "campaignOwner",
          "type": "address"
        },
        {
          "indexed": false,
          "internalType": "uint256",
          "name": "FundsRequested",
          "type": "uint256"
        }
      ],
      "name": "CampaignStarted",
      "type": "event"
    },
    {
      "inputs": [
        {
          "internalType": "address",
          "name": "user",
          "type": "address"
        },
        {
          "internalType": "string",
          "name": "message",
          "type": "string"
        },
        {
          "internalType": "uint256",
          "name": "campaignId",
          "type": "uint256"
        }
      ],
      "name": "comment",
      "outputs": [],
      "stateMutability": "nonpayable",
      "type": "function"
    },
    {
      "inputs": [
        {
          "internalType": "uint256",
          "name": "FundsRequested",
          "type": "uint256"
        },
        {
          "internalType": "string",
          "name": "title",
          "type": "string"
        },
        {
          "internalType": "string",
          "name": "description",
          "type": "string"
        },
        {
          "internalType": "string",
          "name": "info",
          "type": "string"
        },
        {
          "internalType": "string",
          "name": "url",
          "type": "string"
        },
        {
          "internalType": "string",
          "name": "ipfsHash",
          "type": "string"
        }
      ],
      "name": "createCampaign",
      "outputs": [],
      "stateMutability": "payable",
      "type": "function"
    },
    {
      "inputs": [
        {
          "internalType": "uint256",
          "name": "itemId",
          "type": "uint256"
        }
      ],
      "name": "donateCampaign",
      "outputs": [],
      "stateMutability": "payable",
      "type": "function"
    },
    {
      "inputs": [],
      "name": "fetchCampaigns",
      "outputs": [
        {
          "components": [
            {
              "internalType": "uint256",
              "name": "itemId",
              "type": "uint256"
            },
            {
              "internalType": "address payable",
              "name": "campaignOwner",
              "type": "address"
            },
            {
              "internalType": "uint256",
              "name": "FundsRequested",
              "type": "uint256"
            },
            {
              "internalType": "uint256",
              "name": "FundsCollected",
              "type": "uint256"
            },
            {
              "internalType": "uint256",
              "name": "totalDonators",
              "type": "uint256"
            },
            {
              "internalType": "bool",
              "name": "fundsReached",
              "type": "bool"
            },
            {
              "internalType": "string",
              "name": "title",
              "type": "string"
            },
            {
              "internalType": "string",
              "name": "description",
              "type": "string"
            },
            {
              "internalType": "string",
              "name": "info",
              "type": "string"
            },
            {
              "internalType": "string",
              "name": "url",
              "type": "string"
            },
            {
              "internalType": "string",
              "name": "ipfsHash",
              "type": "string"
            }
          ],
          "internalType": "struct FundMarket.FundingCampaign[]",
          "name": "",
          "type": "tuple[]"
        }
      ],
      "stateMutability": "view",
      "type": "function"
    },
    {
      "inputs": [
        {
          "internalType": "string",
          "name": "searchWord",
          "type": "string"
        }
      ],
      "name": "fetchCampaignsByWord",
      "outputs": [
        {
          "components": [
            {
              "internalType": "uint256",
              "name": "itemId",
              "type": "uint256"
            },
            {
              "internalType": "address payable",
              "name": "campaignOwner",
              "type": "address"
            },
            {
              "internalType": "uint256",
              "name": "FundsRequested",
              "type": "uint256"
            },
            {
              "internalType": "uint256",
              "name": "FundsCollected",
              "type": "uint256"
            },
            {
              "internalType": "uint256",
              "name": "totalDonators",
              "type": "uint256"
            },
            {
              "internalType": "bool",
              "name": "fundsReached",
              "type": "bool"
            },
            {
              "internalType": "string",
              "name": "title",
              "type": "string"
            },
            {
              "internalType": "string",
              "name": "description",
              "type": "string"
            },
            {
              "internalType": "string",
              "name": "info",
              "type": "string"
            },
            {
              "internalType": "string",
              "name": "url",
              "type": "string"
            },
            {
              "internalType": "string",
              "name": "ipfsHash",
              "type": "string"
            }
          ],
          "internalType": "struct FundMarket.FundingCampaign[]",
          "name": "",
          "type": "tuple[]"
        }
      ],
      "stateMutability": "view",
      "type": "function"
    },
    {
      "inputs": [
        {
          "internalType": "address",
          "name": "myAddress",
          "type": "address"
        }
      ],
      "name": "fetchMyCampaigns",
      "outputs": [
        {
          "components": [
            {
              "internalType": "uint256",
              "name": "itemId",
              "type": "uint256"
            },
            {
              "internalType": "address payable",
              "name": "campaignOwner",
              "type": "address"
            },
            {
              "internalType": "uint256",
              "name": "FundsRequested",
              "type": "uint256"
            },
            {
              "internalType": "uint256",
              "name": "FundsCollected",
              "type": "uint256"
            },
            {
              "internalType": "uint256",
              "name": "totalDonators",
              "type": "uint256"
            },
            {
              "internalType": "bool",
              "name": "fundsReached",
              "type": "bool"
            },
            {
              "internalType": "string",
              "name": "title",
              "type": "string"
            },
            {
              "internalType": "string",
              "name": "description",
              "type": "string"
            },
            {
              "internalType": "string",
              "name": "info",
              "type": "string"
            },
            {
              "internalType": "string",
              "name": "url",
              "type": "string"
            },
            {
              "internalType": "string",
              "name": "ipfsHash",
              "type": "string"
            }
          ],
          "internalType": "struct FundMarket.FundingCampaign[]",
          "name": "",
          "type": "tuple[]"
        }
      ],
      "stateMutability": "view",
      "type": "function"
    },
    {
      "inputs": [
        {
          "internalType": "uint256",
          "name": "itemId",
          "type": "uint256"
        }
      ],
      "name": "getCampaign",
      "outputs": [
        {
          "components": [
            {
              "internalType": "uint256",
              "name": "itemId",
              "type": "uint256"
            },
            {
              "internalType": "address payable",
              "name": "campaignOwner",
              "type": "address"
            },
            {
              "internalType": "uint256",
              "name": "FundsRequested",
              "type": "uint256"
            },
            {
              "internalType": "uint256",
              "name": "FundsCollected",
              "type": "uint256"
            },
            {
              "internalType": "uint256",
              "name": "totalDonators",
              "type": "uint256"
            },
            {
              "internalType": "bool",
              "name": "fundsReached",
              "type": "bool"
            },
            {
              "internalType": "string",
              "name": "title",
              "type": "string"
            },
            {
              "internalType": "string",
              "name": "description",
              "type": "string"
            },
            {
              "internalType": "string",
              "name": "info",
              "type": "string"
            },
            {
              "internalType": "string",
              "name": "url",
              "type": "string"
            },
            {
              "internalType": "string",
              "name": "ipfsHash",
              "type": "string"
            }
          ],
          "internalType": "struct FundMarket.FundingCampaign",
          "name": "",
          "type": "tuple"
        }
      ],
      "stateMutability": "view",
      "type": "function"
    },
    {
      "inputs": [
        {
          "internalType": "uint256",
          "name": "campaign",
          "type": "uint256"
        }
      ],
      "name": "getComments",
      "outputs": [
        {
          "components": [
            {
              "internalType": "uint256",
              "name": "commentId",
              "type": "uint256"
            },
            {
              "internalType": "address",
              "name": "commentator",
              "type": "address"
            },
            {
              "internalType": "string",
              "name": "message",
              "type": "string"
            },
            {
              "internalType": "uint256",
              "name": "campaignId",
              "type": "uint256"
            },
            {
              "internalType": "uint256",
              "name": "parentCommentId",
              "type": "uint256"
            }
          ],
          "internalType": "struct FundMarket.Comment[]",
          "name": "",
          "type": "tuple[]"
        }
      ],
      "stateMutability": "view",
      "type": "function"
    },
    {
      "inputs": [
        {
          "internalType": "uint256",
          "name": "commentId",
          "type": "uint256"
        }
      ],
      "name": "getReplies",
      "outputs": [
        {
          "components": [
            {
              "internalType": "uint256",
              "name": "commentId",
              "type": "uint256"
            },
            {
              "internalType": "address",
              "name": "commentator",
              "type": "address"
            },
            {
              "internalType": "string",
              "name": "message",
              "type": "string"
            },
            {
              "internalType": "uint256",
              "name": "campaignId",
              "type": "uint256"
            },
            {
              "internalType": "uint256",
              "name": "parentCommentId",
              "type": "uint256"
            }
          ],
          "internalType": "struct FundMarket.Comment[]",
          "name": "",
          "type": "tuple[]"
        }
      ],
      "stateMutability": "view",
      "type": "function"
    },
    {
      "inputs": [
        {
          "internalType": "address",
          "name": "user",
          "type": "address"
        },
        {
          "internalType": "string",
          "name": "message",
          "type": "string"
        },
        {
          "internalType": "uint256",
          "name": "parentCommentId",
          "type": "uint256"
        },
        {
          "internalType": "uint256",
          "name": "campaignId",
          "type": "uint256"
        }
      ],
      "name": "reply",
      "outputs": [],
      "stateMutability": "nonpayable",
      "type": "function"
    }
  ],
  "bytecode": "0x608060405234801561001057600080fd5b506001600081905550613836806100286000396000f3fe6080604052600436106100915760003560e01c80638ffff8b0116100595780638ffff8b0146101b3578063ae58449d146101cf578063b5d481f71461020c578063c33d06fa14610235578063dc6407671461026057610091565b806316f430871461009657806323edf697146100bf5780634457ca7e146100fc5780635598f8cc146101395780635ef5c9af14610176575b600080fd5b3480156100a257600080fd5b506100bd60048036038101906100b89190612a17565b61027c565b005b3480156100cb57600080fd5b506100e660048036038101906100e19190612b48565b61040b565b6040516100f391906131d9565b60405180910390f35b34801561010857600080fd5b50610123600480360381019061011e91906129ee565b6106fa565b60405161013091906131fb565b60405180910390f35b34801561014557600080fd5b50610160600480360381019061015b9190612b48565b610ca6565b60405161016d91906132fd565b60405180910390f35b34801561018257600080fd5b5061019d60048036038101906101989190612b03565b611047565b6040516101aa91906131fb565b60405180910390f35b6101cd60048036038101906101c89190612b48565b611681565b005b3480156101db57600080fd5b506101f660048036038101906101f19190612b48565b6118ec565b60405161020391906131d9565b60405180910390f35b34801561021857600080fd5b50610233600480360381019061022e9190612a83565b611bdb565b005b34801561024157600080fd5b5061024a611dae565b60405161025791906131fb565b60405180910390f35b61027a60048036038101906102759190612b71565b612299565b005b600260005414156102c2576040517f08c379a00000000000000000000000000000000000000000000000000000000081526004016102b9906132dd565b60405180910390fd5b60026000819055506102d46003612686565b60006102e0600361269c565b90506040518060a001604052808281526020018673ffffffffffffffffffffffffffffffffffffffff16815260200185858080601f016020809104026020016040519081016040528093929190818152602001838380828437600081840152601f19601f8201169050808301925050505050505081526020018381526020016000815250600560008381526020019081526020016000206000820151816000015560208201518160010160006101000a81548173ffffffffffffffffffffffffffffffffffffffff021916908373ffffffffffffffffffffffffffffffffffffffff16021790555060408201518160020190805190602001906103e4929190612820565b50606082015181600301556080820151816004015590505050600160008190555050505050565b60606000610419600361269c565b9050600080600190505b82811161048857846005600083815260200190815260200160002060030154148015610465575060006005600083815260200190815260200160002060040154145b1561047757816104749061353d565b91505b806104819061353d565b9050610423565b5060008167ffffffffffffffff8111156104cb577f4e487b7100000000000000000000000000000000000000000000000000000000600052604160045260246000fd5b60405190808252806020026020018201604052801561050457816020015b6104f16128a6565b8152602001906001900390816104e95790505b509050600080600190505b8481116106ed57866005600083815260200190815260200160002060030154148015610551575060006005600083815260200190815260200160002060040154145b156106da5760008190506000600560008381526020019081526020016000206040518060a0016040529081600082015481526020016001820160009054906101000a900473ffffffffffffffffffffffffffffffffffffffff1673ffffffffffffffffffffffffffffffffffffffff1673ffffffffffffffffffffffffffffffffffffffff1681526020016002820180546105eb9061350b565b80601f01602080910402602001604051908101604052809291908181526020018280546106179061350b565b80156106645780601f1061063957610100808354040283529160200191610664565b820191906000526020600020905b81548152906001019060200180831161064757829003601f168201915b50505050508152602001600382015481526020016004820154815250509050808585815181106106bd577f4e487b7100000000000000000000000000000000000000000000000000000000600052603260045260246000fd5b60200260200101819052506001846106d591906133be565b935050505b80806106e59061353d565b91505061050f565b5081945050505050919050565b60606000610708600161269c565b905060008060005b838110156107a0578573ffffffffffffffffffffffffffffffffffffffff166004600083815260200190815260200160002060010160009054906101000a900473ffffffffffffffffffffffffffffffffffffffff1673ffffffffffffffffffffffffffffffffffffffff16141561078f578161078c9061353d565b91505b806107999061353d565b9050610710565b5060008167ffffffffffffffff8111156107e3577f4e487b7100000000000000000000000000000000000000000000000000000000600052604160045260246000fd5b60405190808252806020026020018201604052801561081c57816020015b6108096128eb565b8152602001906001900390816108015790505b50905060005b84811015610c99578673ffffffffffffffffffffffffffffffffffffffff166004600083815260200190815260200160002060010160009054906101000a900473ffffffffffffffffffffffffffffffffffffffff1673ffffffffffffffffffffffffffffffffffffffff161415610c8657600081905060006004600083815260200190815260200160002060405180610160016040529081600082015481526020016001820160009054906101000a900473ffffffffffffffffffffffffffffffffffffffff1673ffffffffffffffffffffffffffffffffffffffff1673ffffffffffffffffffffffffffffffffffffffff1681526020016002820154815260200160038201548152602001600482015481526020016005820160009054906101000a900460ff161515151581526020016006820180546109639061350b565b80601f016020809104026020016040519081016040528092919081815260200182805461098f9061350b565b80156109dc5780601f106109b1576101008083540402835291602001916109dc565b820191906000526020600020905b8154815290600101906020018083116109bf57829003601f168201915b505050505081526020016007820180546109f59061350b565b80601f0160208091040260200160405190810160405280929190818152602001828054610a219061350b565b8015610a6e5780601f10610a4357610100808354040283529160200191610a6e565b820191906000526020600020905b815481529060010190602001808311610a5157829003601f168201915b50505050508152602001600882018054610a879061350b565b80601f0160208091040260200160405190810160405280929190818152602001828054610ab39061350b565b8015610b005780601f10610ad557610100808354040283529160200191610b00565b820191906000526020600020905b815481529060010190602001808311610ae357829003601f168201915b50505050508152602001600982018054610b199061350b565b80601f0160208091040260200160405190810160405280929190818152602001828054610b459061350b565b8015610b925780601f10610b6757610100808354040283529160200191610b92565b820191906000526020600020905b815481529060010190602001808311610b7557829003601f168201915b50505050508152602001600a82018054610bab9061350b565b80601f0160208091040260200160405190810160405280929190818152602001828054610bd79061350b565b8015610c245780601f10610bf957610100808354040283529160200191610c24565b820191906000526020600020905b815481529060010190602001808311610c0757829003601f168201915b505050505081525050905080848781518110610c69577f4e487b7100000000000000000000000000000000000000000000000000000000600052603260045260246000fd5b6020026020010181905250600186610c8191906133be565b955050505b8080610c919061353d565b915050610822565b5080945050505050919050565b610cae6128eb565b6004600083815260200190815260200160002060405180610160016040529081600082015481526020016001820160009054906101000a900473ffffffffffffffffffffffffffffffffffffffff1673ffffffffffffffffffffffffffffffffffffffff1673ffffffffffffffffffffffffffffffffffffffff1681526020016002820154815260200160038201548152602001600482015481526020016005820160009054906101000a900460ff16151515158152602001600682018054610d769061350b565b80601f0160208091040260200160405190810160405280929190818152602001828054610da29061350b565b8015610def5780601f10610dc457610100808354040283529160200191610def565b820191906000526020600020905b815481529060010190602001808311610dd257829003601f168201915b50505050508152602001600782018054610e089061350b565b80601f0160208091040260200160405190810160405280929190818152602001828054610e349061350b565b8015610e815780601f10610e5657610100808354040283529160200191610e81565b820191906000526020600020905b815481529060010190602001808311610e6457829003601f168201915b50505050508152602001600882018054610e9a9061350b565b80601f0160208091040260200160405190810160405280929190818152602001828054610ec69061350b565b8015610f135780601f10610ee857610100808354040283529160200191610f13565b820191906000526020600020905b815481529060010190602001808311610ef657829003601f168201915b50505050508152602001600982018054610f2c9061350b565b80601f0160208091040260200160405190810160405280929190818152602001828054610f589061350b565b8015610fa55780601f10610f7a57610100808354040283529160200191610fa5565b820191906000526020600020905b815481529060010190602001808311610f8857829003601f168201915b50505050508152602001600a82018054610fbe9061350b565b80601f0160208091040260200160405190810160405280929190818152602001828054610fea9061350b565b80156110375780601f1061100c57610100808354040283529160200191611037565b820191906000526020600020905b81548152906001019060200180831161101a57829003601f168201915b5050505050815250509050919050565b60606000611055600161269c565b90506000805b8281101561117d57600060046000838152602001908152602001600020905061115487878080601f016020809104026020016040519081016040528093929190818152602001838380828437600081840152601f19601f820116905080830192505050505050508260060180546110d19061350b565b80601f01602080910402602001604051908101604052809291908181526020018280546110fd9061350b565b801561114a5780601f1061111f5761010080835404028352916020019161114a565b820191906000526020600020905b81548152906001019060200180831161112d57829003601f168201915b50505050506126aa565b156111695760018361116691906133be565b92505b5080806111759061353d565b91505061105b565b506000808267ffffffffffffffff8111156111c1577f4e487b7100000000000000000000000000000000000000000000000000000000600052604160045260246000fd5b6040519080825280602002602001820160405280156111fa57816020015b6111e76128eb565b8152602001906001900390816111df5790505b50905060008311156116745760005b848110801561121757508383105b156116725760006004600083815260200190815260200160002060405180610160016040529081600082015481526020016001820160009054906101000a900473ffffffffffffffffffffffffffffffffffffffff1673ffffffffffffffffffffffffffffffffffffffff1673ffffffffffffffffffffffffffffffffffffffff1681526020016002820154815260200160038201548152602001600482015481526020016005820160009054906101000a900460ff161515151581526020016006820180546112e69061350b565b80601f01602080910402602001604051908101604052809291908181526020018280546113129061350b565b801561135f5780601f106113345761010080835404028352916020019161135f565b820191906000526020600020905b81548152906001019060200180831161134257829003601f168201915b505050505081526020016007820180546113789061350b565b80601f01602080910402602001604051908101604052809291908181526020018280546113a49061350b565b80156113f15780601f106113c6576101008083540402835291602001916113f1565b820191906000526020600020905b8154815290600101906020018083116113d457829003601f168201915b5050505050815260200160088201805461140a9061350b565b80601f01602080910402602001604051908101604052809291908181526020018280546114369061350b565b80156114835780601f1061145857610100808354040283529160200191611483565b820191906000526020600020905b81548152906001019060200180831161146657829003601f168201915b5050505050815260200160098201805461149c9061350b565b80601f01602080910402602001604051908101604052809291908181526020018280546114c89061350b565b80156115155780601f106114ea57610100808354040283529160200191611515565b820191906000526020600020905b8154815290600101906020018083116114f857829003601f168201915b50505050508152602001600a8201805461152e9061350b565b80601f016020809104026020016040519081016040528092919081815260200182805461155a9061350b565b80156115a75780601f1061157c576101008083540402835291602001916115a7565b820191906000526020600020905b81548152906001019060200180831161158a57829003601f168201915b505050505081525050905061160489898080601f016020809104026020016040519081016040528093929190818152602001838380828437600081840152601f19601f820116905080830192505050505050508260c001516126aa565b1561165e5780838581518110611643577f4e487b7100000000000000000000000000000000000000000000000000000000600052603260045260246000fd5b602002602001018190525060018461165b91906133be565b93505b50808061166a9061353d565b915050611209565b505b8094505050505092915050565b600260005414156116c7576040517f08c379a00000000000000000000000000000000000000000000000000000000081526004016116be906132dd565b60405180910390fd5b60026000819055506116d9600161269c565b811061171a576040517f08c379a00000000000000000000000000000000000000000000000000000000081526004016117119061327d565b60405180910390fd5b6000341161175d576040517f08c379a00000000000000000000000000000000000000000000000000000000081526004016117549061325d565b60405180910390fd5b60006004600083815260200190815260200160002090508060010160009054906101000a900473ffffffffffffffffffffffffffffffffffffffff1673ffffffffffffffffffffffffffffffffffffffff163373ffffffffffffffffffffffffffffffffffffffff161415611807576040517f08c379a00000000000000000000000000000000000000000000000000000000081526004016117fe906132bd565b60405180910390fd5b3481600301600082825461181b91906133be565b925050819055508060010160009054906101000a900473ffffffffffffffffffffffffffffffffffffffff1673ffffffffffffffffffffffffffffffffffffffff166108fc349081150290604051600060405180830381858888f1935050505015801561188c573d6000803e3d6000fd5b5060018160040160008282546118a291906133be565b9250508190555080600201548160030154106118e0576118c26002612686565b60018160050160006101000a81548160ff0219169083151502179055505b50600160008190555050565b60606000821415611932576040517f08c379a00000000000000000000000000000000000000000000000000000000081526004016119299061323d565b60405180910390fd5b600061193e600361269c565b9050600080600190505b82811161198b57846005600083815260200190815260200160002060040154141561197a57816119779061353d565b91505b806119849061353d565b9050611948565b5060008167ffffffffffffffff8111156119ce577f4e487b7100000000000000000000000000000000000000000000000000000000600052604160045260246000fd5b604051908082528060200260200182016040528015611a0757816020015b6119f46128a6565b8152602001906001900390816119ec5790505b509050600080600190505b848111611bce578660056000838152602001908152602001600020600401541415611bbb5760008190506000600560008381526020019081526020016000206040518060a0016040529081600082015481526020016001820160009054906101000a900473ffffffffffffffffffffffffffffffffffffffff1673ffffffffffffffffffffffffffffffffffffffff1673ffffffffffffffffffffffffffffffffffffffff168152602001600282018054611acc9061350b565b80601f0160208091040260200160405190810160405280929190818152602001828054611af89061350b565b8015611b455780601f10611b1a57610100808354040283529160200191611b45565b820191906000526020600020905b815481529060010190602001808311611b2857829003601f168201915b5050505050815260200160038201548152602001600482015481525050905080858581518110611b9e577f4e487b7100000000000000000000000000000000000000000000000000000000600052603260045260246000fd5b6020026020010181905250600184611bb691906133be565b935050505b8080611bc69061353d565b915050611a12565b5081945050505050919050565b60026000541415611c21576040517f08c379a0000000000000000000000000000000000000000000000000000000008152600401611c18906132dd565b60405180910390fd5b60026000819055506000821415611c6d576040517f08c379a0000000000000000000000000000000000000000000000000000000008152600401611c649061329d565b60405180910390fd5b611c776003612686565b6000611c83600361269c565b90506040518060a001604052808281526020018773ffffffffffffffffffffffffffffffffffffffff16815260200186868080601f016020809104026020016040519081016040528093929190818152602001838380828437600081840152601f19601f82011690508083019250505050505050815260200183815260200184815250600560008381526020019081526020016000206000820151816000015560208201518160010160006101000a81548173ffffffffffffffffffffffffffffffffffffffff021916908373ffffffffffffffffffffffffffffffffffffffff1602179055506040820151816002019080519060200190611d86929190612820565b5060608201518160030155608082015181600401559050505060016000819055505050505050565b60606000611dbc600161269c565b90506000611dca600261269c565b90506000808284611ddb9190613414565b67ffffffffffffffff811115611e1a577f4e487b7100000000000000000000000000000000000000000000000000000000600052604160045260246000fd5b604051908082528060200260200182016040528015611e5357816020015b611e406128eb565b815260200190600190039081611e385790505b50905060005b8481101561228e576004600082815260200190815260200160002060050160009054906101000a900460ff1661227b57600081905060006004600083815260200190815260200160002060405180610160016040529081600082015481526020016001820160009054906101000a900473ffffffffffffffffffffffffffffffffffffffff1673ffffffffffffffffffffffffffffffffffffffff1673ffffffffffffffffffffffffffffffffffffffff1681526020016002820154815260200160038201548152602001600482015481526020016005820160009054906101000a900460ff16151515158152602001600682018054611f589061350b565b80601f0160208091040260200160405190810160405280929190818152602001828054611f849061350b565b8015611fd15780601f10611fa657610100808354040283529160200191611fd1565b820191906000526020600020905b815481529060010190602001808311611fb457829003601f168201915b50505050508152602001600782018054611fea9061350b565b80601f01602080910402602001604051908101604052809291908181526020018280546120169061350b565b80156120635780601f1061203857610100808354040283529160200191612063565b820191906000526020600020905b81548152906001019060200180831161204657829003601f168201915b5050505050815260200160088201805461207c9061350b565b80601f01602080910402602001604051908101604052809291908181526020018280546120a89061350b565b80156120f55780601f106120ca576101008083540402835291602001916120f5565b820191906000526020600020905b8154815290600101906020018083116120d857829003601f168201915b5050505050815260200160098201805461210e9061350b565b80601f016020809104026020016040519081016040528092919081815260200182805461213a9061350b565b80156121875780601f1061215c57610100808354040283529160200191612187565b820191906000526020600020905b81548152906001019060200180831161216a57829003601f168201915b50505050508152602001600a820180546121a09061350b565b80601f01602080910402602001604051908101604052809291908181526020018280546121cc9061350b565b80156122195780601f106121ee57610100808354040283529160200191612219565b820191906000526020600020905b8154815290600101906020018083116121fc57829003601f168201915b50505050508152505090508084868151811061225e577f4e487b7100000000000000000000000000000000000000000000000000000000600052603260045260246000fd5b602002602001018190525060018561227691906133be565b945050505b80806122869061353d565b915050611e59565b508094505050505090565b600260005414156122df576040517f08c379a00000000000000000000000000000000000000000000000000000000081526004016122d6906132dd565b60405180910390fd5b600260008190555060008b1161232a576040517f08c379a00000000000000000000000000000000000000000000000000000000081526004016123219061321d565b60405180910390fd5b6000612336600161269c565b90506040518061016001604052808281526020013373ffffffffffffffffffffffffffffffffffffffff1681526020018d815260200160008152602001600081526020016000151581526020018c8c8080601f016020809104026020016040519081016040528093929190818152602001838380828437600081840152601f19601f8201169050808301925050505050505081526020018a8a8080601f016020809104026020016040519081016040528093929190818152602001838380828437600081840152601f19601f82011690508083019250505050505050815260200188888080601f016020809104026020016040519081016040528093929190818152602001838380828437600081840152601f19601f82011690508083019250505050505050815260200186868080601f016020809104026020016040519081016040528093929190818152602001838380828437600081840152601f19601f82011690508083019250505050505050815260200184848080601f016020809104026020016040519081016040528093929190818152602001838380828437600081840152601f19601f82011690508083019250505050505050815250600460008381526020019081526020016000206000820151816000015560208201518160010160006101000a81548173ffffffffffffffffffffffffffffffffffffffff021916908373ffffffffffffffffffffffffffffffffffffffff16021790555060408201518160020155606082015181600301556080820151816004015560a08201518160050160006101000a81548160ff02191690831515021790555060c08201518160060190805190602001906125b1929190612820565b5060e08201518160070190805190602001906125ce929190612820565b506101008201518160080190805190602001906125ec929190612820565b5061012082015181600901908051906020019061260a929190612820565b5061014082015181600a019080519060200190612628929190612820565b50905050807fd8737c21c8c06f7ea4e9e3a837adff6378cc6587c210895878835a452f8c8983338e60405161265e9291906131b0565b60405180910390a26126706001612686565b5060016000819055505050505050505050505050565b6001816000016000828254019250508190555050565b600081600001549050919050565b600080839050600083905060008251825110156126cc5780935050505061281a565b60005b835183516126dd9190613414565b81116128125760006001905060005b85518110156127ed5785818151811061272e577f4e487b7100000000000000000000000000000000000000000000000000000000600052603260045260246000fd5b602001015160f81c60f81b7effffffffffffffffffffffffffffffffffffffffffffffffffffffffffffff191685828561276891906133be565b8151811061279f577f4e487b7100000000000000000000000000000000000000000000000000000000600052603260045260246000fd5b602001015160f81c60f81b7effffffffffffffffffffffffffffffffffffffffffffffffffffffffffffff1916146127da57600091506127ed565b80806127e59061353d565b9150506126ec565b5080156127fe576001925050612812565b50808061280a9061353d565b9150506126cf565b508093505050505b92915050565b82805461282c9061350b565b90600052602060002090601f01602090048101928261284e5760008555612895565b82601f1061286757805160ff1916838001178555612895565b82800160010185558215612895579182015b82811115612894578251825591602001919060010190612879565b5b5090506128a2919061295d565b5090565b6040518060a0016040528060008152602001600073ffffffffffffffffffffffffffffffffffffffff1681526020016060815260200160008152602001600081525090565b60405180610160016040528060008152602001600073ffffffffffffffffffffffffffffffffffffffff16815260200160008152602001600081526020016000815260200160001515815260200160608152602001606081526020016060815260200160608152602001606081525090565b5b8082111561297657600081600090555060010161295e565b5090565b600081359050612989816137d2565b92915050565b60008083601f8401126129a157600080fd5b8235905067ffffffffffffffff8111156129ba57600080fd5b6020830191508360018202830111156129d257600080fd5b9250929050565b6000813590506129e8816137e9565b92915050565b600060208284031215612a0057600080fd5b6000612a0e8482850161297a565b91505092915050565b60008060008060608587031215612a2d57600080fd5b6000612a3b8782880161297a565b945050602085013567ffffffffffffffff811115612a5857600080fd5b612a648782880161298f565b93509350506040612a77878288016129d9565b91505092959194509250565b600080600080600060808688031215612a9b57600080fd5b6000612aa98882890161297a565b955050602086013567ffffffffffffffff811115612ac657600080fd5b612ad28882890161298f565b94509450506040612ae5888289016129d9565b9250506060612af6888289016129d9565b9150509295509295909350565b60008060208385031215612b1657600080fd5b600083013567ffffffffffffffff811115612b3057600080fd5b612b3c8582860161298f565b92509250509250929050565b600060208284031215612b5a57600080fd5b6000612b68848285016129d9565b91505092915050565b600080600080600080600080600080600060c08c8e031215612b9257600080fd5b6000612ba08e828f016129d9565b9b505060208c013567ffffffffffffffff811115612bbd57600080fd5b612bc98e828f0161298f565b9a509a505060408c013567ffffffffffffffff811115612be857600080fd5b612bf48e828f0161298f565b985098505060608c013567ffffffffffffffff811115612c1357600080fd5b612c1f8e828f0161298f565b965096505060808c013567ffffffffffffffff811115612c3e57600080fd5b612c4a8e828f0161298f565b945094505060a08c013567ffffffffffffffff811115612c6957600080fd5b612c758e828f0161298f565b92509250509295989b509295989b9093969950565b6000612c968383612f06565b905092915050565b6000612caa8383612f7c565b905092915050565b612cbb816134a2565b82525050565b612cca8161345a565b82525050565b612cd981613448565b82525050565b6000612cea8261333f565b612cf4818561337a565b935083602082028501612d068561331f565b8060005b85811015612d425784840389528151612d238582612c8a565b9450612d2e83613360565b925060208a01995050600181019050612d0a565b50829750879550505050505092915050565b6000612d5f8261334a565b612d69818561338b565b935083602082028501612d7b8561332f565b8060005b85811015612db75784840389528151612d988582612c9e565b9450612da38361336d565b925060208a01995050600181019050612d7f565b50829750879550505050505092915050565b612dd28161346c565b82525050565b6000612de382613355565b612ded818561339c565b9350612dfd8185602086016134d8565b612e06816135e4565b840191505092915050565b6000612e1e602a836133ad565b9150612e29826135f5565b604082019050919050565b6000612e416021836133ad565b9150612e4c82613644565b604082019050919050565b6000612e646043836133ad565b9150612e6f82613693565b606082019050919050565b6000612e876016836133ad565b9150612e9282613708565b602082019050919050565b6000612eaa6017836133ad565b9150612eb582613731565b602082019050919050565b6000612ecd602e836133ad565b9150612ed88261375a565b604082019050919050565b6000612ef0601f836133ad565b9150612efb826137a9565b602082019050919050565b600060a083016000830151612f1e6000860182613192565b506020830151612f316020860182612cd0565b5060408301518482036040860152612f498282612dd8565b9150506060830151612f5e6060860182613192565b506080830151612f716080860182613192565b508091505092915050565b600061016083016000830151612f956000860182613192565b506020830151612fa86020860182612cc1565b506040830151612fbb6040860182613192565b506060830151612fce6060860182613192565b506080830151612fe16080860182613192565b5060a0830151612ff460a0860182612dc9565b5060c083015184820360c086015261300c8282612dd8565b91505060e083015184820360e08601526130268282612dd8565b9150506101008301518482036101008601526130428282612dd8565b91505061012083015184820361012086015261305e8282612dd8565b91505061014083015184820361014086015261307a8282612dd8565b9150508091505092915050565b6000610160830160008301516130a06000860182613192565b5060208301516130b36020860182612cc1565b5060408301516130c66040860182613192565b5060608301516130d96060860182613192565b5060808301516130ec6080860182613192565b5060a08301516130ff60a0860182612dc9565b5060c083015184820360c08601526131178282612dd8565b91505060e083015184820360e08601526131318282612dd8565b91505061010083015184820361010086015261314d8282612dd8565b9150506101208301518482036101208601526131698282612dd8565b9150506101408301518482036101408601526131858282612dd8565b9150508091505092915050565b61319b81613498565b82525050565b6131aa81613498565b82525050565b60006040820190506131c56000830185612cb2565b6131d260208301846131a1565b9392505050565b600060208201905081810360008301526131f38184612cdf565b905092915050565b600060208201905081810360008301526132158184612d54565b905092915050565b6000602082019050818103600083015261323681612e11565b9050919050565b6000602082019050818103600083015261325681612e34565b9050919050565b6000602082019050818103600083015261327681612e57565b9050919050565b6000602082019050818103600083015261329681612e7a565b9050919050565b600060208201905081810360008301526132b681612e9d565b9050919050565b600060208201905081810360008301526132d681612ec0565b9050919050565b600060208201905081810360008301526132f681612ee3565b9050919050565b600060208201905081810360008301526133178184613087565b905092915050565b6000819050602082019050919050565b6000819050602082019050919050565b600081519050919050565b600081519050919050565b600081519050919050565b6000602082019050919050565b6000602082019050919050565b600082825260208201905092915050565b600082825260208201905092915050565b600082825260208201905092915050565b600082825260208201905092915050565b60006133c982613498565b91506133d483613498565b9250827fffffffffffffffffffffffffffffffffffffffffffffffffffffffffffffffff0382111561340957613408613586565b5b828201905092915050565b600061341f82613498565b915061342a83613498565b92508282101561343d5761343c613586565b5b828203905092915050565b600061345382613478565b9050919050565b600061346582613478565b9050919050565b60008115159050919050565b600073ffffffffffffffffffffffffffffffffffffffff82169050919050565b6000819050919050565b60006134ad826134b4565b9050919050565b60006134bf826134c6565b9050919050565b60006134d182613478565b9050919050565b60005b838110156134f65780820151818401526020810190506134db565b83811115613505576000848401525b50505050565b6000600282049050600182168061352357607f821691505b60208210811415613537576135366135b5565b5b50919050565b600061354882613498565b91507fffffffffffffffffffffffffffffffffffffffffffffffffffffffffffffffff82141561357b5761357a613586565b5b600182019050919050565b7f4e487b7100000000000000000000000000000000000000000000000000000000600052601160045260246000fd5b7f4e487b7100000000000000000000000000000000000000000000000000000000600052602260045260246000fd5b6000601f19601f8301169050919050565b7f546865207265717565737465642066756e6473206d757374206265206174206c60008201527f6561737420312077656900000000000000000000000000000000000000000000602082015250565b7f436f6d6d656e74206964656e7469666965722063616e6e6f74206265207a657260008201527f6f00000000000000000000000000000000000000000000000000000000000000602082015250565b7f506c6561736520646f6e6174652061206d696e696d756d206f6620312077656960008201527f20696e206f7264657220746f20636f6d706c65746520746865206f706572617460208201527f696f6e0000000000000000000000000000000000000000000000000000000000604082015250565b7f4974656d20696420646f6573206e6f7420657869737400000000000000000000600082015250565b7f57726f6e6720706172656e74206964656e746966696572000000000000000000600082015250565b7f596f752063616e6e6f7420646f6e61746520746f20796f7572206f776e20667560008201527f6e64696e672063616d706169676e000000000000000000000000000000000000602082015250565b7f5265656e7472616e637947756172643a207265656e7472616e742063616c6c00600082015250565b6137db81613448565b81146137e657600080fd5b50565b6137f281613498565b81146137fd57600080fd5b5056fea2646970667358221220753fa7c308c133e033b8fdf65e9c93a29fd2db6636c21b07df82f4b1f487ac6d64736f6c63430008040033",
  "linkReferences": {},
  "deployedLinkReferences": {}
}