{
  "_format": "hh-sol-artifact-1",
  "contractName": "FundMarket",
  "sourceName": "contracts/Crowdfunding.sol",
  "abi": [
    {
      "anonymous": false,
      "inputs": [
        {
          "indexed": true,
          "internalType": "uint256",
          "name": "itemId",
          "type": "uint256"
        },
        {
          "indexed": false,
          "internalType": "address",
          "name": "campaignOwner",
          "type": "address"
        },
        {
          "indexed": false,
          "internalType": "uint256",
          "name": "FundsRequested",
          "type": "uint256"
        }
      ],
      "name": "CampaignStarted",
      "type": "event"
    },
    {
      "inputs": [
        {
          "internalType": "uint256",
          "name": "FundsRequested",
          "type": "uint256"
        },
        {
          "internalType": "string",
          "name": "title",
          "type": "string"
        },
        {
          "internalType": "string",
          "name": "description",
          "type": "string"
        },
        {
          "internalType": "string",
          "name": "info",
          "type": "string"
        },
        {
          "internalType": "string",
          "name": "url",
          "type": "string"
        },
        {
          "internalType": "string",
          "name": "ipfsHash",
          "type": "string"
        }
      ],
      "name": "createCampaign",
      "outputs": [],
      "stateMutability": "payable",
      "type": "function"
    },
    {
      "inputs": [
        {
          "internalType": "uint256",
          "name": "itemId",
          "type": "uint256"
        }
      ],
      "name": "donateCampaign",
      "outputs": [],
      "stateMutability": "payable",
      "type": "function"
    },
    {
      "inputs": [],
      "name": "fetchCampaigns",
      "outputs": [
        {
          "components": [
            {
              "internalType": "uint256",
              "name": "itemId",
              "type": "uint256"
            },
            {
              "internalType": "address payable",
              "name": "campaignOwner",
              "type": "address"
            },
            {
              "internalType": "uint256",
              "name": "FundsRequested",
              "type": "uint256"
            },
            {
              "internalType": "uint256",
              "name": "FundsCollected",
              "type": "uint256"
            },
            {
              "internalType": "uint256",
              "name": "totalDonators",
              "type": "uint256"
            },
            {
              "internalType": "bool",
              "name": "fundsReached",
              "type": "bool"
            },
            {
              "internalType": "string",
              "name": "title",
              "type": "string"
            },
            {
              "internalType": "string",
              "name": "description",
              "type": "string"
            },
            {
              "internalType": "string",
              "name": "info",
              "type": "string"
            },
            {
              "internalType": "string",
              "name": "url",
              "type": "string"
            },
            {
              "internalType": "string",
              "name": "ipfsHash",
              "type": "string"
            }
          ],
          "internalType": "struct FundMarket.FundingCampaign[]",
          "name": "",
          "type": "tuple[]"
        }
      ],
      "stateMutability": "view",
      "type": "function"
    },
    {
      "inputs": [],
      "name": "fetchMyCampaigns",
      "outputs": [
        {
          "components": [
            {
              "internalType": "uint256",
              "name": "itemId",
              "type": "uint256"
            },
            {
              "internalType": "address payable",
              "name": "campaignOwner",
              "type": "address"
            },
            {
              "internalType": "uint256",
              "name": "FundsRequested",
              "type": "uint256"
            },
            {
              "internalType": "uint256",
              "name": "FundsCollected",
              "type": "uint256"
            },
            {
              "internalType": "uint256",
              "name": "totalDonators",
              "type": "uint256"
            },
            {
              "internalType": "bool",
              "name": "fundsReached",
              "type": "bool"
            },
            {
              "internalType": "string",
              "name": "title",
              "type": "string"
            },
            {
              "internalType": "string",
              "name": "description",
              "type": "string"
            },
            {
              "internalType": "string",
              "name": "info",
              "type": "string"
            },
            {
              "internalType": "string",
              "name": "url",
              "type": "string"
            },
            {
              "internalType": "string",
              "name": "ipfsHash",
              "type": "string"
            }
          ],
          "internalType": "struct FundMarket.FundingCampaign[]",
          "name": "",
          "type": "tuple[]"
        }
      ],
      "stateMutability": "view",
      "type": "function"
    },
    {
      "inputs": [
        {
          "internalType": "uint256",
          "name": "itemId",
          "type": "uint256"
        }
      ],
      "name": "getCampaign",
      "outputs": [
        {
          "components": [
            {
              "internalType": "uint256",
              "name": "itemId",
              "type": "uint256"
            },
            {
              "internalType": "address payable",
              "name": "campaignOwner",
              "type": "address"
            },
            {
              "internalType": "uint256",
              "name": "FundsRequested",
              "type": "uint256"
            },
            {
              "internalType": "uint256",
              "name": "FundsCollected",
              "type": "uint256"
            },
            {
              "internalType": "uint256",
              "name": "totalDonators",
              "type": "uint256"
            },
            {
              "internalType": "bool",
              "name": "fundsReached",
              "type": "bool"
            },
            {
              "internalType": "string",
              "name": "title",
              "type": "string"
            },
            {
              "internalType": "string",
              "name": "description",
              "type": "string"
            },
            {
              "internalType": "string",
              "name": "info",
              "type": "string"
            },
            {
              "internalType": "string",
              "name": "url",
              "type": "string"
            },
            {
              "internalType": "string",
              "name": "ipfsHash",
              "type": "string"
            }
          ],
          "internalType": "struct FundMarket.FundingCampaign",
          "name": "",
          "type": "tuple"
        }
      ],
      "stateMutability": "view",
      "type": "function"
    }
  ],
  "bytecode": "0x608060405234801561001057600080fd5b50600160008190555061219e806100286000396000f3fe60806040526004361061004a5760003560e01c806302dd4ab21461004f5780635598f8cc1461007a5780638ffff8b0146100b7578063c33d06fa146100d3578063dc640767146100fe575b600080fd5b34801561005b57600080fd5b5061006461011a565b6040516100719190611c7d565b60405180910390f35b34801561008657600080fd5b506100a1600480360381019061009c9190611740565b6106c4565b6040516100ae9190611d3f565b60405180910390f35b6100d160048036038101906100cc9190611740565b610a65565b005b3480156100df57600080fd5b506100e8610cd0565b6040516100f59190611c7d565b60405180910390f35b61011860048036038101906101139190611769565b6111bb565b005b6060600061012860016115a8565b905060008060005b838110156101c0573373ffffffffffffffffffffffffffffffffffffffff166003600083815260200190815260200160002060010160009054906101000a900473ffffffffffffffffffffffffffffffffffffffff1673ffffffffffffffffffffffffffffffffffffffff1614156101af57816101ac90611f34565b91505b806101b990611f34565b9050610130565b5060008167ffffffffffffffff811115610203577f4e487b7100000000000000000000000000000000000000000000000000000000600052604160045260246000fd5b60405190808252806020026020018201604052801561023c57816020015b6102296115cc565b8152602001906001900390816102215790505b50905060005b848110156106b9573373ffffffffffffffffffffffffffffffffffffffff166003600083815260200190815260200160002060010160009054906101000a900473ffffffffffffffffffffffffffffffffffffffff1673ffffffffffffffffffffffffffffffffffffffff1614156106a657600081905060006003600083815260200190815260200160002060405180610160016040529081600082015481526020016001820160009054906101000a900473ffffffffffffffffffffffffffffffffffffffff1673ffffffffffffffffffffffffffffffffffffffff1673ffffffffffffffffffffffffffffffffffffffff1681526020016002820154815260200160038201548152602001600482015481526020016005820160009054906101000a900460ff1615151515815260200160068201805461038390611f02565b80601f01602080910402602001604051908101604052809291908181526020018280546103af90611f02565b80156103fc5780601f106103d1576101008083540402835291602001916103fc565b820191906000526020600020905b8154815290600101906020018083116103df57829003601f168201915b5050505050815260200160078201805461041590611f02565b80601f016020809104026020016040519081016040528092919081815260200182805461044190611f02565b801561048e5780601f106104635761010080835404028352916020019161048e565b820191906000526020600020905b81548152906001019060200180831161047157829003601f168201915b505050505081526020016008820180546104a790611f02565b80601f01602080910402602001604051908101604052809291908181526020018280546104d390611f02565b80156105205780601f106104f557610100808354040283529160200191610520565b820191906000526020600020905b81548152906001019060200180831161050357829003601f168201915b5050505050815260200160098201805461053990611f02565b80601f016020809104026020016040519081016040528092919081815260200182805461056590611f02565b80156105b25780601f10610587576101008083540402835291602001916105b2565b820191906000526020600020905b81548152906001019060200180831161059557829003601f168201915b50505050508152602001600a820180546105cb90611f02565b80601f01602080910402602001604051908101604052809291908181526020018280546105f790611f02565b80156106445780601f1061061957610100808354040283529160200191610644565b820191906000526020600020905b81548152906001019060200180831161062757829003601f168201915b505050505081525050905080848781518110610689577f4e487b7100000000000000000000000000000000000000000000000000000000600052603260045260246000fd5b60200260200101819052506001866106a19190611dc7565b955050505b80806106b190611f34565b915050610242565b508094505050505090565b6106cc6115cc565b6003600083815260200190815260200160002060405180610160016040529081600082015481526020016001820160009054906101000a900473ffffffffffffffffffffffffffffffffffffffff1673ffffffffffffffffffffffffffffffffffffffff1673ffffffffffffffffffffffffffffffffffffffff1681526020016002820154815260200160038201548152602001600482015481526020016005820160009054906101000a900460ff1615151515815260200160068201805461079490611f02565b80601f01602080910402602001604051908101604052809291908181526020018280546107c090611f02565b801561080d5780601f106107e25761010080835404028352916020019161080d565b820191906000526020600020905b8154815290600101906020018083116107f057829003601f168201915b5050505050815260200160078201805461082690611f02565b80601f016020809104026020016040519081016040528092919081815260200182805461085290611f02565b801561089f5780601f106108745761010080835404028352916020019161089f565b820191906000526020600020905b81548152906001019060200180831161088257829003601f168201915b505050505081526020016008820180546108b890611f02565b80601f01602080910402602001604051908101604052809291908181526020018280546108e490611f02565b80156109315780601f1061090657610100808354040283529160200191610931565b820191906000526020600020905b81548152906001019060200180831161091457829003601f168201915b5050505050815260200160098201805461094a90611f02565b80601f016020809104026020016040519081016040528092919081815260200182805461097690611f02565b80156109c35780601f10610998576101008083540402835291602001916109c3565b820191906000526020600020905b8154815290600101906020018083116109a657829003601f168201915b50505050508152602001600a820180546109dc90611f02565b80601f0160208091040260200160405190810160405280929190818152602001828054610a0890611f02565b8015610a555780601f10610a2a57610100808354040283529160200191610a55565b820191906000526020600020905b815481529060010190602001808311610a3857829003601f168201915b5050505050815250509050919050565b60026000541415610aab576040517f08c379a0000000000000000000000000000000000000000000000000000000008152600401610aa290611d1f565b60405180910390fd5b6002600081905550610abd60016115a8565b8110610afe576040517f08c379a0000000000000000000000000000000000000000000000000000000008152600401610af590611cdf565b60405180910390fd5b60003411610b41576040517f08c379a0000000000000000000000000000000000000000000000000000000008152600401610b3890611cbf565b60405180910390fd5b60006003600083815260200190815260200160002090508060010160009054906101000a900473ffffffffffffffffffffffffffffffffffffffff1673ffffffffffffffffffffffffffffffffffffffff163373ffffffffffffffffffffffffffffffffffffffff161415610beb576040517f08c379a0000000000000000000000000000000000000000000000000000000008152600401610be290611cff565b60405180910390fd5b34816003016000828254610bff9190611dc7565b925050819055508060010160009054906101000a900473ffffffffffffffffffffffffffffffffffffffff1673ffffffffffffffffffffffffffffffffffffffff166108fc349081150290604051600060405180830381858888f19350505050158015610c70573d6000803e3d6000fd5b506001816004016000828254610c869190611dc7565b925050819055508060020154816003015410610cc457610ca660026115b6565b60018160050160006101000a81548160ff0219169083151502179055505b50600160008190555050565b60606000610cde60016115a8565b90506000610cec60026115a8565b90506000808284610cfd9190611e1d565b67ffffffffffffffff811115610d3c577f4e487b7100000000000000000000000000000000000000000000000000000000600052604160045260246000fd5b604051908082528060200260200182016040528015610d7557816020015b610d626115cc565b815260200190600190039081610d5a5790505b50905060005b848110156111b0576003600082815260200190815260200160002060050160009054906101000a900460ff1661119d57600081905060006003600083815260200190815260200160002060405180610160016040529081600082015481526020016001820160009054906101000a900473ffffffffffffffffffffffffffffffffffffffff1673ffffffffffffffffffffffffffffffffffffffff1673ffffffffffffffffffffffffffffffffffffffff1681526020016002820154815260200160038201548152602001600482015481526020016005820160009054906101000a900460ff16151515158152602001600682018054610e7a90611f02565b80601f0160208091040260200160405190810160405280929190818152602001828054610ea690611f02565b8015610ef35780601f10610ec857610100808354040283529160200191610ef3565b820191906000526020600020905b815481529060010190602001808311610ed657829003601f168201915b50505050508152602001600782018054610f0c90611f02565b80601f0160208091040260200160405190810160405280929190818152602001828054610f3890611f02565b8015610f855780601f10610f5a57610100808354040283529160200191610f85565b820191906000526020600020905b815481529060010190602001808311610f6857829003601f168201915b50505050508152602001600882018054610f9e90611f02565b80601f0160208091040260200160405190810160405280929190818152602001828054610fca90611f02565b80156110175780601f10610fec57610100808354040283529160200191611017565b820191906000526020600020905b815481529060010190602001808311610ffa57829003601f168201915b5050505050815260200160098201805461103090611f02565b80601f016020809104026020016040519081016040528092919081815260200182805461105c90611f02565b80156110a95780601f1061107e576101008083540402835291602001916110a9565b820191906000526020600020905b81548152906001019060200180831161108c57829003601f168201915b50505050508152602001600a820180546110c290611f02565b80601f01602080910402602001604051908101604052809291908181526020018280546110ee90611f02565b801561113b5780601f106111105761010080835404028352916020019161113b565b820191906000526020600020905b81548152906001019060200180831161111e57829003601f168201915b505050505081525050905080848681518110611180577f4e487b7100000000000000000000000000000000000000000000000000000000600052603260045260246000fd5b60200260200101819052506001856111989190611dc7565b945050505b80806111a890611f34565b915050610d7b565b508094505050505090565b60026000541415611201576040517f08c379a00000000000000000000000000000000000000000000000000000000081526004016111f890611d1f565b60405180910390fd5b600260008190555060008b1161124c576040517f08c379a000000000000000000000000000000000000000000000000000000000815260040161124390611c9f565b60405180910390fd5b600061125860016115a8565b90506040518061016001604052808281526020013373ffffffffffffffffffffffffffffffffffffffff1681526020018d815260200160008152602001600081526020016000151581526020018c8c8080601f016020809104026020016040519081016040528093929190818152602001838380828437600081840152601f19601f8201169050808301925050505050505081526020018a8a8080601f016020809104026020016040519081016040528093929190818152602001838380828437600081840152601f19601f82011690508083019250505050505050815260200188888080601f016020809104026020016040519081016040528093929190818152602001838380828437600081840152601f19601f82011690508083019250505050505050815260200186868080601f016020809104026020016040519081016040528093929190818152602001838380828437600081840152601f19601f82011690508083019250505050505050815260200184848080601f016020809104026020016040519081016040528093929190818152602001838380828437600081840152601f19601f82011690508083019250505050505050815250600360008381526020019081526020016000206000820151816000015560208201518160010160006101000a81548173ffffffffffffffffffffffffffffffffffffffff021916908373ffffffffffffffffffffffffffffffffffffffff16021790555060408201518160020155606082015181600301556080820151816004015560a08201518160050160006101000a81548160ff02191690831515021790555060c08201518160060190805190602001906114d392919061163e565b5060e08201518160070190805190602001906114f092919061163e565b5061010082015181600801908051906020019061150e92919061163e565b5061012082015181600901908051906020019061152c92919061163e565b5061014082015181600a01908051906020019061154a92919061163e565b50905050807fd8737c21c8c06f7ea4e9e3a837adff6378cc6587c210895878835a452f8c8983338e604051611580929190611c54565b60405180910390a261159260016115b6565b5060016000819055505050505050505050505050565b600081600001549050919050565b6001816000016000828254019250508190555050565b60405180610160016040528060008152602001600073ffffffffffffffffffffffffffffffffffffffff16815260200160008152602001600081526020016000815260200160001515815260200160608152602001606081526020016060815260200160608152602001606081525090565b82805461164a90611f02565b90600052602060002090601f01602090048101928261166c57600085556116b3565b82601f1061168557805160ff19168380011785556116b3565b828001600101855582156116b3579182015b828111156116b2578251825591602001919060010190611697565b5b5090506116c091906116c4565b5090565b5b808211156116dd5760008160009055506001016116c5565b5090565b60008083601f8401126116f357600080fd5b8235905067ffffffffffffffff81111561170c57600080fd5b60208301915083600182028301111561172457600080fd5b9250929050565b60008135905061173a81612151565b92915050565b60006020828403121561175257600080fd5b60006117608482850161172b565b91505092915050565b600080600080600080600080600080600060c08c8e03121561178a57600080fd5b60006117988e828f0161172b565b9b505060208c013567ffffffffffffffff8111156117b557600080fd5b6117c18e828f016116e1565b9a509a505060408c013567ffffffffffffffff8111156117e057600080fd5b6117ec8e828f016116e1565b985098505060608c013567ffffffffffffffff81111561180b57600080fd5b6118178e828f016116e1565b965096505060808c013567ffffffffffffffff81111561183657600080fd5b6118428e828f016116e1565b945094505060a08c013567ffffffffffffffff81111561186157600080fd5b61186d8e828f016116e1565b92509250509295989b509295989b9093969950565b600061188e8383611a20565b905092915050565b61189f81611e99565b82525050565b6118ae81611e51565b82525050565b60006118bf82611d71565b6118c98185611d94565b9350836020820285016118db85611d61565b8060005b8581101561191757848403895281516118f88582611882565b945061190383611d87565b925060208a019950506001810190506118df565b50829750879550505050505092915050565b61193281611e63565b82525050565b600061194382611d7c565b61194d8185611da5565b935061195d818560208601611ecf565b61196681611fdb565b840191505092915050565b600061197e602a83611db6565b915061198982611fec565b604082019050919050565b60006119a1604383611db6565b91506119ac8261203b565b606082019050919050565b60006119c4601683611db6565b91506119cf826120b0565b602082019050919050565b60006119e7602e83611db6565b91506119f2826120d9565b604082019050919050565b6000611a0a601f83611db6565b9150611a1582612128565b602082019050919050565b600061016083016000830151611a396000860182611c36565b506020830151611a4c60208601826118a5565b506040830151611a5f6040860182611c36565b506060830151611a726060860182611c36565b506080830151611a856080860182611c36565b5060a0830151611a9860a0860182611929565b5060c083015184820360c0860152611ab08282611938565b91505060e083015184820360e0860152611aca8282611938565b915050610100830151848203610100860152611ae68282611938565b915050610120830151848203610120860152611b028282611938565b915050610140830151848203610140860152611b1e8282611938565b9150508091505092915050565b600061016083016000830151611b446000860182611c36565b506020830151611b5760208601826118a5565b506040830151611b6a6040860182611c36565b506060830151611b7d6060860182611c36565b506080830151611b906080860182611c36565b5060a0830151611ba360a0860182611929565b5060c083015184820360c0860152611bbb8282611938565b91505060e083015184820360e0860152611bd58282611938565b915050610100830151848203610100860152611bf18282611938565b915050610120830151848203610120860152611c0d8282611938565b915050610140830151848203610140860152611c298282611938565b9150508091505092915050565b611c3f81611e8f565b82525050565b611c4e81611e8f565b82525050565b6000604082019050611c696000830185611896565b611c766020830184611c45565b9392505050565b60006020820190508181036000830152611c9781846118b4565b905092915050565b60006020820190508181036000830152611cb881611971565b9050919050565b60006020820190508181036000830152611cd881611994565b9050919050565b60006020820190508181036000830152611cf8816119b7565b9050919050565b60006020820190508181036000830152611d18816119da565b9050919050565b60006020820190508181036000830152611d38816119fd565b9050919050565b60006020820190508181036000830152611d598184611b2b565b905092915050565b6000819050602082019050919050565b600081519050919050565b600081519050919050565b6000602082019050919050565b600082825260208201905092915050565b600082825260208201905092915050565b600082825260208201905092915050565b6000611dd282611e8f565b9150611ddd83611e8f565b9250827fffffffffffffffffffffffffffffffffffffffffffffffffffffffffffffffff03821115611e1257611e11611f7d565b5b828201905092915050565b6000611e2882611e8f565b9150611e3383611e8f565b925082821015611e4657611e45611f7d565b5b828203905092915050565b6000611e5c82611e6f565b9050919050565b60008115159050919050565b600073ffffffffffffffffffffffffffffffffffffffff82169050919050565b6000819050919050565b6000611ea482611eab565b9050919050565b6000611eb682611ebd565b9050919050565b6000611ec882611e6f565b9050919050565b60005b83811015611eed578082015181840152602081019050611ed2565b83811115611efc576000848401525b50505050565b60006002820490506001821680611f1a57607f821691505b60208210811415611f2e57611f2d611fac565b5b50919050565b6000611f3f82611e8f565b91507fffffffffffffffffffffffffffffffffffffffffffffffffffffffffffffffff821415611f7257611f71611f7d565b5b600182019050919050565b7f4e487b7100000000000000000000000000000000000000000000000000000000600052601160045260246000fd5b7f4e487b7100000000000000000000000000000000000000000000000000000000600052602260045260246000fd5b6000601f19601f8301169050919050565b7f546865207265717565737465642066756e6473206d757374206265206174206c60008201527f6561737420312077656900000000000000000000000000000000000000000000602082015250565b7f506c6561736520646f6e6174652061206d696e696d756d206f6620312077656960008201527f20696e206f7264657220746f20636f6d706c65746520746865206f706572617460208201527f696f6e0000000000000000000000000000000000000000000000000000000000604082015250565b7f4974656d20696420646f6573206e6f7420657869737400000000000000000000600082015250565b7f596f752063616e6e6f7420646f6e61746520746f20796f7572206f776e20667560008201527f6e64696e672063616d706169676e000000000000000000000000000000000000602082015250565b7f5265656e7472616e637947756172643a207265656e7472616e742063616c6c00600082015250565b61215a81611e8f565b811461216557600080fd5b5056fea2646970667358221220398aa2aa0f5af2d04712b83c48cbe702f86db0a4d577bbe47f6dc34bb5149fe864736f6c63430008040033",
  "linkReferences": {},
  "deployedLinkReferences": {}
}