{
  "_format": "hh-sol-artifact-1",
  "contractName": "FundMarket",
  "sourceName": "contracts/Crowdfunding.sol",
  "abi": [
    {
      "anonymous": false,
      "inputs": [
        {
          "indexed": true,
          "internalType": "uint256",
          "name": "itemId",
          "type": "uint256"
        },
        {
          "indexed": false,
          "internalType": "address",
          "name": "campaignOwner",
          "type": "address"
        },
        {
          "indexed": false,
          "internalType": "uint256",
          "name": "FundsRequested",
          "type": "uint256"
        }
      ],
      "name": "CampaignStarted",
      "type": "event"
    },
    {
      "inputs": [
        {
          "internalType": "uint256",
          "name": "FundsRequested",
          "type": "uint256"
        },
        {
          "internalType": "string",
          "name": "title",
          "type": "string"
        },
        {
          "internalType": "string",
          "name": "description",
          "type": "string"
        },
        {
          "internalType": "string",
          "name": "info",
          "type": "string"
        },
        {
          "internalType": "string",
          "name": "url",
          "type": "string"
        },
        {
          "internalType": "string",
          "name": "ipfsHash",
          "type": "string"
        }
      ],
      "name": "createCampaign",
      "outputs": [],
      "stateMutability": "payable",
      "type": "function"
    },
    {
      "inputs": [
        {
          "internalType": "uint256",
          "name": "itemId",
          "type": "uint256"
        }
      ],
      "name": "donateCampaign",
      "outputs": [],
      "stateMutability": "payable",
      "type": "function"
    },
    {
      "inputs": [],
      "name": "fetchCampaigns",
      "outputs": [
        {
          "components": [
            {
              "internalType": "uint256",
              "name": "itemId",
              "type": "uint256"
            },
            {
              "internalType": "address payable",
              "name": "campaignOwner",
              "type": "address"
            },
            {
              "internalType": "uint256",
              "name": "FundsRequested",
              "type": "uint256"
            },
            {
              "internalType": "uint256",
              "name": "FundsCollected",
              "type": "uint256"
            },
            {
              "internalType": "uint256",
              "name": "totalDonators",
              "type": "uint256"
            },
            {
              "internalType": "bool",
              "name": "fundsReached",
              "type": "bool"
            },
            {
              "internalType": "string",
              "name": "title",
              "type": "string"
            },
            {
              "internalType": "string",
              "name": "description",
              "type": "string"
            },
            {
              "internalType": "string",
              "name": "info",
              "type": "string"
            },
            {
              "internalType": "string",
              "name": "url",
              "type": "string"
            },
            {
              "internalType": "string",
              "name": "ipfsHash",
              "type": "string"
            }
          ],
          "internalType": "struct FundMarket.FundingCampaign[]",
          "name": "",
          "type": "tuple[]"
        }
      ],
      "stateMutability": "view",
      "type": "function"
    },
    {
      "inputs": [
        {
          "internalType": "string",
          "name": "searchWord",
          "type": "string"
        }
      ],
      "name": "fetchCampaignsByWord",
      "outputs": [
        {
          "components": [
            {
              "internalType": "uint256",
              "name": "itemId",
              "type": "uint256"
            },
            {
              "internalType": "address payable",
              "name": "campaignOwner",
              "type": "address"
            },
            {
              "internalType": "uint256",
              "name": "FundsRequested",
              "type": "uint256"
            },
            {
              "internalType": "uint256",
              "name": "FundsCollected",
              "type": "uint256"
            },
            {
              "internalType": "uint256",
              "name": "totalDonators",
              "type": "uint256"
            },
            {
              "internalType": "bool",
              "name": "fundsReached",
              "type": "bool"
            },
            {
              "internalType": "string",
              "name": "title",
              "type": "string"
            },
            {
              "internalType": "string",
              "name": "description",
              "type": "string"
            },
            {
              "internalType": "string",
              "name": "info",
              "type": "string"
            },
            {
              "internalType": "string",
              "name": "url",
              "type": "string"
            },
            {
              "internalType": "string",
              "name": "ipfsHash",
              "type": "string"
            }
          ],
          "internalType": "struct FundMarket.FundingCampaign[]",
          "name": "",
          "type": "tuple[]"
        }
      ],
      "stateMutability": "view",
      "type": "function"
    },
    {
      "inputs": [
        {
          "internalType": "address payable",
          "name": "myAddress",
          "type": "address"
        }
      ],
      "name": "fetchMyCampaigns",
      "outputs": [
        {
          "components": [
            {
              "internalType": "uint256",
              "name": "itemId",
              "type": "uint256"
            },
            {
              "internalType": "address payable",
              "name": "campaignOwner",
              "type": "address"
            },
            {
              "internalType": "uint256",
              "name": "FundsRequested",
              "type": "uint256"
            },
            {
              "internalType": "uint256",
              "name": "FundsCollected",
              "type": "uint256"
            },
            {
              "internalType": "uint256",
              "name": "totalDonators",
              "type": "uint256"
            },
            {
              "internalType": "bool",
              "name": "fundsReached",
              "type": "bool"
            },
            {
              "internalType": "string",
              "name": "title",
              "type": "string"
            },
            {
              "internalType": "string",
              "name": "description",
              "type": "string"
            },
            {
              "internalType": "string",
              "name": "info",
              "type": "string"
            },
            {
              "internalType": "string",
              "name": "url",
              "type": "string"
            },
            {
              "internalType": "string",
              "name": "ipfsHash",
              "type": "string"
            }
          ],
          "internalType": "struct FundMarket.FundingCampaign[]",
          "name": "",
          "type": "tuple[]"
        }
      ],
      "stateMutability": "view",
      "type": "function"
    },
    {
      "inputs": [
        {
          "internalType": "uint256",
          "name": "itemId",
          "type": "uint256"
        }
      ],
      "name": "getCampaign",
      "outputs": [
        {
          "components": [
            {
              "internalType": "uint256",
              "name": "itemId",
              "type": "uint256"
            },
            {
              "internalType": "address payable",
              "name": "campaignOwner",
              "type": "address"
            },
            {
              "internalType": "uint256",
              "name": "FundsRequested",
              "type": "uint256"
            },
            {
              "internalType": "uint256",
              "name": "FundsCollected",
              "type": "uint256"
            },
            {
              "internalType": "uint256",
              "name": "totalDonators",
              "type": "uint256"
            },
            {
              "internalType": "bool",
              "name": "fundsReached",
              "type": "bool"
            },
            {
              "internalType": "string",
              "name": "title",
              "type": "string"
            },
            {
              "internalType": "string",
              "name": "description",
              "type": "string"
            },
            {
              "internalType": "string",
              "name": "info",
              "type": "string"
            },
            {
              "internalType": "string",
              "name": "url",
              "type": "string"
            },
            {
              "internalType": "string",
              "name": "ipfsHash",
              "type": "string"
            }
          ],
          "internalType": "struct FundMarket.FundingCampaign",
          "name": "",
          "type": "tuple"
        }
      ],
      "stateMutability": "view",
      "type": "function"
    }
  ],
  "bytecode": "0x608060405234801561001057600080fd5b506001600081905550612a44806100286000396000f3fe6080604052600436106100555760003560e01c80634457ca7e1461005a5780635598f8cc146100975780635ef5c9af146100d45780638ffff8b014610111578063c33d06fa1461012d578063dc64076714610158575b600080fd5b34801561006657600080fd5b50610081600480360381019061007c9190611f61565b610174565b60405161008e919061250c565b60405180910390f35b3480156100a357600080fd5b506100be60048036038101906100b99190611fcf565b610720565b6040516100cb91906125ce565b60405180910390f35b3480156100e057600080fd5b506100fb60048036038101906100f69190611f8a565b610ac1565b604051610108919061250c565b60405180910390f35b61012b60048036038101906101269190611fcf565b6110fb565b005b34801561013957600080fd5b50610142611366565b60405161014f919061250c565b60405180910390f35b610172600480360381019061016d9190611ff8565b611851565b005b606060006101826001611c3e565b905060008060005b8381101561021a578573ffffffffffffffffffffffffffffffffffffffff166003600083815260200190815260200160002060010160009054906101000a900473ffffffffffffffffffffffffffffffffffffffff1673ffffffffffffffffffffffffffffffffffffffff1614156102095781610206906127c3565b91505b80610213906127c3565b905061018a565b5060008167ffffffffffffffff81111561025d577f4e487b7100000000000000000000000000000000000000000000000000000000600052604160045260246000fd5b60405190808252806020026020018201604052801561029657816020015b610283611dd8565b81526020019060019003908161027b5790505b50905060005b84811015610713578673ffffffffffffffffffffffffffffffffffffffff166003600083815260200190815260200160002060010160009054906101000a900473ffffffffffffffffffffffffffffffffffffffff1673ffffffffffffffffffffffffffffffffffffffff16141561070057600081905060006003600083815260200190815260200160002060405180610160016040529081600082015481526020016001820160009054906101000a900473ffffffffffffffffffffffffffffffffffffffff1673ffffffffffffffffffffffffffffffffffffffff1673ffffffffffffffffffffffffffffffffffffffff1681526020016002820154815260200160038201548152602001600482015481526020016005820160009054906101000a900460ff161515151581526020016006820180546103dd90612791565b80601f016020809104026020016040519081016040528092919081815260200182805461040990612791565b80156104565780601f1061042b57610100808354040283529160200191610456565b820191906000526020600020905b81548152906001019060200180831161043957829003601f168201915b5050505050815260200160078201805461046f90612791565b80601f016020809104026020016040519081016040528092919081815260200182805461049b90612791565b80156104e85780601f106104bd576101008083540402835291602001916104e8565b820191906000526020600020905b8154815290600101906020018083116104cb57829003601f168201915b5050505050815260200160088201805461050190612791565b80601f016020809104026020016040519081016040528092919081815260200182805461052d90612791565b801561057a5780601f1061054f5761010080835404028352916020019161057a565b820191906000526020600020905b81548152906001019060200180831161055d57829003601f168201915b5050505050815260200160098201805461059390612791565b80601f01602080910402602001604051908101604052809291908181526020018280546105bf90612791565b801561060c5780601f106105e15761010080835404028352916020019161060c565b820191906000526020600020905b8154815290600101906020018083116105ef57829003601f168201915b50505050508152602001600a8201805461062590612791565b80601f016020809104026020016040519081016040528092919081815260200182805461065190612791565b801561069e5780601f106106735761010080835404028352916020019161069e565b820191906000526020600020905b81548152906001019060200180831161068157829003601f168201915b5050505050815250509050808487815181106106e3577f4e487b7100000000000000000000000000000000000000000000000000000000600052603260045260246000fd5b60200260200101819052506001866106fb9190612656565b955050505b808061070b906127c3565b91505061029c565b5080945050505050919050565b610728611dd8565b6003600083815260200190815260200160002060405180610160016040529081600082015481526020016001820160009054906101000a900473ffffffffffffffffffffffffffffffffffffffff1673ffffffffffffffffffffffffffffffffffffffff1673ffffffffffffffffffffffffffffffffffffffff1681526020016002820154815260200160038201548152602001600482015481526020016005820160009054906101000a900460ff161515151581526020016006820180546107f090612791565b80601f016020809104026020016040519081016040528092919081815260200182805461081c90612791565b80156108695780601f1061083e57610100808354040283529160200191610869565b820191906000526020600020905b81548152906001019060200180831161084c57829003601f168201915b5050505050815260200160078201805461088290612791565b80601f01602080910402602001604051908101604052809291908181526020018280546108ae90612791565b80156108fb5780601f106108d0576101008083540402835291602001916108fb565b820191906000526020600020905b8154815290600101906020018083116108de57829003601f168201915b5050505050815260200160088201805461091490612791565b80601f016020809104026020016040519081016040528092919081815260200182805461094090612791565b801561098d5780601f106109625761010080835404028352916020019161098d565b820191906000526020600020905b81548152906001019060200180831161097057829003601f168201915b505050505081526020016009820180546109a690612791565b80601f01602080910402602001604051908101604052809291908181526020018280546109d290612791565b8015610a1f5780601f106109f457610100808354040283529160200191610a1f565b820191906000526020600020905b815481529060010190602001808311610a0257829003601f168201915b50505050508152602001600a82018054610a3890612791565b80601f0160208091040260200160405190810160405280929190818152602001828054610a6490612791565b8015610ab15780601f10610a8657610100808354040283529160200191610ab1565b820191906000526020600020905b815481529060010190602001808311610a9457829003601f168201915b5050505050815250509050919050565b60606000610acf6001611c3e565b90506000805b82811015610bf7576000600360008381526020019081526020016000209050610bce87878080601f016020809104026020016040519081016040528093929190818152602001838380828437600081840152601f19601f82011690508083019250505050505050826006018054610b4b90612791565b80601f0160208091040260200160405190810160405280929190818152602001828054610b7790612791565b8015610bc45780601f10610b9957610100808354040283529160200191610bc4565b820191906000526020600020905b815481529060010190602001808311610ba757829003601f168201915b5050505050611c4c565b15610be357600183610be09190612656565b92505b508080610bef906127c3565b915050610ad5565b506000808267ffffffffffffffff811115610c3b577f4e487b7100000000000000000000000000000000000000000000000000000000600052604160045260246000fd5b604051908082528060200260200182016040528015610c7457816020015b610c61611dd8565b815260200190600190039081610c595790505b50905060008311156110ee5760005b8481108015610c9157508383105b156110ec5760006003600083815260200190815260200160002060405180610160016040529081600082015481526020016001820160009054906101000a900473ffffffffffffffffffffffffffffffffffffffff1673ffffffffffffffffffffffffffffffffffffffff1673ffffffffffffffffffffffffffffffffffffffff1681526020016002820154815260200160038201548152602001600482015481526020016005820160009054906101000a900460ff16151515158152602001600682018054610d6090612791565b80601f0160208091040260200160405190810160405280929190818152602001828054610d8c90612791565b8015610dd95780601f10610dae57610100808354040283529160200191610dd9565b820191906000526020600020905b815481529060010190602001808311610dbc57829003601f168201915b50505050508152602001600782018054610df290612791565b80601f0160208091040260200160405190810160405280929190818152602001828054610e1e90612791565b8015610e6b5780601f10610e4057610100808354040283529160200191610e6b565b820191906000526020600020905b815481529060010190602001808311610e4e57829003601f168201915b50505050508152602001600882018054610e8490612791565b80601f0160208091040260200160405190810160405280929190818152602001828054610eb090612791565b8015610efd5780601f10610ed257610100808354040283529160200191610efd565b820191906000526020600020905b815481529060010190602001808311610ee057829003601f168201915b50505050508152602001600982018054610f1690612791565b80601f0160208091040260200160405190810160405280929190818152602001828054610f4290612791565b8015610f8f5780601f10610f6457610100808354040283529160200191610f8f565b820191906000526020600020905b815481529060010190602001808311610f7257829003601f168201915b50505050508152602001600a82018054610fa890612791565b80601f0160208091040260200160405190810160405280929190818152602001828054610fd490612791565b80156110215780601f10610ff657610100808354040283529160200191611021565b820191906000526020600020905b81548152906001019060200180831161100457829003601f168201915b505050505081525050905061107e89898080601f016020809104026020016040519081016040528093929190818152602001838380828437600081840152601f19601f820116905080830192505050505050508260c00151611c4c565b156110d857808385815181106110bd577f4e487b7100000000000000000000000000000000000000000000000000000000600052603260045260246000fd5b60200260200101819052506001846110d59190612656565b93505b5080806110e4906127c3565b915050610c83565b505b8094505050505092915050565b60026000541415611141576040517f08c379a0000000000000000000000000000000000000000000000000000000008152600401611138906125ae565b60405180910390fd5b60026000819055506111536001611c3e565b8110611194576040517f08c379a000000000000000000000000000000000000000000000000000000000815260040161118b9061256e565b60405180910390fd5b600034116111d7576040517f08c379a00000000000000000000000000000000000000000000000000000000081526004016111ce9061254e565b60405180910390fd5b60006003600083815260200190815260200160002090508060010160009054906101000a900473ffffffffffffffffffffffffffffffffffffffff1673ffffffffffffffffffffffffffffffffffffffff163373ffffffffffffffffffffffffffffffffffffffff161415611281576040517f08c379a00000000000000000000000000000000000000000000000000000000081526004016112789061258e565b60405180910390fd5b348160030160008282546112959190612656565b925050819055508060010160009054906101000a900473ffffffffffffffffffffffffffffffffffffffff1673ffffffffffffffffffffffffffffffffffffffff166108fc349081150290604051600060405180830381858888f19350505050158015611306573d6000803e3d6000fd5b50600181600401600082825461131c9190612656565b92505081905550806002015481600301541061135a5761133c6002611dc2565b60018160050160006101000a81548160ff0219169083151502179055505b50600160008190555050565b606060006113746001611c3e565b905060006113826002611c3e565b9050600080828461139391906126ac565b67ffffffffffffffff8111156113d2577f4e487b7100000000000000000000000000000000000000000000000000000000600052604160045260246000fd5b60405190808252806020026020018201604052801561140b57816020015b6113f8611dd8565b8152602001906001900390816113f05790505b50905060005b84811015611846576003600082815260200190815260200160002060050160009054906101000a900460ff1661183357600081905060006003600083815260200190815260200160002060405180610160016040529081600082015481526020016001820160009054906101000a900473ffffffffffffffffffffffffffffffffffffffff1673ffffffffffffffffffffffffffffffffffffffff1673ffffffffffffffffffffffffffffffffffffffff1681526020016002820154815260200160038201548152602001600482015481526020016005820160009054906101000a900460ff1615151515815260200160068201805461151090612791565b80601f016020809104026020016040519081016040528092919081815260200182805461153c90612791565b80156115895780601f1061155e57610100808354040283529160200191611589565b820191906000526020600020905b81548152906001019060200180831161156c57829003601f168201915b505050505081526020016007820180546115a290612791565b80601f01602080910402602001604051908101604052809291908181526020018280546115ce90612791565b801561161b5780601f106115f05761010080835404028352916020019161161b565b820191906000526020600020905b8154815290600101906020018083116115fe57829003601f168201915b5050505050815260200160088201805461163490612791565b80601f016020809104026020016040519081016040528092919081815260200182805461166090612791565b80156116ad5780601f10611682576101008083540402835291602001916116ad565b820191906000526020600020905b81548152906001019060200180831161169057829003601f168201915b505050505081526020016009820180546116c690612791565b80601f01602080910402602001604051908101604052809291908181526020018280546116f290612791565b801561173f5780601f106117145761010080835404028352916020019161173f565b820191906000526020600020905b81548152906001019060200180831161172257829003601f168201915b50505050508152602001600a8201805461175890612791565b80601f016020809104026020016040519081016040528092919081815260200182805461178490612791565b80156117d15780601f106117a6576101008083540402835291602001916117d1565b820191906000526020600020905b8154815290600101906020018083116117b457829003601f168201915b505050505081525050905080848681518110611816577f4e487b7100000000000000000000000000000000000000000000000000000000600052603260045260246000fd5b602002602001018190525060018561182e9190612656565b945050505b808061183e906127c3565b915050611411565b508094505050505090565b60026000541415611897576040517f08c379a000000000000000000000000000000000000000000000000000000000815260040161188e906125ae565b60405180910390fd5b600260008190555060008b116118e2576040517f08c379a00000000000000000000000000000000000000000000000000000000081526004016118d99061252e565b60405180910390fd5b60006118ee6001611c3e565b90506040518061016001604052808281526020013373ffffffffffffffffffffffffffffffffffffffff1681526020018d815260200160008152602001600081526020016000151581526020018c8c8080601f016020809104026020016040519081016040528093929190818152602001838380828437600081840152601f19601f8201169050808301925050505050505081526020018a8a8080601f016020809104026020016040519081016040528093929190818152602001838380828437600081840152601f19601f82011690508083019250505050505050815260200188888080601f016020809104026020016040519081016040528093929190818152602001838380828437600081840152601f19601f82011690508083019250505050505050815260200186868080601f016020809104026020016040519081016040528093929190818152602001838380828437600081840152601f19601f82011690508083019250505050505050815260200184848080601f016020809104026020016040519081016040528093929190818152602001838380828437600081840152601f19601f82011690508083019250505050505050815250600360008381526020019081526020016000206000820151816000015560208201518160010160006101000a81548173ffffffffffffffffffffffffffffffffffffffff021916908373ffffffffffffffffffffffffffffffffffffffff16021790555060408201518160020155606082015181600301556080820151816004015560a08201518160050160006101000a81548160ff02191690831515021790555060c0820151816006019080519060200190611b69929190611e4a565b5060e0820151816007019080519060200190611b86929190611e4a565b50610100820151816008019080519060200190611ba4929190611e4a565b50610120820151816009019080519060200190611bc2929190611e4a565b5061014082015181600a019080519060200190611be0929190611e4a565b50905050807fd8737c21c8c06f7ea4e9e3a837adff6378cc6587c210895878835a452f8c8983338e604051611c169291906124e3565b60405180910390a2611c286001611dc2565b5060016000819055505050505050505050505050565b600081600001549050919050565b60008083905060008390506000825182511015611c6e57809350505050611dbc565b60005b83518351611c7f91906126ac565b8111611db45760006001905060005b8551811015611d8f57858181518110611cd0577f4e487b7100000000000000000000000000000000000000000000000000000000600052603260045260246000fd5b602001015160f81c60f81b7effffffffffffffffffffffffffffffffffffffffffffffffffffffffffffff1916858285611d0a9190612656565b81518110611d41577f4e487b7100000000000000000000000000000000000000000000000000000000600052603260045260246000fd5b602001015160f81c60f81b7effffffffffffffffffffffffffffffffffffffffffffffffffffffffffffff191614611d7c5760009150611d8f565b8080611d87906127c3565b915050611c8e565b508015611da0576001925050611db4565b508080611dac906127c3565b915050611c71565b508093505050505b92915050565b6001816000016000828254019250508190555050565b60405180610160016040528060008152602001600073ffffffffffffffffffffffffffffffffffffffff16815260200160008152602001600081526020016000815260200160001515815260200160608152602001606081526020016060815260200160608152602001606081525090565b828054611e5690612791565b90600052602060002090601f016020900481019282611e785760008555611ebf565b82601f10611e9157805160ff1916838001178555611ebf565b82800160010185558215611ebf579182015b82811115611ebe578251825591602001919060010190611ea3565b5b509050611ecc9190611ed0565b5090565b5b80821115611ee9576000816000905550600101611ed1565b5090565b600081359050611efc816129e0565b92915050565b60008083601f840112611f1457600080fd5b8235905067ffffffffffffffff811115611f2d57600080fd5b602083019150836001820283011115611f4557600080fd5b9250929050565b600081359050611f5b816129f7565b92915050565b600060208284031215611f7357600080fd5b6000611f8184828501611eed565b91505092915050565b60008060208385031215611f9d57600080fd5b600083013567ffffffffffffffff811115611fb757600080fd5b611fc385828601611f02565b92509250509250929050565b600060208284031215611fe157600080fd5b6000611fef84828501611f4c565b91505092915050565b600080600080600080600080600080600060c08c8e03121561201957600080fd5b60006120278e828f01611f4c565b9b505060208c013567ffffffffffffffff81111561204457600080fd5b6120508e828f01611f02565b9a509a505060408c013567ffffffffffffffff81111561206f57600080fd5b61207b8e828f01611f02565b985098505060608c013567ffffffffffffffff81111561209a57600080fd5b6120a68e828f01611f02565b965096505060808c013567ffffffffffffffff8111156120c557600080fd5b6120d18e828f01611f02565b945094505060a08c013567ffffffffffffffff8111156120f057600080fd5b6120fc8e828f01611f02565b92509250509295989b509295989b9093969950565b600061211d83836122af565b905092915050565b61212e81612728565b82525050565b61213d816126e0565b82525050565b600061214e82612600565b6121588185612623565b93508360208202850161216a856125f0565b8060005b858110156121a657848403895281516121878582612111565b945061219283612616565b925060208a0199505060018101905061216e565b50829750879550505050505092915050565b6121c1816126f2565b82525050565b60006121d28261260b565b6121dc8185612634565b93506121ec81856020860161275e565b6121f58161286a565b840191505092915050565b600061220d602a83612645565b91506122188261287b565b604082019050919050565b6000612230604383612645565b915061223b826128ca565b606082019050919050565b6000612253601683612645565b915061225e8261293f565b602082019050919050565b6000612276602e83612645565b915061228182612968565b604082019050919050565b6000612299601f83612645565b91506122a4826129b7565b602082019050919050565b6000610160830160008301516122c860008601826124c5565b5060208301516122db6020860182612134565b5060408301516122ee60408601826124c5565b50606083015161230160608601826124c5565b50608083015161231460808601826124c5565b5060a083015161232760a08601826121b8565b5060c083015184820360c086015261233f82826121c7565b91505060e083015184820360e086015261235982826121c7565b91505061010083015184820361010086015261237582826121c7565b91505061012083015184820361012086015261239182826121c7565b9150506101408301518482036101408601526123ad82826121c7565b9150508091505092915050565b6000610160830160008301516123d360008601826124c5565b5060208301516123e66020860182612134565b5060408301516123f960408601826124c5565b50606083015161240c60608601826124c5565b50608083015161241f60808601826124c5565b5060a083015161243260a08601826121b8565b5060c083015184820360c086015261244a82826121c7565b91505060e083015184820360e086015261246482826121c7565b91505061010083015184820361010086015261248082826121c7565b91505061012083015184820361012086015261249c82826121c7565b9150506101408301518482036101408601526124b882826121c7565b9150508091505092915050565b6124ce8161271e565b82525050565b6124dd8161271e565b82525050565b60006040820190506124f86000830185612125565b61250560208301846124d4565b9392505050565b600060208201905081810360008301526125268184612143565b905092915050565b6000602082019050818103600083015261254781612200565b9050919050565b6000602082019050818103600083015261256781612223565b9050919050565b6000602082019050818103600083015261258781612246565b9050919050565b600060208201905081810360008301526125a781612269565b9050919050565b600060208201905081810360008301526125c78161228c565b9050919050565b600060208201905081810360008301526125e881846123ba565b905092915050565b6000819050602082019050919050565b600081519050919050565b600081519050919050565b6000602082019050919050565b600082825260208201905092915050565b600082825260208201905092915050565b600082825260208201905092915050565b60006126618261271e565b915061266c8361271e565b9250827fffffffffffffffffffffffffffffffffffffffffffffffffffffffffffffffff038211156126a1576126a061280c565b5b828201905092915050565b60006126b78261271e565b91506126c28361271e565b9250828210156126d5576126d461280c565b5b828203905092915050565b60006126eb826126fe565b9050919050565b60008115159050919050565b600073ffffffffffffffffffffffffffffffffffffffff82169050919050565b6000819050919050565b60006127338261273a565b9050919050565b60006127458261274c565b9050919050565b6000612757826126fe565b9050919050565b60005b8381101561277c578082015181840152602081019050612761565b8381111561278b576000848401525b50505050565b600060028204905060018216806127a957607f821691505b602082108114156127bd576127bc61283b565b5b50919050565b60006127ce8261271e565b91507fffffffffffffffffffffffffffffffffffffffffffffffffffffffffffffffff8214156128015761280061280c565b5b600182019050919050565b7f4e487b7100000000000000000000000000000000000000000000000000000000600052601160045260246000fd5b7f4e487b7100000000000000000000000000000000000000000000000000000000600052602260045260246000fd5b6000601f19601f8301169050919050565b7f546865207265717565737465642066756e6473206d757374206265206174206c60008201527f6561737420312077656900000000000000000000000000000000000000000000602082015250565b7f506c6561736520646f6e6174652061206d696e696d756d206f6620312077656960008201527f20696e206f7264657220746f20636f6d706c65746520746865206f706572617460208201527f696f6e0000000000000000000000000000000000000000000000000000000000604082015250565b7f4974656d20696420646f6573206e6f7420657869737400000000000000000000600082015250565b7f596f752063616e6e6f7420646f6e61746520746f20796f7572206f776e20667560008201527f6e64696e672063616d706169676e000000000000000000000000000000000000602082015250565b7f5265656e7472616e637947756172643a207265656e7472616e742063616c6c00600082015250565b6129e9816126e0565b81146129f457600080fd5b50565b612a008161271e565b8114612a0b57600080fd5b5056fea2646970667358221220dfd35cdb77d6b10455aab76674fbb9b588e8d9960bea07f3d8e0f1363d1c189d64736f6c63430008040033",
  "linkReferences": {},
  "deployedLinkReferences": {}
}