{
  "_format": "hh-sol-artifact-1",
  "contractName": "FundMarket",
  "sourceName": "contracts/Crowdfunding.sol",
  "abi": [
    {
      "anonymous": false,
      "inputs": [
        {
          "indexed": true,
          "internalType": "uint256",
          "name": "itemId",
          "type": "uint256"
        },
        {
          "indexed": false,
          "internalType": "address",
          "name": "campaignOwner",
          "type": "address"
        },
        {
          "indexed": false,
          "internalType": "uint256",
          "name": "FundsRequested",
          "type": "uint256"
        }
      ],
      "name": "CampaignStarted",
      "type": "event"
    },
    {
      "inputs": [
        {
          "internalType": "uint256",
          "name": "FundsRequested",
          "type": "uint256"
        },
        {
          "internalType": "string",
          "name": "title",
          "type": "string"
        },
        {
          "internalType": "string",
          "name": "description",
          "type": "string"
        },
        {
          "internalType": "string",
          "name": "info",
          "type": "string"
        },
        {
          "internalType": "string",
          "name": "url",
          "type": "string"
        },
        {
          "internalType": "string",
          "name": "ipfsHash",
          "type": "string"
        }
      ],
      "name": "createCampaign",
      "outputs": [],
      "stateMutability": "payable",
      "type": "function"
    },
    {
      "inputs": [
        {
          "internalType": "uint256",
          "name": "itemId",
          "type": "uint256"
        }
      ],
      "name": "donateCampaign",
      "outputs": [],
      "stateMutability": "payable",
      "type": "function"
    },
    {
      "inputs": [],
      "name": "fetchCampaigns",
      "outputs": [
        {
          "components": [
            {
              "internalType": "uint256",
              "name": "itemId",
              "type": "uint256"
            },
            {
              "internalType": "address payable",
              "name": "campaignOwner",
              "type": "address"
            },
            {
              "internalType": "uint256",
              "name": "FundsRequested",
              "type": "uint256"
            },
            {
              "internalType": "uint256",
              "name": "FundsCollected",
              "type": "uint256"
            },
            {
              "internalType": "uint256",
              "name": "totalDonators",
              "type": "uint256"
            },
            {
              "internalType": "bool",
              "name": "fundsReached",
              "type": "bool"
            },
            {
              "internalType": "string",
              "name": "title",
              "type": "string"
            },
            {
              "internalType": "string",
              "name": "description",
              "type": "string"
            },
            {
              "internalType": "string",
              "name": "info",
              "type": "string"
            },
            {
              "internalType": "string",
              "name": "url",
              "type": "string"
            },
            {
              "internalType": "string",
              "name": "ipfsHash",
              "type": "string"
            }
          ],
          "internalType": "struct FundMarket.FundingCampaign[]",
          "name": "",
          "type": "tuple[]"
        }
      ],
      "stateMutability": "view",
      "type": "function"
    },
    {
      "inputs": [
        {
          "internalType": "string",
          "name": "searchWord",
          "type": "string"
        }
      ],
      "name": "fetchCampaignsByWord",
      "outputs": [
        {
          "components": [
            {
              "internalType": "uint256",
              "name": "itemId",
              "type": "uint256"
            },
            {
              "internalType": "address payable",
              "name": "campaignOwner",
              "type": "address"
            },
            {
              "internalType": "uint256",
              "name": "FundsRequested",
              "type": "uint256"
            },
            {
              "internalType": "uint256",
              "name": "FundsCollected",
              "type": "uint256"
            },
            {
              "internalType": "uint256",
              "name": "totalDonators",
              "type": "uint256"
            },
            {
              "internalType": "bool",
              "name": "fundsReached",
              "type": "bool"
            },
            {
              "internalType": "string",
              "name": "title",
              "type": "string"
            },
            {
              "internalType": "string",
              "name": "description",
              "type": "string"
            },
            {
              "internalType": "string",
              "name": "info",
              "type": "string"
            },
            {
              "internalType": "string",
              "name": "url",
              "type": "string"
            },
            {
              "internalType": "string",
              "name": "ipfsHash",
              "type": "string"
            }
          ],
          "internalType": "struct FundMarket.FundingCampaign[]",
          "name": "",
          "type": "tuple[]"
        }
      ],
      "stateMutability": "view",
      "type": "function"
    },
    {
      "inputs": [],
      "name": "fetchMyCampaigns",
      "outputs": [
        {
          "components": [
            {
              "internalType": "uint256",
              "name": "itemId",
              "type": "uint256"
            },
            {
              "internalType": "address payable",
              "name": "campaignOwner",
              "type": "address"
            },
            {
              "internalType": "uint256",
              "name": "FundsRequested",
              "type": "uint256"
            },
            {
              "internalType": "uint256",
              "name": "FundsCollected",
              "type": "uint256"
            },
            {
              "internalType": "uint256",
              "name": "totalDonators",
              "type": "uint256"
            },
            {
              "internalType": "bool",
              "name": "fundsReached",
              "type": "bool"
            },
            {
              "internalType": "string",
              "name": "title",
              "type": "string"
            },
            {
              "internalType": "string",
              "name": "description",
              "type": "string"
            },
            {
              "internalType": "string",
              "name": "info",
              "type": "string"
            },
            {
              "internalType": "string",
              "name": "url",
              "type": "string"
            },
            {
              "internalType": "string",
              "name": "ipfsHash",
              "type": "string"
            }
          ],
          "internalType": "struct FundMarket.FundingCampaign[]",
          "name": "",
          "type": "tuple[]"
        }
      ],
      "stateMutability": "view",
      "type": "function"
    },
    {
      "inputs": [
        {
          "internalType": "uint256",
          "name": "itemId",
          "type": "uint256"
        }
      ],
      "name": "getCampaign",
      "outputs": [
        {
          "components": [
            {
              "internalType": "uint256",
              "name": "itemId",
              "type": "uint256"
            },
            {
              "internalType": "address payable",
              "name": "campaignOwner",
              "type": "address"
            },
            {
              "internalType": "uint256",
              "name": "FundsRequested",
              "type": "uint256"
            },
            {
              "internalType": "uint256",
              "name": "FundsCollected",
              "type": "uint256"
            },
            {
              "internalType": "uint256",
              "name": "totalDonators",
              "type": "uint256"
            },
            {
              "internalType": "bool",
              "name": "fundsReached",
              "type": "bool"
            },
            {
              "internalType": "string",
              "name": "title",
              "type": "string"
            },
            {
              "internalType": "string",
              "name": "description",
              "type": "string"
            },
            {
              "internalType": "string",
              "name": "info",
              "type": "string"
            },
            {
              "internalType": "string",
              "name": "url",
              "type": "string"
            },
            {
              "internalType": "string",
              "name": "ipfsHash",
              "type": "string"
            }
          ],
          "internalType": "struct FundMarket.FundingCampaign",
          "name": "",
          "type": "tuple"
        }
      ],
      "stateMutability": "view",
      "type": "function"
    }
  ],
  "bytecode": "0x608060405234801561001057600080fd5b5060016000819055506129db806100286000396000f3fe6080604052600436106100555760003560e01c806302dd4ab21461005a5780635598f8cc146100855780635ef5c9af146100c25780638ffff8b0146100ff578063c33d06fa1461011b578063dc64076714610146575b600080fd5b34801561006657600080fd5b5061006f610162565b60405161007c91906124ba565b60405180910390f35b34801561009157600080fd5b506100ac60048036038101906100a79190611f7d565b61070c565b6040516100b9919061257c565b60405180910390f35b3480156100ce57600080fd5b506100e960048036038101906100e49190611f38565b610aad565b6040516100f691906124ba565b60405180910390f35b61011960048036038101906101149190611f7d565b6110e7565b005b34801561012757600080fd5b50610130611352565b60405161013d91906124ba565b60405180910390f35b610160600480360381019061015b9190611fa6565b61183d565b005b606060006101706001611c2a565b905060008060005b83811015610208573373ffffffffffffffffffffffffffffffffffffffff166003600083815260200190815260200160002060010160009054906101000a900473ffffffffffffffffffffffffffffffffffffffff1673ffffffffffffffffffffffffffffffffffffffff1614156101f757816101f490612771565b91505b8061020190612771565b9050610178565b5060008167ffffffffffffffff81111561024b577f4e487b7100000000000000000000000000000000000000000000000000000000600052604160045260246000fd5b60405190808252806020026020018201604052801561028457816020015b610271611dc4565b8152602001906001900390816102695790505b50905060005b84811015610701573373ffffffffffffffffffffffffffffffffffffffff166003600083815260200190815260200160002060010160009054906101000a900473ffffffffffffffffffffffffffffffffffffffff1673ffffffffffffffffffffffffffffffffffffffff1614156106ee57600081905060006003600083815260200190815260200160002060405180610160016040529081600082015481526020016001820160009054906101000a900473ffffffffffffffffffffffffffffffffffffffff1673ffffffffffffffffffffffffffffffffffffffff1673ffffffffffffffffffffffffffffffffffffffff1681526020016002820154815260200160038201548152602001600482015481526020016005820160009054906101000a900460ff161515151581526020016006820180546103cb9061273f565b80601f01602080910402602001604051908101604052809291908181526020018280546103f79061273f565b80156104445780601f1061041957610100808354040283529160200191610444565b820191906000526020600020905b81548152906001019060200180831161042757829003601f168201915b5050505050815260200160078201805461045d9061273f565b80601f01602080910402602001604051908101604052809291908181526020018280546104899061273f565b80156104d65780601f106104ab576101008083540402835291602001916104d6565b820191906000526020600020905b8154815290600101906020018083116104b957829003601f168201915b505050505081526020016008820180546104ef9061273f565b80601f016020809104026020016040519081016040528092919081815260200182805461051b9061273f565b80156105685780601f1061053d57610100808354040283529160200191610568565b820191906000526020600020905b81548152906001019060200180831161054b57829003601f168201915b505050505081526020016009820180546105819061273f565b80601f01602080910402602001604051908101604052809291908181526020018280546105ad9061273f565b80156105fa5780601f106105cf576101008083540402835291602001916105fa565b820191906000526020600020905b8154815290600101906020018083116105dd57829003601f168201915b50505050508152602001600a820180546106139061273f565b80601f016020809104026020016040519081016040528092919081815260200182805461063f9061273f565b801561068c5780601f106106615761010080835404028352916020019161068c565b820191906000526020600020905b81548152906001019060200180831161066f57829003601f168201915b5050505050815250509050808487815181106106d1577f4e487b7100000000000000000000000000000000000000000000000000000000600052603260045260246000fd5b60200260200101819052506001866106e99190612604565b955050505b80806106f990612771565b91505061028a565b508094505050505090565b610714611dc4565b6003600083815260200190815260200160002060405180610160016040529081600082015481526020016001820160009054906101000a900473ffffffffffffffffffffffffffffffffffffffff1673ffffffffffffffffffffffffffffffffffffffff1673ffffffffffffffffffffffffffffffffffffffff1681526020016002820154815260200160038201548152602001600482015481526020016005820160009054906101000a900460ff161515151581526020016006820180546107dc9061273f565b80601f01602080910402602001604051908101604052809291908181526020018280546108089061273f565b80156108555780601f1061082a57610100808354040283529160200191610855565b820191906000526020600020905b81548152906001019060200180831161083857829003601f168201915b5050505050815260200160078201805461086e9061273f565b80601f016020809104026020016040519081016040528092919081815260200182805461089a9061273f565b80156108e75780601f106108bc576101008083540402835291602001916108e7565b820191906000526020600020905b8154815290600101906020018083116108ca57829003601f168201915b505050505081526020016008820180546109009061273f565b80601f016020809104026020016040519081016040528092919081815260200182805461092c9061273f565b80156109795780601f1061094e57610100808354040283529160200191610979565b820191906000526020600020905b81548152906001019060200180831161095c57829003601f168201915b505050505081526020016009820180546109929061273f565b80601f01602080910402602001604051908101604052809291908181526020018280546109be9061273f565b8015610a0b5780601f106109e057610100808354040283529160200191610a0b565b820191906000526020600020905b8154815290600101906020018083116109ee57829003601f168201915b50505050508152602001600a82018054610a249061273f565b80601f0160208091040260200160405190810160405280929190818152602001828054610a509061273f565b8015610a9d5780601f10610a7257610100808354040283529160200191610a9d565b820191906000526020600020905b815481529060010190602001808311610a8057829003601f168201915b5050505050815250509050919050565b60606000610abb6001611c2a565b90506000805b82811015610be3576000600360008381526020019081526020016000209050610bba87878080601f016020809104026020016040519081016040528093929190818152602001838380828437600081840152601f19601f82011690508083019250505050505050826006018054610b379061273f565b80601f0160208091040260200160405190810160405280929190818152602001828054610b639061273f565b8015610bb05780601f10610b8557610100808354040283529160200191610bb0565b820191906000526020600020905b815481529060010190602001808311610b9357829003601f168201915b5050505050611c38565b15610bcf57600183610bcc9190612604565b92505b508080610bdb90612771565b915050610ac1565b506000808267ffffffffffffffff811115610c27577f4e487b7100000000000000000000000000000000000000000000000000000000600052604160045260246000fd5b604051908082528060200260200182016040528015610c6057816020015b610c4d611dc4565b815260200190600190039081610c455790505b50905060008311156110da5760005b8481108015610c7d57508383105b156110d85760006003600083815260200190815260200160002060405180610160016040529081600082015481526020016001820160009054906101000a900473ffffffffffffffffffffffffffffffffffffffff1673ffffffffffffffffffffffffffffffffffffffff1673ffffffffffffffffffffffffffffffffffffffff1681526020016002820154815260200160038201548152602001600482015481526020016005820160009054906101000a900460ff16151515158152602001600682018054610d4c9061273f565b80601f0160208091040260200160405190810160405280929190818152602001828054610d789061273f565b8015610dc55780601f10610d9a57610100808354040283529160200191610dc5565b820191906000526020600020905b815481529060010190602001808311610da857829003601f168201915b50505050508152602001600782018054610dde9061273f565b80601f0160208091040260200160405190810160405280929190818152602001828054610e0a9061273f565b8015610e575780601f10610e2c57610100808354040283529160200191610e57565b820191906000526020600020905b815481529060010190602001808311610e3a57829003601f168201915b50505050508152602001600882018054610e709061273f565b80601f0160208091040260200160405190810160405280929190818152602001828054610e9c9061273f565b8015610ee95780601f10610ebe57610100808354040283529160200191610ee9565b820191906000526020600020905b815481529060010190602001808311610ecc57829003601f168201915b50505050508152602001600982018054610f029061273f565b80601f0160208091040260200160405190810160405280929190818152602001828054610f2e9061273f565b8015610f7b5780601f10610f5057610100808354040283529160200191610f7b565b820191906000526020600020905b815481529060010190602001808311610f5e57829003601f168201915b50505050508152602001600a82018054610f949061273f565b80601f0160208091040260200160405190810160405280929190818152602001828054610fc09061273f565b801561100d5780601f10610fe25761010080835404028352916020019161100d565b820191906000526020600020905b815481529060010190602001808311610ff057829003601f168201915b505050505081525050905061106a89898080601f016020809104026020016040519081016040528093929190818152602001838380828437600081840152601f19601f820116905080830192505050505050508260c00151611c38565b156110c457808385815181106110a9577f4e487b7100000000000000000000000000000000000000000000000000000000600052603260045260246000fd5b60200260200101819052506001846110c19190612604565b93505b5080806110d090612771565b915050610c6f565b505b8094505050505092915050565b6002600054141561112d576040517f08c379a00000000000000000000000000000000000000000000000000000000081526004016111249061255c565b60405180910390fd5b600260008190555061113f6001611c2a565b8110611180576040517f08c379a00000000000000000000000000000000000000000000000000000000081526004016111779061251c565b60405180910390fd5b600034116111c3576040517f08c379a00000000000000000000000000000000000000000000000000000000081526004016111ba906124fc565b60405180910390fd5b60006003600083815260200190815260200160002090508060010160009054906101000a900473ffffffffffffffffffffffffffffffffffffffff1673ffffffffffffffffffffffffffffffffffffffff163373ffffffffffffffffffffffffffffffffffffffff16141561126d576040517f08c379a00000000000000000000000000000000000000000000000000000000081526004016112649061253c565b60405180910390fd5b348160030160008282546112819190612604565b925050819055508060010160009054906101000a900473ffffffffffffffffffffffffffffffffffffffff1673ffffffffffffffffffffffffffffffffffffffff166108fc349081150290604051600060405180830381858888f193505050501580156112f2573d6000803e3d6000fd5b5060018160040160008282546113089190612604565b925050819055508060020154816003015410611346576113286002611dae565b60018160050160006101000a81548160ff0219169083151502179055505b50600160008190555050565b606060006113606001611c2a565b9050600061136e6002611c2a565b9050600080828461137f919061265a565b67ffffffffffffffff8111156113be577f4e487b7100000000000000000000000000000000000000000000000000000000600052604160045260246000fd5b6040519080825280602002602001820160405280156113f757816020015b6113e4611dc4565b8152602001906001900390816113dc5790505b50905060005b84811015611832576003600082815260200190815260200160002060050160009054906101000a900460ff1661181f57600081905060006003600083815260200190815260200160002060405180610160016040529081600082015481526020016001820160009054906101000a900473ffffffffffffffffffffffffffffffffffffffff1673ffffffffffffffffffffffffffffffffffffffff1673ffffffffffffffffffffffffffffffffffffffff1681526020016002820154815260200160038201548152602001600482015481526020016005820160009054906101000a900460ff161515151581526020016006820180546114fc9061273f565b80601f01602080910402602001604051908101604052809291908181526020018280546115289061273f565b80156115755780601f1061154a57610100808354040283529160200191611575565b820191906000526020600020905b81548152906001019060200180831161155857829003601f168201915b5050505050815260200160078201805461158e9061273f565b80601f01602080910402602001604051908101604052809291908181526020018280546115ba9061273f565b80156116075780601f106115dc57610100808354040283529160200191611607565b820191906000526020600020905b8154815290600101906020018083116115ea57829003601f168201915b505050505081526020016008820180546116209061273f565b80601f016020809104026020016040519081016040528092919081815260200182805461164c9061273f565b80156116995780601f1061166e57610100808354040283529160200191611699565b820191906000526020600020905b81548152906001019060200180831161167c57829003601f168201915b505050505081526020016009820180546116b29061273f565b80601f01602080910402602001604051908101604052809291908181526020018280546116de9061273f565b801561172b5780601f106117005761010080835404028352916020019161172b565b820191906000526020600020905b81548152906001019060200180831161170e57829003601f168201915b50505050508152602001600a820180546117449061273f565b80601f01602080910402602001604051908101604052809291908181526020018280546117709061273f565b80156117bd5780601f10611792576101008083540402835291602001916117bd565b820191906000526020600020905b8154815290600101906020018083116117a057829003601f168201915b505050505081525050905080848681518110611802577f4e487b7100000000000000000000000000000000000000000000000000000000600052603260045260246000fd5b602002602001018190525060018561181a9190612604565b945050505b808061182a90612771565b9150506113fd565b508094505050505090565b60026000541415611883576040517f08c379a000000000000000000000000000000000000000000000000000000000815260040161187a9061255c565b60405180910390fd5b600260008190555060008b116118ce576040517f08c379a00000000000000000000000000000000000000000000000000000000081526004016118c5906124dc565b60405180910390fd5b60006118da6001611c2a565b90506040518061016001604052808281526020013373ffffffffffffffffffffffffffffffffffffffff1681526020018d815260200160008152602001600081526020016000151581526020018c8c8080601f016020809104026020016040519081016040528093929190818152602001838380828437600081840152601f19601f8201169050808301925050505050505081526020018a8a8080601f016020809104026020016040519081016040528093929190818152602001838380828437600081840152601f19601f82011690508083019250505050505050815260200188888080601f016020809104026020016040519081016040528093929190818152602001838380828437600081840152601f19601f82011690508083019250505050505050815260200186868080601f016020809104026020016040519081016040528093929190818152602001838380828437600081840152601f19601f82011690508083019250505050505050815260200184848080601f016020809104026020016040519081016040528093929190818152602001838380828437600081840152601f19601f82011690508083019250505050505050815250600360008381526020019081526020016000206000820151816000015560208201518160010160006101000a81548173ffffffffffffffffffffffffffffffffffffffff021916908373ffffffffffffffffffffffffffffffffffffffff16021790555060408201518160020155606082015181600301556080820151816004015560a08201518160050160006101000a81548160ff02191690831515021790555060c0820151816006019080519060200190611b55929190611e36565b5060e0820151816007019080519060200190611b72929190611e36565b50610100820151816008019080519060200190611b90929190611e36565b50610120820151816009019080519060200190611bae929190611e36565b5061014082015181600a019080519060200190611bcc929190611e36565b50905050807fd8737c21c8c06f7ea4e9e3a837adff6378cc6587c210895878835a452f8c8983338e604051611c02929190612491565b60405180910390a2611c146001611dae565b5060016000819055505050505050505050505050565b600081600001549050919050565b60008083905060008390506000825182511015611c5a57809350505050611da8565b60005b83518351611c6b919061265a565b8111611da05760006001905060005b8551811015611d7b57858181518110611cbc577f4e487b7100000000000000000000000000000000000000000000000000000000600052603260045260246000fd5b602001015160f81c60f81b7effffffffffffffffffffffffffffffffffffffffffffffffffffffffffffff1916858285611cf69190612604565b81518110611d2d577f4e487b7100000000000000000000000000000000000000000000000000000000600052603260045260246000fd5b602001015160f81c60f81b7effffffffffffffffffffffffffffffffffffffffffffffffffffffffffffff191614611d685760009150611d7b565b8080611d7390612771565b915050611c7a565b508015611d8c576001925050611da0565b508080611d9890612771565b915050611c5d565b508093505050505b92915050565b6001816000016000828254019250508190555050565b60405180610160016040528060008152602001600073ffffffffffffffffffffffffffffffffffffffff16815260200160008152602001600081526020016000815260200160001515815260200160608152602001606081526020016060815260200160608152602001606081525090565b828054611e429061273f565b90600052602060002090601f016020900481019282611e645760008555611eab565b82601f10611e7d57805160ff1916838001178555611eab565b82800160010185558215611eab579182015b82811115611eaa578251825591602001919060010190611e8f565b5b509050611eb89190611ebc565b5090565b5b80821115611ed5576000816000905550600101611ebd565b5090565b60008083601f840112611eeb57600080fd5b8235905067ffffffffffffffff811115611f0457600080fd5b602083019150836001820283011115611f1c57600080fd5b9250929050565b600081359050611f328161298e565b92915050565b60008060208385031215611f4b57600080fd5b600083013567ffffffffffffffff811115611f6557600080fd5b611f7185828601611ed9565b92509250509250929050565b600060208284031215611f8f57600080fd5b6000611f9d84828501611f23565b91505092915050565b600080600080600080600080600080600060c08c8e031215611fc757600080fd5b6000611fd58e828f01611f23565b9b505060208c013567ffffffffffffffff811115611ff257600080fd5b611ffe8e828f01611ed9565b9a509a505060408c013567ffffffffffffffff81111561201d57600080fd5b6120298e828f01611ed9565b985098505060608c013567ffffffffffffffff81111561204857600080fd5b6120548e828f01611ed9565b965096505060808c013567ffffffffffffffff81111561207357600080fd5b61207f8e828f01611ed9565b945094505060a08c013567ffffffffffffffff81111561209e57600080fd5b6120aa8e828f01611ed9565b92509250509295989b509295989b9093969950565b60006120cb838361225d565b905092915050565b6120dc816126d6565b82525050565b6120eb8161268e565b82525050565b60006120fc826125ae565b61210681856125d1565b9350836020820285016121188561259e565b8060005b85811015612154578484038952815161213585826120bf565b9450612140836125c4565b925060208a0199505060018101905061211c565b50829750879550505050505092915050565b61216f816126a0565b82525050565b6000612180826125b9565b61218a81856125e2565b935061219a81856020860161270c565b6121a381612818565b840191505092915050565b60006121bb602a836125f3565b91506121c682612829565b604082019050919050565b60006121de6043836125f3565b91506121e982612878565b606082019050919050565b60006122016016836125f3565b915061220c826128ed565b602082019050919050565b6000612224602e836125f3565b915061222f82612916565b604082019050919050565b6000612247601f836125f3565b915061225282612965565b602082019050919050565b6000610160830160008301516122766000860182612473565b50602083015161228960208601826120e2565b50604083015161229c6040860182612473565b5060608301516122af6060860182612473565b5060808301516122c26080860182612473565b5060a08301516122d560a0860182612166565b5060c083015184820360c08601526122ed8282612175565b91505060e083015184820360e08601526123078282612175565b9150506101008301518482036101008601526123238282612175565b91505061012083015184820361012086015261233f8282612175565b91505061014083015184820361014086015261235b8282612175565b9150508091505092915050565b6000610160830160008301516123816000860182612473565b50602083015161239460208601826120e2565b5060408301516123a76040860182612473565b5060608301516123ba6060860182612473565b5060808301516123cd6080860182612473565b5060a08301516123e060a0860182612166565b5060c083015184820360c08601526123f88282612175565b91505060e083015184820360e08601526124128282612175565b91505061010083015184820361010086015261242e8282612175565b91505061012083015184820361012086015261244a8282612175565b9150506101408301518482036101408601526124668282612175565b9150508091505092915050565b61247c816126cc565b82525050565b61248b816126cc565b82525050565b60006040820190506124a660008301856120d3565b6124b36020830184612482565b9392505050565b600060208201905081810360008301526124d481846120f1565b905092915050565b600060208201905081810360008301526124f5816121ae565b9050919050565b60006020820190508181036000830152612515816121d1565b9050919050565b60006020820190508181036000830152612535816121f4565b9050919050565b6000602082019050818103600083015261255581612217565b9050919050565b600060208201905081810360008301526125758161223a565b9050919050565b600060208201905081810360008301526125968184612368565b905092915050565b6000819050602082019050919050565b600081519050919050565b600081519050919050565b6000602082019050919050565b600082825260208201905092915050565b600082825260208201905092915050565b600082825260208201905092915050565b600061260f826126cc565b915061261a836126cc565b9250827fffffffffffffffffffffffffffffffffffffffffffffffffffffffffffffffff0382111561264f5761264e6127ba565b5b828201905092915050565b6000612665826126cc565b9150612670836126cc565b925082821015612683576126826127ba565b5b828203905092915050565b6000612699826126ac565b9050919050565b60008115159050919050565b600073ffffffffffffffffffffffffffffffffffffffff82169050919050565b6000819050919050565b60006126e1826126e8565b9050919050565b60006126f3826126fa565b9050919050565b6000612705826126ac565b9050919050565b60005b8381101561272a57808201518184015260208101905061270f565b83811115612739576000848401525b50505050565b6000600282049050600182168061275757607f821691505b6020821081141561276b5761276a6127e9565b5b50919050565b600061277c826126cc565b91507fffffffffffffffffffffffffffffffffffffffffffffffffffffffffffffffff8214156127af576127ae6127ba565b5b600182019050919050565b7f4e487b7100000000000000000000000000000000000000000000000000000000600052601160045260246000fd5b7f4e487b7100000000000000000000000000000000000000000000000000000000600052602260045260246000fd5b6000601f19601f8301169050919050565b7f546865207265717565737465642066756e6473206d757374206265206174206c60008201527f6561737420312077656900000000000000000000000000000000000000000000602082015250565b7f506c6561736520646f6e6174652061206d696e696d756d206f6620312077656960008201527f20696e206f7264657220746f20636f6d706c65746520746865206f706572617460208201527f696f6e0000000000000000000000000000000000000000000000000000000000604082015250565b7f4974656d20696420646f6573206e6f7420657869737400000000000000000000600082015250565b7f596f752063616e6e6f7420646f6e61746520746f20796f7572206f776e20667560008201527f6e64696e672063616d706169676e000000000000000000000000000000000000602082015250565b7f5265656e7472616e637947756172643a207265656e7472616e742063616c6c00600082015250565b612997816126cc565b81146129a257600080fd5b5056fea2646970667358221220f2bc35ff7af282e2eb89a1a5eee92e19b6362e0a2a3ce3a243ca739ec4d038d864736f6c63430008040033",
  "linkReferences": {},
  "deployedLinkReferences": {}
}