{
  "_format": "hh-sol-artifact-1",
  "contractName": "FundMarket",
  "sourceName": "contracts/Crowdfunding.sol",
  "abi": [
    {
      "anonymous": false,
      "inputs": [
        {
          "indexed": true,
          "internalType": "uint256",
          "name": "itemId",
          "type": "uint256"
        },
        {
          "indexed": false,
          "internalType": "address",
          "name": "campaignOwner",
          "type": "address"
        },
        {
          "indexed": false,
          "internalType": "uint256",
          "name": "FundsRequested",
          "type": "uint256"
        }
      ],
      "name": "CampaignStarted",
      "type": "event"
    },
    {
      "inputs": [
        {
          "internalType": "uint256",
          "name": "FundsRequested",
          "type": "uint256"
        }
      ],
      "name": "createCampaign",
      "outputs": [],
      "stateMutability": "payable",
      "type": "function"
    },
    {
      "inputs": [
        {
          "internalType": "uint256",
          "name": "itemId",
          "type": "uint256"
        }
      ],
      "name": "donateCampaign",
      "outputs": [],
      "stateMutability": "payable",
      "type": "function"
    },
    {
      "inputs": [],
      "name": "fetchCampaigns",
      "outputs": [
        {
          "components": [
            {
              "internalType": "uint256",
              "name": "itemId",
              "type": "uint256"
            },
            {
              "internalType": "address payable",
              "name": "campaignOwner",
              "type": "address"
            },
            {
              "internalType": "uint256",
              "name": "FundsRequested",
              "type": "uint256"
            },
            {
              "internalType": "uint256",
              "name": "FundsCollected",
              "type": "uint256"
            },
            {
              "internalType": "uint256",
              "name": "totalDonators",
              "type": "uint256"
            },
            {
              "internalType": "bool",
              "name": "fundsReached",
              "type": "bool"
            },
            {
              "internalType": "string",
              "name": "info",
              "type": "string"
            },
            {
              "internalType": "string",
              "name": "url",
              "type": "string"
            }
          ],
          "internalType": "struct FundMarket.FundingCampaign[]",
          "name": "",
          "type": "tuple[]"
        }
      ],
      "stateMutability": "view",
      "type": "function"
    },
    {
      "inputs": [],
      "name": "fetchMyCampaigns",
      "outputs": [
        {
          "components": [
            {
              "internalType": "uint256",
              "name": "itemId",
              "type": "uint256"
            },
            {
              "internalType": "address payable",
              "name": "campaignOwner",
              "type": "address"
            },
            {
              "internalType": "uint256",
              "name": "FundsRequested",
              "type": "uint256"
            },
            {
              "internalType": "uint256",
              "name": "FundsCollected",
              "type": "uint256"
            },
            {
              "internalType": "uint256",
              "name": "totalDonators",
              "type": "uint256"
            },
            {
              "internalType": "bool",
              "name": "fundsReached",
              "type": "bool"
            },
            {
              "internalType": "string",
              "name": "info",
              "type": "string"
            },
            {
              "internalType": "string",
              "name": "url",
              "type": "string"
            }
          ],
          "internalType": "struct FundMarket.FundingCampaign[]",
          "name": "",
          "type": "tuple[]"
        }
      ],
      "stateMutability": "view",
      "type": "function"
    },
    {
      "inputs": [
        {
          "internalType": "uint256",
          "name": "itemId",
          "type": "uint256"
        }
      ],
      "name": "getCampaign",
      "outputs": [
        {
          "components": [
            {
              "internalType": "uint256",
              "name": "itemId",
              "type": "uint256"
            },
            {
              "internalType": "address payable",
              "name": "campaignOwner",
              "type": "address"
            },
            {
              "internalType": "uint256",
              "name": "FundsRequested",
              "type": "uint256"
            },
            {
              "internalType": "uint256",
              "name": "FundsCollected",
              "type": "uint256"
            },
            {
              "internalType": "uint256",
              "name": "totalDonators",
              "type": "uint256"
            },
            {
              "internalType": "bool",
              "name": "fundsReached",
              "type": "bool"
            },
            {
              "internalType": "string",
              "name": "info",
              "type": "string"
            },
            {
              "internalType": "string",
              "name": "url",
              "type": "string"
            }
          ],
          "internalType": "struct FundMarket.FundingCampaign",
          "name": "",
          "type": "tuple"
        }
      ],
      "stateMutability": "view",
      "type": "function"
    }
  ],
  "bytecode": "0x608060405234801561001057600080fd5b5060016000819055506118fc806100286000396000f3fe60806040526004361061004a5760003560e01c806302dd4ab21461004f5780635598f8cc1461007a5780638ffff8b0146100b7578063a3303a75146100d3578063c33d06fa146100ef575b600080fd5b34801561005b57600080fd5b5061006461011a565b60405161007191906113db565b60405180910390f35b34801561008657600080fd5b506100a1600480360381019061009c919061105f565b61050e565b6040516100ae919061149d565b60405180910390f35b6100d160048036038101906100cc919061105f565b6106f9565b005b6100ed60048036038101906100e8919061105f565b610964565b005b3480156100fb57600080fd5b50610104610bf1565b60405161011191906113db565b60405180910390f35b606060006101286001610f26565b905060008060005b838110156101c0573373ffffffffffffffffffffffffffffffffffffffff166003600083815260200190815260200160002060010160009054906101000a900473ffffffffffffffffffffffffffffffffffffffff1673ffffffffffffffffffffffffffffffffffffffff1614156101af57816101ac90611692565b91505b806101b990611692565b9050610130565b5060008167ffffffffffffffff811115610203577f4e487b7100000000000000000000000000000000000000000000000000000000600052604160045260246000fd5b60405190808252806020026020018201604052801561023c57816020015b610229610f4a565b8152602001906001900390816102215790505b50905060005b84811015610503573373ffffffffffffffffffffffffffffffffffffffff166003600083815260200190815260200160002060010160009054906101000a900473ffffffffffffffffffffffffffffffffffffffff1673ffffffffffffffffffffffffffffffffffffffff1614156104f057600081905060006003600083815260200190815260200160002060405180610100016040529081600082015481526020016001820160009054906101000a900473ffffffffffffffffffffffffffffffffffffffff1673ffffffffffffffffffffffffffffffffffffffff1673ffffffffffffffffffffffffffffffffffffffff1681526020016002820154815260200160038201548152602001600482015481526020016005820160009054906101000a900460ff1615151515815260200160068201805461038390611660565b80601f01602080910402602001604051908101604052809291908181526020018280546103af90611660565b80156103fc5780601f106103d1576101008083540402835291602001916103fc565b820191906000526020600020905b8154815290600101906020018083116103df57829003601f168201915b5050505050815260200160078201805461041590611660565b80601f016020809104026020016040519081016040528092919081815260200182805461044190611660565b801561048e5780601f106104635761010080835404028352916020019161048e565b820191906000526020600020905b81548152906001019060200180831161047157829003601f168201915b5050505050815250509050808487815181106104d3577f4e487b7100000000000000000000000000000000000000000000000000000000600052603260045260246000fd5b60200260200101819052506001866104eb9190611525565b955050505b80806104fb90611692565b915050610242565b508094505050505090565b610516610f4a565b6003600083815260200190815260200160002060405180610100016040529081600082015481526020016001820160009054906101000a900473ffffffffffffffffffffffffffffffffffffffff1673ffffffffffffffffffffffffffffffffffffffff1673ffffffffffffffffffffffffffffffffffffffff1681526020016002820154815260200160038201548152602001600482015481526020016005820160009054906101000a900460ff161515151581526020016006820180546105de90611660565b80601f016020809104026020016040519081016040528092919081815260200182805461060a90611660565b80156106575780601f1061062c57610100808354040283529160200191610657565b820191906000526020600020905b81548152906001019060200180831161063a57829003601f168201915b5050505050815260200160078201805461067090611660565b80601f016020809104026020016040519081016040528092919081815260200182805461069c90611660565b80156106e95780601f106106be576101008083540402835291602001916106e9565b820191906000526020600020905b8154815290600101906020018083116106cc57829003601f168201915b5050505050815250509050919050565b6002600054141561073f576040517f08c379a00000000000000000000000000000000000000000000000000000000081526004016107369061147d565b60405180910390fd5b60026000819055506107516001610f26565b8110610792576040517f08c379a00000000000000000000000000000000000000000000000000000000081526004016107899061143d565b60405180910390fd5b600034116107d5576040517f08c379a00000000000000000000000000000000000000000000000000000000081526004016107cc9061141d565b60405180910390fd5b60006003600083815260200190815260200160002090508060010160009054906101000a900473ffffffffffffffffffffffffffffffffffffffff1673ffffffffffffffffffffffffffffffffffffffff163373ffffffffffffffffffffffffffffffffffffffff16141561087f576040517f08c379a00000000000000000000000000000000000000000000000000000000081526004016108769061145d565b60405180910390fd5b348160030160008282546108939190611525565b925050819055508060010160009054906101000a900473ffffffffffffffffffffffffffffffffffffffff1673ffffffffffffffffffffffffffffffffffffffff166108fc349081150290604051600060405180830381858888f19350505050158015610904573d6000803e3d6000fd5b50600181600401600082825461091a9190611525565b9250508190555080600201548160030154106109585761093a6002610f34565b60018160050160006101000a81548160ff0219169083151502179055505b50600160008190555050565b600260005414156109aa576040517f08c379a00000000000000000000000000000000000000000000000000000000081526004016109a19061147d565b60405180910390fd5b6002600081905550600081116109f5576040517f08c379a00000000000000000000000000000000000000000000000000000000081526004016109ec906113fd565b60405180910390fd5b6000610a016001610f26565b90506040518061010001604052808281526020013373ffffffffffffffffffffffffffffffffffffffff16815260200183815260200160008152602001600081526020016000151581526020016040518060400160405280600b81526020017f626c6120626c6120626c6100000000000000000000000000000000000000000081525081526020016040518060400160405280601081526020017f7777772e61726e6175626f792e636f6d00000000000000000000000000000000815250815250600360008381526020019081526020016000206000820151816000015560208201518160010160006101000a81548173ffffffffffffffffffffffffffffffffffffffff021916908373ffffffffffffffffffffffffffffffffffffffff16021790555060408201518160020155606082015181600301556080820151816004015560a08201518160050160006101000a81548160ff02191690831515021790555060c0820151816006019080519060200190610b80929190610fa7565b5060e0820151816007019080519060200190610b9d929190610fa7565b50905050807fd8737c21c8c06f7ea4e9e3a837adff6378cc6587c210895878835a452f8c89833384604051610bd39291906113b2565b60405180910390a2610be56001610f34565b50600160008190555050565b60606000610bff6001610f26565b90506000610c0d6002610f26565b90506000808284610c1e919061157b565b67ffffffffffffffff811115610c5d577f4e487b7100000000000000000000000000000000000000000000000000000000600052604160045260246000fd5b604051908082528060200260200182016040528015610c9657816020015b610c83610f4a565b815260200190600190039081610c7b5790505b50905060005b84811015610f1b576003600082815260200190815260200160002060050160009054906101000a900460ff16610f0857600081905060006003600083815260200190815260200160002060405180610100016040529081600082015481526020016001820160009054906101000a900473ffffffffffffffffffffffffffffffffffffffff1673ffffffffffffffffffffffffffffffffffffffff1673ffffffffffffffffffffffffffffffffffffffff1681526020016002820154815260200160038201548152602001600482015481526020016005820160009054906101000a900460ff16151515158152602001600682018054610d9b90611660565b80601f0160208091040260200160405190810160405280929190818152602001828054610dc790611660565b8015610e145780601f10610de957610100808354040283529160200191610e14565b820191906000526020600020905b815481529060010190602001808311610df757829003601f168201915b50505050508152602001600782018054610e2d90611660565b80601f0160208091040260200160405190810160405280929190818152602001828054610e5990611660565b8015610ea65780601f10610e7b57610100808354040283529160200191610ea6565b820191906000526020600020905b815481529060010190602001808311610e8957829003601f168201915b505050505081525050905080848681518110610eeb577f4e487b7100000000000000000000000000000000000000000000000000000000600052603260045260246000fd5b6020026020010181905250600185610f039190611525565b945050505b8080610f1390611692565b915050610c9c565b508094505050505090565b600081600001549050919050565b6001816000016000828254019250508190555050565b60405180610100016040528060008152602001600073ffffffffffffffffffffffffffffffffffffffff16815260200160008152602001600081526020016000815260200160001515815260200160608152602001606081525090565b828054610fb390611660565b90600052602060002090601f016020900481019282610fd5576000855561101c565b82601f10610fee57805160ff191683800117855561101c565b8280016001018555821561101c579182015b8281111561101b578251825591602001919060010190611000565b5b509050611029919061102d565b5090565b5b8082111561104657600081600090555060010161102e565b5090565b600081359050611059816118af565b92915050565b60006020828403121561107157600080fd5b600061107f8482850161104a565b91505092915050565b60006110948383611226565b905092915050565b6110a5816115f7565b82525050565b6110b4816115af565b82525050565b60006110c5826114cf565b6110cf81856114f2565b9350836020820285016110e1856114bf565b8060005b8581101561111d57848403895281516110fe8582611088565b9450611109836114e5565b925060208a019950506001810190506110e5565b50829750879550505050505092915050565b611138816115c1565b82525050565b6000611149826114da565b6111538185611503565b935061116381856020860161162d565b61116c81611739565b840191505092915050565b6000611184602a83611514565b915061118f8261174a565b604082019050919050565b60006111a7604383611514565b91506111b282611799565b606082019050919050565b60006111ca601683611514565b91506111d58261180e565b602082019050919050565b60006111ed602e83611514565b91506111f882611837565b604082019050919050565b6000611210601f83611514565b915061121b82611886565b602082019050919050565b60006101008301600083015161123f6000860182611394565b50602083015161125260208601826110ab565b5060408301516112656040860182611394565b5060608301516112786060860182611394565b50608083015161128b6080860182611394565b5060a083015161129e60a086018261112f565b5060c083015184820360c08601526112b6828261113e565b91505060e083015184820360e08601526112d0828261113e565b9150508091505092915050565b6000610100830160008301516112f66000860182611394565b50602083015161130960208601826110ab565b50604083015161131c6040860182611394565b50606083015161132f6060860182611394565b5060808301516113426080860182611394565b5060a083015161135560a086018261112f565b5060c083015184820360c086015261136d828261113e565b91505060e083015184820360e0860152611387828261113e565b9150508091505092915050565b61139d816115ed565b82525050565b6113ac816115ed565b82525050565b60006040820190506113c7600083018561109c565b6113d460208301846113a3565b9392505050565b600060208201905081810360008301526113f581846110ba565b905092915050565b6000602082019050818103600083015261141681611177565b9050919050565b600060208201905081810360008301526114368161119a565b9050919050565b60006020820190508181036000830152611456816111bd565b9050919050565b60006020820190508181036000830152611476816111e0565b9050919050565b6000602082019050818103600083015261149681611203565b9050919050565b600060208201905081810360008301526114b781846112dd565b905092915050565b6000819050602082019050919050565b600081519050919050565b600081519050919050565b6000602082019050919050565b600082825260208201905092915050565b600082825260208201905092915050565b600082825260208201905092915050565b6000611530826115ed565b915061153b836115ed565b9250827fffffffffffffffffffffffffffffffffffffffffffffffffffffffffffffffff038211156115705761156f6116db565b5b828201905092915050565b6000611586826115ed565b9150611591836115ed565b9250828210156115a4576115a36116db565b5b828203905092915050565b60006115ba826115cd565b9050919050565b60008115159050919050565b600073ffffffffffffffffffffffffffffffffffffffff82169050919050565b6000819050919050565b600061160282611609565b9050919050565b60006116148261161b565b9050919050565b6000611626826115cd565b9050919050565b60005b8381101561164b578082015181840152602081019050611630565b8381111561165a576000848401525b50505050565b6000600282049050600182168061167857607f821691505b6020821081141561168c5761168b61170a565b5b50919050565b600061169d826115ed565b91507fffffffffffffffffffffffffffffffffffffffffffffffffffffffffffffffff8214156116d0576116cf6116db565b5b600182019050919050565b7f4e487b7100000000000000000000000000000000000000000000000000000000600052601160045260246000fd5b7f4e487b7100000000000000000000000000000000000000000000000000000000600052602260045260246000fd5b6000601f19601f8301169050919050565b7f546865207265717565737465642066756e6473206d757374206265206174206c60008201527f6561737420312077656900000000000000000000000000000000000000000000602082015250565b7f506c6561736520646f6e6174652061206d696e696d756d206f6620312077656960008201527f20696e206f7264657220746f20636f6d706c65746520746865206f706572617460208201527f696f6e0000000000000000000000000000000000000000000000000000000000604082015250565b7f4974656d20696420646f6573206e6f7420657869737400000000000000000000600082015250565b7f596f752063616e6e6f7420646f6e61746520746f20796f7572206f776e20667560008201527f6e64696e672063616d706169676e000000000000000000000000000000000000602082015250565b7f5265656e7472616e637947756172643a207265656e7472616e742063616c6c00600082015250565b6118b8816115ed565b81146118c357600080fd5b5056fea2646970667358221220c8db13ca8367627b045639e3586c249b0009d4146fc7b366cebf77aa12c401b864736f6c63430008040033",
  "linkReferences": {},
  "deployedLinkReferences": {}
}