{
  "_format": "hh-sol-artifact-1",
  "contractName": "FundMarket",
  "sourceName": "contracts/Crowdfunding.sol",
  "abi": [
    {
      "anonymous": false,
      "inputs": [
        {
          "indexed": true,
          "internalType": "uint256",
          "name": "itemId",
          "type": "uint256"
        },
        {
          "indexed": false,
          "internalType": "address",
          "name": "campaignOwner",
          "type": "address"
        },
        {
          "indexed": false,
          "internalType": "uint256",
          "name": "FundsRequested",
          "type": "uint256"
        }
      ],
      "name": "CampaignStarted",
      "type": "event"
    },
    {
      "inputs": [
        {
          "internalType": "uint256",
          "name": "FundsRequested",
          "type": "uint256"
        },
        {
          "internalType": "string",
          "name": "title",
          "type": "string"
        },
        {
          "internalType": "string",
          "name": "description",
          "type": "string"
        },
        {
          "internalType": "string",
          "name": "info",
          "type": "string"
        },
        {
          "internalType": "string",
          "name": "url",
          "type": "string"
        },
        {
          "internalType": "string",
          "name": "ipfsHash",
          "type": "string"
        }
      ],
      "name": "createCampaign",
      "outputs": [],
      "stateMutability": "payable",
      "type": "function"
    },
    {
      "inputs": [
        {
          "internalType": "uint256",
          "name": "itemId",
          "type": "uint256"
        }
      ],
      "name": "donateCampaign",
      "outputs": [],
      "stateMutability": "payable",
      "type": "function"
    },
    {
      "inputs": [],
      "name": "fetchCampaigns",
      "outputs": [
        {
          "components": [
            {
              "internalType": "uint256",
              "name": "itemId",
              "type": "uint256"
            },
            {
              "internalType": "address payable",
              "name": "campaignOwner",
              "type": "address"
            },
            {
              "internalType": "uint256",
              "name": "FundsRequested",
              "type": "uint256"
            },
            {
              "internalType": "uint256",
              "name": "FundsCollected",
              "type": "uint256"
            },
            {
              "internalType": "uint256",
              "name": "totalDonators",
              "type": "uint256"
            },
            {
              "internalType": "bool",
              "name": "fundsReached",
              "type": "bool"
            },
            {
              "internalType": "string",
              "name": "title",
              "type": "string"
            },
            {
              "internalType": "string",
              "name": "description",
              "type": "string"
            },
            {
              "internalType": "string",
              "name": "info",
              "type": "string"
            },
            {
              "internalType": "string",
              "name": "url",
              "type": "string"
            },
            {
              "internalType": "string",
              "name": "ipfsHash",
              "type": "string"
            }
          ],
          "internalType": "struct FundMarket.FundingCampaign[]",
          "name": "",
          "type": "tuple[]"
        }
      ],
      "stateMutability": "view",
      "type": "function"
    },
    {
      "inputs": [
        {
          "internalType": "string",
          "name": "searchWord",
          "type": "string"
        }
      ],
      "name": "fetchCampaignsByWord",
      "outputs": [
        {
          "components": [
            {
              "internalType": "uint256",
              "name": "itemId",
              "type": "uint256"
            },
            {
              "internalType": "address payable",
              "name": "campaignOwner",
              "type": "address"
            },
            {
              "internalType": "uint256",
              "name": "FundsRequested",
              "type": "uint256"
            },
            {
              "internalType": "uint256",
              "name": "FundsCollected",
              "type": "uint256"
            },
            {
              "internalType": "uint256",
              "name": "totalDonators",
              "type": "uint256"
            },
            {
              "internalType": "bool",
              "name": "fundsReached",
              "type": "bool"
            },
            {
              "internalType": "string",
              "name": "title",
              "type": "string"
            },
            {
              "internalType": "string",
              "name": "description",
              "type": "string"
            },
            {
              "internalType": "string",
              "name": "info",
              "type": "string"
            },
            {
              "internalType": "string",
              "name": "url",
              "type": "string"
            },
            {
              "internalType": "string",
              "name": "ipfsHash",
              "type": "string"
            }
          ],
          "internalType": "struct FundMarket.FundingCampaign[]",
          "name": "",
          "type": "tuple[]"
        }
      ],
      "stateMutability": "view",
      "type": "function"
    },
    {
      "inputs": [],
      "name": "fetchMyCampaigns",
      "outputs": [
        {
          "components": [
            {
              "internalType": "uint256",
              "name": "itemId",
              "type": "uint256"
            },
            {
              "internalType": "address payable",
              "name": "campaignOwner",
              "type": "address"
            },
            {
              "internalType": "uint256",
              "name": "FundsRequested",
              "type": "uint256"
            },
            {
              "internalType": "uint256",
              "name": "FundsCollected",
              "type": "uint256"
            },
            {
              "internalType": "uint256",
              "name": "totalDonators",
              "type": "uint256"
            },
            {
              "internalType": "bool",
              "name": "fundsReached",
              "type": "bool"
            },
            {
              "internalType": "string",
              "name": "title",
              "type": "string"
            },
            {
              "internalType": "string",
              "name": "description",
              "type": "string"
            },
            {
              "internalType": "string",
              "name": "info",
              "type": "string"
            },
            {
              "internalType": "string",
              "name": "url",
              "type": "string"
            },
            {
              "internalType": "string",
              "name": "ipfsHash",
              "type": "string"
            }
          ],
          "internalType": "struct FundMarket.FundingCampaign[]",
          "name": "",
          "type": "tuple[]"
        }
      ],
      "stateMutability": "view",
      "type": "function"
    },
    {
      "inputs": [
        {
          "internalType": "uint256",
          "name": "itemId",
          "type": "uint256"
        }
      ],
      "name": "getCampaign",
      "outputs": [
        {
          "components": [
            {
              "internalType": "uint256",
              "name": "itemId",
              "type": "uint256"
            },
            {
              "internalType": "address payable",
              "name": "campaignOwner",
              "type": "address"
            },
            {
              "internalType": "uint256",
              "name": "FundsRequested",
              "type": "uint256"
            },
            {
              "internalType": "uint256",
              "name": "FundsCollected",
              "type": "uint256"
            },
            {
              "internalType": "uint256",
              "name": "totalDonators",
              "type": "uint256"
            },
            {
              "internalType": "bool",
              "name": "fundsReached",
              "type": "bool"
            },
            {
              "internalType": "string",
              "name": "title",
              "type": "string"
            },
            {
              "internalType": "string",
              "name": "description",
              "type": "string"
            },
            {
              "internalType": "string",
              "name": "info",
              "type": "string"
            },
            {
              "internalType": "string",
              "name": "url",
              "type": "string"
            },
            {
              "internalType": "string",
              "name": "ipfsHash",
              "type": "string"
            }
          ],
          "internalType": "struct FundMarket.FundingCampaign",
          "name": "",
          "type": "tuple"
        }
      ],
      "stateMutability": "view",
      "type": "function"
    }
  ],
  "bytecode": "0x608060405234801561001057600080fd5b506001600081905550612c7e806100286000396000f3fe6080604052600436106100555760003560e01c806302dd4ab21461005a5780635598f8cc146100855780635ef5c9af146100c25780638ffff8b0146100ff578063c33d06fa1461011b578063dc64076714610146575b600080fd5b34801561006657600080fd5b5061006f610162565b60405161007c919061275d565b60405180910390f35b34801561009157600080fd5b506100ac60048036038101906100a79190612220565b61070c565b6040516100b9919061281f565b60405180910390f35b3480156100ce57600080fd5b506100e960048036038101906100e491906121db565b610aad565b6040516100f6919061275d565b60405180910390f35b61011960048036038101906101149190612220565b61134d565b005b34801561012757600080fd5b506101306115b8565b60405161013d919061275d565b60405180910390f35b610160600480360381019061015b9190612249565b611aa3565b005b606060006101706001611e90565b905060008060005b83811015610208573373ffffffffffffffffffffffffffffffffffffffff166003600083815260200190815260200160002060010160009054906101000a900473ffffffffffffffffffffffffffffffffffffffff1673ffffffffffffffffffffffffffffffffffffffff1614156101f757816101f490612a14565b91505b8061020190612a14565b9050610178565b5060008167ffffffffffffffff81111561024b577f4e487b7100000000000000000000000000000000000000000000000000000000600052604160045260246000fd5b60405190808252806020026020018201604052801561028457816020015b610271612067565b8152602001906001900390816102695790505b50905060005b84811015610701573373ffffffffffffffffffffffffffffffffffffffff166003600083815260200190815260200160002060010160009054906101000a900473ffffffffffffffffffffffffffffffffffffffff1673ffffffffffffffffffffffffffffffffffffffff1614156106ee57600081905060006003600083815260200190815260200160002060405180610160016040529081600082015481526020016001820160009054906101000a900473ffffffffffffffffffffffffffffffffffffffff1673ffffffffffffffffffffffffffffffffffffffff1673ffffffffffffffffffffffffffffffffffffffff1681526020016002820154815260200160038201548152602001600482015481526020016005820160009054906101000a900460ff161515151581526020016006820180546103cb906129e2565b80601f01602080910402602001604051908101604052809291908181526020018280546103f7906129e2565b80156104445780601f1061041957610100808354040283529160200191610444565b820191906000526020600020905b81548152906001019060200180831161042757829003601f168201915b5050505050815260200160078201805461045d906129e2565b80601f0160208091040260200160405190810160405280929190818152602001828054610489906129e2565b80156104d65780601f106104ab576101008083540402835291602001916104d6565b820191906000526020600020905b8154815290600101906020018083116104b957829003601f168201915b505050505081526020016008820180546104ef906129e2565b80601f016020809104026020016040519081016040528092919081815260200182805461051b906129e2565b80156105685780601f1061053d57610100808354040283529160200191610568565b820191906000526020600020905b81548152906001019060200180831161054b57829003601f168201915b50505050508152602001600982018054610581906129e2565b80601f01602080910402602001604051908101604052809291908181526020018280546105ad906129e2565b80156105fa5780601f106105cf576101008083540402835291602001916105fa565b820191906000526020600020905b8154815290600101906020018083116105dd57829003601f168201915b50505050508152602001600a82018054610613906129e2565b80601f016020809104026020016040519081016040528092919081815260200182805461063f906129e2565b801561068c5780601f106106615761010080835404028352916020019161068c565b820191906000526020600020905b81548152906001019060200180831161066f57829003601f168201915b5050505050815250509050808487815181106106d1577f4e487b7100000000000000000000000000000000000000000000000000000000600052603260045260246000fd5b60200260200101819052506001866106e991906128a7565b955050505b80806106f990612a14565b91505061028a565b508094505050505090565b610714612067565b6003600083815260200190815260200160002060405180610160016040529081600082015481526020016001820160009054906101000a900473ffffffffffffffffffffffffffffffffffffffff1673ffffffffffffffffffffffffffffffffffffffff1673ffffffffffffffffffffffffffffffffffffffff1681526020016002820154815260200160038201548152602001600482015481526020016005820160009054906101000a900460ff161515151581526020016006820180546107dc906129e2565b80601f0160208091040260200160405190810160405280929190818152602001828054610808906129e2565b80156108555780601f1061082a57610100808354040283529160200191610855565b820191906000526020600020905b81548152906001019060200180831161083857829003601f168201915b5050505050815260200160078201805461086e906129e2565b80601f016020809104026020016040519081016040528092919081815260200182805461089a906129e2565b80156108e75780601f106108bc576101008083540402835291602001916108e7565b820191906000526020600020905b8154815290600101906020018083116108ca57829003601f168201915b50505050508152602001600882018054610900906129e2565b80601f016020809104026020016040519081016040528092919081815260200182805461092c906129e2565b80156109795780601f1061094e57610100808354040283529160200191610979565b820191906000526020600020905b81548152906001019060200180831161095c57829003601f168201915b50505050508152602001600982018054610992906129e2565b80601f01602080910402602001604051908101604052809291908181526020018280546109be906129e2565b8015610a0b5780601f106109e057610100808354040283529160200191610a0b565b820191906000526020600020905b8154815290600101906020018083116109ee57829003601f168201915b50505050508152602001600a82018054610a24906129e2565b80601f0160208091040260200160405190810160405280929190818152602001828054610a50906129e2565b8015610a9d5780601f10610a7257610100808354040283529160200191610a9d565b820191906000526020600020905b815481529060010190602001808311610a8057829003601f168201915b5050505050815250509050919050565b60606000610abb6001611e90565b90506000805b82811015610e975760006003600083815260200190815260200160002060405180610160016040529081600082015481526020016001820160009054906101000a900473ffffffffffffffffffffffffffffffffffffffff1673ffffffffffffffffffffffffffffffffffffffff1673ffffffffffffffffffffffffffffffffffffffff1681526020016002820154815260200160038201548152602001600482015481526020016005820160009054906101000a900460ff16151515158152602001600682018054610b93906129e2565b80601f0160208091040260200160405190810160405280929190818152602001828054610bbf906129e2565b8015610c0c5780601f10610be157610100808354040283529160200191610c0c565b820191906000526020600020905b815481529060010190602001808311610bef57829003601f168201915b50505050508152602001600782018054610c25906129e2565b80601f0160208091040260200160405190810160405280929190818152602001828054610c51906129e2565b8015610c9e5780601f10610c7357610100808354040283529160200191610c9e565b820191906000526020600020905b815481529060010190602001808311610c8157829003601f168201915b50505050508152602001600882018054610cb7906129e2565b80601f0160208091040260200160405190810160405280929190818152602001828054610ce3906129e2565b8015610d305780601f10610d0557610100808354040283529160200191610d30565b820191906000526020600020905b815481529060010190602001808311610d1357829003601f168201915b50505050508152602001600982018054610d49906129e2565b80601f0160208091040260200160405190810160405280929190818152602001828054610d75906129e2565b8015610dc25780601f10610d9757610100808354040283529160200191610dc2565b820191906000526020600020905b815481529060010190602001808311610da557829003601f168201915b50505050508152602001600a82018054610ddb906129e2565b80601f0160208091040260200160405190810160405280929190818152602001828054610e07906129e2565b8015610e545780601f10610e2957610100808354040283529160200191610e54565b820191906000526020600020905b815481529060010190602001808311610e3757829003601f168201915b5050505050815250509050610e6e87878360c00151611e9e565b15610e8357600183610e8091906128a7565b92505b508080610e8f90612a14565b915050610ac1565b506000808267ffffffffffffffff811115610edb577f4e487b7100000000000000000000000000000000000000000000000000000000600052604160045260246000fd5b604051908082528060200260200182016040528015610f1457816020015b610f01612067565b815260200190600190039081610ef95790505b50905060008311156113405760005b8481101561133e5760006003600083815260200190815260200160002060405180610160016040529081600082015481526020016001820160009054906101000a900473ffffffffffffffffffffffffffffffffffffffff1673ffffffffffffffffffffffffffffffffffffffff1673ffffffffffffffffffffffffffffffffffffffff1681526020016002820154815260200160038201548152602001600482015481526020016005820160009054906101000a900460ff16151515158152602001600682018054610ff5906129e2565b80601f0160208091040260200160405190810160405280929190818152602001828054611021906129e2565b801561106e5780601f106110435761010080835404028352916020019161106e565b820191906000526020600020905b81548152906001019060200180831161105157829003601f168201915b50505050508152602001600782018054611087906129e2565b80601f01602080910402602001604051908101604052809291908181526020018280546110b3906129e2565b80156111005780601f106110d557610100808354040283529160200191611100565b820191906000526020600020905b8154815290600101906020018083116110e357829003601f168201915b50505050508152602001600882018054611119906129e2565b80601f0160208091040260200160405190810160405280929190818152602001828054611145906129e2565b80156111925780601f1061116757610100808354040283529160200191611192565b820191906000526020600020905b81548152906001019060200180831161117557829003601f168201915b505050505081526020016009820180546111ab906129e2565b80601f01602080910402602001604051908101604052809291908181526020018280546111d7906129e2565b80156112245780601f106111f957610100808354040283529160200191611224565b820191906000526020600020905b81548152906001019060200180831161120757829003601f168201915b50505050508152602001600a8201805461123d906129e2565b80601f0160208091040260200160405190810160405280929190818152602001828054611269906129e2565b80156112b65780601f1061128b576101008083540402835291602001916112b6565b820191906000526020600020905b81548152906001019060200180831161129957829003601f168201915b50505050508152505090506112d089898360c00151611e9e565b1561131b578083858151811061130f577f4e487b7100000000000000000000000000000000000000000000000000000000600052603260045260246000fd5b60200260200101819052505b60018461132891906128a7565b935050808061133690612a14565b915050610f23565b505b8094505050505092915050565b60026000541415611393576040517f08c379a000000000000000000000000000000000000000000000000000000000815260040161138a906127ff565b60405180910390fd5b60026000819055506113a56001611e90565b81106113e6576040517f08c379a00000000000000000000000000000000000000000000000000000000081526004016113dd906127bf565b60405180910390fd5b60003411611429576040517f08c379a00000000000000000000000000000000000000000000000000000000081526004016114209061279f565b60405180910390fd5b60006003600083815260200190815260200160002090508060010160009054906101000a900473ffffffffffffffffffffffffffffffffffffffff1673ffffffffffffffffffffffffffffffffffffffff163373ffffffffffffffffffffffffffffffffffffffff1614156114d3576040517f08c379a00000000000000000000000000000000000000000000000000000000081526004016114ca906127df565b60405180910390fd5b348160030160008282546114e791906128a7565b925050819055508060010160009054906101000a900473ffffffffffffffffffffffffffffffffffffffff1673ffffffffffffffffffffffffffffffffffffffff166108fc349081150290604051600060405180830381858888f19350505050158015611558573d6000803e3d6000fd5b50600181600401600082825461156e91906128a7565b9250508190555080600201548160030154106115ac5761158e6002612051565b60018160050160006101000a81548160ff0219169083151502179055505b50600160008190555050565b606060006115c66001611e90565b905060006115d46002611e90565b905060008082846115e591906128fd565b67ffffffffffffffff811115611624577f4e487b7100000000000000000000000000000000000000000000000000000000600052604160045260246000fd5b60405190808252806020026020018201604052801561165d57816020015b61164a612067565b8152602001906001900390816116425790505b50905060005b84811015611a98576003600082815260200190815260200160002060050160009054906101000a900460ff16611a8557600081905060006003600083815260200190815260200160002060405180610160016040529081600082015481526020016001820160009054906101000a900473ffffffffffffffffffffffffffffffffffffffff1673ffffffffffffffffffffffffffffffffffffffff1673ffffffffffffffffffffffffffffffffffffffff1681526020016002820154815260200160038201548152602001600482015481526020016005820160009054906101000a900460ff16151515158152602001600682018054611762906129e2565b80601f016020809104026020016040519081016040528092919081815260200182805461178e906129e2565b80156117db5780601f106117b0576101008083540402835291602001916117db565b820191906000526020600020905b8154815290600101906020018083116117be57829003601f168201915b505050505081526020016007820180546117f4906129e2565b80601f0160208091040260200160405190810160405280929190818152602001828054611820906129e2565b801561186d5780601f106118425761010080835404028352916020019161186d565b820191906000526020600020905b81548152906001019060200180831161185057829003601f168201915b50505050508152602001600882018054611886906129e2565b80601f01602080910402602001604051908101604052809291908181526020018280546118b2906129e2565b80156118ff5780601f106118d4576101008083540402835291602001916118ff565b820191906000526020600020905b8154815290600101906020018083116118e257829003601f168201915b50505050508152602001600982018054611918906129e2565b80601f0160208091040260200160405190810160405280929190818152602001828054611944906129e2565b80156119915780601f1061196657610100808354040283529160200191611991565b820191906000526020600020905b81548152906001019060200180831161197457829003601f168201915b50505050508152602001600a820180546119aa906129e2565b80601f01602080910402602001604051908101604052809291908181526020018280546119d6906129e2565b8015611a235780601f106119f857610100808354040283529160200191611a23565b820191906000526020600020905b815481529060010190602001808311611a0657829003601f168201915b505050505081525050905080848681518110611a68577f4e487b7100000000000000000000000000000000000000000000000000000000600052603260045260246000fd5b6020026020010181905250600185611a8091906128a7565b945050505b8080611a9090612a14565b915050611663565b508094505050505090565b60026000541415611ae9576040517f08c379a0000000000000000000000000000000000000000000000000000000008152600401611ae0906127ff565b60405180910390fd5b600260008190555060008b11611b34576040517f08c379a0000000000000000000000000000000000000000000000000000000008152600401611b2b9061277f565b60405180910390fd5b6000611b406001611e90565b90506040518061016001604052808281526020013373ffffffffffffffffffffffffffffffffffffffff1681526020018d815260200160008152602001600081526020016000151581526020018c8c8080601f016020809104026020016040519081016040528093929190818152602001838380828437600081840152601f19601f8201169050808301925050505050505081526020018a8a8080601f016020809104026020016040519081016040528093929190818152602001838380828437600081840152601f19601f82011690508083019250505050505050815260200188888080601f016020809104026020016040519081016040528093929190818152602001838380828437600081840152601f19601f82011690508083019250505050505050815260200186868080601f016020809104026020016040519081016040528093929190818152602001838380828437600081840152601f19601f82011690508083019250505050505050815260200184848080601f016020809104026020016040519081016040528093929190818152602001838380828437600081840152601f19601f82011690508083019250505050505050815250600360008381526020019081526020016000206000820151816000015560208201518160010160006101000a81548173ffffffffffffffffffffffffffffffffffffffff021916908373ffffffffffffffffffffffffffffffffffffffff16021790555060408201518160020155606082015181600301556080820151816004015560a08201518160050160006101000a81548160ff02191690831515021790555060c0820151816006019080519060200190611dbb9291906120d9565b5060e0820151816007019080519060200190611dd89291906120d9565b50610100820151816008019080519060200190611df69291906120d9565b50610120820151816009019080519060200190611e149291906120d9565b5061014082015181600a019080519060200190611e329291906120d9565b50905050807fd8737c21c8c06f7ea4e9e3a837adff6378cc6587c210895878835a452f8c8983338e604051611e68929190612734565b60405180910390a2611e7a6001612051565b5060016000819055505050505050505050505050565b600081600001549050919050565b60008084848080601f016020809104026020016040519081016040528093929190818152602001838380828437600081840152601f19601f8201169050808301925050505050505090506000839050815181511015611efc57600080fd5b6000805b83518351611f0e91906128fd565b81116120435760006001905060005b855181101561201e57858181518110611f5f577f4e487b7100000000000000000000000000000000000000000000000000000000600052603260045260246000fd5b602001015160f81c60f81b7effffffffffffffffffffffffffffffffffffffffffffffffffffffffffffff1916858285611f9991906128a7565b81518110611fd0577f4e487b7100000000000000000000000000000000000000000000000000000000600052603260045260246000fd5b602001015160f81c60f81b7effffffffffffffffffffffffffffffffffffffffffffffffffffffffffffff19161461200b576000915061201e565b808061201690612a14565b915050611f1d565b50801561202f576001925050612043565b50808061203b90612a14565b915050611f00565b508093505050509392505050565b6001816000016000828254019250508190555050565b60405180610160016040528060008152602001600073ffffffffffffffffffffffffffffffffffffffff16815260200160008152602001600081526020016000815260200160001515815260200160608152602001606081526020016060815260200160608152602001606081525090565b8280546120e5906129e2565b90600052602060002090601f016020900481019282612107576000855561214e565b82601f1061212057805160ff191683800117855561214e565b8280016001018555821561214e579182015b8281111561214d578251825591602001919060010190612132565b5b50905061215b919061215f565b5090565b5b80821115612178576000816000905550600101612160565b5090565b60008083601f84011261218e57600080fd5b8235905067ffffffffffffffff8111156121a757600080fd5b6020830191508360018202830111156121bf57600080fd5b9250929050565b6000813590506121d581612c31565b92915050565b600080602083850312156121ee57600080fd5b600083013567ffffffffffffffff81111561220857600080fd5b6122148582860161217c565b92509250509250929050565b60006020828403121561223257600080fd5b6000612240848285016121c6565b91505092915050565b600080600080600080600080600080600060c08c8e03121561226a57600080fd5b60006122788e828f016121c6565b9b505060208c013567ffffffffffffffff81111561229557600080fd5b6122a18e828f0161217c565b9a509a505060408c013567ffffffffffffffff8111156122c057600080fd5b6122cc8e828f0161217c565b985098505060608c013567ffffffffffffffff8111156122eb57600080fd5b6122f78e828f0161217c565b965096505060808c013567ffffffffffffffff81111561231657600080fd5b6123228e828f0161217c565b945094505060a08c013567ffffffffffffffff81111561234157600080fd5b61234d8e828f0161217c565b92509250509295989b509295989b9093969950565b600061236e8383612500565b905092915050565b61237f81612979565b82525050565b61238e81612931565b82525050565b600061239f82612851565b6123a98185612874565b9350836020820285016123bb85612841565b8060005b858110156123f757848403895281516123d88582612362565b94506123e383612867565b925060208a019950506001810190506123bf565b50829750879550505050505092915050565b61241281612943565b82525050565b60006124238261285c565b61242d8185612885565b935061243d8185602086016129af565b61244681612abb565b840191505092915050565b600061245e602a83612896565b915061246982612acc565b604082019050919050565b6000612481604383612896565b915061248c82612b1b565b606082019050919050565b60006124a4601683612896565b91506124af82612b90565b602082019050919050565b60006124c7602e83612896565b91506124d282612bb9565b604082019050919050565b60006124ea601f83612896565b91506124f582612c08565b602082019050919050565b6000610160830160008301516125196000860182612716565b50602083015161252c6020860182612385565b50604083015161253f6040860182612716565b5060608301516125526060860182612716565b5060808301516125656080860182612716565b5060a083015161257860a0860182612409565b5060c083015184820360c08601526125908282612418565b91505060e083015184820360e08601526125aa8282612418565b9150506101008301518482036101008601526125c68282612418565b9150506101208301518482036101208601526125e28282612418565b9150506101408301518482036101408601526125fe8282612418565b9150508091505092915050565b6000610160830160008301516126246000860182612716565b5060208301516126376020860182612385565b50604083015161264a6040860182612716565b50606083015161265d6060860182612716565b5060808301516126706080860182612716565b5060a083015161268360a0860182612409565b5060c083015184820360c086015261269b8282612418565b91505060e083015184820360e08601526126b58282612418565b9150506101008301518482036101008601526126d18282612418565b9150506101208301518482036101208601526126ed8282612418565b9150506101408301518482036101408601526127098282612418565b9150508091505092915050565b61271f8161296f565b82525050565b61272e8161296f565b82525050565b60006040820190506127496000830185612376565b6127566020830184612725565b9392505050565b600060208201905081810360008301526127778184612394565b905092915050565b6000602082019050818103600083015261279881612451565b9050919050565b600060208201905081810360008301526127b881612474565b9050919050565b600060208201905081810360008301526127d881612497565b9050919050565b600060208201905081810360008301526127f8816124ba565b9050919050565b60006020820190508181036000830152612818816124dd565b9050919050565b60006020820190508181036000830152612839818461260b565b905092915050565b6000819050602082019050919050565b600081519050919050565b600081519050919050565b6000602082019050919050565b600082825260208201905092915050565b600082825260208201905092915050565b600082825260208201905092915050565b60006128b28261296f565b91506128bd8361296f565b9250827fffffffffffffffffffffffffffffffffffffffffffffffffffffffffffffffff038211156128f2576128f1612a5d565b5b828201905092915050565b60006129088261296f565b91506129138361296f565b92508282101561292657612925612a5d565b5b828203905092915050565b600061293c8261294f565b9050919050565b60008115159050919050565b600073ffffffffffffffffffffffffffffffffffffffff82169050919050565b6000819050919050565b60006129848261298b565b9050919050565b60006129968261299d565b9050919050565b60006129a88261294f565b9050919050565b60005b838110156129cd5780820151818401526020810190506129b2565b838111156129dc576000848401525b50505050565b600060028204905060018216806129fa57607f821691505b60208210811415612a0e57612a0d612a8c565b5b50919050565b6000612a1f8261296f565b91507fffffffffffffffffffffffffffffffffffffffffffffffffffffffffffffffff821415612a5257612a51612a5d565b5b600182019050919050565b7f4e487b7100000000000000000000000000000000000000000000000000000000600052601160045260246000fd5b7f4e487b7100000000000000000000000000000000000000000000000000000000600052602260045260246000fd5b6000601f19601f8301169050919050565b7f546865207265717565737465642066756e6473206d757374206265206174206c60008201527f6561737420312077656900000000000000000000000000000000000000000000602082015250565b7f506c6561736520646f6e6174652061206d696e696d756d206f6620312077656960008201527f20696e206f7264657220746f20636f6d706c65746520746865206f706572617460208201527f696f6e0000000000000000000000000000000000000000000000000000000000604082015250565b7f4974656d20696420646f6573206e6f7420657869737400000000000000000000600082015250565b7f596f752063616e6e6f7420646f6e61746520746f20796f7572206f776e20667560008201527f6e64696e672063616d706169676e000000000000000000000000000000000000602082015250565b7f5265656e7472616e637947756172643a207265656e7472616e742063616c6c00600082015250565b612c3a8161296f565b8114612c4557600080fd5b5056fea2646970667358221220b8d8aa18972fc68eda091075fdce87357e8cfac6175ec946a09e8818b471f81264736f6c63430008040033",
  "linkReferences": {},
  "deployedLinkReferences": {}
}