{
  "_format": "hh-sol-artifact-1",
  "contractName": "FundMarket",
  "sourceName": "contracts/fundMarket.sol",
  "abi": [
    {
      "inputs": [
        {
          "internalType": "address",
          "name": "_users",
          "type": "address"
        }
      ],
      "stateMutability": "nonpayable",
      "type": "constructor"
    },
    {
      "anonymous": false,
      "inputs": [
        {
          "indexed": true,
          "internalType": "uint256",
          "name": "itemId",
          "type": "uint256"
        },
        {
          "indexed": false,
          "internalType": "address",
          "name": "campaignOwner",
          "type": "address"
        },
        {
          "indexed": false,
          "internalType": "uint256",
          "name": "FundsRequested",
          "type": "uint256"
        }
      ],
      "name": "CampaignStarted",
      "type": "event"
    },
    {
      "inputs": [
        {
          "internalType": "address",
          "name": "user",
          "type": "address"
        },
        {
          "internalType": "string",
          "name": "message",
          "type": "string"
        },
        {
          "internalType": "uint256",
          "name": "campaignId",
          "type": "uint256"
        }
      ],
      "name": "comment",
      "outputs": [],
      "stateMutability": "nonpayable",
      "type": "function"
    },
    {
      "inputs": [
        {
          "internalType": "uint256",
          "name": "FundsRequested",
          "type": "uint256"
        },
        {
          "internalType": "string",
          "name": "title",
          "type": "string"
        },
        {
          "internalType": "string",
          "name": "description",
          "type": "string"
        },
        {
          "internalType": "string",
          "name": "info",
          "type": "string"
        },
        {
          "internalType": "string",
          "name": "url",
          "type": "string"
        },
        {
          "internalType": "string",
          "name": "ipfsHash",
          "type": "string"
        }
      ],
      "name": "createCampaign",
      "outputs": [],
      "stateMutability": "payable",
      "type": "function"
    },
    {
      "inputs": [
        {
          "internalType": "uint256",
          "name": "itemId",
          "type": "uint256"
        }
      ],
      "name": "donateCampaign",
      "outputs": [],
      "stateMutability": "payable",
      "type": "function"
    },
    {
      "inputs": [],
      "name": "fetchCampaigns",
      "outputs": [
        {
          "components": [
            {
              "internalType": "uint256",
              "name": "itemId",
              "type": "uint256"
            },
            {
              "internalType": "address payable",
              "name": "campaignOwner",
              "type": "address"
            },
            {
              "internalType": "uint256",
              "name": "FundsRequested",
              "type": "uint256"
            },
            {
              "internalType": "uint256",
              "name": "FundsCollected",
              "type": "uint256"
            },
            {
              "internalType": "uint256",
              "name": "totalDonators",
              "type": "uint256"
            },
            {
              "internalType": "bool",
              "name": "fundsReached",
              "type": "bool"
            },
            {
              "internalType": "string",
              "name": "title",
              "type": "string"
            },
            {
              "internalType": "string",
              "name": "description",
              "type": "string"
            },
            {
              "internalType": "string",
              "name": "info",
              "type": "string"
            },
            {
              "internalType": "string",
              "name": "url",
              "type": "string"
            },
            {
              "internalType": "string",
              "name": "ipfsHash",
              "type": "string"
            }
          ],
          "internalType": "struct FundMarket.FundingCampaign[]",
          "name": "",
          "type": "tuple[]"
        }
      ],
      "stateMutability": "view",
      "type": "function"
    },
    {
      "inputs": [
        {
          "internalType": "string",
          "name": "searchWord",
          "type": "string"
        }
      ],
      "name": "fetchCampaignsByWord",
      "outputs": [
        {
          "components": [
            {
              "internalType": "uint256",
              "name": "itemId",
              "type": "uint256"
            },
            {
              "internalType": "address payable",
              "name": "campaignOwner",
              "type": "address"
            },
            {
              "internalType": "uint256",
              "name": "FundsRequested",
              "type": "uint256"
            },
            {
              "internalType": "uint256",
              "name": "FundsCollected",
              "type": "uint256"
            },
            {
              "internalType": "uint256",
              "name": "totalDonators",
              "type": "uint256"
            },
            {
              "internalType": "bool",
              "name": "fundsReached",
              "type": "bool"
            },
            {
              "internalType": "string",
              "name": "title",
              "type": "string"
            },
            {
              "internalType": "string",
              "name": "description",
              "type": "string"
            },
            {
              "internalType": "string",
              "name": "info",
              "type": "string"
            },
            {
              "internalType": "string",
              "name": "url",
              "type": "string"
            },
            {
              "internalType": "string",
              "name": "ipfsHash",
              "type": "string"
            }
          ],
          "internalType": "struct FundMarket.FundingCampaign[]",
          "name": "",
          "type": "tuple[]"
        }
      ],
      "stateMutability": "view",
      "type": "function"
    },
    {
      "inputs": [
        {
          "internalType": "address",
          "name": "myAddress",
          "type": "address"
        }
      ],
      "name": "fetchMyCampaigns",
      "outputs": [
        {
          "components": [
            {
              "internalType": "uint256",
              "name": "itemId",
              "type": "uint256"
            },
            {
              "internalType": "address payable",
              "name": "campaignOwner",
              "type": "address"
            },
            {
              "internalType": "uint256",
              "name": "FundsRequested",
              "type": "uint256"
            },
            {
              "internalType": "uint256",
              "name": "FundsCollected",
              "type": "uint256"
            },
            {
              "internalType": "uint256",
              "name": "totalDonators",
              "type": "uint256"
            },
            {
              "internalType": "bool",
              "name": "fundsReached",
              "type": "bool"
            },
            {
              "internalType": "string",
              "name": "title",
              "type": "string"
            },
            {
              "internalType": "string",
              "name": "description",
              "type": "string"
            },
            {
              "internalType": "string",
              "name": "info",
              "type": "string"
            },
            {
              "internalType": "string",
              "name": "url",
              "type": "string"
            },
            {
              "internalType": "string",
              "name": "ipfsHash",
              "type": "string"
            }
          ],
          "internalType": "struct FundMarket.FundingCampaign[]",
          "name": "",
          "type": "tuple[]"
        }
      ],
      "stateMutability": "view",
      "type": "function"
    },
    {
      "inputs": [
        {
          "internalType": "uint256",
          "name": "itemId",
          "type": "uint256"
        }
      ],
      "name": "getCampaign",
      "outputs": [
        {
          "components": [
            {
              "internalType": "uint256",
              "name": "itemId",
              "type": "uint256"
            },
            {
              "internalType": "address payable",
              "name": "campaignOwner",
              "type": "address"
            },
            {
              "internalType": "uint256",
              "name": "FundsRequested",
              "type": "uint256"
            },
            {
              "internalType": "uint256",
              "name": "FundsCollected",
              "type": "uint256"
            },
            {
              "internalType": "uint256",
              "name": "totalDonators",
              "type": "uint256"
            },
            {
              "internalType": "bool",
              "name": "fundsReached",
              "type": "bool"
            },
            {
              "internalType": "string",
              "name": "title",
              "type": "string"
            },
            {
              "internalType": "string",
              "name": "description",
              "type": "string"
            },
            {
              "internalType": "string",
              "name": "info",
              "type": "string"
            },
            {
              "internalType": "string",
              "name": "url",
              "type": "string"
            },
            {
              "internalType": "string",
              "name": "ipfsHash",
              "type": "string"
            }
          ],
          "internalType": "struct FundMarket.FundingCampaign",
          "name": "",
          "type": "tuple"
        }
      ],
      "stateMutability": "view",
      "type": "function"
    },
    {
      "inputs": [
        {
          "internalType": "uint256",
          "name": "id",
          "type": "uint256"
        }
      ],
      "name": "getComment",
      "outputs": [
        {
          "components": [
            {
              "internalType": "uint256",
              "name": "commentId",
              "type": "uint256"
            },
            {
              "internalType": "address",
              "name": "commentator",
              "type": "address"
            },
            {
              "internalType": "string",
              "name": "message",
              "type": "string"
            },
            {
              "internalType": "uint256",
              "name": "campaignId",
              "type": "uint256"
            },
            {
              "internalType": "uint256",
              "name": "parentCommentId",
              "type": "uint256"
            }
          ],
          "internalType": "struct FundMarket.Comment",
          "name": "",
          "type": "tuple"
        }
      ],
      "stateMutability": "view",
      "type": "function"
    },
    {
      "inputs": [
        {
          "internalType": "uint256",
          "name": "campaign",
          "type": "uint256"
        }
      ],
      "name": "getComments",
      "outputs": [
        {
          "components": [
            {
              "internalType": "uint256",
              "name": "commentId",
              "type": "uint256"
            },
            {
              "internalType": "address",
              "name": "commentator",
              "type": "address"
            },
            {
              "internalType": "string",
              "name": "message",
              "type": "string"
            },
            {
              "internalType": "uint256",
              "name": "campaignId",
              "type": "uint256"
            },
            {
              "internalType": "uint256",
              "name": "parentCommentId",
              "type": "uint256"
            }
          ],
          "internalType": "struct FundMarket.Comment[]",
          "name": "",
          "type": "tuple[]"
        }
      ],
      "stateMutability": "view",
      "type": "function"
    },
    {
      "inputs": [
        {
          "internalType": "uint256",
          "name": "commentId",
          "type": "uint256"
        }
      ],
      "name": "getNumberOfReplies",
      "outputs": [
        {
          "internalType": "uint256",
          "name": "",
          "type": "uint256"
        }
      ],
      "stateMutability": "view",
      "type": "function"
    },
    {
      "inputs": [
        {
          "internalType": "uint256",
          "name": "commentId",
          "type": "uint256"
        }
      ],
      "name": "getReplies",
      "outputs": [
        {
          "components": [
            {
              "internalType": "uint256",
              "name": "commentId",
              "type": "uint256"
            },
            {
              "internalType": "address",
              "name": "commentator",
              "type": "address"
            },
            {
              "internalType": "string",
              "name": "message",
              "type": "string"
            },
            {
              "internalType": "uint256",
              "name": "campaignId",
              "type": "uint256"
            },
            {
              "internalType": "uint256",
              "name": "parentCommentId",
              "type": "uint256"
            }
          ],
          "internalType": "struct FundMarket.Comment[]",
          "name": "",
          "type": "tuple[]"
        }
      ],
      "stateMutability": "view",
      "type": "function"
    },
    {
      "inputs": [
        {
          "internalType": "address",
          "name": "user",
          "type": "address"
        },
        {
          "internalType": "string",
          "name": "message",
          "type": "string"
        },
        {
          "internalType": "uint256",
          "name": "parentCommentId",
          "type": "uint256"
        },
        {
          "internalType": "uint256",
          "name": "campaignId",
          "type": "uint256"
        }
      ],
      "name": "reply",
      "outputs": [],
      "stateMutability": "nonpayable",
      "type": "function"
    }
  ],
  "bytecode": "0x60806040523480156200001157600080fd5b50604051620045bd380380620045bd83398181016040528101906200003791906200009e565b600160008190555080600460006101000a81548173ffffffffffffffffffffffffffffffffffffffff021916908373ffffffffffffffffffffffffffffffffffffffff1602179055505062000118565b6000815190506200009881620000fe565b92915050565b600060208284031215620000b157600080fd5b6000620000c18482850162000087565b91505092915050565b6000620000d782620000de565b9050919050565b600073ffffffffffffffffffffffffffffffffffffffff82169050919050565b6200010981620000ca565b81146200011557600080fd5b50565b61449580620001286000396000f3fe6080604052600436106100a75760003560e01c806368b67eed1161006457806368b67eed146102065780638ffff8b014610243578063ae58449d1461025f578063b5d481f71461029c578063c33d06fa146102c5578063dc640767146102f0576100a7565b80630800e300146100ac57806316f43087146100e957806323edf697146101125780634457ca7e1461014f5780635598f8cc1461018c5780635ef5c9af146101c9575b600080fd5b3480156100b857600080fd5b506100d360048036038101906100ce91906136bd565b61030c565b6040516100e09190613f1f565b60405180910390f35b3480156100f557600080fd5b50610110600480360381019061010b919061358c565b61043f565b005b34801561011e57600080fd5b50610139600480360381019061013491906136bd565b6109f8565b6040516101469190613dfb565b60405180910390f35b34801561015b57600080fd5b5061017660048036038101906101719190613563565b610ce7565b6040516101839190613e1d565b60405180910390f35b34801561019857600080fd5b506101b360048036038101906101ae91906136bd565b611293565b6040516101c09190613f41565b60405180910390f35b3480156101d557600080fd5b506101f060048036038101906101eb9190613678565b611634565b6040516101fd9190613e1d565b60405180910390f35b34801561021257600080fd5b5061022d600480360381019061022891906136bd565b611c6e565b60405161023a9190613f63565b60405180910390f35b61025d600480360381019061025891906136bd565b611d17565b005b34801561026b57600080fd5b50610286600480360381019061028191906136bd565b612035565b6040516102939190613dfb565b60405180910390f35b3480156102a857600080fd5b506102c360048036038101906102be91906135f8565b612324565b005b3480156102d157600080fd5b506102da612923565b6040516102e79190613e1d565b60405180910390f35b61030a600480360381019061030591906136e6565b612e0e565b005b610314613395565b600660008381526020019081526020016000206040518060a0016040529081600082015481526020016001820160009054906101000a900473ffffffffffffffffffffffffffffffffffffffff1673ffffffffffffffffffffffffffffffffffffffff1673ffffffffffffffffffffffffffffffffffffffff1681526020016002820180546103a29061416a565b80601f01602080910402602001604051908101604052809291908181526020018280546103ce9061416a565b801561041b5780601f106103f05761010080835404028352916020019161041b565b820191906000526020600020905b8154815290600101906020018083116103fe57829003601f168201915b50505050508152602001600382015481526020016004820154815250509050919050565b60026000541415610485576040517f08c379a000000000000000000000000000000000000000000000000000000000815260040161047c90613eff565b60405180910390fd5b600260008190555061049760036131fb565b60006104a36003613211565b90506040518060a001604052808281526020018673ffffffffffffffffffffffffffffffffffffffff16815260200185858080601f016020809104026020016040519081016040528093929190818152602001838380828437600081840152601f19601f8201169050808301925050505050505081526020018381526020016000815250600660008381526020019081526020016000206000820151816000015560208201518160010160006101000a81548173ffffffffffffffffffffffffffffffffffffffff021916908373ffffffffffffffffffffffffffffffffffffffff16021790555060408201518160020190805190602001906105a79291906133da565b50606082015181600301556080820151816004015590505060006005600084815260200190815260200160002060405180610160016040529081600082015481526020016001820160009054906101000a900473ffffffffffffffffffffffffffffffffffffffff1673ffffffffffffffffffffffffffffffffffffffff1673ffffffffffffffffffffffffffffffffffffffff1681526020016002820154815260200160038201548152602001600482015481526020016005820160009054906101000a900460ff161515151581526020016006820180546106899061416a565b80601f01602080910402602001604051908101604052809291908181526020018280546106b59061416a565b80156107025780601f106106d757610100808354040283529160200191610702565b820191906000526020600020905b8154815290600101906020018083116106e557829003601f168201915b5050505050815260200160078201805461071b9061416a565b80601f01602080910402602001604051908101604052809291908181526020018280546107479061416a565b80156107945780601f1061076957610100808354040283529160200191610794565b820191906000526020600020905b81548152906001019060200180831161077757829003601f168201915b505050505081526020016008820180546107ad9061416a565b80601f01602080910402602001604051908101604052809291908181526020018280546107d99061416a565b80156108265780601f106107fb57610100808354040283529160200191610826565b820191906000526020600020905b81548152906001019060200180831161080957829003601f168201915b5050505050815260200160098201805461083f9061416a565b80601f016020809104026020016040519081016040528092919081815260200182805461086b9061416a565b80156108b85780601f1061088d576101008083540402835291602001916108b8565b820191906000526020600020905b81548152906001019060200180831161089b57829003601f168201915b50505050508152602001600a820180546108d19061416a565b80601f01602080910402602001604051908101604052809291908181526020018280546108fd9061416a565b801561094a5780601f1061091f5761010080835404028352916020019161094a565b820191906000526020600020905b81548152906001019060200180831161092d57829003601f168201915b5050505050815250509050600460009054906101000a900473ffffffffffffffffffffffffffffffffffffffff1673ffffffffffffffffffffffffffffffffffffffff166314de09528260200151856040518363ffffffff1660e01b81526004016109b6929190613d9b565b600060405180830381600087803b1580156109d057600080fd5b505af11580156109e4573d6000803e3d6000fd5b505050505050600160008190555050505050565b60606000610a066003613211565b9050600080600190505b828111610a7557846006600083815260200190815260200160002060030154148015610a52575060006006600083815260200190815260200160002060040154145b15610a645781610a619061419c565b91505b80610a6e9061419c565b9050610a10565b5060008167ffffffffffffffff811115610ab8577f4e487b7100000000000000000000000000000000000000000000000000000000600052604160045260246000fd5b604051908082528060200260200182016040528015610af157816020015b610ade613395565b815260200190600190039081610ad65790505b509050600080600190505b848111610cda57866006600083815260200190815260200160002060030154148015610b3e575060006006600083815260200190815260200160002060040154145b15610cc75760008190506000600660008381526020019081526020016000206040518060a0016040529081600082015481526020016001820160009054906101000a900473ffffffffffffffffffffffffffffffffffffffff1673ffffffffffffffffffffffffffffffffffffffff1673ffffffffffffffffffffffffffffffffffffffff168152602001600282018054610bd89061416a565b80601f0160208091040260200160405190810160405280929190818152602001828054610c049061416a565b8015610c515780601f10610c2657610100808354040283529160200191610c51565b820191906000526020600020905b815481529060010190602001808311610c3457829003601f168201915b5050505050815260200160038201548152602001600482015481525050905080858581518110610caa577f4e487b7100000000000000000000000000000000000000000000000000000000600052603260045260246000fd5b6020026020010181905250600184610cc2919061401d565b935050505b8080610cd29061419c565b915050610afc565b5081945050505050919050565b60606000610cf56001613211565b905060008060005b83811015610d8d578573ffffffffffffffffffffffffffffffffffffffff166005600083815260200190815260200160002060010160009054906101000a900473ffffffffffffffffffffffffffffffffffffffff1673ffffffffffffffffffffffffffffffffffffffff161415610d7c5781610d799061419c565b91505b80610d869061419c565b9050610cfd565b5060008167ffffffffffffffff811115610dd0577f4e487b7100000000000000000000000000000000000000000000000000000000600052604160045260246000fd5b604051908082528060200260200182016040528015610e0957816020015b610df6613460565b815260200190600190039081610dee5790505b50905060005b84811015611286578673ffffffffffffffffffffffffffffffffffffffff166005600083815260200190815260200160002060010160009054906101000a900473ffffffffffffffffffffffffffffffffffffffff1673ffffffffffffffffffffffffffffffffffffffff16141561127357600081905060006005600083815260200190815260200160002060405180610160016040529081600082015481526020016001820160009054906101000a900473ffffffffffffffffffffffffffffffffffffffff1673ffffffffffffffffffffffffffffffffffffffff1673ffffffffffffffffffffffffffffffffffffffff1681526020016002820154815260200160038201548152602001600482015481526020016005820160009054906101000a900460ff16151515158152602001600682018054610f509061416a565b80601f0160208091040260200160405190810160405280929190818152602001828054610f7c9061416a565b8015610fc95780601f10610f9e57610100808354040283529160200191610fc9565b820191906000526020600020905b815481529060010190602001808311610fac57829003601f168201915b50505050508152602001600782018054610fe29061416a565b80601f016020809104026020016040519081016040528092919081815260200182805461100e9061416a565b801561105b5780601f106110305761010080835404028352916020019161105b565b820191906000526020600020905b81548152906001019060200180831161103e57829003601f168201915b505050505081526020016008820180546110749061416a565b80601f01602080910402602001604051908101604052809291908181526020018280546110a09061416a565b80156110ed5780601f106110c2576101008083540402835291602001916110ed565b820191906000526020600020905b8154815290600101906020018083116110d057829003601f168201915b505050505081526020016009820180546111069061416a565b80601f01602080910402602001604051908101604052809291908181526020018280546111329061416a565b801561117f5780601f106111545761010080835404028352916020019161117f565b820191906000526020600020905b81548152906001019060200180831161116257829003601f168201915b50505050508152602001600a820180546111989061416a565b80601f01602080910402602001604051908101604052809291908181526020018280546111c49061416a565b80156112115780601f106111e657610100808354040283529160200191611211565b820191906000526020600020905b8154815290600101906020018083116111f457829003601f168201915b505050505081525050905080848781518110611256577f4e487b7100000000000000000000000000000000000000000000000000000000600052603260045260246000fd5b602002602001018190525060018661126e919061401d565b955050505b808061127e9061419c565b915050610e0f565b5080945050505050919050565b61129b613460565b6005600083815260200190815260200160002060405180610160016040529081600082015481526020016001820160009054906101000a900473ffffffffffffffffffffffffffffffffffffffff1673ffffffffffffffffffffffffffffffffffffffff1673ffffffffffffffffffffffffffffffffffffffff1681526020016002820154815260200160038201548152602001600482015481526020016005820160009054906101000a900460ff161515151581526020016006820180546113639061416a565b80601f016020809104026020016040519081016040528092919081815260200182805461138f9061416a565b80156113dc5780601f106113b1576101008083540402835291602001916113dc565b820191906000526020600020905b8154815290600101906020018083116113bf57829003601f168201915b505050505081526020016007820180546113f59061416a565b80601f01602080910402602001604051908101604052809291908181526020018280546114219061416a565b801561146e5780601f106114435761010080835404028352916020019161146e565b820191906000526020600020905b81548152906001019060200180831161145157829003601f168201915b505050505081526020016008820180546114879061416a565b80601f01602080910402602001604051908101604052809291908181526020018280546114b39061416a565b80156115005780601f106114d557610100808354040283529160200191611500565b820191906000526020600020905b8154815290600101906020018083116114e357829003601f168201915b505050505081526020016009820180546115199061416a565b80601f01602080910402602001604051908101604052809291908181526020018280546115459061416a565b80156115925780601f1061156757610100808354040283529160200191611592565b820191906000526020600020905b81548152906001019060200180831161157557829003601f168201915b50505050508152602001600a820180546115ab9061416a565b80601f01602080910402602001604051908101604052809291908181526020018280546115d79061416a565b80156116245780601f106115f957610100808354040283529160200191611624565b820191906000526020600020905b81548152906001019060200180831161160757829003601f168201915b5050505050815250509050919050565b606060006116426001613211565b90506000805b8281101561176a57600060056000838152602001908152602001600020905061174187878080601f016020809104026020016040519081016040528093929190818152602001838380828437600081840152601f19601f820116905080830192505050505050508260060180546116be9061416a565b80601f01602080910402602001604051908101604052809291908181526020018280546116ea9061416a565b80156117375780601f1061170c57610100808354040283529160200191611737565b820191906000526020600020905b81548152906001019060200180831161171a57829003601f168201915b505050505061321f565b1561175657600183611753919061401d565b92505b5080806117629061419c565b915050611648565b506000808267ffffffffffffffff8111156117ae577f4e487b7100000000000000000000000000000000000000000000000000000000600052604160045260246000fd5b6040519080825280602002602001820160405280156117e757816020015b6117d4613460565b8152602001906001900390816117cc5790505b5090506000831115611c615760005b848110801561180457508383105b15611c5f5760006005600083815260200190815260200160002060405180610160016040529081600082015481526020016001820160009054906101000a900473ffffffffffffffffffffffffffffffffffffffff1673ffffffffffffffffffffffffffffffffffffffff1673ffffffffffffffffffffffffffffffffffffffff1681526020016002820154815260200160038201548152602001600482015481526020016005820160009054906101000a900460ff161515151581526020016006820180546118d39061416a565b80601f01602080910402602001604051908101604052809291908181526020018280546118ff9061416a565b801561194c5780601f106119215761010080835404028352916020019161194c565b820191906000526020600020905b81548152906001019060200180831161192f57829003601f168201915b505050505081526020016007820180546119659061416a565b80601f01602080910402602001604051908101604052809291908181526020018280546119919061416a565b80156119de5780601f106119b3576101008083540402835291602001916119de565b820191906000526020600020905b8154815290600101906020018083116119c157829003601f168201915b505050505081526020016008820180546119f79061416a565b80601f0160208091040260200160405190810160405280929190818152602001828054611a239061416a565b8015611a705780601f10611a4557610100808354040283529160200191611a70565b820191906000526020600020905b815481529060010190602001808311611a5357829003601f168201915b50505050508152602001600982018054611a899061416a565b80601f0160208091040260200160405190810160405280929190818152602001828054611ab59061416a565b8015611b025780601f10611ad757610100808354040283529160200191611b02565b820191906000526020600020905b815481529060010190602001808311611ae557829003601f168201915b50505050508152602001600a82018054611b1b9061416a565b80601f0160208091040260200160405190810160405280929190818152602001828054611b479061416a565b8015611b945780601f10611b6957610100808354040283529160200191611b94565b820191906000526020600020905b815481529060010190602001808311611b7757829003601f168201915b5050505050815250509050611bf189898080601f016020809104026020016040519081016040528093929190818152602001838380828437600081840152601f19601f820116905080830192505050505050508260c0015161321f565b15611c4b5780838581518110611c30577f4e487b7100000000000000000000000000000000000000000000000000000000600052603260045260246000fd5b6020026020010181905250600184611c48919061401d565b93505b508080611c579061419c565b9150506117f6565b505b8094505050505092915050565b600080821415611cb3576040517f08c379a0000000000000000000000000000000000000000000000000000000008152600401611caa90613e5f565b60405180910390fd5b6000611cbf6003613211565b9050600080600190505b828111611d0c578460066000838152602001908152602001600020600401541415611cfb5781611cf89061419c565b91505b80611d059061419c565b9050611cc9565b508092505050919050565b60026000541415611d5d576040517f08c379a0000000000000000000000000000000000000000000000000000000008152600401611d5490613eff565b60405180910390fd5b6002600081905550611d6f6001613211565b8110611db0576040517f08c379a0000000000000000000000000000000000000000000000000000000008152600401611da790613e9f565b60405180910390fd5b60003411611df3576040517f08c379a0000000000000000000000000000000000000000000000000000000008152600401611dea90613e7f565b60405180910390fd5b60006005600083815260200190815260200160002090508060010160009054906101000a900473ffffffffffffffffffffffffffffffffffffffff1673ffffffffffffffffffffffffffffffffffffffff163373ffffffffffffffffffffffffffffffffffffffff161415611e9d576040517f08c379a0000000000000000000000000000000000000000000000000000000008152600401611e9490613edf565b60405180910390fd5b34816003016000828254611eb1919061401d565b925050819055508060010160009054906101000a900473ffffffffffffffffffffffffffffffffffffffff1673ffffffffffffffffffffffffffffffffffffffff166108fc349081150290604051600060405180830381858888f19350505050158015611f22573d6000803e3d6000fd5b506001816004016000828254611f38919061401d565b92505081905550806002015481600301541061202957611f5860026131fb565b60018160050160006101000a81548160ff021916908315150217905550600460009054906101000a900473ffffffffffffffffffffffffffffffffffffffff1673ffffffffffffffffffffffffffffffffffffffff16639e5a5adf8260010160009054906101000a900473ffffffffffffffffffffffffffffffffffffffff16846040518363ffffffff1660e01b8152600401611ff6929190613d9b565b600060405180830381600087803b15801561201057600080fd5b505af1158015612024573d6000803e3d6000fd5b505050505b50600160008190555050565b6060600082141561207b576040517f08c379a000000000000000000000000000000000000000000000000000000000815260040161207290613e5f565b60405180910390fd5b60006120876003613211565b9050600080600190505b8281116120d45784600660008381526020019081526020016000206004015414156120c357816120c09061419c565b91505b806120cd9061419c565b9050612091565b5060008167ffffffffffffffff811115612117577f4e487b7100000000000000000000000000000000000000000000000000000000600052604160045260246000fd5b60405190808252806020026020018201604052801561215057816020015b61213d613395565b8152602001906001900390816121355790505b509050600080600190505b8481116123175786600660008381526020019081526020016000206004015414156123045760008190506000600660008381526020019081526020016000206040518060a0016040529081600082015481526020016001820160009054906101000a900473ffffffffffffffffffffffffffffffffffffffff1673ffffffffffffffffffffffffffffffffffffffff1673ffffffffffffffffffffffffffffffffffffffff1681526020016002820180546122159061416a565b80601f01602080910402602001604051908101604052809291908181526020018280546122419061416a565b801561228e5780601f106122635761010080835404028352916020019161228e565b820191906000526020600020905b81548152906001019060200180831161227157829003601f168201915b50505050508152602001600382015481526020016004820154815250509050808585815181106122e7577f4e487b7100000000000000000000000000000000000000000000000000000000600052603260045260246000fd5b60200260200101819052506001846122ff919061401d565b935050505b808061230f9061419c565b91505061215b565b5081945050505050919050565b6002600054141561236a576040517f08c379a000000000000000000000000000000000000000000000000000000000815260040161236190613eff565b60405180910390fd5b600260008190555060008214156123b6576040517f08c379a00000000000000000000000000000000000000000000000000000000081526004016123ad90613ebf565b60405180910390fd5b6123c060036131fb565b60006123cc6003613211565b90506040518060a001604052808281526020018773ffffffffffffffffffffffffffffffffffffffff16815260200186868080601f016020809104026020016040519081016040528093929190818152602001838380828437600081840152601f19601f82011690508083019250505050505050815260200183815260200184815250600660008381526020019081526020016000206000820151816000015560208201518160010160006101000a81548173ffffffffffffffffffffffffffffffffffffffff021916908373ffffffffffffffffffffffffffffffffffffffff16021790555060408201518160020190805190602001906124cf9291906133da565b50606082015181600301556080820151816004015590505060006005600084815260200190815260200160002060405180610160016040529081600082015481526020016001820160009054906101000a900473ffffffffffffffffffffffffffffffffffffffff1673ffffffffffffffffffffffffffffffffffffffff1673ffffffffffffffffffffffffffffffffffffffff1681526020016002820154815260200160038201548152602001600482015481526020016005820160009054906101000a900460ff161515151581526020016006820180546125b19061416a565b80601f01602080910402602001604051908101604052809291908181526020018280546125dd9061416a565b801561262a5780601f106125ff5761010080835404028352916020019161262a565b820191906000526020600020905b81548152906001019060200180831161260d57829003601f168201915b505050505081526020016007820180546126439061416a565b80601f016020809104026020016040519081016040528092919081815260200182805461266f9061416a565b80156126bc5780601f10612691576101008083540402835291602001916126bc565b820191906000526020600020905b81548152906001019060200180831161269f57829003601f168201915b505050505081526020016008820180546126d59061416a565b80601f01602080910402602001604051908101604052809291908181526020018280546127019061416a565b801561274e5780601f106127235761010080835404028352916020019161274e565b820191906000526020600020905b81548152906001019060200180831161273157829003601f168201915b505050505081526020016009820180546127679061416a565b80601f01602080910402602001604051908101604052809291908181526020018280546127939061416a565b80156127e05780601f106127b5576101008083540402835291602001916127e0565b820191906000526020600020905b8154815290600101906020018083116127c357829003601f168201915b50505050508152602001600a820180546127f99061416a565b80601f01602080910402602001604051908101604052809291908181526020018280546128259061416a565b80156128725780601f1061284757610100808354040283529160200191612872565b820191906000526020600020905b81548152906001019060200180831161285557829003601f168201915b5050505050815250509050600460009054906101000a900473ffffffffffffffffffffffffffffffffffffffff1673ffffffffffffffffffffffffffffffffffffffff1663a685a582826020015185856040518463ffffffff1660e01b81526004016128e093929190613dc4565b600060405180830381600087803b1580156128fa57600080fd5b505af115801561290e573d6000803e3d6000fd5b50505050505060016000819055505050505050565b606060006129316001613211565b9050600061293f6002613211565b905060008082846129509190614073565b67ffffffffffffffff81111561298f577f4e487b7100000000000000000000000000000000000000000000000000000000600052604160045260246000fd5b6040519080825280602002602001820160405280156129c857816020015b6129b5613460565b8152602001906001900390816129ad5790505b50905060005b84811015612e03576005600082815260200190815260200160002060050160009054906101000a900460ff16612df057600081905060006005600083815260200190815260200160002060405180610160016040529081600082015481526020016001820160009054906101000a900473ffffffffffffffffffffffffffffffffffffffff1673ffffffffffffffffffffffffffffffffffffffff1673ffffffffffffffffffffffffffffffffffffffff1681526020016002820154815260200160038201548152602001600482015481526020016005820160009054906101000a900460ff16151515158152602001600682018054612acd9061416a565b80601f0160208091040260200160405190810160405280929190818152602001828054612af99061416a565b8015612b465780601f10612b1b57610100808354040283529160200191612b46565b820191906000526020600020905b815481529060010190602001808311612b2957829003601f168201915b50505050508152602001600782018054612b5f9061416a565b80601f0160208091040260200160405190810160405280929190818152602001828054612b8b9061416a565b8015612bd85780601f10612bad57610100808354040283529160200191612bd8565b820191906000526020600020905b815481529060010190602001808311612bbb57829003601f168201915b50505050508152602001600882018054612bf19061416a565b80601f0160208091040260200160405190810160405280929190818152602001828054612c1d9061416a565b8015612c6a5780601f10612c3f57610100808354040283529160200191612c6a565b820191906000526020600020905b815481529060010190602001808311612c4d57829003601f168201915b50505050508152602001600982018054612c839061416a565b80601f0160208091040260200160405190810160405280929190818152602001828054612caf9061416a565b8015612cfc5780601f10612cd157610100808354040283529160200191612cfc565b820191906000526020600020905b815481529060010190602001808311612cdf57829003601f168201915b50505050508152602001600a82018054612d159061416a565b80601f0160208091040260200160405190810160405280929190818152602001828054612d419061416a565b8015612d8e5780601f10612d6357610100808354040283529160200191612d8e565b820191906000526020600020905b815481529060010190602001808311612d7157829003601f168201915b505050505081525050905080848681518110612dd3577f4e487b7100000000000000000000000000000000000000000000000000000000600052603260045260246000fd5b6020026020010181905250600185612deb919061401d565b945050505b8080612dfb9061419c565b9150506129ce565b508094505050505090565b60026000541415612e54576040517f08c379a0000000000000000000000000000000000000000000000000000000008152600401612e4b90613eff565b60405180910390fd5b600260008190555060008b11612e9f576040517f08c379a0000000000000000000000000000000000000000000000000000000008152600401612e9690613e3f565b60405180910390fd5b6000612eab6001613211565b90506040518061016001604052808281526020013373ffffffffffffffffffffffffffffffffffffffff1681526020018d815260200160008152602001600081526020016000151581526020018c8c8080601f016020809104026020016040519081016040528093929190818152602001838380828437600081840152601f19601f8201169050808301925050505050505081526020018a8a8080601f016020809104026020016040519081016040528093929190818152602001838380828437600081840152601f19601f82011690508083019250505050505050815260200188888080601f016020809104026020016040519081016040528093929190818152602001838380828437600081840152601f19601f82011690508083019250505050505050815260200186868080601f016020809104026020016040519081016040528093929190818152602001838380828437600081840152601f19601f82011690508083019250505050505050815260200184848080601f016020809104026020016040519081016040528093929190818152602001838380828437600081840152601f19601f82011690508083019250505050505050815250600560008381526020019081526020016000206000820151816000015560208201518160010160006101000a81548173ffffffffffffffffffffffffffffffffffffffff021916908373ffffffffffffffffffffffffffffffffffffffff16021790555060408201518160020155606082015181600301556080820151816004015560a08201518160050160006101000a81548160ff02191690831515021790555060c08201518160060190805190602001906131269291906133da565b5060e08201518160070190805190602001906131439291906133da565b506101008201518160080190805190602001906131619291906133da565b5061012082015181600901908051906020019061317f9291906133da565b5061014082015181600a01908051906020019061319d9291906133da565b50905050807fd8737c21c8c06f7ea4e9e3a837adff6378cc6587c210895878835a452f8c8983338e6040516131d3929190613d9b565b60405180910390a26131e560016131fb565b5060016000819055505050505050505050505050565b6001816000016000828254019250508190555050565b600081600001549050919050565b600080839050600083905060008251825110156132415780935050505061338f565b60005b835183516132529190614073565b81116133875760006001905060005b8551811015613362578581815181106132a3577f4e487b7100000000000000000000000000000000000000000000000000000000600052603260045260246000fd5b602001015160f81c60f81b7effffffffffffffffffffffffffffffffffffffffffffffffffffffffffffff19168582856132dd919061401d565b81518110613314577f4e487b7100000000000000000000000000000000000000000000000000000000600052603260045260246000fd5b602001015160f81c60f81b7effffffffffffffffffffffffffffffffffffffffffffffffffffffffffffff19161461334f5760009150613362565b808061335a9061419c565b915050613261565b508015613373576001925050613387565b50808061337f9061419c565b915050613244565b508093505050505b92915050565b6040518060a0016040528060008152602001600073ffffffffffffffffffffffffffffffffffffffff1681526020016060815260200160008152602001600081525090565b8280546133e69061416a565b90600052602060002090601f016020900481019282613408576000855561344f565b82601f1061342157805160ff191683800117855561344f565b8280016001018555821561344f579182015b8281111561344e578251825591602001919060010190613433565b5b50905061345c91906134d2565b5090565b60405180610160016040528060008152602001600073ffffffffffffffffffffffffffffffffffffffff16815260200160008152602001600081526020016000815260200160001515815260200160608152602001606081526020016060815260200160608152602001606081525090565b5b808211156134eb5760008160009055506001016134d3565b5090565b6000813590506134fe81614431565b92915050565b60008083601f84011261351657600080fd5b8235905067ffffffffffffffff81111561352f57600080fd5b60208301915083600182028301111561354757600080fd5b9250929050565b60008135905061355d81614448565b92915050565b60006020828403121561357557600080fd5b6000613583848285016134ef565b91505092915050565b600080600080606085870312156135a257600080fd5b60006135b0878288016134ef565b945050602085013567ffffffffffffffff8111156135cd57600080fd5b6135d987828801613504565b935093505060406135ec8782880161354e565b91505092959194509250565b60008060008060006080868803121561361057600080fd5b600061361e888289016134ef565b955050602086013567ffffffffffffffff81111561363b57600080fd5b61364788828901613504565b9450945050604061365a8882890161354e565b925050606061366b8882890161354e565b9150509295509295909350565b6000806020838503121561368b57600080fd5b600083013567ffffffffffffffff8111156136a557600080fd5b6136b185828601613504565b92509250509250929050565b6000602082840312156136cf57600080fd5b60006136dd8482850161354e565b91505092915050565b600080600080600080600080600080600060c08c8e03121561370757600080fd5b60006137158e828f0161354e565b9b505060208c013567ffffffffffffffff81111561373257600080fd5b61373e8e828f01613504565b9a509a505060408c013567ffffffffffffffff81111561375d57600080fd5b6137698e828f01613504565b985098505060608c013567ffffffffffffffff81111561378857600080fd5b6137948e828f01613504565b965096505060808c013567ffffffffffffffff8111156137b357600080fd5b6137bf8e828f01613504565b945094505060a08c013567ffffffffffffffff8111156137de57600080fd5b6137ea8e828f01613504565b92509250509295989b509295989b9093969950565b600061380b8383613a7b565b905092915050565b600061381f8383613b67565b905092915050565b61383081614101565b82525050565b61383f816140b9565b82525050565b61384e816140a7565b82525050565b600061385f82613f9e565b6138698185613fd9565b93508360208202850161387b85613f7e565b8060005b858110156138b7578484038952815161389885826137ff565b94506138a383613fbf565b925060208a0199505060018101905061387f565b50829750879550505050505092915050565b60006138d482613fa9565b6138de8185613fea565b9350836020820285016138f085613f8e565b8060005b8581101561392c578484038952815161390d8582613813565b945061391883613fcc565b925060208a019950506001810190506138f4565b50829750879550505050505092915050565b613947816140cb565b82525050565b600061395882613fb4565b6139628185613ffb565b9350613972818560208601614137565b61397b81614243565b840191505092915050565b6000613993602a8361400c565b915061399e82614254565b604082019050919050565b60006139b660218361400c565b91506139c1826142a3565b604082019050919050565b60006139d960438361400c565b91506139e4826142f2565b606082019050919050565b60006139fc60168361400c565b9150613a0782614367565b602082019050919050565b6000613a1f60178361400c565b9150613a2a82614390565b602082019050919050565b6000613a42602e8361400c565b9150613a4d826143b9565b604082019050919050565b6000613a65601f8361400c565b9150613a7082614408565b602082019050919050565b600060a083016000830151613a936000860182613d7d565b506020830151613aa66020860182613845565b5060408301518482036040860152613abe828261394d565b9150506060830151613ad36060860182613d7d565b506080830151613ae66080860182613d7d565b508091505092915050565b600060a083016000830151613b096000860182613d7d565b506020830151613b1c6020860182613845565b5060408301518482036040860152613b34828261394d565b9150506060830151613b496060860182613d7d565b506080830151613b5c6080860182613d7d565b508091505092915050565b600061016083016000830151613b806000860182613d7d565b506020830151613b936020860182613836565b506040830151613ba66040860182613d7d565b506060830151613bb96060860182613d7d565b506080830151613bcc6080860182613d7d565b5060a0830151613bdf60a086018261393e565b5060c083015184820360c0860152613bf7828261394d565b91505060e083015184820360e0860152613c11828261394d565b915050610100830151848203610100860152613c2d828261394d565b915050610120830151848203610120860152613c49828261394d565b915050610140830151848203610140860152613c65828261394d565b9150508091505092915050565b600061016083016000830151613c8b6000860182613d7d565b506020830151613c9e6020860182613836565b506040830151613cb16040860182613d7d565b506060830151613cc46060860182613d7d565b506080830151613cd76080860182613d7d565b5060a0830151613cea60a086018261393e565b5060c083015184820360c0860152613d02828261394d565b91505060e083015184820360e0860152613d1c828261394d565b915050610100830151848203610100860152613d38828261394d565b915050610120830151848203610120860152613d54828261394d565b915050610140830151848203610140860152613d70828261394d565b9150508091505092915050565b613d86816140f7565b82525050565b613d95816140f7565b82525050565b6000604082019050613db06000830185613827565b613dbd6020830184613d8c565b9392505050565b6000606082019050613dd96000830186613827565b613de66020830185613d8c565b613df36040830184613d8c565b949350505050565b60006020820190508181036000830152613e158184613854565b905092915050565b60006020820190508181036000830152613e3781846138c9565b905092915050565b60006020820190508181036000830152613e5881613986565b9050919050565b60006020820190508181036000830152613e78816139a9565b9050919050565b60006020820190508181036000830152613e98816139cc565b9050919050565b60006020820190508181036000830152613eb8816139ef565b9050919050565b60006020820190508181036000830152613ed881613a12565b9050919050565b60006020820190508181036000830152613ef881613a35565b9050919050565b60006020820190508181036000830152613f1881613a58565b9050919050565b60006020820190508181036000830152613f398184613af1565b905092915050565b60006020820190508181036000830152613f5b8184613c72565b905092915050565b6000602082019050613f786000830184613d8c565b92915050565b6000819050602082019050919050565b6000819050602082019050919050565b600081519050919050565b600081519050919050565b600081519050919050565b6000602082019050919050565b6000602082019050919050565b600082825260208201905092915050565b600082825260208201905092915050565b600082825260208201905092915050565b600082825260208201905092915050565b6000614028826140f7565b9150614033836140f7565b9250827fffffffffffffffffffffffffffffffffffffffffffffffffffffffffffffffff03821115614068576140676141e5565b5b828201905092915050565b600061407e826140f7565b9150614089836140f7565b92508282101561409c5761409b6141e5565b5b828203905092915050565b60006140b2826140d7565b9050919050565b60006140c4826140d7565b9050919050565b60008115159050919050565b600073ffffffffffffffffffffffffffffffffffffffff82169050919050565b6000819050919050565b600061410c82614113565b9050919050565b600061411e82614125565b9050919050565b6000614130826140d7565b9050919050565b60005b8381101561415557808201518184015260208101905061413a565b83811115614164576000848401525b50505050565b6000600282049050600182168061418257607f821691505b6020821081141561419657614195614214565b5b50919050565b60006141a7826140f7565b91507fffffffffffffffffffffffffffffffffffffffffffffffffffffffffffffffff8214156141da576141d96141e5565b5b600182019050919050565b7f4e487b7100000000000000000000000000000000000000000000000000000000600052601160045260246000fd5b7f4e487b7100000000000000000000000000000000000000000000000000000000600052602260045260246000fd5b6000601f19601f8301169050919050565b7f546865207265717565737465642066756e6473206d757374206265206174206c60008201527f6561737420312077656900000000000000000000000000000000000000000000602082015250565b7f436f6d6d656e74206964656e7469666965722063616e6e6f74206265207a657260008201527f6f00000000000000000000000000000000000000000000000000000000000000602082015250565b7f506c6561736520646f6e6174652061206d696e696d756d206f6620312077656960008201527f20696e206f7264657220746f20636f6d706c65746520746865206f706572617460208201527f696f6e0000000000000000000000000000000000000000000000000000000000604082015250565b7f4974656d20696420646f6573206e6f7420657869737400000000000000000000600082015250565b7f57726f6e6720706172656e74206964656e746966696572000000000000000000600082015250565b7f596f752063616e6e6f7420646f6e61746520746f20796f7572206f776e20667560008201527f6e64696e672063616d706169676e000000000000000000000000000000000000602082015250565b7f5265656e7472616e637947756172643a207265656e7472616e742063616c6c00600082015250565b61443a816140a7565b811461444557600080fd5b50565b614451816140f7565b811461445c57600080fd5b5056fea2646970667358221220713340b1840a73c2fe395f9a3fe40705ae9c1cf52be23c62b9b1f6d5e1fb02da64736f6c63430008040033",
  "linkReferences": {},
  "deployedLinkReferences": {}
}