{
  "_format": "hh-sol-artifact-1",
  "contractName": "FundMarket",
  "sourceName": "contracts/fundMarket.sol",
  "abi": [
    {
      "anonymous": false,
      "inputs": [
        {
          "indexed": true,
          "internalType": "uint256",
          "name": "itemId",
          "type": "uint256"
        },
        {
          "indexed": false,
          "internalType": "address",
          "name": "campaignOwner",
          "type": "address"
        },
        {
          "indexed": false,
          "internalType": "uint256",
          "name": "FundsRequested",
          "type": "uint256"
        }
      ],
      "name": "CampaignStarted",
      "type": "event"
    },
    {
      "inputs": [
        {
          "internalType": "address",
          "name": "user",
          "type": "address"
        },
        {
          "internalType": "string",
          "name": "message",
          "type": "string"
        },
        {
          "internalType": "uint256",
          "name": "campaignId",
          "type": "uint256"
        }
      ],
      "name": "comment",
      "outputs": [],
      "stateMutability": "nonpayable",
      "type": "function"
    },
    {
      "inputs": [
        {
          "internalType": "uint256",
          "name": "FundsRequested",
          "type": "uint256"
        },
        {
          "internalType": "string",
          "name": "title",
          "type": "string"
        },
        {
          "internalType": "string",
          "name": "description",
          "type": "string"
        },
        {
          "internalType": "string",
          "name": "info",
          "type": "string"
        },
        {
          "internalType": "string",
          "name": "url",
          "type": "string"
        },
        {
          "internalType": "string",
          "name": "ipfsHash",
          "type": "string"
        }
      ],
      "name": "createCampaign",
      "outputs": [],
      "stateMutability": "payable",
      "type": "function"
    },
    {
      "inputs": [
        {
          "internalType": "uint256",
          "name": "itemId",
          "type": "uint256"
        }
      ],
      "name": "donateCampaign",
      "outputs": [],
      "stateMutability": "payable",
      "type": "function"
    },
    {
      "inputs": [],
      "name": "fetchCampaigns",
      "outputs": [
        {
          "components": [
            {
              "internalType": "uint256",
              "name": "itemId",
              "type": "uint256"
            },
            {
              "internalType": "address payable",
              "name": "campaignOwner",
              "type": "address"
            },
            {
              "internalType": "uint256",
              "name": "FundsRequested",
              "type": "uint256"
            },
            {
              "internalType": "uint256",
              "name": "FundsCollected",
              "type": "uint256"
            },
            {
              "internalType": "uint256",
              "name": "totalDonators",
              "type": "uint256"
            },
            {
              "internalType": "bool",
              "name": "fundsReached",
              "type": "bool"
            },
            {
              "internalType": "string",
              "name": "title",
              "type": "string"
            },
            {
              "internalType": "string",
              "name": "description",
              "type": "string"
            },
            {
              "internalType": "string",
              "name": "info",
              "type": "string"
            },
            {
              "internalType": "string",
              "name": "url",
              "type": "string"
            },
            {
              "internalType": "string",
              "name": "ipfsHash",
              "type": "string"
            }
          ],
          "internalType": "struct FundMarket.FundingCampaign[]",
          "name": "",
          "type": "tuple[]"
        }
      ],
      "stateMutability": "view",
      "type": "function"
    },
    {
      "inputs": [
        {
          "internalType": "string",
          "name": "searchWord",
          "type": "string"
        }
      ],
      "name": "fetchCampaignsByWord",
      "outputs": [
        {
          "components": [
            {
              "internalType": "uint256",
              "name": "itemId",
              "type": "uint256"
            },
            {
              "internalType": "address payable",
              "name": "campaignOwner",
              "type": "address"
            },
            {
              "internalType": "uint256",
              "name": "FundsRequested",
              "type": "uint256"
            },
            {
              "internalType": "uint256",
              "name": "FundsCollected",
              "type": "uint256"
            },
            {
              "internalType": "uint256",
              "name": "totalDonators",
              "type": "uint256"
            },
            {
              "internalType": "bool",
              "name": "fundsReached",
              "type": "bool"
            },
            {
              "internalType": "string",
              "name": "title",
              "type": "string"
            },
            {
              "internalType": "string",
              "name": "description",
              "type": "string"
            },
            {
              "internalType": "string",
              "name": "info",
              "type": "string"
            },
            {
              "internalType": "string",
              "name": "url",
              "type": "string"
            },
            {
              "internalType": "string",
              "name": "ipfsHash",
              "type": "string"
            }
          ],
          "internalType": "struct FundMarket.FundingCampaign[]",
          "name": "",
          "type": "tuple[]"
        }
      ],
      "stateMutability": "view",
      "type": "function"
    },
    {
      "inputs": [
        {
          "internalType": "address",
          "name": "myAddress",
          "type": "address"
        }
      ],
      "name": "fetchMyCampaigns",
      "outputs": [
        {
          "components": [
            {
              "internalType": "uint256",
              "name": "itemId",
              "type": "uint256"
            },
            {
              "internalType": "address payable",
              "name": "campaignOwner",
              "type": "address"
            },
            {
              "internalType": "uint256",
              "name": "FundsRequested",
              "type": "uint256"
            },
            {
              "internalType": "uint256",
              "name": "FundsCollected",
              "type": "uint256"
            },
            {
              "internalType": "uint256",
              "name": "totalDonators",
              "type": "uint256"
            },
            {
              "internalType": "bool",
              "name": "fundsReached",
              "type": "bool"
            },
            {
              "internalType": "string",
              "name": "title",
              "type": "string"
            },
            {
              "internalType": "string",
              "name": "description",
              "type": "string"
            },
            {
              "internalType": "string",
              "name": "info",
              "type": "string"
            },
            {
              "internalType": "string",
              "name": "url",
              "type": "string"
            },
            {
              "internalType": "string",
              "name": "ipfsHash",
              "type": "string"
            }
          ],
          "internalType": "struct FundMarket.FundingCampaign[]",
          "name": "",
          "type": "tuple[]"
        }
      ],
      "stateMutability": "view",
      "type": "function"
    },
    {
      "inputs": [
        {
          "internalType": "uint256",
          "name": "itemId",
          "type": "uint256"
        }
      ],
      "name": "getCampaign",
      "outputs": [
        {
          "components": [
            {
              "internalType": "uint256",
              "name": "itemId",
              "type": "uint256"
            },
            {
              "internalType": "address payable",
              "name": "campaignOwner",
              "type": "address"
            },
            {
              "internalType": "uint256",
              "name": "FundsRequested",
              "type": "uint256"
            },
            {
              "internalType": "uint256",
              "name": "FundsCollected",
              "type": "uint256"
            },
            {
              "internalType": "uint256",
              "name": "totalDonators",
              "type": "uint256"
            },
            {
              "internalType": "bool",
              "name": "fundsReached",
              "type": "bool"
            },
            {
              "internalType": "string",
              "name": "title",
              "type": "string"
            },
            {
              "internalType": "string",
              "name": "description",
              "type": "string"
            },
            {
              "internalType": "string",
              "name": "info",
              "type": "string"
            },
            {
              "internalType": "string",
              "name": "url",
              "type": "string"
            },
            {
              "internalType": "string",
              "name": "ipfsHash",
              "type": "string"
            }
          ],
          "internalType": "struct FundMarket.FundingCampaign",
          "name": "",
          "type": "tuple"
        }
      ],
      "stateMutability": "view",
      "type": "function"
    },
    {
      "inputs": [
        {
          "internalType": "uint256",
          "name": "id",
          "type": "uint256"
        }
      ],
      "name": "getComment",
      "outputs": [
        {
          "components": [
            {
              "internalType": "uint256",
              "name": "commentId",
              "type": "uint256"
            },
            {
              "internalType": "address",
              "name": "commentator",
              "type": "address"
            },
            {
              "internalType": "string",
              "name": "message",
              "type": "string"
            },
            {
              "internalType": "uint256",
              "name": "campaignId",
              "type": "uint256"
            },
            {
              "internalType": "uint256",
              "name": "parentCommentId",
              "type": "uint256"
            }
          ],
          "internalType": "struct FundMarket.Comment",
          "name": "",
          "type": "tuple"
        }
      ],
      "stateMutability": "view",
      "type": "function"
    },
    {
      "inputs": [
        {
          "internalType": "uint256",
          "name": "campaign",
          "type": "uint256"
        }
      ],
      "name": "getComments",
      "outputs": [
        {
          "components": [
            {
              "internalType": "uint256",
              "name": "commentId",
              "type": "uint256"
            },
            {
              "internalType": "address",
              "name": "commentator",
              "type": "address"
            },
            {
              "internalType": "string",
              "name": "message",
              "type": "string"
            },
            {
              "internalType": "uint256",
              "name": "campaignId",
              "type": "uint256"
            },
            {
              "internalType": "uint256",
              "name": "parentCommentId",
              "type": "uint256"
            }
          ],
          "internalType": "struct FundMarket.Comment[]",
          "name": "",
          "type": "tuple[]"
        }
      ],
      "stateMutability": "view",
      "type": "function"
    },
    {
      "inputs": [
        {
          "internalType": "uint256",
          "name": "commentId",
          "type": "uint256"
        }
      ],
      "name": "getReplies",
      "outputs": [
        {
          "components": [
            {
              "internalType": "uint256",
              "name": "commentId",
              "type": "uint256"
            },
            {
              "internalType": "address",
              "name": "commentator",
              "type": "address"
            },
            {
              "internalType": "string",
              "name": "message",
              "type": "string"
            },
            {
              "internalType": "uint256",
              "name": "campaignId",
              "type": "uint256"
            },
            {
              "internalType": "uint256",
              "name": "parentCommentId",
              "type": "uint256"
            }
          ],
          "internalType": "struct FundMarket.Comment[]",
          "name": "",
          "type": "tuple[]"
        }
      ],
      "stateMutability": "view",
      "type": "function"
    },
    {
      "inputs": [
        {
          "internalType": "address",
          "name": "user",
          "type": "address"
        },
        {
          "internalType": "string",
          "name": "message",
          "type": "string"
        },
        {
          "internalType": "uint256",
          "name": "parentCommentId",
          "type": "uint256"
        },
        {
          "internalType": "uint256",
          "name": "campaignId",
          "type": "uint256"
        }
      ],
      "name": "reply",
      "outputs": [],
      "stateMutability": "nonpayable",
      "type": "function"
    }
  ],
  "bytecode": "0x608060405234801561001057600080fd5b506001600081905550613a49806100286000396000f3fe60806040526004361061009c5760003560e01c80635ef5c9af116100645780635ef5c9af146101be5780638ffff8b0146101fb578063ae58449d14610217578063b5d481f714610254578063c33d06fa1461027d578063dc640767146102a85761009c565b80630800e300146100a157806316f43087146100de57806323edf697146101075780634457ca7e146101445780635598f8cc14610181575b600080fd5b3480156100ad57600080fd5b506100c860048036038101906100c39190612cc3565b6102c4565b6040516100d591906134ee565b60405180910390f35b3480156100ea57600080fd5b5061010560048036038101906101009190612b92565b6103f7565b005b34801561011357600080fd5b5061012e60048036038101906101299190612cc3565b610586565b60405161013b91906133ca565b60405180910390f35b34801561015057600080fd5b5061016b60048036038101906101669190612b69565b610875565b60405161017891906133ec565b60405180910390f35b34801561018d57600080fd5b506101a860048036038101906101a39190612cc3565b610e21565b6040516101b59190613510565b60405180910390f35b3480156101ca57600080fd5b506101e560048036038101906101e09190612c7e565b6111c2565b6040516101f291906133ec565b60405180910390f35b61021560048036038101906102109190612cc3565b6117fc565b005b34801561022357600080fd5b5061023e60048036038101906102399190612cc3565b611a67565b60405161024b91906133ca565b60405180910390f35b34801561026057600080fd5b5061027b60048036038101906102769190612bfe565b611d56565b005b34801561028957600080fd5b50610292611f29565b60405161029f91906133ec565b60405180910390f35b6102c260048036038101906102bd9190612cec565b612414565b005b6102cc61299b565b600560008381526020019081526020016000206040518060a0016040529081600082015481526020016001820160009054906101000a900473ffffffffffffffffffffffffffffffffffffffff1673ffffffffffffffffffffffffffffffffffffffff1673ffffffffffffffffffffffffffffffffffffffff16815260200160028201805461035a9061371e565b80601f01602080910402602001604051908101604052809291908181526020018280546103869061371e565b80156103d35780601f106103a8576101008083540402835291602001916103d3565b820191906000526020600020905b8154815290600101906020018083116103b657829003601f168201915b50505050508152602001600382015481526020016004820154815250509050919050565b6002600054141561043d576040517f08c379a0000000000000000000000000000000000000000000000000000000008152600401610434906134ce565b60405180910390fd5b600260008190555061044f6003612801565b600061045b6003612817565b90506040518060a001604052808281526020018673ffffffffffffffffffffffffffffffffffffffff16815260200185858080601f016020809104026020016040519081016040528093929190818152602001838380828437600081840152601f19601f8201169050808301925050505050505081526020018381526020016000815250600560008381526020019081526020016000206000820151816000015560208201518160010160006101000a81548173ffffffffffffffffffffffffffffffffffffffff021916908373ffffffffffffffffffffffffffffffffffffffff160217905550604082015181600201908051906020019061055f9291906129e0565b50606082015181600301556080820151816004015590505050600160008190555050505050565b606060006105946003612817565b9050600080600190505b828111610603578460056000838152602001908152602001600020600301541480156105e0575060006005600083815260200190815260200160002060040154145b156105f257816105ef90613750565b91505b806105fc90613750565b905061059e565b5060008167ffffffffffffffff811115610646577f4e487b7100000000000000000000000000000000000000000000000000000000600052604160045260246000fd5b60405190808252806020026020018201604052801561067f57816020015b61066c61299b565b8152602001906001900390816106645790505b509050600080600190505b848111610868578660056000838152602001908152602001600020600301541480156106cc575060006005600083815260200190815260200160002060040154145b156108555760008190506000600560008381526020019081526020016000206040518060a0016040529081600082015481526020016001820160009054906101000a900473ffffffffffffffffffffffffffffffffffffffff1673ffffffffffffffffffffffffffffffffffffffff1673ffffffffffffffffffffffffffffffffffffffff1681526020016002820180546107669061371e565b80601f01602080910402602001604051908101604052809291908181526020018280546107929061371e565b80156107df5780601f106107b4576101008083540402835291602001916107df565b820191906000526020600020905b8154815290600101906020018083116107c257829003601f168201915b5050505050815260200160038201548152602001600482015481525050905080858581518110610838577f4e487b7100000000000000000000000000000000000000000000000000000000600052603260045260246000fd5b602002602001018190525060018461085091906135d1565b935050505b808061086090613750565b91505061068a565b5081945050505050919050565b606060006108836001612817565b905060008060005b8381101561091b578573ffffffffffffffffffffffffffffffffffffffff166004600083815260200190815260200160002060010160009054906101000a900473ffffffffffffffffffffffffffffffffffffffff1673ffffffffffffffffffffffffffffffffffffffff16141561090a578161090790613750565b91505b8061091490613750565b905061088b565b5060008167ffffffffffffffff81111561095e577f4e487b7100000000000000000000000000000000000000000000000000000000600052604160045260246000fd5b60405190808252806020026020018201604052801561099757816020015b610984612a66565b81526020019060019003908161097c5790505b50905060005b84811015610e14578673ffffffffffffffffffffffffffffffffffffffff166004600083815260200190815260200160002060010160009054906101000a900473ffffffffffffffffffffffffffffffffffffffff1673ffffffffffffffffffffffffffffffffffffffff161415610e0157600081905060006004600083815260200190815260200160002060405180610160016040529081600082015481526020016001820160009054906101000a900473ffffffffffffffffffffffffffffffffffffffff1673ffffffffffffffffffffffffffffffffffffffff1673ffffffffffffffffffffffffffffffffffffffff1681526020016002820154815260200160038201548152602001600482015481526020016005820160009054906101000a900460ff16151515158152602001600682018054610ade9061371e565b80601f0160208091040260200160405190810160405280929190818152602001828054610b0a9061371e565b8015610b575780601f10610b2c57610100808354040283529160200191610b57565b820191906000526020600020905b815481529060010190602001808311610b3a57829003601f168201915b50505050508152602001600782018054610b709061371e565b80601f0160208091040260200160405190810160405280929190818152602001828054610b9c9061371e565b8015610be95780601f10610bbe57610100808354040283529160200191610be9565b820191906000526020600020905b815481529060010190602001808311610bcc57829003601f168201915b50505050508152602001600882018054610c029061371e565b80601f0160208091040260200160405190810160405280929190818152602001828054610c2e9061371e565b8015610c7b5780601f10610c5057610100808354040283529160200191610c7b565b820191906000526020600020905b815481529060010190602001808311610c5e57829003601f168201915b50505050508152602001600982018054610c949061371e565b80601f0160208091040260200160405190810160405280929190818152602001828054610cc09061371e565b8015610d0d5780601f10610ce257610100808354040283529160200191610d0d565b820191906000526020600020905b815481529060010190602001808311610cf057829003601f168201915b50505050508152602001600a82018054610d269061371e565b80601f0160208091040260200160405190810160405280929190818152602001828054610d529061371e565b8015610d9f5780601f10610d7457610100808354040283529160200191610d9f565b820191906000526020600020905b815481529060010190602001808311610d8257829003601f168201915b505050505081525050905080848781518110610de4577f4e487b7100000000000000000000000000000000000000000000000000000000600052603260045260246000fd5b6020026020010181905250600186610dfc91906135d1565b955050505b8080610e0c90613750565b91505061099d565b5080945050505050919050565b610e29612a66565b6004600083815260200190815260200160002060405180610160016040529081600082015481526020016001820160009054906101000a900473ffffffffffffffffffffffffffffffffffffffff1673ffffffffffffffffffffffffffffffffffffffff1673ffffffffffffffffffffffffffffffffffffffff1681526020016002820154815260200160038201548152602001600482015481526020016005820160009054906101000a900460ff16151515158152602001600682018054610ef19061371e565b80601f0160208091040260200160405190810160405280929190818152602001828054610f1d9061371e565b8015610f6a5780601f10610f3f57610100808354040283529160200191610f6a565b820191906000526020600020905b815481529060010190602001808311610f4d57829003601f168201915b50505050508152602001600782018054610f839061371e565b80601f0160208091040260200160405190810160405280929190818152602001828054610faf9061371e565b8015610ffc5780601f10610fd157610100808354040283529160200191610ffc565b820191906000526020600020905b815481529060010190602001808311610fdf57829003601f168201915b505050505081526020016008820180546110159061371e565b80601f01602080910402602001604051908101604052809291908181526020018280546110419061371e565b801561108e5780601f106110635761010080835404028352916020019161108e565b820191906000526020600020905b81548152906001019060200180831161107157829003601f168201915b505050505081526020016009820180546110a79061371e565b80601f01602080910402602001604051908101604052809291908181526020018280546110d39061371e565b80156111205780601f106110f557610100808354040283529160200191611120565b820191906000526020600020905b81548152906001019060200180831161110357829003601f168201915b50505050508152602001600a820180546111399061371e565b80601f01602080910402602001604051908101604052809291908181526020018280546111659061371e565b80156111b25780601f10611187576101008083540402835291602001916111b2565b820191906000526020600020905b81548152906001019060200180831161119557829003601f168201915b5050505050815250509050919050565b606060006111d06001612817565b90506000805b828110156112f85760006004600083815260200190815260200160002090506112cf87878080601f016020809104026020016040519081016040528093929190818152602001838380828437600081840152601f19601f8201169050808301925050505050505082600601805461124c9061371e565b80601f01602080910402602001604051908101604052809291908181526020018280546112789061371e565b80156112c55780601f1061129a576101008083540402835291602001916112c5565b820191906000526020600020905b8154815290600101906020018083116112a857829003601f168201915b5050505050612825565b156112e4576001836112e191906135d1565b92505b5080806112f090613750565b9150506111d6565b506000808267ffffffffffffffff81111561133c577f4e487b7100000000000000000000000000000000000000000000000000000000600052604160045260246000fd5b60405190808252806020026020018201604052801561137557816020015b611362612a66565b81526020019060019003908161135a5790505b50905060008311156117ef5760005b848110801561139257508383105b156117ed5760006004600083815260200190815260200160002060405180610160016040529081600082015481526020016001820160009054906101000a900473ffffffffffffffffffffffffffffffffffffffff1673ffffffffffffffffffffffffffffffffffffffff1673ffffffffffffffffffffffffffffffffffffffff1681526020016002820154815260200160038201548152602001600482015481526020016005820160009054906101000a900460ff161515151581526020016006820180546114619061371e565b80601f016020809104026020016040519081016040528092919081815260200182805461148d9061371e565b80156114da5780601f106114af576101008083540402835291602001916114da565b820191906000526020600020905b8154815290600101906020018083116114bd57829003601f168201915b505050505081526020016007820180546114f39061371e565b80601f016020809104026020016040519081016040528092919081815260200182805461151f9061371e565b801561156c5780601f106115415761010080835404028352916020019161156c565b820191906000526020600020905b81548152906001019060200180831161154f57829003601f168201915b505050505081526020016008820180546115859061371e565b80601f01602080910402602001604051908101604052809291908181526020018280546115b19061371e565b80156115fe5780601f106115d3576101008083540402835291602001916115fe565b820191906000526020600020905b8154815290600101906020018083116115e157829003601f168201915b505050505081526020016009820180546116179061371e565b80601f01602080910402602001604051908101604052809291908181526020018280546116439061371e565b80156116905780601f1061166557610100808354040283529160200191611690565b820191906000526020600020905b81548152906001019060200180831161167357829003601f168201915b50505050508152602001600a820180546116a99061371e565b80601f01602080910402602001604051908101604052809291908181526020018280546116d59061371e565b80156117225780601f106116f757610100808354040283529160200191611722565b820191906000526020600020905b81548152906001019060200180831161170557829003601f168201915b505050505081525050905061177f89898080601f016020809104026020016040519081016040528093929190818152602001838380828437600081840152601f19601f820116905080830192505050505050508260c00151612825565b156117d957808385815181106117be577f4e487b7100000000000000000000000000000000000000000000000000000000600052603260045260246000fd5b60200260200101819052506001846117d691906135d1565b93505b5080806117e590613750565b915050611384565b505b8094505050505092915050565b60026000541415611842576040517f08c379a0000000000000000000000000000000000000000000000000000000008152600401611839906134ce565b60405180910390fd5b60026000819055506118546001612817565b8110611895576040517f08c379a000000000000000000000000000000000000000000000000000000000815260040161188c9061346e565b60405180910390fd5b600034116118d8576040517f08c379a00000000000000000000000000000000000000000000000000000000081526004016118cf9061344e565b60405180910390fd5b60006004600083815260200190815260200160002090508060010160009054906101000a900473ffffffffffffffffffffffffffffffffffffffff1673ffffffffffffffffffffffffffffffffffffffff163373ffffffffffffffffffffffffffffffffffffffff161415611982576040517f08c379a0000000000000000000000000000000000000000000000000000000008152600401611979906134ae565b60405180910390fd5b3481600301600082825461199691906135d1565b925050819055508060010160009054906101000a900473ffffffffffffffffffffffffffffffffffffffff1673ffffffffffffffffffffffffffffffffffffffff166108fc349081150290604051600060405180830381858888f19350505050158015611a07573d6000803e3d6000fd5b506001816004016000828254611a1d91906135d1565b925050819055508060020154816003015410611a5b57611a3d6002612801565b60018160050160006101000a81548160ff0219169083151502179055505b50600160008190555050565b60606000821415611aad576040517f08c379a0000000000000000000000000000000000000000000000000000000008152600401611aa49061342e565b60405180910390fd5b6000611ab96003612817565b9050600080600190505b828111611b06578460056000838152602001908152602001600020600401541415611af55781611af290613750565b91505b80611aff90613750565b9050611ac3565b5060008167ffffffffffffffff811115611b49577f4e487b7100000000000000000000000000000000000000000000000000000000600052604160045260246000fd5b604051908082528060200260200182016040528015611b8257816020015b611b6f61299b565b815260200190600190039081611b675790505b509050600080600190505b848111611d49578660056000838152602001908152602001600020600401541415611d365760008190506000600560008381526020019081526020016000206040518060a0016040529081600082015481526020016001820160009054906101000a900473ffffffffffffffffffffffffffffffffffffffff1673ffffffffffffffffffffffffffffffffffffffff1673ffffffffffffffffffffffffffffffffffffffff168152602001600282018054611c479061371e565b80601f0160208091040260200160405190810160405280929190818152602001828054611c739061371e565b8015611cc05780601f10611c9557610100808354040283529160200191611cc0565b820191906000526020600020905b815481529060010190602001808311611ca357829003601f168201915b5050505050815260200160038201548152602001600482015481525050905080858581518110611d19577f4e487b7100000000000000000000000000000000000000000000000000000000600052603260045260246000fd5b6020026020010181905250600184611d3191906135d1565b935050505b8080611d4190613750565b915050611b8d565b5081945050505050919050565b60026000541415611d9c576040517f08c379a0000000000000000000000000000000000000000000000000000000008152600401611d93906134ce565b60405180910390fd5b60026000819055506000821415611de8576040517f08c379a0000000000000000000000000000000000000000000000000000000008152600401611ddf9061348e565b60405180910390fd5b611df26003612801565b6000611dfe6003612817565b90506040518060a001604052808281526020018773ffffffffffffffffffffffffffffffffffffffff16815260200186868080601f016020809104026020016040519081016040528093929190818152602001838380828437600081840152601f19601f82011690508083019250505050505050815260200183815260200184815250600560008381526020019081526020016000206000820151816000015560208201518160010160006101000a81548173ffffffffffffffffffffffffffffffffffffffff021916908373ffffffffffffffffffffffffffffffffffffffff1602179055506040820151816002019080519060200190611f019291906129e0565b5060608201518160030155608082015181600401559050505060016000819055505050505050565b60606000611f376001612817565b90506000611f456002612817565b90506000808284611f569190613627565b67ffffffffffffffff811115611f95577f4e487b7100000000000000000000000000000000000000000000000000000000600052604160045260246000fd5b604051908082528060200260200182016040528015611fce57816020015b611fbb612a66565b815260200190600190039081611fb35790505b50905060005b84811015612409576004600082815260200190815260200160002060050160009054906101000a900460ff166123f657600081905060006004600083815260200190815260200160002060405180610160016040529081600082015481526020016001820160009054906101000a900473ffffffffffffffffffffffffffffffffffffffff1673ffffffffffffffffffffffffffffffffffffffff1673ffffffffffffffffffffffffffffffffffffffff1681526020016002820154815260200160038201548152602001600482015481526020016005820160009054906101000a900460ff161515151581526020016006820180546120d39061371e565b80601f01602080910402602001604051908101604052809291908181526020018280546120ff9061371e565b801561214c5780601f106121215761010080835404028352916020019161214c565b820191906000526020600020905b81548152906001019060200180831161212f57829003601f168201915b505050505081526020016007820180546121659061371e565b80601f01602080910402602001604051908101604052809291908181526020018280546121919061371e565b80156121de5780601f106121b3576101008083540402835291602001916121de565b820191906000526020600020905b8154815290600101906020018083116121c157829003601f168201915b505050505081526020016008820180546121f79061371e565b80601f01602080910402602001604051908101604052809291908181526020018280546122239061371e565b80156122705780601f1061224557610100808354040283529160200191612270565b820191906000526020600020905b81548152906001019060200180831161225357829003601f168201915b505050505081526020016009820180546122899061371e565b80601f01602080910402602001604051908101604052809291908181526020018280546122b59061371e565b80156123025780601f106122d757610100808354040283529160200191612302565b820191906000526020600020905b8154815290600101906020018083116122e557829003601f168201915b50505050508152602001600a8201805461231b9061371e565b80601f01602080910402602001604051908101604052809291908181526020018280546123479061371e565b80156123945780601f1061236957610100808354040283529160200191612394565b820191906000526020600020905b81548152906001019060200180831161237757829003601f168201915b5050505050815250509050808486815181106123d9577f4e487b7100000000000000000000000000000000000000000000000000000000600052603260045260246000fd5b60200260200101819052506001856123f191906135d1565b945050505b808061240190613750565b915050611fd4565b508094505050505090565b6002600054141561245a576040517f08c379a0000000000000000000000000000000000000000000000000000000008152600401612451906134ce565b60405180910390fd5b600260008190555060008b116124a5576040517f08c379a000000000000000000000000000000000000000000000000000000000815260040161249c9061340e565b60405180910390fd5b60006124b16001612817565b90506040518061016001604052808281526020013373ffffffffffffffffffffffffffffffffffffffff1681526020018d815260200160008152602001600081526020016000151581526020018c8c8080601f016020809104026020016040519081016040528093929190818152602001838380828437600081840152601f19601f8201169050808301925050505050505081526020018a8a8080601f016020809104026020016040519081016040528093929190818152602001838380828437600081840152601f19601f82011690508083019250505050505050815260200188888080601f016020809104026020016040519081016040528093929190818152602001838380828437600081840152601f19601f82011690508083019250505050505050815260200186868080601f016020809104026020016040519081016040528093929190818152602001838380828437600081840152601f19601f82011690508083019250505050505050815260200184848080601f016020809104026020016040519081016040528093929190818152602001838380828437600081840152601f19601f82011690508083019250505050505050815250600460008381526020019081526020016000206000820151816000015560208201518160010160006101000a81548173ffffffffffffffffffffffffffffffffffffffff021916908373ffffffffffffffffffffffffffffffffffffffff16021790555060408201518160020155606082015181600301556080820151816004015560a08201518160050160006101000a81548160ff02191690831515021790555060c082015181600601908051906020019061272c9291906129e0565b5060e08201518160070190805190602001906127499291906129e0565b506101008201518160080190805190602001906127679291906129e0565b506101208201518160090190805190602001906127859291906129e0565b5061014082015181600a0190805190602001906127a39291906129e0565b50905050807fd8737c21c8c06f7ea4e9e3a837adff6378cc6587c210895878835a452f8c8983338e6040516127d99291906133a1565b60405180910390a26127eb6001612801565b5060016000819055505050505050505050505050565b6001816000016000828254019250508190555050565b600081600001549050919050565b6000808390506000839050600082518251101561284757809350505050612995565b60005b835183516128589190613627565b811161298d5760006001905060005b8551811015612968578581815181106128a9577f4e487b7100000000000000000000000000000000000000000000000000000000600052603260045260246000fd5b602001015160f81c60f81b7effffffffffffffffffffffffffffffffffffffffffffffffffffffffffffff19168582856128e391906135d1565b8151811061291a577f4e487b7100000000000000000000000000000000000000000000000000000000600052603260045260246000fd5b602001015160f81c60f81b7effffffffffffffffffffffffffffffffffffffffffffffffffffffffffffff1916146129555760009150612968565b808061296090613750565b915050612867565b50801561297957600192505061298d565b50808061298590613750565b91505061284a565b508093505050505b92915050565b6040518060a0016040528060008152602001600073ffffffffffffffffffffffffffffffffffffffff1681526020016060815260200160008152602001600081525090565b8280546129ec9061371e565b90600052602060002090601f016020900481019282612a0e5760008555612a55565b82601f10612a2757805160ff1916838001178555612a55565b82800160010185558215612a55579182015b82811115612a54578251825591602001919060010190612a39565b5b509050612a629190612ad8565b5090565b60405180610160016040528060008152602001600073ffffffffffffffffffffffffffffffffffffffff16815260200160008152602001600081526020016000815260200160001515815260200160608152602001606081526020016060815260200160608152602001606081525090565b5b80821115612af1576000816000905550600101612ad9565b5090565b600081359050612b04816139e5565b92915050565b60008083601f840112612b1c57600080fd5b8235905067ffffffffffffffff811115612b3557600080fd5b602083019150836001820283011115612b4d57600080fd5b9250929050565b600081359050612b63816139fc565b92915050565b600060208284031215612b7b57600080fd5b6000612b8984828501612af5565b91505092915050565b60008060008060608587031215612ba857600080fd5b6000612bb687828801612af5565b945050602085013567ffffffffffffffff811115612bd357600080fd5b612bdf87828801612b0a565b93509350506040612bf287828801612b54565b91505092959194509250565b600080600080600060808688031215612c1657600080fd5b6000612c2488828901612af5565b955050602086013567ffffffffffffffff811115612c4157600080fd5b612c4d88828901612b0a565b94509450506040612c6088828901612b54565b9250506060612c7188828901612b54565b9150509295509295909350565b60008060208385031215612c9157600080fd5b600083013567ffffffffffffffff811115612cab57600080fd5b612cb785828601612b0a565b92509250509250929050565b600060208284031215612cd557600080fd5b6000612ce384828501612b54565b91505092915050565b600080600080600080600080600080600060c08c8e031215612d0d57600080fd5b6000612d1b8e828f01612b54565b9b505060208c013567ffffffffffffffff811115612d3857600080fd5b612d448e828f01612b0a565b9a509a505060408c013567ffffffffffffffff811115612d6357600080fd5b612d6f8e828f01612b0a565b985098505060608c013567ffffffffffffffff811115612d8e57600080fd5b612d9a8e828f01612b0a565b965096505060808c013567ffffffffffffffff811115612db957600080fd5b612dc58e828f01612b0a565b945094505060a08c013567ffffffffffffffff811115612de457600080fd5b612df08e828f01612b0a565b92509250509295989b509295989b9093969950565b6000612e118383613081565b905092915050565b6000612e25838361316d565b905092915050565b612e36816136b5565b82525050565b612e458161366d565b82525050565b612e548161365b565b82525050565b6000612e6582613552565b612e6f818561358d565b935083602082028501612e8185613532565b8060005b85811015612ebd5784840389528151612e9e8582612e05565b9450612ea983613573565b925060208a01995050600181019050612e85565b50829750879550505050505092915050565b6000612eda8261355d565b612ee4818561359e565b935083602082028501612ef685613542565b8060005b85811015612f325784840389528151612f138582612e19565b9450612f1e83613580565b925060208a01995050600181019050612efa565b50829750879550505050505092915050565b612f4d8161367f565b82525050565b6000612f5e82613568565b612f6881856135af565b9350612f788185602086016136eb565b612f81816137f7565b840191505092915050565b6000612f99602a836135c0565b9150612fa482613808565b604082019050919050565b6000612fbc6021836135c0565b9150612fc782613857565b604082019050919050565b6000612fdf6043836135c0565b9150612fea826138a6565b606082019050919050565b60006130026016836135c0565b915061300d8261391b565b602082019050919050565b60006130256017836135c0565b915061303082613944565b602082019050919050565b6000613048602e836135c0565b91506130538261396d565b604082019050919050565b600061306b601f836135c0565b9150613076826139bc565b602082019050919050565b600060a0830160008301516130996000860182613383565b5060208301516130ac6020860182612e4b565b50604083015184820360408601526130c48282612f53565b91505060608301516130d96060860182613383565b5060808301516130ec6080860182613383565b508091505092915050565b600060a08301600083015161310f6000860182613383565b5060208301516131226020860182612e4b565b506040830151848203604086015261313a8282612f53565b915050606083015161314f6060860182613383565b5060808301516131626080860182613383565b508091505092915050565b6000610160830160008301516131866000860182613383565b5060208301516131996020860182612e3c565b5060408301516131ac6040860182613383565b5060608301516131bf6060860182613383565b5060808301516131d26080860182613383565b5060a08301516131e560a0860182612f44565b5060c083015184820360c08601526131fd8282612f53565b91505060e083015184820360e08601526132178282612f53565b9150506101008301518482036101008601526132338282612f53565b91505061012083015184820361012086015261324f8282612f53565b91505061014083015184820361014086015261326b8282612f53565b9150508091505092915050565b6000610160830160008301516132916000860182613383565b5060208301516132a46020860182612e3c565b5060408301516132b76040860182613383565b5060608301516132ca6060860182613383565b5060808301516132dd6080860182613383565b5060a08301516132f060a0860182612f44565b5060c083015184820360c08601526133088282612f53565b91505060e083015184820360e08601526133228282612f53565b91505061010083015184820361010086015261333e8282612f53565b91505061012083015184820361012086015261335a8282612f53565b9150506101408301518482036101408601526133768282612f53565b9150508091505092915050565b61338c816136ab565b82525050565b61339b816136ab565b82525050565b60006040820190506133b66000830185612e2d565b6133c36020830184613392565b9392505050565b600060208201905081810360008301526133e48184612e5a565b905092915050565b600060208201905081810360008301526134068184612ecf565b905092915050565b6000602082019050818103600083015261342781612f8c565b9050919050565b6000602082019050818103600083015261344781612faf565b9050919050565b6000602082019050818103600083015261346781612fd2565b9050919050565b6000602082019050818103600083015261348781612ff5565b9050919050565b600060208201905081810360008301526134a781613018565b9050919050565b600060208201905081810360008301526134c78161303b565b9050919050565b600060208201905081810360008301526134e78161305e565b9050919050565b6000602082019050818103600083015261350881846130f7565b905092915050565b6000602082019050818103600083015261352a8184613278565b905092915050565b6000819050602082019050919050565b6000819050602082019050919050565b600081519050919050565b600081519050919050565b600081519050919050565b6000602082019050919050565b6000602082019050919050565b600082825260208201905092915050565b600082825260208201905092915050565b600082825260208201905092915050565b600082825260208201905092915050565b60006135dc826136ab565b91506135e7836136ab565b9250827fffffffffffffffffffffffffffffffffffffffffffffffffffffffffffffffff0382111561361c5761361b613799565b5b828201905092915050565b6000613632826136ab565b915061363d836136ab565b9250828210156136505761364f613799565b5b828203905092915050565b60006136668261368b565b9050919050565b60006136788261368b565b9050919050565b60008115159050919050565b600073ffffffffffffffffffffffffffffffffffffffff82169050919050565b6000819050919050565b60006136c0826136c7565b9050919050565b60006136d2826136d9565b9050919050565b60006136e48261368b565b9050919050565b60005b838110156137095780820151818401526020810190506136ee565b83811115613718576000848401525b50505050565b6000600282049050600182168061373657607f821691505b6020821081141561374a576137496137c8565b5b50919050565b600061375b826136ab565b91507fffffffffffffffffffffffffffffffffffffffffffffffffffffffffffffffff82141561378e5761378d613799565b5b600182019050919050565b7f4e487b7100000000000000000000000000000000000000000000000000000000600052601160045260246000fd5b7f4e487b7100000000000000000000000000000000000000000000000000000000600052602260045260246000fd5b6000601f19601f8301169050919050565b7f546865207265717565737465642066756e6473206d757374206265206174206c60008201527f6561737420312077656900000000000000000000000000000000000000000000602082015250565b7f436f6d6d656e74206964656e7469666965722063616e6e6f74206265207a657260008201527f6f00000000000000000000000000000000000000000000000000000000000000602082015250565b7f506c6561736520646f6e6174652061206d696e696d756d206f6620312077656960008201527f20696e206f7264657220746f20636f6d706c65746520746865206f706572617460208201527f696f6e0000000000000000000000000000000000000000000000000000000000604082015250565b7f4974656d20696420646f6573206e6f7420657869737400000000000000000000600082015250565b7f57726f6e6720706172656e74206964656e746966696572000000000000000000600082015250565b7f596f752063616e6e6f7420646f6e61746520746f20796f7572206f776e20667560008201527f6e64696e672063616d706169676e000000000000000000000000000000000000602082015250565b7f5265656e7472616e637947756172643a207265656e7472616e742063616c6c00600082015250565b6139ee8161365b565b81146139f957600080fd5b50565b613a05816136ab565b8114613a1057600080fd5b5056fea264697066735822122099d06fed79c70133b27d861b73a1087bf71fe9d28bf11203a64893e357551cc664736f6c63430008040033",
  "linkReferences": {},
  "deployedLinkReferences": {}
}