{
  "_format": "hh-sol-artifact-1",
  "contractName": "FundMarket",
  "sourceName": "contracts/fundMarket.sol",
  "abi": [
    {
      "inputs": [
        {
          "internalType": "address",
          "name": "_users",
          "type": "address"
        }
      ],
      "stateMutability": "nonpayable",
      "type": "constructor"
    },
    {
      "anonymous": false,
      "inputs": [
        {
          "indexed": true,
          "internalType": "uint256",
          "name": "itemId",
          "type": "uint256"
        },
        {
          "indexed": false,
          "internalType": "address",
          "name": "campaignOwner",
          "type": "address"
        },
        {
          "indexed": false,
          "internalType": "uint256",
          "name": "FundsRequested",
          "type": "uint256"
        }
      ],
      "name": "CampaignStarted",
      "type": "event"
    },
    {
      "inputs": [
        {
          "internalType": "address",
          "name": "user",
          "type": "address"
        },
        {
          "internalType": "string",
          "name": "message",
          "type": "string"
        },
        {
          "internalType": "uint256",
          "name": "campaignId",
          "type": "uint256"
        }
      ],
      "name": "comment",
      "outputs": [],
      "stateMutability": "nonpayable",
      "type": "function"
    },
    {
      "inputs": [
        {
          "internalType": "uint256",
          "name": "FundsRequested",
          "type": "uint256"
        },
        {
          "internalType": "string",
          "name": "title",
          "type": "string"
        },
        {
          "internalType": "string",
          "name": "description",
          "type": "string"
        },
        {
          "internalType": "string",
          "name": "info",
          "type": "string"
        },
        {
          "internalType": "string",
          "name": "url",
          "type": "string"
        },
        {
          "internalType": "string",
          "name": "ipfsHash",
          "type": "string"
        }
      ],
      "name": "createCampaign",
      "outputs": [],
      "stateMutability": "payable",
      "type": "function"
    },
    {
      "inputs": [
        {
          "internalType": "uint256",
          "name": "itemId",
          "type": "uint256"
        }
      ],
      "name": "donateCampaign",
      "outputs": [],
      "stateMutability": "payable",
      "type": "function"
    },
    {
      "inputs": [],
      "name": "fetchCampaigns",
      "outputs": [
        {
          "components": [
            {
              "internalType": "uint256",
              "name": "itemId",
              "type": "uint256"
            },
            {
              "internalType": "address payable",
              "name": "campaignOwner",
              "type": "address"
            },
            {
              "internalType": "uint256",
              "name": "FundsRequested",
              "type": "uint256"
            },
            {
              "internalType": "uint256",
              "name": "FundsCollected",
              "type": "uint256"
            },
            {
              "internalType": "uint256",
              "name": "totalDonators",
              "type": "uint256"
            },
            {
              "internalType": "bool",
              "name": "fundsReached",
              "type": "bool"
            },
            {
              "internalType": "string",
              "name": "title",
              "type": "string"
            },
            {
              "internalType": "string",
              "name": "description",
              "type": "string"
            },
            {
              "internalType": "string",
              "name": "info",
              "type": "string"
            },
            {
              "internalType": "string",
              "name": "url",
              "type": "string"
            },
            {
              "internalType": "string",
              "name": "ipfsHash",
              "type": "string"
            }
          ],
          "internalType": "struct FundMarket.FundingCampaign[]",
          "name": "",
          "type": "tuple[]"
        }
      ],
      "stateMutability": "view",
      "type": "function"
    },
    {
      "inputs": [
        {
          "internalType": "string",
          "name": "searchWord",
          "type": "string"
        }
      ],
      "name": "fetchCampaignsByWord",
      "outputs": [
        {
          "components": [
            {
              "internalType": "uint256",
              "name": "itemId",
              "type": "uint256"
            },
            {
              "internalType": "address payable",
              "name": "campaignOwner",
              "type": "address"
            },
            {
              "internalType": "uint256",
              "name": "FundsRequested",
              "type": "uint256"
            },
            {
              "internalType": "uint256",
              "name": "FundsCollected",
              "type": "uint256"
            },
            {
              "internalType": "uint256",
              "name": "totalDonators",
              "type": "uint256"
            },
            {
              "internalType": "bool",
              "name": "fundsReached",
              "type": "bool"
            },
            {
              "internalType": "string",
              "name": "title",
              "type": "string"
            },
            {
              "internalType": "string",
              "name": "description",
              "type": "string"
            },
            {
              "internalType": "string",
              "name": "info",
              "type": "string"
            },
            {
              "internalType": "string",
              "name": "url",
              "type": "string"
            },
            {
              "internalType": "string",
              "name": "ipfsHash",
              "type": "string"
            }
          ],
          "internalType": "struct FundMarket.FundingCampaign[]",
          "name": "",
          "type": "tuple[]"
        }
      ],
      "stateMutability": "view",
      "type": "function"
    },
    {
      "inputs": [
        {
          "internalType": "address",
          "name": "myAddress",
          "type": "address"
        }
      ],
      "name": "fetchMyCampaigns",
      "outputs": [
        {
          "components": [
            {
              "internalType": "uint256",
              "name": "itemId",
              "type": "uint256"
            },
            {
              "internalType": "address payable",
              "name": "campaignOwner",
              "type": "address"
            },
            {
              "internalType": "uint256",
              "name": "FundsRequested",
              "type": "uint256"
            },
            {
              "internalType": "uint256",
              "name": "FundsCollected",
              "type": "uint256"
            },
            {
              "internalType": "uint256",
              "name": "totalDonators",
              "type": "uint256"
            },
            {
              "internalType": "bool",
              "name": "fundsReached",
              "type": "bool"
            },
            {
              "internalType": "string",
              "name": "title",
              "type": "string"
            },
            {
              "internalType": "string",
              "name": "description",
              "type": "string"
            },
            {
              "internalType": "string",
              "name": "info",
              "type": "string"
            },
            {
              "internalType": "string",
              "name": "url",
              "type": "string"
            },
            {
              "internalType": "string",
              "name": "ipfsHash",
              "type": "string"
            }
          ],
          "internalType": "struct FundMarket.FundingCampaign[]",
          "name": "",
          "type": "tuple[]"
        }
      ],
      "stateMutability": "view",
      "type": "function"
    },
    {
      "inputs": [
        {
          "internalType": "uint256",
          "name": "itemId",
          "type": "uint256"
        }
      ],
      "name": "getCampaign",
      "outputs": [
        {
          "components": [
            {
              "internalType": "uint256",
              "name": "itemId",
              "type": "uint256"
            },
            {
              "internalType": "address payable",
              "name": "campaignOwner",
              "type": "address"
            },
            {
              "internalType": "uint256",
              "name": "FundsRequested",
              "type": "uint256"
            },
            {
              "internalType": "uint256",
              "name": "FundsCollected",
              "type": "uint256"
            },
            {
              "internalType": "uint256",
              "name": "totalDonators",
              "type": "uint256"
            },
            {
              "internalType": "bool",
              "name": "fundsReached",
              "type": "bool"
            },
            {
              "internalType": "string",
              "name": "title",
              "type": "string"
            },
            {
              "internalType": "string",
              "name": "description",
              "type": "string"
            },
            {
              "internalType": "string",
              "name": "info",
              "type": "string"
            },
            {
              "internalType": "string",
              "name": "url",
              "type": "string"
            },
            {
              "internalType": "string",
              "name": "ipfsHash",
              "type": "string"
            }
          ],
          "internalType": "struct FundMarket.FundingCampaign",
          "name": "",
          "type": "tuple"
        }
      ],
      "stateMutability": "view",
      "type": "function"
    },
    {
      "inputs": [
        {
          "internalType": "uint256",
          "name": "id",
          "type": "uint256"
        }
      ],
      "name": "getComment",
      "outputs": [
        {
          "components": [
            {
              "internalType": "uint256",
              "name": "commentId",
              "type": "uint256"
            },
            {
              "internalType": "address",
              "name": "commentator",
              "type": "address"
            },
            {
              "internalType": "string",
              "name": "message",
              "type": "string"
            },
            {
              "internalType": "uint256",
              "name": "campaignId",
              "type": "uint256"
            },
            {
              "internalType": "uint256",
              "name": "parentCommentId",
              "type": "uint256"
            }
          ],
          "internalType": "struct FundMarket.Comment",
          "name": "",
          "type": "tuple"
        }
      ],
      "stateMutability": "view",
      "type": "function"
    },
    {
      "inputs": [
        {
          "internalType": "uint256",
          "name": "campaign",
          "type": "uint256"
        }
      ],
      "name": "getComments",
      "outputs": [
        {
          "components": [
            {
              "internalType": "uint256",
              "name": "commentId",
              "type": "uint256"
            },
            {
              "internalType": "address",
              "name": "commentator",
              "type": "address"
            },
            {
              "internalType": "string",
              "name": "message",
              "type": "string"
            },
            {
              "internalType": "uint256",
              "name": "campaignId",
              "type": "uint256"
            },
            {
              "internalType": "uint256",
              "name": "parentCommentId",
              "type": "uint256"
            }
          ],
          "internalType": "struct FundMarket.Comment[]",
          "name": "",
          "type": "tuple[]"
        }
      ],
      "stateMutability": "view",
      "type": "function"
    },
    {
      "inputs": [
        {
          "internalType": "uint256",
          "name": "commentId",
          "type": "uint256"
        }
      ],
      "name": "getReplies",
      "outputs": [
        {
          "components": [
            {
              "internalType": "uint256",
              "name": "commentId",
              "type": "uint256"
            },
            {
              "internalType": "address",
              "name": "commentator",
              "type": "address"
            },
            {
              "internalType": "string",
              "name": "message",
              "type": "string"
            },
            {
              "internalType": "uint256",
              "name": "campaignId",
              "type": "uint256"
            },
            {
              "internalType": "uint256",
              "name": "parentCommentId",
              "type": "uint256"
            }
          ],
          "internalType": "struct FundMarket.Comment[]",
          "name": "",
          "type": "tuple[]"
        }
      ],
      "stateMutability": "view",
      "type": "function"
    },
    {
      "inputs": [
        {
          "internalType": "address",
          "name": "user",
          "type": "address"
        },
        {
          "internalType": "string",
          "name": "message",
          "type": "string"
        },
        {
          "internalType": "uint256",
          "name": "parentCommentId",
          "type": "uint256"
        },
        {
          "internalType": "uint256",
          "name": "campaignId",
          "type": "uint256"
        }
      ],
      "name": "reply",
      "outputs": [],
      "stateMutability": "nonpayable",
      "type": "function"
    }
  ],
  "bytecode": "0x60806040523480156200001157600080fd5b50604051620044b1380380620044b183398181016040528101906200003791906200009e565b600160008190555080600460006101000a81548173ffffffffffffffffffffffffffffffffffffffff021916908373ffffffffffffffffffffffffffffffffffffffff1602179055505062000118565b6000815190506200009881620000fe565b92915050565b600060208284031215620000b157600080fd5b6000620000c18482850162000087565b91505092915050565b6000620000d782620000de565b9050919050565b600073ffffffffffffffffffffffffffffffffffffffff82169050919050565b6200010981620000ca565b81146200011557600080fd5b50565b61438980620001286000396000f3fe60806040526004361061009c5760003560e01c80635ef5c9af116100645780635ef5c9af146101be5780638ffff8b0146101fb578063ae58449d14610217578063b5d481f714610254578063c33d06fa1461027d578063dc640767146102a85761009c565b80630800e300146100a157806316f43087146100de57806323edf697146101075780634457ca7e146101445780635598f8cc14610181575b600080fd5b3480156100ad57600080fd5b506100c860048036038101906100c391906135cc565b6102c4565b6040516100d59190613e2e565b60405180910390f35b3480156100ea57600080fd5b506101056004803603810190610100919061349b565b6103f7565b005b34801561011357600080fd5b5061012e600480360381019061012991906135cc565b6109b0565b60405161013b9190613d0a565b60405180910390f35b34801561015057600080fd5b5061016b60048036038101906101669190613472565b610c9f565b6040516101789190613d2c565b60405180910390f35b34801561018d57600080fd5b506101a860048036038101906101a391906135cc565b61124b565b6040516101b59190613e50565b60405180910390f35b3480156101ca57600080fd5b506101e560048036038101906101e09190613587565b6115ec565b6040516101f29190613d2c565b60405180910390f35b610215600480360381019061021091906135cc565b611c26565b005b34801561022357600080fd5b5061023e600480360381019061023991906135cc565b611f44565b60405161024b9190613d0a565b60405180910390f35b34801561026057600080fd5b5061027b60048036038101906102769190613507565b612233565b005b34801561028957600080fd5b50610292612832565b60405161029f9190613d2c565b60405180910390f35b6102c260048036038101906102bd91906135f5565b612d1d565b005b6102cc6132a4565b600660008381526020019081526020016000206040518060a0016040529081600082015481526020016001820160009054906101000a900473ffffffffffffffffffffffffffffffffffffffff1673ffffffffffffffffffffffffffffffffffffffff1673ffffffffffffffffffffffffffffffffffffffff16815260200160028201805461035a9061405e565b80601f01602080910402602001604051908101604052809291908181526020018280546103869061405e565b80156103d35780601f106103a8576101008083540402835291602001916103d3565b820191906000526020600020905b8154815290600101906020018083116103b657829003601f168201915b50505050508152602001600382015481526020016004820154815250509050919050565b6002600054141561043d576040517f08c379a000000000000000000000000000000000000000000000000000000000815260040161043490613e0e565b60405180910390fd5b600260008190555061044f600361310a565b600061045b6003613120565b90506040518060a001604052808281526020018673ffffffffffffffffffffffffffffffffffffffff16815260200185858080601f016020809104026020016040519081016040528093929190818152602001838380828437600081840152601f19601f8201169050808301925050505050505081526020018381526020016000815250600660008381526020019081526020016000206000820151816000015560208201518160010160006101000a81548173ffffffffffffffffffffffffffffffffffffffff021916908373ffffffffffffffffffffffffffffffffffffffff160217905550604082015181600201908051906020019061055f9291906132e9565b50606082015181600301556080820151816004015590505060006005600084815260200190815260200160002060405180610160016040529081600082015481526020016001820160009054906101000a900473ffffffffffffffffffffffffffffffffffffffff1673ffffffffffffffffffffffffffffffffffffffff1673ffffffffffffffffffffffffffffffffffffffff1681526020016002820154815260200160038201548152602001600482015481526020016005820160009054906101000a900460ff161515151581526020016006820180546106419061405e565b80601f016020809104026020016040519081016040528092919081815260200182805461066d9061405e565b80156106ba5780601f1061068f576101008083540402835291602001916106ba565b820191906000526020600020905b81548152906001019060200180831161069d57829003601f168201915b505050505081526020016007820180546106d39061405e565b80601f01602080910402602001604051908101604052809291908181526020018280546106ff9061405e565b801561074c5780601f106107215761010080835404028352916020019161074c565b820191906000526020600020905b81548152906001019060200180831161072f57829003601f168201915b505050505081526020016008820180546107659061405e565b80601f01602080910402602001604051908101604052809291908181526020018280546107919061405e565b80156107de5780601f106107b3576101008083540402835291602001916107de565b820191906000526020600020905b8154815290600101906020018083116107c157829003601f168201915b505050505081526020016009820180546107f79061405e565b80601f01602080910402602001604051908101604052809291908181526020018280546108239061405e565b80156108705780601f1061084557610100808354040283529160200191610870565b820191906000526020600020905b81548152906001019060200180831161085357829003601f168201915b50505050508152602001600a820180546108899061405e565b80601f01602080910402602001604051908101604052809291908181526020018280546108b59061405e565b80156109025780601f106108d757610100808354040283529160200191610902565b820191906000526020600020905b8154815290600101906020018083116108e557829003601f168201915b5050505050815250509050600460009054906101000a900473ffffffffffffffffffffffffffffffffffffffff1673ffffffffffffffffffffffffffffffffffffffff166314de09528260200151856040518363ffffffff1660e01b815260040161096e929190613caa565b600060405180830381600087803b15801561098857600080fd5b505af115801561099c573d6000803e3d6000fd5b505050505050600160008190555050505050565b606060006109be6003613120565b9050600080600190505b828111610a2d57846006600083815260200190815260200160002060030154148015610a0a575060006006600083815260200190815260200160002060040154145b15610a1c5781610a1990614090565b91505b80610a2690614090565b90506109c8565b5060008167ffffffffffffffff811115610a70577f4e487b7100000000000000000000000000000000000000000000000000000000600052604160045260246000fd5b604051908082528060200260200182016040528015610aa957816020015b610a966132a4565b815260200190600190039081610a8e5790505b509050600080600190505b848111610c9257866006600083815260200190815260200160002060030154148015610af6575060006006600083815260200190815260200160002060040154145b15610c7f5760008190506000600660008381526020019081526020016000206040518060a0016040529081600082015481526020016001820160009054906101000a900473ffffffffffffffffffffffffffffffffffffffff1673ffffffffffffffffffffffffffffffffffffffff1673ffffffffffffffffffffffffffffffffffffffff168152602001600282018054610b909061405e565b80601f0160208091040260200160405190810160405280929190818152602001828054610bbc9061405e565b8015610c095780601f10610bde57610100808354040283529160200191610c09565b820191906000526020600020905b815481529060010190602001808311610bec57829003601f168201915b5050505050815260200160038201548152602001600482015481525050905080858581518110610c62577f4e487b7100000000000000000000000000000000000000000000000000000000600052603260045260246000fd5b6020026020010181905250600184610c7a9190613f11565b935050505b8080610c8a90614090565b915050610ab4565b5081945050505050919050565b60606000610cad6001613120565b905060008060005b83811015610d45578573ffffffffffffffffffffffffffffffffffffffff166005600083815260200190815260200160002060010160009054906101000a900473ffffffffffffffffffffffffffffffffffffffff1673ffffffffffffffffffffffffffffffffffffffff161415610d345781610d3190614090565b91505b80610d3e90614090565b9050610cb5565b5060008167ffffffffffffffff811115610d88577f4e487b7100000000000000000000000000000000000000000000000000000000600052604160045260246000fd5b604051908082528060200260200182016040528015610dc157816020015b610dae61336f565b815260200190600190039081610da65790505b50905060005b8481101561123e578673ffffffffffffffffffffffffffffffffffffffff166005600083815260200190815260200160002060010160009054906101000a900473ffffffffffffffffffffffffffffffffffffffff1673ffffffffffffffffffffffffffffffffffffffff16141561122b57600081905060006005600083815260200190815260200160002060405180610160016040529081600082015481526020016001820160009054906101000a900473ffffffffffffffffffffffffffffffffffffffff1673ffffffffffffffffffffffffffffffffffffffff1673ffffffffffffffffffffffffffffffffffffffff1681526020016002820154815260200160038201548152602001600482015481526020016005820160009054906101000a900460ff16151515158152602001600682018054610f089061405e565b80601f0160208091040260200160405190810160405280929190818152602001828054610f349061405e565b8015610f815780601f10610f5657610100808354040283529160200191610f81565b820191906000526020600020905b815481529060010190602001808311610f6457829003601f168201915b50505050508152602001600782018054610f9a9061405e565b80601f0160208091040260200160405190810160405280929190818152602001828054610fc69061405e565b80156110135780601f10610fe857610100808354040283529160200191611013565b820191906000526020600020905b815481529060010190602001808311610ff657829003601f168201915b5050505050815260200160088201805461102c9061405e565b80601f01602080910402602001604051908101604052809291908181526020018280546110589061405e565b80156110a55780601f1061107a576101008083540402835291602001916110a5565b820191906000526020600020905b81548152906001019060200180831161108857829003601f168201915b505050505081526020016009820180546110be9061405e565b80601f01602080910402602001604051908101604052809291908181526020018280546110ea9061405e565b80156111375780601f1061110c57610100808354040283529160200191611137565b820191906000526020600020905b81548152906001019060200180831161111a57829003601f168201915b50505050508152602001600a820180546111509061405e565b80601f016020809104026020016040519081016040528092919081815260200182805461117c9061405e565b80156111c95780601f1061119e576101008083540402835291602001916111c9565b820191906000526020600020905b8154815290600101906020018083116111ac57829003601f168201915b50505050508152505090508084878151811061120e577f4e487b7100000000000000000000000000000000000000000000000000000000600052603260045260246000fd5b60200260200101819052506001866112269190613f11565b955050505b808061123690614090565b915050610dc7565b5080945050505050919050565b61125361336f565b6005600083815260200190815260200160002060405180610160016040529081600082015481526020016001820160009054906101000a900473ffffffffffffffffffffffffffffffffffffffff1673ffffffffffffffffffffffffffffffffffffffff1673ffffffffffffffffffffffffffffffffffffffff1681526020016002820154815260200160038201548152602001600482015481526020016005820160009054906101000a900460ff1615151515815260200160068201805461131b9061405e565b80601f01602080910402602001604051908101604052809291908181526020018280546113479061405e565b80156113945780601f1061136957610100808354040283529160200191611394565b820191906000526020600020905b81548152906001019060200180831161137757829003601f168201915b505050505081526020016007820180546113ad9061405e565b80601f01602080910402602001604051908101604052809291908181526020018280546113d99061405e565b80156114265780601f106113fb57610100808354040283529160200191611426565b820191906000526020600020905b81548152906001019060200180831161140957829003601f168201915b5050505050815260200160088201805461143f9061405e565b80601f016020809104026020016040519081016040528092919081815260200182805461146b9061405e565b80156114b85780601f1061148d576101008083540402835291602001916114b8565b820191906000526020600020905b81548152906001019060200180831161149b57829003601f168201915b505050505081526020016009820180546114d19061405e565b80601f01602080910402602001604051908101604052809291908181526020018280546114fd9061405e565b801561154a5780601f1061151f5761010080835404028352916020019161154a565b820191906000526020600020905b81548152906001019060200180831161152d57829003601f168201915b50505050508152602001600a820180546115639061405e565b80601f016020809104026020016040519081016040528092919081815260200182805461158f9061405e565b80156115dc5780601f106115b1576101008083540402835291602001916115dc565b820191906000526020600020905b8154815290600101906020018083116115bf57829003601f168201915b5050505050815250509050919050565b606060006115fa6001613120565b90506000805b828110156117225760006005600083815260200190815260200160002090506116f987878080601f016020809104026020016040519081016040528093929190818152602001838380828437600081840152601f19601f820116905080830192505050505050508260060180546116769061405e565b80601f01602080910402602001604051908101604052809291908181526020018280546116a29061405e565b80156116ef5780601f106116c4576101008083540402835291602001916116ef565b820191906000526020600020905b8154815290600101906020018083116116d257829003601f168201915b505050505061312e565b1561170e5760018361170b9190613f11565b92505b50808061171a90614090565b915050611600565b506000808267ffffffffffffffff811115611766577f4e487b7100000000000000000000000000000000000000000000000000000000600052604160045260246000fd5b60405190808252806020026020018201604052801561179f57816020015b61178c61336f565b8152602001906001900390816117845790505b5090506000831115611c195760005b84811080156117bc57508383105b15611c175760006005600083815260200190815260200160002060405180610160016040529081600082015481526020016001820160009054906101000a900473ffffffffffffffffffffffffffffffffffffffff1673ffffffffffffffffffffffffffffffffffffffff1673ffffffffffffffffffffffffffffffffffffffff1681526020016002820154815260200160038201548152602001600482015481526020016005820160009054906101000a900460ff1615151515815260200160068201805461188b9061405e565b80601f01602080910402602001604051908101604052809291908181526020018280546118b79061405e565b80156119045780601f106118d957610100808354040283529160200191611904565b820191906000526020600020905b8154815290600101906020018083116118e757829003601f168201915b5050505050815260200160078201805461191d9061405e565b80601f01602080910402602001604051908101604052809291908181526020018280546119499061405e565b80156119965780601f1061196b57610100808354040283529160200191611996565b820191906000526020600020905b81548152906001019060200180831161197957829003601f168201915b505050505081526020016008820180546119af9061405e565b80601f01602080910402602001604051908101604052809291908181526020018280546119db9061405e565b8015611a285780601f106119fd57610100808354040283529160200191611a28565b820191906000526020600020905b815481529060010190602001808311611a0b57829003601f168201915b50505050508152602001600982018054611a419061405e565b80601f0160208091040260200160405190810160405280929190818152602001828054611a6d9061405e565b8015611aba5780601f10611a8f57610100808354040283529160200191611aba565b820191906000526020600020905b815481529060010190602001808311611a9d57829003601f168201915b50505050508152602001600a82018054611ad39061405e565b80601f0160208091040260200160405190810160405280929190818152602001828054611aff9061405e565b8015611b4c5780601f10611b2157610100808354040283529160200191611b4c565b820191906000526020600020905b815481529060010190602001808311611b2f57829003601f168201915b5050505050815250509050611ba989898080601f016020809104026020016040519081016040528093929190818152602001838380828437600081840152601f19601f820116905080830192505050505050508260c0015161312e565b15611c035780838581518110611be8577f4e487b7100000000000000000000000000000000000000000000000000000000600052603260045260246000fd5b6020026020010181905250600184611c009190613f11565b93505b508080611c0f90614090565b9150506117ae565b505b8094505050505092915050565b60026000541415611c6c576040517f08c379a0000000000000000000000000000000000000000000000000000000008152600401611c6390613e0e565b60405180910390fd5b6002600081905550611c7e6001613120565b8110611cbf576040517f08c379a0000000000000000000000000000000000000000000000000000000008152600401611cb690613dae565b60405180910390fd5b60003411611d02576040517f08c379a0000000000000000000000000000000000000000000000000000000008152600401611cf990613d8e565b60405180910390fd5b60006005600083815260200190815260200160002090508060010160009054906101000a900473ffffffffffffffffffffffffffffffffffffffff1673ffffffffffffffffffffffffffffffffffffffff163373ffffffffffffffffffffffffffffffffffffffff161415611dac576040517f08c379a0000000000000000000000000000000000000000000000000000000008152600401611da390613dee565b60405180910390fd5b34816003016000828254611dc09190613f11565b925050819055508060010160009054906101000a900473ffffffffffffffffffffffffffffffffffffffff1673ffffffffffffffffffffffffffffffffffffffff166108fc349081150290604051600060405180830381858888f19350505050158015611e31573d6000803e3d6000fd5b506001816004016000828254611e479190613f11565b925050819055508060020154816003015410611f3857611e67600261310a565b60018160050160006101000a81548160ff021916908315150217905550600460009054906101000a900473ffffffffffffffffffffffffffffffffffffffff1673ffffffffffffffffffffffffffffffffffffffff16639e5a5adf8260010160009054906101000a900473ffffffffffffffffffffffffffffffffffffffff16846040518363ffffffff1660e01b8152600401611f05929190613caa565b600060405180830381600087803b158015611f1f57600080fd5b505af1158015611f33573d6000803e3d6000fd5b505050505b50600160008190555050565b60606000821415611f8a576040517f08c379a0000000000000000000000000000000000000000000000000000000008152600401611f8190613d6e565b60405180910390fd5b6000611f966003613120565b9050600080600190505b828111611fe3578460066000838152602001908152602001600020600401541415611fd25781611fcf90614090565b91505b80611fdc90614090565b9050611fa0565b5060008167ffffffffffffffff811115612026577f4e487b7100000000000000000000000000000000000000000000000000000000600052604160045260246000fd5b60405190808252806020026020018201604052801561205f57816020015b61204c6132a4565b8152602001906001900390816120445790505b509050600080600190505b8481116122265786600660008381526020019081526020016000206004015414156122135760008190506000600660008381526020019081526020016000206040518060a0016040529081600082015481526020016001820160009054906101000a900473ffffffffffffffffffffffffffffffffffffffff1673ffffffffffffffffffffffffffffffffffffffff1673ffffffffffffffffffffffffffffffffffffffff1681526020016002820180546121249061405e565b80601f01602080910402602001604051908101604052809291908181526020018280546121509061405e565b801561219d5780601f106121725761010080835404028352916020019161219d565b820191906000526020600020905b81548152906001019060200180831161218057829003601f168201915b50505050508152602001600382015481526020016004820154815250509050808585815181106121f6577f4e487b7100000000000000000000000000000000000000000000000000000000600052603260045260246000fd5b602002602001018190525060018461220e9190613f11565b935050505b808061221e90614090565b91505061206a565b5081945050505050919050565b60026000541415612279576040517f08c379a000000000000000000000000000000000000000000000000000000000815260040161227090613e0e565b60405180910390fd5b600260008190555060008214156122c5576040517f08c379a00000000000000000000000000000000000000000000000000000000081526004016122bc90613dce565b60405180910390fd5b6122cf600361310a565b60006122db6003613120565b90506040518060a001604052808281526020018773ffffffffffffffffffffffffffffffffffffffff16815260200186868080601f016020809104026020016040519081016040528093929190818152602001838380828437600081840152601f19601f82011690508083019250505050505050815260200183815260200184815250600660008381526020019081526020016000206000820151816000015560208201518160010160006101000a81548173ffffffffffffffffffffffffffffffffffffffff021916908373ffffffffffffffffffffffffffffffffffffffff16021790555060408201518160020190805190602001906123de9291906132e9565b50606082015181600301556080820151816004015590505060006005600084815260200190815260200160002060405180610160016040529081600082015481526020016001820160009054906101000a900473ffffffffffffffffffffffffffffffffffffffff1673ffffffffffffffffffffffffffffffffffffffff1673ffffffffffffffffffffffffffffffffffffffff1681526020016002820154815260200160038201548152602001600482015481526020016005820160009054906101000a900460ff161515151581526020016006820180546124c09061405e565b80601f01602080910402602001604051908101604052809291908181526020018280546124ec9061405e565b80156125395780601f1061250e57610100808354040283529160200191612539565b820191906000526020600020905b81548152906001019060200180831161251c57829003601f168201915b505050505081526020016007820180546125529061405e565b80601f016020809104026020016040519081016040528092919081815260200182805461257e9061405e565b80156125cb5780601f106125a0576101008083540402835291602001916125cb565b820191906000526020600020905b8154815290600101906020018083116125ae57829003601f168201915b505050505081526020016008820180546125e49061405e565b80601f01602080910402602001604051908101604052809291908181526020018280546126109061405e565b801561265d5780601f106126325761010080835404028352916020019161265d565b820191906000526020600020905b81548152906001019060200180831161264057829003601f168201915b505050505081526020016009820180546126769061405e565b80601f01602080910402602001604051908101604052809291908181526020018280546126a29061405e565b80156126ef5780601f106126c4576101008083540402835291602001916126ef565b820191906000526020600020905b8154815290600101906020018083116126d257829003601f168201915b50505050508152602001600a820180546127089061405e565b80601f01602080910402602001604051908101604052809291908181526020018280546127349061405e565b80156127815780601f1061275657610100808354040283529160200191612781565b820191906000526020600020905b81548152906001019060200180831161276457829003601f168201915b5050505050815250509050600460009054906101000a900473ffffffffffffffffffffffffffffffffffffffff1673ffffffffffffffffffffffffffffffffffffffff1663a685a582826020015185856040518463ffffffff1660e01b81526004016127ef93929190613cd3565b600060405180830381600087803b15801561280957600080fd5b505af115801561281d573d6000803e3d6000fd5b50505050505060016000819055505050505050565b606060006128406001613120565b9050600061284e6002613120565b9050600080828461285f9190613f67565b67ffffffffffffffff81111561289e577f4e487b7100000000000000000000000000000000000000000000000000000000600052604160045260246000fd5b6040519080825280602002602001820160405280156128d757816020015b6128c461336f565b8152602001906001900390816128bc5790505b50905060005b84811015612d12576005600082815260200190815260200160002060050160009054906101000a900460ff16612cff57600081905060006005600083815260200190815260200160002060405180610160016040529081600082015481526020016001820160009054906101000a900473ffffffffffffffffffffffffffffffffffffffff1673ffffffffffffffffffffffffffffffffffffffff1673ffffffffffffffffffffffffffffffffffffffff1681526020016002820154815260200160038201548152602001600482015481526020016005820160009054906101000a900460ff161515151581526020016006820180546129dc9061405e565b80601f0160208091040260200160405190810160405280929190818152602001828054612a089061405e565b8015612a555780601f10612a2a57610100808354040283529160200191612a55565b820191906000526020600020905b815481529060010190602001808311612a3857829003601f168201915b50505050508152602001600782018054612a6e9061405e565b80601f0160208091040260200160405190810160405280929190818152602001828054612a9a9061405e565b8015612ae75780601f10612abc57610100808354040283529160200191612ae7565b820191906000526020600020905b815481529060010190602001808311612aca57829003601f168201915b50505050508152602001600882018054612b009061405e565b80601f0160208091040260200160405190810160405280929190818152602001828054612b2c9061405e565b8015612b795780601f10612b4e57610100808354040283529160200191612b79565b820191906000526020600020905b815481529060010190602001808311612b5c57829003601f168201915b50505050508152602001600982018054612b929061405e565b80601f0160208091040260200160405190810160405280929190818152602001828054612bbe9061405e565b8015612c0b5780601f10612be057610100808354040283529160200191612c0b565b820191906000526020600020905b815481529060010190602001808311612bee57829003601f168201915b50505050508152602001600a82018054612c249061405e565b80601f0160208091040260200160405190810160405280929190818152602001828054612c509061405e565b8015612c9d5780601f10612c7257610100808354040283529160200191612c9d565b820191906000526020600020905b815481529060010190602001808311612c8057829003601f168201915b505050505081525050905080848681518110612ce2577f4e487b7100000000000000000000000000000000000000000000000000000000600052603260045260246000fd5b6020026020010181905250600185612cfa9190613f11565b945050505b8080612d0a90614090565b9150506128dd565b508094505050505090565b60026000541415612d63576040517f08c379a0000000000000000000000000000000000000000000000000000000008152600401612d5a90613e0e565b60405180910390fd5b600260008190555060008b11612dae576040517f08c379a0000000000000000000000000000000000000000000000000000000008152600401612da590613d4e565b60405180910390fd5b6000612dba6001613120565b90506040518061016001604052808281526020013373ffffffffffffffffffffffffffffffffffffffff1681526020018d815260200160008152602001600081526020016000151581526020018c8c8080601f016020809104026020016040519081016040528093929190818152602001838380828437600081840152601f19601f8201169050808301925050505050505081526020018a8a8080601f016020809104026020016040519081016040528093929190818152602001838380828437600081840152601f19601f82011690508083019250505050505050815260200188888080601f016020809104026020016040519081016040528093929190818152602001838380828437600081840152601f19601f82011690508083019250505050505050815260200186868080601f016020809104026020016040519081016040528093929190818152602001838380828437600081840152601f19601f82011690508083019250505050505050815260200184848080601f016020809104026020016040519081016040528093929190818152602001838380828437600081840152601f19601f82011690508083019250505050505050815250600560008381526020019081526020016000206000820151816000015560208201518160010160006101000a81548173ffffffffffffffffffffffffffffffffffffffff021916908373ffffffffffffffffffffffffffffffffffffffff16021790555060408201518160020155606082015181600301556080820151816004015560a08201518160050160006101000a81548160ff02191690831515021790555060c08201518160060190805190602001906130359291906132e9565b5060e08201518160070190805190602001906130529291906132e9565b506101008201518160080190805190602001906130709291906132e9565b5061012082015181600901908051906020019061308e9291906132e9565b5061014082015181600a0190805190602001906130ac9291906132e9565b50905050807fd8737c21c8c06f7ea4e9e3a837adff6378cc6587c210895878835a452f8c8983338e6040516130e2929190613caa565b60405180910390a26130f4600161310a565b5060016000819055505050505050505050505050565b6001816000016000828254019250508190555050565b600081600001549050919050565b600080839050600083905060008251825110156131505780935050505061329e565b60005b835183516131619190613f67565b81116132965760006001905060005b8551811015613271578581815181106131b2577f4e487b7100000000000000000000000000000000000000000000000000000000600052603260045260246000fd5b602001015160f81c60f81b7effffffffffffffffffffffffffffffffffffffffffffffffffffffffffffff19168582856131ec9190613f11565b81518110613223577f4e487b7100000000000000000000000000000000000000000000000000000000600052603260045260246000fd5b602001015160f81c60f81b7effffffffffffffffffffffffffffffffffffffffffffffffffffffffffffff19161461325e5760009150613271565b808061326990614090565b915050613170565b508015613282576001925050613296565b50808061328e90614090565b915050613153565b508093505050505b92915050565b6040518060a0016040528060008152602001600073ffffffffffffffffffffffffffffffffffffffff1681526020016060815260200160008152602001600081525090565b8280546132f59061405e565b90600052602060002090601f016020900481019282613317576000855561335e565b82601f1061333057805160ff191683800117855561335e565b8280016001018555821561335e579182015b8281111561335d578251825591602001919060010190613342565b5b50905061336b91906133e1565b5090565b60405180610160016040528060008152602001600073ffffffffffffffffffffffffffffffffffffffff16815260200160008152602001600081526020016000815260200160001515815260200160608152602001606081526020016060815260200160608152602001606081525090565b5b808211156133fa5760008160009055506001016133e2565b5090565b60008135905061340d81614325565b92915050565b60008083601f84011261342557600080fd5b8235905067ffffffffffffffff81111561343e57600080fd5b60208301915083600182028301111561345657600080fd5b9250929050565b60008135905061346c8161433c565b92915050565b60006020828403121561348457600080fd5b6000613492848285016133fe565b91505092915050565b600080600080606085870312156134b157600080fd5b60006134bf878288016133fe565b945050602085013567ffffffffffffffff8111156134dc57600080fd5b6134e887828801613413565b935093505060406134fb8782880161345d565b91505092959194509250565b60008060008060006080868803121561351f57600080fd5b600061352d888289016133fe565b955050602086013567ffffffffffffffff81111561354a57600080fd5b61355688828901613413565b945094505060406135698882890161345d565b925050606061357a8882890161345d565b9150509295509295909350565b6000806020838503121561359a57600080fd5b600083013567ffffffffffffffff8111156135b457600080fd5b6135c085828601613413565b92509250509250929050565b6000602082840312156135de57600080fd5b60006135ec8482850161345d565b91505092915050565b600080600080600080600080600080600060c08c8e03121561361657600080fd5b60006136248e828f0161345d565b9b505060208c013567ffffffffffffffff81111561364157600080fd5b61364d8e828f01613413565b9a509a505060408c013567ffffffffffffffff81111561366c57600080fd5b6136788e828f01613413565b985098505060608c013567ffffffffffffffff81111561369757600080fd5b6136a38e828f01613413565b965096505060808c013567ffffffffffffffff8111156136c257600080fd5b6136ce8e828f01613413565b945094505060a08c013567ffffffffffffffff8111156136ed57600080fd5b6136f98e828f01613413565b92509250509295989b509295989b9093969950565b600061371a838361398a565b905092915050565b600061372e8383613a76565b905092915050565b61373f81613ff5565b82525050565b61374e81613fad565b82525050565b61375d81613f9b565b82525050565b600061376e82613e92565b6137788185613ecd565b93508360208202850161378a85613e72565b8060005b858110156137c657848403895281516137a7858261370e565b94506137b283613eb3565b925060208a0199505060018101905061378e565b50829750879550505050505092915050565b60006137e382613e9d565b6137ed8185613ede565b9350836020820285016137ff85613e82565b8060005b8581101561383b578484038952815161381c8582613722565b945061382783613ec0565b925060208a01995050600181019050613803565b50829750879550505050505092915050565b61385681613fbf565b82525050565b600061386782613ea8565b6138718185613eef565b935061388181856020860161402b565b61388a81614137565b840191505092915050565b60006138a2602a83613f00565b91506138ad82614148565b604082019050919050565b60006138c5602183613f00565b91506138d082614197565b604082019050919050565b60006138e8604383613f00565b91506138f3826141e6565b606082019050919050565b600061390b601683613f00565b91506139168261425b565b602082019050919050565b600061392e601783613f00565b915061393982614284565b602082019050919050565b6000613951602e83613f00565b915061395c826142ad565b604082019050919050565b6000613974601f83613f00565b915061397f826142fc565b602082019050919050565b600060a0830160008301516139a26000860182613c8c565b5060208301516139b56020860182613754565b50604083015184820360408601526139cd828261385c565b91505060608301516139e26060860182613c8c565b5060808301516139f56080860182613c8c565b508091505092915050565b600060a083016000830151613a186000860182613c8c565b506020830151613a2b6020860182613754565b5060408301518482036040860152613a43828261385c565b9150506060830151613a586060860182613c8c565b506080830151613a6b6080860182613c8c565b508091505092915050565b600061016083016000830151613a8f6000860182613c8c565b506020830151613aa26020860182613745565b506040830151613ab56040860182613c8c565b506060830151613ac86060860182613c8c565b506080830151613adb6080860182613c8c565b5060a0830151613aee60a086018261384d565b5060c083015184820360c0860152613b06828261385c565b91505060e083015184820360e0860152613b20828261385c565b915050610100830151848203610100860152613b3c828261385c565b915050610120830151848203610120860152613b58828261385c565b915050610140830151848203610140860152613b74828261385c565b9150508091505092915050565b600061016083016000830151613b9a6000860182613c8c565b506020830151613bad6020860182613745565b506040830151613bc06040860182613c8c565b506060830151613bd36060860182613c8c565b506080830151613be66080860182613c8c565b5060a0830151613bf960a086018261384d565b5060c083015184820360c0860152613c11828261385c565b91505060e083015184820360e0860152613c2b828261385c565b915050610100830151848203610100860152613c47828261385c565b915050610120830151848203610120860152613c63828261385c565b915050610140830151848203610140860152613c7f828261385c565b9150508091505092915050565b613c9581613feb565b82525050565b613ca481613feb565b82525050565b6000604082019050613cbf6000830185613736565b613ccc6020830184613c9b565b9392505050565b6000606082019050613ce86000830186613736565b613cf56020830185613c9b565b613d026040830184613c9b565b949350505050565b60006020820190508181036000830152613d248184613763565b905092915050565b60006020820190508181036000830152613d4681846137d8565b905092915050565b60006020820190508181036000830152613d6781613895565b9050919050565b60006020820190508181036000830152613d87816138b8565b9050919050565b60006020820190508181036000830152613da7816138db565b9050919050565b60006020820190508181036000830152613dc7816138fe565b9050919050565b60006020820190508181036000830152613de781613921565b9050919050565b60006020820190508181036000830152613e0781613944565b9050919050565b60006020820190508181036000830152613e2781613967565b9050919050565b60006020820190508181036000830152613e488184613a00565b905092915050565b60006020820190508181036000830152613e6a8184613b81565b905092915050565b6000819050602082019050919050565b6000819050602082019050919050565b600081519050919050565b600081519050919050565b600081519050919050565b6000602082019050919050565b6000602082019050919050565b600082825260208201905092915050565b600082825260208201905092915050565b600082825260208201905092915050565b600082825260208201905092915050565b6000613f1c82613feb565b9150613f2783613feb565b9250827fffffffffffffffffffffffffffffffffffffffffffffffffffffffffffffffff03821115613f5c57613f5b6140d9565b5b828201905092915050565b6000613f7282613feb565b9150613f7d83613feb565b925082821015613f9057613f8f6140d9565b5b828203905092915050565b6000613fa682613fcb565b9050919050565b6000613fb882613fcb565b9050919050565b60008115159050919050565b600073ffffffffffffffffffffffffffffffffffffffff82169050919050565b6000819050919050565b600061400082614007565b9050919050565b600061401282614019565b9050919050565b600061402482613fcb565b9050919050565b60005b8381101561404957808201518184015260208101905061402e565b83811115614058576000848401525b50505050565b6000600282049050600182168061407657607f821691505b6020821081141561408a57614089614108565b5b50919050565b600061409b82613feb565b91507fffffffffffffffffffffffffffffffffffffffffffffffffffffffffffffffff8214156140ce576140cd6140d9565b5b600182019050919050565b7f4e487b7100000000000000000000000000000000000000000000000000000000600052601160045260246000fd5b7f4e487b7100000000000000000000000000000000000000000000000000000000600052602260045260246000fd5b6000601f19601f8301169050919050565b7f546865207265717565737465642066756e6473206d757374206265206174206c60008201527f6561737420312077656900000000000000000000000000000000000000000000602082015250565b7f436f6d6d656e74206964656e7469666965722063616e6e6f74206265207a657260008201527f6f00000000000000000000000000000000000000000000000000000000000000602082015250565b7f506c6561736520646f6e6174652061206d696e696d756d206f6620312077656960008201527f20696e206f7264657220746f20636f6d706c65746520746865206f706572617460208201527f696f6e0000000000000000000000000000000000000000000000000000000000604082015250565b7f4974656d20696420646f6573206e6f7420657869737400000000000000000000600082015250565b7f57726f6e6720706172656e74206964656e746966696572000000000000000000600082015250565b7f596f752063616e6e6f7420646f6e61746520746f20796f7572206f776e20667560008201527f6e64696e672063616d706169676e000000000000000000000000000000000000602082015250565b7f5265656e7472616e637947756172643a207265656e7472616e742063616c6c00600082015250565b61432e81613f9b565b811461433957600080fd5b50565b61434581613feb565b811461435057600080fd5b5056fea2646970667358221220a95581c668e1b1569da6868fe1bd71eec428d7bb85b7e61bf3062fd9e0fe9b7e64736f6c63430008040033",
  "linkReferences": {},
  "deployedLinkReferences": {}
}